{
	"test.sol": {
		"TEST": {
			"abi": [
				{
					"inputs": [],
					"name": "getClassLength",
					"outputs": [
						{
							"internalType": "uint256",
							"name": "",
							"type": "uint256"
						}
					],
					"stateMutability": "view",
					"type": "function"
				},
				{
					"inputs": [
						{
							"internalType": "uint256",
							"name": "_student",
							"type": "uint256"
						}
					],
					"name": "getScoreOfStudent",
					"outputs": [
						{
							"internalType": "uint256",
							"name": "",
							"type": "uint256"
						}
					],
					"stateMutability": "view",
					"type": "function"
				},
				{
					"inputs": [
						{
							"internalType": "uint256",
							"name": "_n",
							"type": "uint256"
						}
					],
					"name": "getStudent",
					"outputs": [
						{
							"components": [
								{
									"internalType": "string",
									"name": "name",
									"type": "string"
								},
								{
									"internalType": "uint256",
									"name": "number",
									"type": "uint256"
								},
								{
									"internalType": "uint256",
									"name": "score",
									"type": "uint256"
								},
								{
									"internalType": "string",
									"name": "grade",
									"type": "string"
								}
							],
							"internalType": "struct TEST.student",
							"name": "",
							"type": "tuple"
						}
					],
					"stateMutability": "view",
					"type": "function"
				},
				{
					"inputs": [
						{
							"internalType": "string",
							"name": "_name",
							"type": "string"
						},
						{
							"internalType": "uint256",
							"name": "_number",
							"type": "uint256"
						},
						{
							"internalType": "uint256",
							"name": "_score",
							"type": "uint256"
						},
						{
							"internalType": "string",
							"name": "_grade",
							"type": "string"
						}
					],
					"name": "pushStudent",
					"outputs": [],
					"stateMutability": "nonpayable",
					"type": "function"
				},
				{
					"inputs": [
						{
							"components": [
								{
									"internalType": "string",
									"name": "name",
									"type": "string"
								},
								{
									"internalType": "uint256",
									"name": "number",
									"type": "uint256"
								},
								{
									"internalType": "uint256",
									"name": "score",
									"type": "uint256"
								},
								{
									"internalType": "string",
									"name": "grade",
									"type": "string"
								}
							],
							"internalType": "struct TEST.student",
							"name": "_student",
							"type": "tuple"
						}
					],
					"name": "pushStudent2",
					"outputs": [],
					"stateMutability": "nonpayable",
					"type": "function"
				}
			],
			"devdoc": {
				"kind": "dev",
				"methods": {},
				"version": 1
			},
			"evm": {
				"assembly": "    /* \"test.sol\":58:806  contract TEST {... */\n  mstore(0x40, 0x80)\n  callvalue\n  dup1\n  iszero\n  tag_1\n  jumpi\n  0x00\n  dup1\n  revert\ntag_1:\n  pop\n  dataSize(sub_0)\n  dup1\n  dataOffset(sub_0)\n  0x00\n  codecopy\n  0x00\n  return\nstop\n\nsub_0: assembly {\n        /* \"test.sol\":58:806  contract TEST {... */\n      mstore(0x40, 0x80)\n      callvalue\n      dup1\n      iszero\n      tag_1\n      jumpi\n      0x00\n      dup1\n      revert\n    tag_1:\n      pop\n      jumpi(tag_2, lt(calldatasize, 0x04))\n      shr(0xe0, calldataload(0x00))\n      dup1\n      0x32ca2f40\n      eq\n      tag_3\n      jumpi\n      dup1\n      0x642f9163\n      eq\n      tag_4\n      jumpi\n      dup1\n      0x9c380af7\n      eq\n      tag_5\n      jumpi\n      dup1\n      0x9e7d93c6\n      eq\n      tag_6\n      jumpi\n      dup1\n      0xbfcc6da8\n      eq\n      tag_7\n      jumpi\n    tag_2:\n      0x00\n      dup1\n      revert\n        /* \"test.sol\":212:378  function pushStudent(string memory _name, uint _number, uint _score, string memory _grade) public {... */\n    tag_3:\n      tag_8\n      0x04\n      dup1\n      calldatasize\n      sub\n      dup2\n      add\n      swap1\n      tag_9\n      swap2\n      swap1\n      tag_10\n      jump\t// in\n    tag_9:\n      tag_11\n      jump\t// in\n    tag_8:\n      stop\n        /* \"test.sol\":481:583  function getStudent(uint _n) public view returns(student memory) {... */\n    tag_4:\n      tag_12\n      0x04\n      dup1\n      calldatasize\n      sub\n      dup2\n      add\n      swap1\n      tag_13\n      swap2\n      swap1\n      tag_14\n      jump\t// in\n    tag_13:\n      tag_15\n      jump\t// in\n    tag_12:\n      mload(0x40)\n      tag_16\n      swap2\n      swap1\n      tag_17\n      jump\t// in\n    tag_16:\n      mload(0x40)\n      dup1\n      swap2\n      sub\n      swap1\n      return\n        /* \"test.sol\":384:475  function pushStudent2(student memory _student) public {... */\n    tag_5:\n      tag_18\n      0x04\n      dup1\n      calldatasize\n      sub\n      dup2\n      add\n      swap1\n      tag_19\n      swap2\n      swap1\n      tag_20\n      jump\t// in\n    tag_19:\n      tag_21\n      jump\t// in\n    tag_18:\n      stop\n        /* \"test.sol\":589:707  function getScoreOfStudent(uint _student) public view returns(uint) {... */\n    tag_6:\n      tag_22\n      0x04\n      dup1\n      calldatasize\n      sub\n      dup2\n      add\n      swap1\n      tag_23\n      swap2\n      swap1\n      tag_14\n      jump\t// in\n    tag_23:\n      tag_24\n      jump\t// in\n    tag_22:\n      mload(0x40)\n      tag_25\n      swap2\n      swap1\n      tag_26\n      jump\t// in\n    tag_25:\n      mload(0x40)\n      dup1\n      swap2\n      sub\n      swap1\n      return\n        /* \"test.sol\":713:802  function getClassLength() public view returns(uint) {... */\n    tag_7:\n      tag_27\n      tag_28\n      jump\t// in\n    tag_27:\n      mload(0x40)\n      tag_29\n      swap2\n      swap1\n      tag_26\n      jump\t// in\n    tag_29:\n      mload(0x40)\n      dup1\n      swap2\n      sub\n      swap1\n      return\n        /* \"test.sol\":212:378  function pushStudent(string memory _name, uint _number, uint _score, string memory _grade) public {... */\n    tag_11:\n        /* \"test.sol\":320:325  class */\n      0x00\n        /* \"test.sol\":331:370  student(_name, _number, _score, _grade) */\n      mload(0x40)\n      dup1\n      0x80\n      add\n      0x40\n      mstore\n      dup1\n        /* \"test.sol\":339:344  _name */\n      dup7\n        /* \"test.sol\":331:370  student(_name, _number, _score, _grade) */\n      dup2\n      mstore\n      0x20\n      add\n        /* \"test.sol\":346:353  _number */\n      dup6\n        /* \"test.sol\":331:370  student(_name, _number, _score, _grade) */\n      dup2\n      mstore\n      0x20\n      add\n        /* \"test.sol\":355:361  _score */\n      dup5\n        /* \"test.sol\":331:370  student(_name, _number, _score, _grade) */\n      dup2\n      mstore\n      0x20\n      add\n        /* \"test.sol\":363:369  _grade */\n      dup4\n        /* \"test.sol\":331:370  student(_name, _number, _score, _grade) */\n      dup2\n      mstore\n      pop\n        /* \"test.sol\":320:371  class.push(student(_name, _number, _score, _grade)) */\n      swap1\n      dup1\n      0x01\n      dup2\n      sload\n      add\n      dup1\n      dup3\n      sstore\n      dup1\n      swap2\n      pop\n      pop\n      0x01\n      swap1\n      sub\n      swap1\n      0x00\n      mstore\n      keccak256(0x00, 0x20)\n      swap1\n      0x04\n      mul\n      add\n      0x00\n      swap1\n      swap2\n      swap1\n      swap2\n      swap1\n      swap2\n      pop\n      0x00\n      dup3\n      add\n      mload\n      dup2\n      0x00\n      add\n      swap1\n      dup2\n      tag_32\n      swap2\n      swap1\n      tag_33\n      jump\t// in\n    tag_32:\n      pop\n      0x20\n      dup3\n      add\n      mload\n      dup2\n      0x01\n      add\n      sstore\n      0x40\n      dup3\n      add\n      mload\n      dup2\n      0x02\n      add\n      sstore\n      0x60\n      dup3\n      add\n      mload\n      dup2\n      0x03\n      add\n      swap1\n      dup2\n      tag_34\n      swap2\n      swap1\n      tag_33\n      jump\t// in\n    tag_34:\n      pop\n      pop\n      pop\n        /* \"test.sol\":212:378  function pushStudent(string memory _name, uint _number, uint _score, string memory _grade) public {... */\n      pop\n      pop\n      pop\n      pop\n      jump\t// out\n        /* \"test.sol\":481:583  function getStudent(uint _n) public view returns(student memory) {... */\n    tag_15:\n        /* \"test.sol\":530:544  student memory */\n      tag_35\n      tag_36\n      jump\t// in\n    tag_35:\n        /* \"test.sol\":563:568  class */\n      0x00\n        /* \"test.sol\":573:574  1 */\n      0x01\n        /* \"test.sol\":569:571  _n */\n      dup4\n        /* \"test.sol\":569:574  _n -1 */\n      tag_38\n      swap2\n      swap1\n      tag_39\n      jump\t// in\n    tag_38:\n        /* \"test.sol\":563:575  class[_n -1] */\n      dup2\n      sload\n      dup2\n      lt\n      tag_40\n      jumpi\n      tag_41\n      tag_42\n      jump\t// in\n    tag_41:\n    tag_40:\n      swap1\n      0x00\n      mstore\n      keccak256(0x00, 0x20)\n      swap1\n      0x04\n      mul\n      add\n        /* \"test.sol\":556:576  return(class[_n -1]) */\n      mload(0x40)\n      dup1\n      0x80\n      add\n      0x40\n      mstore\n      swap1\n      dup2\n      0x00\n      dup3\n      add\n      dup1\n      sload\n      tag_44\n      swap1\n      tag_45\n      jump\t// in\n    tag_44:\n      dup1\n      0x1f\n      add\n      0x20\n      dup1\n      swap2\n      div\n      mul\n      0x20\n      add\n      mload(0x40)\n      swap1\n      dup2\n      add\n      0x40\n      mstore\n      dup1\n      swap3\n      swap2\n      swap1\n      dup2\n      dup2\n      mstore\n      0x20\n      add\n      dup3\n      dup1\n      sload\n      tag_46\n      swap1\n      tag_45\n      jump\t// in\n    tag_46:\n      dup1\n      iszero\n      tag_47\n      jumpi\n      dup1\n      0x1f\n      lt\n      tag_48\n      jumpi\n      0x0100\n      dup1\n      dup4\n      sload\n      div\n      mul\n      dup4\n      mstore\n      swap2\n      0x20\n      add\n      swap2\n      jump(tag_47)\n    tag_48:\n      dup3\n      add\n      swap2\n      swap1\n      0x00\n      mstore\n      keccak256(0x00, 0x20)\n      swap1\n    tag_49:\n      dup2\n      sload\n      dup2\n      mstore\n      swap1\n      0x01\n      add\n      swap1\n      0x20\n      add\n      dup1\n      dup4\n      gt\n      tag_49\n      jumpi\n      dup3\n      swap1\n      sub\n      0x1f\n      and\n      dup3\n      add\n      swap2\n    tag_47:\n      pop\n      pop\n      pop\n      pop\n      pop\n      dup2\n      mstore\n      0x20\n      add\n      0x01\n      dup3\n      add\n      sload\n      dup2\n      mstore\n      0x20\n      add\n      0x02\n      dup3\n      add\n      sload\n      dup2\n      mstore\n      0x20\n      add\n      0x03\n      dup3\n      add\n      dup1\n      sload\n      tag_50\n      swap1\n      tag_45\n      jump\t// in\n    tag_50:\n      dup1\n      0x1f\n      add\n      0x20\n      dup1\n      swap2\n      div\n      mul\n      0x20\n      add\n      mload(0x40)\n      swap1\n      dup2\n      add\n      0x40\n      mstore\n      dup1\n      swap3\n      swap2\n      swap1\n      dup2\n      dup2\n      mstore\n      0x20\n      add\n      dup3\n      dup1\n      sload\n      tag_51\n      swap1\n      tag_45\n      jump\t// in\n    tag_51:\n      dup1\n      iszero\n      tag_52\n      jumpi\n      dup1\n      0x1f\n      lt\n      tag_53\n      jumpi\n      0x0100\n      dup1\n      dup4\n      sload\n      div\n      mul\n      dup4\n      mstore\n      swap2\n      0x20\n      add\n      swap2\n      jump(tag_52)\n    tag_53:\n      dup3\n      add\n      swap2\n      swap1\n      0x00\n      mstore\n      keccak256(0x00, 0x20)\n      swap1\n    tag_54:\n      dup2\n      sload\n      dup2\n      mstore\n      swap1\n      0x01\n      add\n      swap1\n      0x20\n      add\n      dup1\n      dup4\n      gt\n      tag_54\n      jumpi\n      dup3\n      swap1\n      sub\n      0x1f\n      and\n      dup3\n      add\n      swap2\n    tag_52:\n      pop\n      pop\n      pop\n      pop\n      pop\n      dup2\n      mstore\n      pop\n      pop\n      swap1\n      pop\n        /* \"test.sol\":481:583  function getStudent(uint _n) public view returns(student memory) {... */\n      swap2\n      swap1\n      pop\n      jump\t// out\n        /* \"test.sol\":384:475  function pushStudent2(student memory _student) public {... */\n    tag_21:\n        /* \"test.sol\":448:453  class */\n      0x00\n        /* \"test.sol\":459:467  _student */\n      dup2\n        /* \"test.sol\":448:468  class.push(_student) */\n      swap1\n      dup1\n      0x01\n      dup2\n      sload\n      add\n      dup1\n      dup3\n      sstore\n      dup1\n      swap2\n      pop\n      pop\n      0x01\n      swap1\n      sub\n      swap1\n      0x00\n      mstore\n      keccak256(0x00, 0x20)\n      swap1\n      0x04\n      mul\n      add\n      0x00\n      swap1\n      swap2\n      swap1\n      swap2\n      swap1\n      swap2\n      pop\n      0x00\n      dup3\n      add\n      mload\n      dup2\n      0x00\n      add\n      swap1\n      dup2\n      tag_57\n      swap2\n      swap1\n      tag_33\n      jump\t// in\n    tag_57:\n      pop\n      0x20\n      dup3\n      add\n      mload\n      dup2\n      0x01\n      add\n      sstore\n      0x40\n      dup3\n      add\n      mload\n      dup2\n      0x02\n      add\n      sstore\n      0x60\n      dup3\n      add\n      mload\n      dup2\n      0x03\n      add\n      swap1\n      dup2\n      tag_58\n      swap2\n      swap1\n      tag_33\n      jump\t// in\n    tag_58:\n      pop\n      pop\n      pop\n        /* \"test.sol\":384:475  function pushStudent2(student memory _student) public {... */\n      pop\n      jump\t// out\n        /* \"test.sol\":589:707  function getScoreOfStudent(uint _student) public view returns(uint) {... */\n    tag_24:\n        /* \"test.sol\":651:655  uint */\n      0x00\n        /* \"test.sol\":674:679  class */\n      dup1\n        /* \"test.sol\":691:692  1 */\n      0x01\n        /* \"test.sol\":680:688  _student */\n      dup4\n        /* \"test.sol\":680:692  _student - 1 */\n      tag_60\n      swap2\n      swap1\n      tag_39\n      jump\t// in\n    tag_60:\n        /* \"test.sol\":674:693  class[_student - 1] */\n      dup2\n      sload\n      dup2\n      lt\n      tag_61\n      jumpi\n      tag_62\n      tag_42\n      jump\t// in\n    tag_62:\n    tag_61:\n      swap1\n      0x00\n      mstore\n      keccak256(0x00, 0x20)\n      swap1\n      0x04\n      mul\n      add\n        /* \"test.sol\":674:699  class[_student - 1].score */\n      0x02\n      add\n      sload\n        /* \"test.sol\":667:700  return(class[_student - 1].score) */\n      swap1\n      pop\n        /* \"test.sol\":589:707  function getScoreOfStudent(uint _student) public view returns(uint) {... */\n      swap2\n      swap1\n      pop\n      jump\t// out\n        /* \"test.sol\":713:802  function getClassLength() public view returns(uint) {... */\n    tag_28:\n        /* \"test.sol\":759:763  uint */\n      0x00\n        /* \"test.sol\":782:787  class */\n      dup1\n        /* \"test.sol\":782:794  class.length */\n      dup1\n      sload\n      swap1\n      pop\n        /* \"test.sol\":775:795  return(class.length) */\n      swap1\n      pop\n        /* \"test.sol\":713:802  function getClassLength() public view returns(uint) {... */\n      swap1\n      jump\t// out\n    tag_36:\n      mload(0x40)\n      dup1\n      0x80\n      add\n      0x40\n      mstore\n      dup1\n      0x60\n      dup2\n      mstore\n      0x20\n      add\n      0x00\n      dup2\n      mstore\n      0x20\n      add\n      0x00\n      dup2\n      mstore\n      0x20\n      add\n      0x60\n      dup2\n      mstore\n      pop\n      swap1\n      jump\t// out\n        /* \"#utility.yul\":7:82   */\n    tag_65:\n        /* \"#utility.yul\":40:46   */\n      0x00\n        /* \"#utility.yul\":73:75   */\n      0x40\n        /* \"#utility.yul\":67:76   */\n      mload\n        /* \"#utility.yul\":57:76   */\n      swap1\n      pop\n        /* \"#utility.yul\":7:82   */\n      swap1\n      jump\t// out\n        /* \"#utility.yul\":88:205   */\n    tag_66:\n        /* \"#utility.yul\":197:198   */\n      0x00\n        /* \"#utility.yul\":194:195   */\n      dup1\n        /* \"#utility.yul\":187:199   */\n      revert\n        /* \"#utility.yul\":211:328   */\n    tag_67:\n        /* \"#utility.yul\":320:321   */\n      0x00\n        /* \"#utility.yul\":317:318   */\n      dup1\n        /* \"#utility.yul\":310:322   */\n      revert\n        /* \"#utility.yul\":334:451   */\n    tag_68:\n        /* \"#utility.yul\":443:444   */\n      0x00\n        /* \"#utility.yul\":440:441   */\n      dup1\n        /* \"#utility.yul\":433:445   */\n      revert\n        /* \"#utility.yul\":457:574   */\n    tag_69:\n        /* \"#utility.yul\":566:567   */\n      0x00\n        /* \"#utility.yul\":563:564   */\n      dup1\n        /* \"#utility.yul\":556:568   */\n      revert\n        /* \"#utility.yul\":580:682   */\n    tag_70:\n        /* \"#utility.yul\":621:627   */\n      0x00\n        /* \"#utility.yul\":672:674   */\n      0x1f\n        /* \"#utility.yul\":668:675   */\n      not\n        /* \"#utility.yul\":663:665   */\n      0x1f\n        /* \"#utility.yul\":656:661   */\n      dup4\n        /* \"#utility.yul\":652:666   */\n      add\n        /* \"#utility.yul\":648:676   */\n      and\n        /* \"#utility.yul\":638:676   */\n      swap1\n      pop\n        /* \"#utility.yul\":580:682   */\n      swap2\n      swap1\n      pop\n      jump\t// out\n        /* \"#utility.yul\":688:868   */\n    tag_71:\n        /* \"#utility.yul\":736:813   */\n      0x4e487b7100000000000000000000000000000000000000000000000000000000\n        /* \"#utility.yul\":733:734   */\n      0x00\n        /* \"#utility.yul\":726:814   */\n      mstore\n        /* \"#utility.yul\":833:837   */\n      0x41\n        /* \"#utility.yul\":830:831   */\n      0x04\n        /* \"#utility.yul\":823:838   */\n      mstore\n        /* \"#utility.yul\":857:861   */\n      0x24\n        /* \"#utility.yul\":854:855   */\n      0x00\n        /* \"#utility.yul\":847:862   */\n      revert\n        /* \"#utility.yul\":874:1155   */\n    tag_72:\n        /* \"#utility.yul\":957:984   */\n      tag_117\n        /* \"#utility.yul\":979:983   */\n      dup3\n        /* \"#utility.yul\":957:984   */\n      tag_70\n      jump\t// in\n    tag_117:\n        /* \"#utility.yul\":949:955   */\n      dup2\n        /* \"#utility.yul\":945:985   */\n      add\n        /* \"#utility.yul\":1087:1093   */\n      dup2\n        /* \"#utility.yul\":1075:1085   */\n      dup2\n        /* \"#utility.yul\":1072:1094   */\n      lt\n        /* \"#utility.yul\":1051:1069   */\n      0xffffffffffffffff\n        /* \"#utility.yul\":1039:1049   */\n      dup3\n        /* \"#utility.yul\":1036:1070   */\n      gt\n        /* \"#utility.yul\":1033:1095   */\n      or\n        /* \"#utility.yul\":1030:1118   */\n      iszero\n      tag_118\n      jumpi\n        /* \"#utility.yul\":1098:1116   */\n      tag_119\n      tag_71\n      jump\t// in\n    tag_119:\n        /* \"#utility.yul\":1030:1118   */\n    tag_118:\n        /* \"#utility.yul\":1138:1148   */\n      dup1\n        /* \"#utility.yul\":1134:1136   */\n      0x40\n        /* \"#utility.yul\":1127:1149   */\n      mstore\n        /* \"#utility.yul\":917:1155   */\n      pop\n        /* \"#utility.yul\":874:1155   */\n      pop\n      pop\n      jump\t// out\n        /* \"#utility.yul\":1161:1290   */\n    tag_73:\n        /* \"#utility.yul\":1195:1201   */\n      0x00\n        /* \"#utility.yul\":1222:1242   */\n      tag_121\n      tag_65\n      jump\t// in\n    tag_121:\n        /* \"#utility.yul\":1212:1242   */\n      swap1\n      pop\n        /* \"#utility.yul\":1251:1284   */\n      tag_122\n        /* \"#utility.yul\":1279:1283   */\n      dup3\n        /* \"#utility.yul\":1271:1277   */\n      dup3\n        /* \"#utility.yul\":1251:1284   */\n      tag_72\n      jump\t// in\n    tag_122:\n        /* \"#utility.yul\":1161:1290   */\n      swap2\n      swap1\n      pop\n      jump\t// out\n        /* \"#utility.yul\":1296:1604   */\n    tag_74:\n        /* \"#utility.yul\":1358:1362   */\n      0x00\n        /* \"#utility.yul\":1448:1466   */\n      0xffffffffffffffff\n        /* \"#utility.yul\":1440:1446   */\n      dup3\n        /* \"#utility.yul\":1437:1467   */\n      gt\n        /* \"#utility.yul\":1434:1490   */\n      iszero\n      tag_124\n      jumpi\n        /* \"#utility.yul\":1470:1488   */\n      tag_125\n      tag_71\n      jump\t// in\n    tag_125:\n        /* \"#utility.yul\":1434:1490   */\n    tag_124:\n        /* \"#utility.yul\":1508:1537   */\n      tag_126\n        /* \"#utility.yul\":1530:1536   */\n      dup3\n        /* \"#utility.yul\":1508:1537   */\n      tag_70\n      jump\t// in\n    tag_126:\n        /* \"#utility.yul\":1500:1537   */\n      swap1\n      pop\n        /* \"#utility.yul\":1592:1596   */\n      0x20\n        /* \"#utility.yul\":1586:1590   */\n      dup2\n        /* \"#utility.yul\":1582:1597   */\n      add\n        /* \"#utility.yul\":1574:1597   */\n      swap1\n      pop\n        /* \"#utility.yul\":1296:1604   */\n      swap2\n      swap1\n      pop\n      jump\t// out\n        /* \"#utility.yul\":1610:1756   */\n    tag_75:\n        /* \"#utility.yul\":1707:1713   */\n      dup3\n        /* \"#utility.yul\":1702:1705   */\n      dup2\n        /* \"#utility.yul\":1697:1700   */\n      dup4\n        /* \"#utility.yul\":1684:1714   */\n      calldatacopy\n        /* \"#utility.yul\":1748:1749   */\n      0x00\n        /* \"#utility.yul\":1739:1745   */\n      dup4\n        /* \"#utility.yul\":1734:1737   */\n      dup4\n        /* \"#utility.yul\":1730:1746   */\n      add\n        /* \"#utility.yul\":1723:1750   */\n      mstore\n        /* \"#utility.yul\":1610:1756   */\n      pop\n      pop\n      pop\n      jump\t// out\n        /* \"#utility.yul\":1762:2187   */\n    tag_76:\n        /* \"#utility.yul\":1840:1845   */\n      0x00\n        /* \"#utility.yul\":1865:1931   */\n      tag_129\n        /* \"#utility.yul\":1881:1930   */\n      tag_130\n        /* \"#utility.yul\":1923:1929   */\n      dup5\n        /* \"#utility.yul\":1881:1930   */\n      tag_74\n      jump\t// in\n    tag_130:\n        /* \"#utility.yul\":1865:1931   */\n      tag_73\n      jump\t// in\n    tag_129:\n        /* \"#utility.yul\":1856:1931   */\n      swap1\n      pop\n        /* \"#utility.yul\":1954:1960   */\n      dup3\n        /* \"#utility.yul\":1947:1952   */\n      dup2\n        /* \"#utility.yul\":1940:1961   */\n      mstore\n        /* \"#utility.yul\":1992:1996   */\n      0x20\n        /* \"#utility.yul\":1985:1990   */\n      dup2\n        /* \"#utility.yul\":1981:1997   */\n      add\n        /* \"#utility.yul\":2030:2033   */\n      dup5\n        /* \"#utility.yul\":2021:2027   */\n      dup5\n        /* \"#utility.yul\":2016:2019   */\n      dup5\n        /* \"#utility.yul\":2012:2028   */\n      add\n        /* \"#utility.yul\":2009:2034   */\n      gt\n        /* \"#utility.yul\":2006:2118   */\n      iszero\n      tag_131\n      jumpi\n        /* \"#utility.yul\":2037:2116   */\n      tag_132\n      tag_69\n      jump\t// in\n    tag_132:\n        /* \"#utility.yul\":2006:2118   */\n    tag_131:\n        /* \"#utility.yul\":2127:2181   */\n      tag_133\n        /* \"#utility.yul\":2174:2180   */\n      dup5\n        /* \"#utility.yul\":2169:2172   */\n      dup3\n        /* \"#utility.yul\":2164:2167   */\n      dup6\n        /* \"#utility.yul\":2127:2181   */\n      tag_75\n      jump\t// in\n    tag_133:\n        /* \"#utility.yul\":1846:2187   */\n      pop\n        /* \"#utility.yul\":1762:2187   */\n      swap4\n      swap3\n      pop\n      pop\n      pop\n      jump\t// out\n        /* \"#utility.yul\":2207:2547   */\n    tag_77:\n        /* \"#utility.yul\":2263:2268   */\n      0x00\n        /* \"#utility.yul\":2312:2315   */\n      dup3\n        /* \"#utility.yul\":2305:2309   */\n      0x1f\n        /* \"#utility.yul\":2297:2303   */\n      dup4\n        /* \"#utility.yul\":2293:2310   */\n      add\n        /* \"#utility.yul\":2289:2316   */\n      slt\n        /* \"#utility.yul\":2279:2401   */\n      tag_135\n      jumpi\n        /* \"#utility.yul\":2320:2399   */\n      tag_136\n      tag_68\n      jump\t// in\n    tag_136:\n        /* \"#utility.yul\":2279:2401   */\n    tag_135:\n        /* \"#utility.yul\":2437:2443   */\n      dup2\n        /* \"#utility.yul\":2424:2444   */\n      calldataload\n        /* \"#utility.yul\":2462:2541   */\n      tag_137\n        /* \"#utility.yul\":2537:2540   */\n      dup5\n        /* \"#utility.yul\":2529:2535   */\n      dup3\n        /* \"#utility.yul\":2522:2526   */\n      0x20\n        /* \"#utility.yul\":2514:2520   */\n      dup7\n        /* \"#utility.yul\":2510:2527   */\n      add\n        /* \"#utility.yul\":2462:2541   */\n      tag_76\n      jump\t// in\n    tag_137:\n        /* \"#utility.yul\":2453:2541   */\n      swap2\n      pop\n        /* \"#utility.yul\":2269:2547   */\n      pop\n        /* \"#utility.yul\":2207:2547   */\n      swap3\n      swap2\n      pop\n      pop\n      jump\t// out\n        /* \"#utility.yul\":2553:2630   */\n    tag_78:\n        /* \"#utility.yul\":2590:2597   */\n      0x00\n        /* \"#utility.yul\":2619:2624   */\n      dup2\n        /* \"#utility.yul\":2608:2624   */\n      swap1\n      pop\n        /* \"#utility.yul\":2553:2630   */\n      swap2\n      swap1\n      pop\n      jump\t// out\n        /* \"#utility.yul\":2636:2758   */\n    tag_79:\n        /* \"#utility.yul\":2709:2733   */\n      tag_140\n        /* \"#utility.yul\":2727:2732   */\n      dup2\n        /* \"#utility.yul\":2709:2733   */\n      tag_78\n      jump\t// in\n    tag_140:\n        /* \"#utility.yul\":2702:2707   */\n      dup2\n        /* \"#utility.yul\":2699:2734   */\n      eq\n        /* \"#utility.yul\":2689:2752   */\n      tag_141\n      jumpi\n        /* \"#utility.yul\":2748:2749   */\n      0x00\n        /* \"#utility.yul\":2745:2746   */\n      dup1\n        /* \"#utility.yul\":2738:2750   */\n      revert\n        /* \"#utility.yul\":2689:2752   */\n    tag_141:\n        /* \"#utility.yul\":2636:2758   */\n      pop\n      jump\t// out\n        /* \"#utility.yul\":2764:2903   */\n    tag_80:\n        /* \"#utility.yul\":2810:2815   */\n      0x00\n        /* \"#utility.yul\":2848:2854   */\n      dup2\n        /* \"#utility.yul\":2835:2855   */\n      calldataload\n        /* \"#utility.yul\":2826:2855   */\n      swap1\n      pop\n        /* \"#utility.yul\":2864:2897   */\n      tag_143\n        /* \"#utility.yul\":2891:2896   */\n      dup2\n        /* \"#utility.yul\":2864:2897   */\n      tag_79\n      jump\t// in\n    tag_143:\n        /* \"#utility.yul\":2764:2903   */\n      swap3\n      swap2\n      pop\n      pop\n      jump\t// out\n        /* \"#utility.yul\":2909:4034   */\n    tag_10:\n        /* \"#utility.yul\":3015:3021   */\n      0x00\n        /* \"#utility.yul\":3023:3029   */\n      dup1\n        /* \"#utility.yul\":3031:3037   */\n      0x00\n        /* \"#utility.yul\":3039:3045   */\n      dup1\n        /* \"#utility.yul\":3088:3091   */\n      0x80\n        /* \"#utility.yul\":3076:3085   */\n      dup6\n        /* \"#utility.yul\":3067:3074   */\n      dup8\n        /* \"#utility.yul\":3063:3086   */\n      sub\n        /* \"#utility.yul\":3059:3092   */\n      slt\n        /* \"#utility.yul\":3056:3176   */\n      iszero\n      tag_145\n      jumpi\n        /* \"#utility.yul\":3095:3174   */\n      tag_146\n      tag_66\n      jump\t// in\n    tag_146:\n        /* \"#utility.yul\":3056:3176   */\n    tag_145:\n        /* \"#utility.yul\":3243:3244   */\n      0x00\n        /* \"#utility.yul\":3232:3241   */\n      dup6\n        /* \"#utility.yul\":3228:3245   */\n      add\n        /* \"#utility.yul\":3215:3246   */\n      calldataload\n        /* \"#utility.yul\":3273:3291   */\n      0xffffffffffffffff\n        /* \"#utility.yul\":3265:3271   */\n      dup2\n        /* \"#utility.yul\":3262:3292   */\n      gt\n        /* \"#utility.yul\":3259:3376   */\n      iszero\n      tag_147\n      jumpi\n        /* \"#utility.yul\":3295:3374   */\n      tag_148\n      tag_67\n      jump\t// in\n    tag_148:\n        /* \"#utility.yul\":3259:3376   */\n    tag_147:\n        /* \"#utility.yul\":3400:3463   */\n      tag_149\n        /* \"#utility.yul\":3455:3462   */\n      dup8\n        /* \"#utility.yul\":3446:3452   */\n      dup3\n        /* \"#utility.yul\":3435:3444   */\n      dup9\n        /* \"#utility.yul\":3431:3453   */\n      add\n        /* \"#utility.yul\":3400:3463   */\n      tag_77\n      jump\t// in\n    tag_149:\n        /* \"#utility.yul\":3390:3463   */\n      swap5\n      pop\n        /* \"#utility.yul\":3186:3473   */\n      pop\n        /* \"#utility.yul\":3512:3514   */\n      0x20\n        /* \"#utility.yul\":3538:3591   */\n      tag_150\n        /* \"#utility.yul\":3583:3590   */\n      dup8\n        /* \"#utility.yul\":3574:3580   */\n      dup3\n        /* \"#utility.yul\":3563:3572   */\n      dup9\n        /* \"#utility.yul\":3559:3581   */\n      add\n        /* \"#utility.yul\":3538:3591   */\n      tag_80\n      jump\t// in\n    tag_150:\n        /* \"#utility.yul\":3528:3591   */\n      swap4\n      pop\n        /* \"#utility.yul\":3483:3601   */\n      pop\n        /* \"#utility.yul\":3640:3642   */\n      0x40\n        /* \"#utility.yul\":3666:3719   */\n      tag_151\n        /* \"#utility.yul\":3711:3718   */\n      dup8\n        /* \"#utility.yul\":3702:3708   */\n      dup3\n        /* \"#utility.yul\":3691:3700   */\n      dup9\n        /* \"#utility.yul\":3687:3709   */\n      add\n        /* \"#utility.yul\":3666:3719   */\n      tag_80\n      jump\t// in\n    tag_151:\n        /* \"#utility.yul\":3656:3719   */\n      swap3\n      pop\n        /* \"#utility.yul\":3611:3729   */\n      pop\n        /* \"#utility.yul\":3796:3798   */\n      0x60\n        /* \"#utility.yul\":3785:3794   */\n      dup6\n        /* \"#utility.yul\":3781:3799   */\n      add\n        /* \"#utility.yul\":3768:3800   */\n      calldataload\n        /* \"#utility.yul\":3827:3845   */\n      0xffffffffffffffff\n        /* \"#utility.yul\":3819:3825   */\n      dup2\n        /* \"#utility.yul\":3816:3846   */\n      gt\n        /* \"#utility.yul\":3813:3930   */\n      iszero\n      tag_152\n      jumpi\n        /* \"#utility.yul\":3849:3928   */\n      tag_153\n      tag_67\n      jump\t// in\n    tag_153:\n        /* \"#utility.yul\":3813:3930   */\n    tag_152:\n        /* \"#utility.yul\":3954:4017   */\n      tag_154\n        /* \"#utility.yul\":4009:4016   */\n      dup8\n        /* \"#utility.yul\":4000:4006   */\n      dup3\n        /* \"#utility.yul\":3989:3998   */\n      dup9\n        /* \"#utility.yul\":3985:4007   */\n      add\n        /* \"#utility.yul\":3954:4017   */\n      tag_77\n      jump\t// in\n    tag_154:\n        /* \"#utility.yul\":3944:4017   */\n      swap2\n      pop\n        /* \"#utility.yul\":3739:4027   */\n      pop\n        /* \"#utility.yul\":2909:4034   */\n      swap3\n      swap6\n      swap2\n      swap5\n      pop\n      swap3\n      pop\n      jump\t// out\n        /* \"#utility.yul\":4040:4369   */\n    tag_14:\n        /* \"#utility.yul\":4099:4105   */\n      0x00\n        /* \"#utility.yul\":4148:4150   */\n      0x20\n        /* \"#utility.yul\":4136:4145   */\n      dup3\n        /* \"#utility.yul\":4127:4134   */\n      dup5\n        /* \"#utility.yul\":4123:4146   */\n      sub\n        /* \"#utility.yul\":4119:4151   */\n      slt\n        /* \"#utility.yul\":4116:4235   */\n      iszero\n      tag_156\n      jumpi\n        /* \"#utility.yul\":4154:4233   */\n      tag_157\n      tag_66\n      jump\t// in\n    tag_157:\n        /* \"#utility.yul\":4116:4235   */\n    tag_156:\n        /* \"#utility.yul\":4274:4275   */\n      0x00\n        /* \"#utility.yul\":4299:4352   */\n      tag_158\n        /* \"#utility.yul\":4344:4351   */\n      dup5\n        /* \"#utility.yul\":4335:4341   */\n      dup3\n        /* \"#utility.yul\":4324:4333   */\n      dup6\n        /* \"#utility.yul\":4320:4342   */\n      add\n        /* \"#utility.yul\":4299:4352   */\n      tag_80\n      jump\t// in\n    tag_158:\n        /* \"#utility.yul\":4289:4352   */\n      swap2\n      pop\n        /* \"#utility.yul\":4245:4362   */\n      pop\n        /* \"#utility.yul\":4040:4369   */\n      swap3\n      swap2\n      pop\n      pop\n      jump\t// out\n        /* \"#utility.yul\":4375:4474   */\n    tag_81:\n        /* \"#utility.yul\":4427:4433   */\n      0x00\n        /* \"#utility.yul\":4461:4466   */\n      dup2\n        /* \"#utility.yul\":4455:4467   */\n      mload\n        /* \"#utility.yul\":4445:4467   */\n      swap1\n      pop\n        /* \"#utility.yul\":4375:4474   */\n      swap2\n      swap1\n      pop\n      jump\t// out\n        /* \"#utility.yul\":4480:4639   */\n    tag_82:\n        /* \"#utility.yul\":4554:4565   */\n      0x00\n        /* \"#utility.yul\":4588:4594   */\n      dup3\n        /* \"#utility.yul\":4583:4586   */\n      dup3\n        /* \"#utility.yul\":4576:4595   */\n      mstore\n        /* \"#utility.yul\":4628:4632   */\n      0x20\n        /* \"#utility.yul\":4623:4626   */\n      dup3\n        /* \"#utility.yul\":4619:4633   */\n      add\n        /* \"#utility.yul\":4604:4633   */\n      swap1\n      pop\n        /* \"#utility.yul\":4480:4639   */\n      swap3\n      swap2\n      pop\n      pop\n      jump\t// out\n        /* \"#utility.yul\":4645:4891   */\n    tag_83:\n        /* \"#utility.yul\":4726:4727   */\n      0x00\n        /* \"#utility.yul\":4736:4849   */\n    tag_162:\n        /* \"#utility.yul\":4750:4756   */\n      dup4\n        /* \"#utility.yul\":4747:4748   */\n      dup2\n        /* \"#utility.yul\":4744:4757   */\n      lt\n        /* \"#utility.yul\":4736:4849   */\n      iszero\n      tag_164\n      jumpi\n        /* \"#utility.yul\":4835:4836   */\n      dup1\n        /* \"#utility.yul\":4830:4833   */\n      dup3\n        /* \"#utility.yul\":4826:4837   */\n      add\n        /* \"#utility.yul\":4820:4838   */\n      mload\n        /* \"#utility.yul\":4816:4817   */\n      dup2\n        /* \"#utility.yul\":4811:4814   */\n      dup5\n        /* \"#utility.yul\":4807:4818   */\n      add\n        /* \"#utility.yul\":4800:4839   */\n      mstore\n        /* \"#utility.yul\":4772:4774   */\n      0x20\n        /* \"#utility.yul\":4769:4770   */\n      dup2\n        /* \"#utility.yul\":4765:4775   */\n      add\n        /* \"#utility.yul\":4760:4775   */\n      swap1\n      pop\n        /* \"#utility.yul\":4736:4849   */\n      jump(tag_162)\n    tag_164:\n        /* \"#utility.yul\":4883:4884   */\n      0x00\n        /* \"#utility.yul\":4874:4880   */\n      dup5\n        /* \"#utility.yul\":4869:4872   */\n      dup5\n        /* \"#utility.yul\":4865:4881   */\n      add\n        /* \"#utility.yul\":4858:4885   */\n      mstore\n        /* \"#utility.yul\":4707:4891   */\n      pop\n        /* \"#utility.yul\":4645:4891   */\n      pop\n      pop\n      pop\n      jump\t// out\n        /* \"#utility.yul\":4897:5254   */\n    tag_84:\n        /* \"#utility.yul\":4975:4978   */\n      0x00\n        /* \"#utility.yul\":5003:5042   */\n      tag_166\n        /* \"#utility.yul\":5036:5041   */\n      dup3\n        /* \"#utility.yul\":5003:5042   */\n      tag_81\n      jump\t// in\n    tag_166:\n        /* \"#utility.yul\":5058:5119   */\n      tag_167\n        /* \"#utility.yul\":5112:5118   */\n      dup2\n        /* \"#utility.yul\":5107:5110   */\n      dup6\n        /* \"#utility.yul\":5058:5119   */\n      tag_82\n      jump\t// in\n    tag_167:\n        /* \"#utility.yul\":5051:5119   */\n      swap4\n      pop\n        /* \"#utility.yul\":5128:5193   */\n      tag_168\n        /* \"#utility.yul\":5186:5192   */\n      dup2\n        /* \"#utility.yul\":5181:5184   */\n      dup6\n        /* \"#utility.yul\":5174:5178   */\n      0x20\n        /* \"#utility.yul\":5167:5172   */\n      dup7\n        /* \"#utility.yul\":5163:5179   */\n      add\n        /* \"#utility.yul\":5128:5193   */\n      tag_83\n      jump\t// in\n    tag_168:\n        /* \"#utility.yul\":5218:5247   */\n      tag_169\n        /* \"#utility.yul\":5240:5246   */\n      dup2\n        /* \"#utility.yul\":5218:5247   */\n      tag_70\n      jump\t// in\n    tag_169:\n        /* \"#utility.yul\":5213:5216   */\n      dup5\n        /* \"#utility.yul\":5209:5248   */\n      add\n        /* \"#utility.yul\":5202:5248   */\n      swap2\n      pop\n        /* \"#utility.yul\":4979:5254   */\n      pop\n        /* \"#utility.yul\":4897:5254   */\n      swap3\n      swap2\n      pop\n      pop\n      jump\t// out\n        /* \"#utility.yul\":5260:5368   */\n    tag_85:\n        /* \"#utility.yul\":5337:5361   */\n      tag_171\n        /* \"#utility.yul\":5355:5360   */\n      dup2\n        /* \"#utility.yul\":5337:5361   */\n      tag_78\n      jump\t// in\n    tag_171:\n        /* \"#utility.yul\":5332:5335   */\n      dup3\n        /* \"#utility.yul\":5325:5362   */\n      mstore\n        /* \"#utility.yul\":5260:5368   */\n      pop\n      pop\n      jump\t// out\n        /* \"#utility.yul\":5424:6449   */\n    tag_86:\n        /* \"#utility.yul\":5539:5542   */\n      0x00\n        /* \"#utility.yul\":5575:5579   */\n      0x80\n        /* \"#utility.yul\":5570:5573   */\n      dup4\n        /* \"#utility.yul\":5566:5580   */\n      add\n        /* \"#utility.yul\":5662:5666   */\n      0x00\n        /* \"#utility.yul\":5655:5660   */\n      dup4\n        /* \"#utility.yul\":5651:5667   */\n      add\n        /* \"#utility.yul\":5645:5668   */\n      mload\n        /* \"#utility.yul\":5715:5718   */\n      dup5\n        /* \"#utility.yul\":5709:5713   */\n      dup3\n        /* \"#utility.yul\":5705:5719   */\n      sub\n        /* \"#utility.yul\":5698:5702   */\n      0x00\n        /* \"#utility.yul\":5693:5696   */\n      dup7\n        /* \"#utility.yul\":5689:5703   */\n      add\n        /* \"#utility.yul\":5682:5720   */\n      mstore\n        /* \"#utility.yul\":5741:5814   */\n      tag_173\n        /* \"#utility.yul\":5809:5813   */\n      dup3\n        /* \"#utility.yul\":5795:5807   */\n      dup3\n        /* \"#utility.yul\":5741:5814   */\n      tag_84\n      jump\t// in\n    tag_173:\n        /* \"#utility.yul\":5733:5814   */\n      swap2\n      pop\n        /* \"#utility.yul\":5590:5825   */\n      pop\n        /* \"#utility.yul\":5909:5913   */\n      0x20\n        /* \"#utility.yul\":5902:5907   */\n      dup4\n        /* \"#utility.yul\":5898:5914   */\n      add\n        /* \"#utility.yul\":5892:5915   */\n      mload\n        /* \"#utility.yul\":5928:5991   */\n      tag_174\n        /* \"#utility.yul\":5985:5989   */\n      0x20\n        /* \"#utility.yul\":5980:5983   */\n      dup7\n        /* \"#utility.yul\":5976:5990   */\n      add\n        /* \"#utility.yul\":5962:5974   */\n      dup3\n        /* \"#utility.yul\":5928:5991   */\n      tag_85\n      jump\t// in\n    tag_174:\n        /* \"#utility.yul\":5835:6001   */\n      pop\n        /* \"#utility.yul\":6084:6088   */\n      0x40\n        /* \"#utility.yul\":6077:6082   */\n      dup4\n        /* \"#utility.yul\":6073:6089   */\n      add\n        /* \"#utility.yul\":6067:6090   */\n      mload\n        /* \"#utility.yul\":6103:6166   */\n      tag_175\n        /* \"#utility.yul\":6160:6164   */\n      0x40\n        /* \"#utility.yul\":6155:6158   */\n      dup7\n        /* \"#utility.yul\":6151:6165   */\n      add\n        /* \"#utility.yul\":6137:6149   */\n      dup3\n        /* \"#utility.yul\":6103:6166   */\n      tag_85\n      jump\t// in\n    tag_175:\n        /* \"#utility.yul\":6011:6176   */\n      pop\n        /* \"#utility.yul\":6259:6263   */\n      0x60\n        /* \"#utility.yul\":6252:6257   */\n      dup4\n        /* \"#utility.yul\":6248:6264   */\n      add\n        /* \"#utility.yul\":6242:6265   */\n      mload\n        /* \"#utility.yul\":6312:6315   */\n      dup5\n        /* \"#utility.yul\":6306:6310   */\n      dup3\n        /* \"#utility.yul\":6302:6316   */\n      sub\n        /* \"#utility.yul\":6295:6299   */\n      0x60\n        /* \"#utility.yul\":6290:6293   */\n      dup7\n        /* \"#utility.yul\":6286:6300   */\n      add\n        /* \"#utility.yul\":6279:6317   */\n      mstore\n        /* \"#utility.yul\":6338:6411   */\n      tag_176\n        /* \"#utility.yul\":6406:6410   */\n      dup3\n        /* \"#utility.yul\":6392:6404   */\n      dup3\n        /* \"#utility.yul\":6338:6411   */\n      tag_84\n      jump\t// in\n    tag_176:\n        /* \"#utility.yul\":6330:6411   */\n      swap2\n      pop\n        /* \"#utility.yul\":6186:6422   */\n      pop\n        /* \"#utility.yul\":6439:6443   */\n      dup1\n        /* \"#utility.yul\":6432:6443   */\n      swap2\n      pop\n        /* \"#utility.yul\":5544:6449   */\n      pop\n        /* \"#utility.yul\":5424:6449   */\n      swap3\n      swap2\n      pop\n      pop\n      jump\t// out\n        /* \"#utility.yul\":6455:6820   */\n    tag_17:\n        /* \"#utility.yul\":6594:6598   */\n      0x00\n        /* \"#utility.yul\":6632:6634   */\n      0x20\n        /* \"#utility.yul\":6621:6630   */\n      dup3\n        /* \"#utility.yul\":6617:6635   */\n      add\n        /* \"#utility.yul\":6609:6635   */\n      swap1\n      pop\n        /* \"#utility.yul\":6681:6690   */\n      dup2\n        /* \"#utility.yul\":6675:6679   */\n      dup2\n        /* \"#utility.yul\":6671:6691   */\n      sub\n        /* \"#utility.yul\":6667:6668   */\n      0x00\n        /* \"#utility.yul\":6656:6665   */\n      dup4\n        /* \"#utility.yul\":6652:6669   */\n      add\n        /* \"#utility.yul\":6645:6692   */\n      mstore\n        /* \"#utility.yul\":6709:6813   */\n      tag_178\n        /* \"#utility.yul\":6808:6812   */\n      dup2\n        /* \"#utility.yul\":6799:6805   */\n      dup5\n        /* \"#utility.yul\":6709:6813   */\n      tag_86\n      jump\t// in\n    tag_178:\n        /* \"#utility.yul\":6701:6813   */\n      swap1\n      pop\n        /* \"#utility.yul\":6455:6820   */\n      swap3\n      swap2\n      pop\n      pop\n      jump\t// out\n        /* \"#utility.yul\":6826:6943   */\n    tag_87:\n        /* \"#utility.yul\":6935:6936   */\n      0x00\n        /* \"#utility.yul\":6932:6933   */\n      dup1\n        /* \"#utility.yul\":6925:6937   */\n      revert\n        /* \"#utility.yul\":6949:7066   */\n    tag_88:\n        /* \"#utility.yul\":7058:7059   */\n      0x00\n        /* \"#utility.yul\":7055:7056   */\n      dup1\n        /* \"#utility.yul\":7048:7060   */\n      revert\n        /* \"#utility.yul\":7099:8337   */\n    tag_89:\n        /* \"#utility.yul\":7171:7176   */\n      0x00\n        /* \"#utility.yul\":7215:7219   */\n      0x80\n        /* \"#utility.yul\":7203:7212   */\n      dup3\n        /* \"#utility.yul\":7198:7201   */\n      dup5\n        /* \"#utility.yul\":7194:7213   */\n      sub\n        /* \"#utility.yul\":7190:7220   */\n      slt\n        /* \"#utility.yul\":7187:7304   */\n      iszero\n      tag_182\n      jumpi\n        /* \"#utility.yul\":7223:7302   */\n      tag_183\n      tag_87\n      jump\t// in\n    tag_183:\n        /* \"#utility.yul\":7187:7304   */\n    tag_182:\n        /* \"#utility.yul\":7322:7343   */\n      tag_184\n        /* \"#utility.yul\":7338:7342   */\n      0x80\n        /* \"#utility.yul\":7322:7343   */\n      tag_73\n      jump\t// in\n    tag_184:\n        /* \"#utility.yul\":7313:7343   */\n      swap1\n      pop\n        /* \"#utility.yul\":7430:7431   */\n      0x00\n        /* \"#utility.yul\":7419:7428   */\n      dup3\n        /* \"#utility.yul\":7415:7432   */\n      add\n        /* \"#utility.yul\":7402:7433   */\n      calldataload\n        /* \"#utility.yul\":7460:7478   */\n      0xffffffffffffffff\n        /* \"#utility.yul\":7452:7458   */\n      dup2\n        /* \"#utility.yul\":7449:7479   */\n      gt\n        /* \"#utility.yul\":7446:7563   */\n      iszero\n      tag_185\n      jumpi\n        /* \"#utility.yul\":7482:7561   */\n      tag_186\n      tag_88\n      jump\t// in\n    tag_186:\n        /* \"#utility.yul\":7446:7563   */\n    tag_185:\n        /* \"#utility.yul\":7602:7661   */\n      tag_187\n        /* \"#utility.yul\":7657:7660   */\n      dup5\n        /* \"#utility.yul\":7648:7654   */\n      dup3\n        /* \"#utility.yul\":7637:7646   */\n      dup6\n        /* \"#utility.yul\":7633:7655   */\n      add\n        /* \"#utility.yul\":7602:7661   */\n      tag_77\n      jump\t// in\n    tag_187:\n        /* \"#utility.yul\":7595:7599   */\n      0x00\n        /* \"#utility.yul\":7588:7593   */\n      dup4\n        /* \"#utility.yul\":7584:7600   */\n      add\n        /* \"#utility.yul\":7577:7662   */\n      mstore\n        /* \"#utility.yul\":7353:7673   */\n      pop\n        /* \"#utility.yul\":7734:7736   */\n      0x20\n        /* \"#utility.yul\":7775:7824   */\n      tag_188\n        /* \"#utility.yul\":7820:7823   */\n      dup5\n        /* \"#utility.yul\":7811:7817   */\n      dup3\n        /* \"#utility.yul\":7800:7809   */\n      dup6\n        /* \"#utility.yul\":7796:7818   */\n      add\n        /* \"#utility.yul\":7775:7824   */\n      tag_80\n      jump\t// in\n    tag_188:\n        /* \"#utility.yul\":7768:7772   */\n      0x20\n        /* \"#utility.yul\":7761:7766   */\n      dup4\n        /* \"#utility.yul\":7757:7773   */\n      add\n        /* \"#utility.yul\":7750:7825   */\n      mstore\n        /* \"#utility.yul\":7683:7836   */\n      pop\n        /* \"#utility.yul\":7896:7898   */\n      0x40\n        /* \"#utility.yul\":7937:7986   */\n      tag_189\n        /* \"#utility.yul\":7982:7985   */\n      dup5\n        /* \"#utility.yul\":7973:7979   */\n      dup3\n        /* \"#utility.yul\":7962:7971   */\n      dup6\n        /* \"#utility.yul\":7958:7980   */\n      add\n        /* \"#utility.yul\":7937:7986   */\n      tag_80\n      jump\t// in\n    tag_189:\n        /* \"#utility.yul\":7930:7934   */\n      0x40\n        /* \"#utility.yul\":7923:7928   */\n      dup4\n        /* \"#utility.yul\":7919:7935   */\n      add\n        /* \"#utility.yul\":7912:7987   */\n      mstore\n        /* \"#utility.yul\":7846:7998   */\n      pop\n        /* \"#utility.yul\":8086:8088   */\n      0x60\n        /* \"#utility.yul\":8075:8084   */\n      dup3\n        /* \"#utility.yul\":8071:8089   */\n      add\n        /* \"#utility.yul\":8058:8090   */\n      calldataload\n        /* \"#utility.yul\":8117:8135   */\n      0xffffffffffffffff\n        /* \"#utility.yul\":8109:8115   */\n      dup2\n        /* \"#utility.yul\":8106:8136   */\n      gt\n        /* \"#utility.yul\":8103:8220   */\n      iszero\n      tag_190\n      jumpi\n        /* \"#utility.yul\":8139:8218   */\n      tag_191\n      tag_88\n      jump\t// in\n    tag_191:\n        /* \"#utility.yul\":8103:8220   */\n    tag_190:\n        /* \"#utility.yul\":8259:8318   */\n      tag_192\n        /* \"#utility.yul\":8314:8317   */\n      dup5\n        /* \"#utility.yul\":8305:8311   */\n      dup3\n        /* \"#utility.yul\":8294:8303   */\n      dup6\n        /* \"#utility.yul\":8290:8312   */\n      add\n        /* \"#utility.yul\":8259:8318   */\n      tag_77\n      jump\t// in\n    tag_192:\n        /* \"#utility.yul\":8252:8256   */\n      0x60\n        /* \"#utility.yul\":8245:8250   */\n      dup4\n        /* \"#utility.yul\":8241:8257   */\n      add\n        /* \"#utility.yul\":8234:8319   */\n      mstore\n        /* \"#utility.yul\":8008:8330   */\n      pop\n        /* \"#utility.yul\":7099:8337   */\n      swap3\n      swap2\n      pop\n      pop\n      jump\t// out\n        /* \"#utility.yul\":8343:8878   */\n    tag_20:\n        /* \"#utility.yul\":8425:8431   */\n      0x00\n        /* \"#utility.yul\":8474:8476   */\n      0x20\n        /* \"#utility.yul\":8462:8471   */\n      dup3\n        /* \"#utility.yul\":8453:8460   */\n      dup5\n        /* \"#utility.yul\":8449:8472   */\n      sub\n        /* \"#utility.yul\":8445:8477   */\n      slt\n        /* \"#utility.yul\":8442:8561   */\n      iszero\n      tag_194\n      jumpi\n        /* \"#utility.yul\":8480:8559   */\n      tag_195\n      tag_66\n      jump\t// in\n    tag_195:\n        /* \"#utility.yul\":8442:8561   */\n    tag_194:\n        /* \"#utility.yul\":8628:8629   */\n      0x00\n        /* \"#utility.yul\":8617:8626   */\n      dup3\n        /* \"#utility.yul\":8613:8630   */\n      add\n        /* \"#utility.yul\":8600:8631   */\n      calldataload\n        /* \"#utility.yul\":8658:8676   */\n      0xffffffffffffffff\n        /* \"#utility.yul\":8650:8656   */\n      dup2\n        /* \"#utility.yul\":8647:8677   */\n      gt\n        /* \"#utility.yul\":8644:8761   */\n      iszero\n      tag_196\n      jumpi\n        /* \"#utility.yul\":8680:8759   */\n      tag_197\n      tag_67\n      jump\t// in\n    tag_197:\n        /* \"#utility.yul\":8644:8761   */\n    tag_196:\n        /* \"#utility.yul\":8785:8861   */\n      tag_198\n        /* \"#utility.yul\":8853:8860   */\n      dup5\n        /* \"#utility.yul\":8844:8850   */\n      dup3\n        /* \"#utility.yul\":8833:8842   */\n      dup6\n        /* \"#utility.yul\":8829:8851   */\n      add\n        /* \"#utility.yul\":8785:8861   */\n      tag_89\n      jump\t// in\n    tag_198:\n        /* \"#utility.yul\":8775:8861   */\n      swap2\n      pop\n        /* \"#utility.yul\":8571:8871   */\n      pop\n        /* \"#utility.yul\":8343:8878   */\n      swap3\n      swap2\n      pop\n      pop\n      jump\t// out\n        /* \"#utility.yul\":8884:9002   */\n    tag_90:\n        /* \"#utility.yul\":8971:8995   */\n      tag_200\n        /* \"#utility.yul\":8989:8994   */\n      dup2\n        /* \"#utility.yul\":8971:8995   */\n      tag_78\n      jump\t// in\n    tag_200:\n        /* \"#utility.yul\":8966:8969   */\n      dup3\n        /* \"#utility.yul\":8959:8996   */\n      mstore\n        /* \"#utility.yul\":8884:9002   */\n      pop\n      pop\n      jump\t// out\n        /* \"#utility.yul\":9008:9230   */\n    tag_26:\n        /* \"#utility.yul\":9101:9105   */\n      0x00\n        /* \"#utility.yul\":9139:9141   */\n      0x20\n        /* \"#utility.yul\":9128:9137   */\n      dup3\n        /* \"#utility.yul\":9124:9142   */\n      add\n        /* \"#utility.yul\":9116:9142   */\n      swap1\n      pop\n        /* \"#utility.yul\":9152:9223   */\n      tag_202\n        /* \"#utility.yul\":9220:9221   */\n      0x00\n        /* \"#utility.yul\":9209:9218   */\n      dup4\n        /* \"#utility.yul\":9205:9222   */\n      add\n        /* \"#utility.yul\":9196:9202   */\n      dup5\n        /* \"#utility.yul\":9152:9223   */\n      tag_90\n      jump\t// in\n    tag_202:\n        /* \"#utility.yul\":9008:9230   */\n      swap3\n      swap2\n      pop\n      pop\n      jump\t// out\n        /* \"#utility.yul\":9236:9416   */\n    tag_91:\n        /* \"#utility.yul\":9284:9361   */\n      0x4e487b7100000000000000000000000000000000000000000000000000000000\n        /* \"#utility.yul\":9281:9282   */\n      0x00\n        /* \"#utility.yul\":9274:9362   */\n      mstore\n        /* \"#utility.yul\":9381:9385   */\n      0x22\n        /* \"#utility.yul\":9378:9379   */\n      0x04\n        /* \"#utility.yul\":9371:9386   */\n      mstore\n        /* \"#utility.yul\":9405:9409   */\n      0x24\n        /* \"#utility.yul\":9402:9403   */\n      0x00\n        /* \"#utility.yul\":9395:9410   */\n      revert\n        /* \"#utility.yul\":9422:9742   */\n    tag_45:\n        /* \"#utility.yul\":9466:9472   */\n      0x00\n        /* \"#utility.yul\":9503:9504   */\n      0x02\n        /* \"#utility.yul\":9497:9501   */\n      dup3\n        /* \"#utility.yul\":9493:9505   */\n      div\n        /* \"#utility.yul\":9483:9505   */\n      swap1\n      pop\n        /* \"#utility.yul\":9550:9551   */\n      0x01\n        /* \"#utility.yul\":9544:9548   */\n      dup3\n        /* \"#utility.yul\":9540:9552   */\n      and\n        /* \"#utility.yul\":9571:9589   */\n      dup1\n        /* \"#utility.yul\":9561:9642   */\n      tag_205\n      jumpi\n        /* \"#utility.yul\":9627:9631   */\n      0x7f\n        /* \"#utility.yul\":9619:9625   */\n      dup3\n        /* \"#utility.yul\":9615:9632   */\n      and\n        /* \"#utility.yul\":9605:9632   */\n      swap2\n      pop\n        /* \"#utility.yul\":9561:9642   */\n    tag_205:\n        /* \"#utility.yul\":9689:9691   */\n      0x20\n        /* \"#utility.yul\":9681:9687   */\n      dup3\n        /* \"#utility.yul\":9678:9692   */\n      lt\n        /* \"#utility.yul\":9658:9676   */\n      dup2\n        /* \"#utility.yul\":9655:9693   */\n      sub\n        /* \"#utility.yul\":9652:9736   */\n      tag_206\n      jumpi\n        /* \"#utility.yul\":9708:9726   */\n      tag_207\n      tag_91\n      jump\t// in\n    tag_207:\n        /* \"#utility.yul\":9652:9736   */\n    tag_206:\n        /* \"#utility.yul\":9473:9742   */\n      pop\n        /* \"#utility.yul\":9422:9742   */\n      swap2\n      swap1\n      pop\n      jump\t// out\n        /* \"#utility.yul\":9748:9889   */\n    tag_92:\n        /* \"#utility.yul\":9797:9801   */\n      0x00\n        /* \"#utility.yul\":9820:9823   */\n      dup2\n        /* \"#utility.yul\":9812:9823   */\n      swap1\n      pop\n        /* \"#utility.yul\":9843:9846   */\n      dup2\n        /* \"#utility.yul\":9840:9841   */\n      0x00\n        /* \"#utility.yul\":9833:9847   */\n      mstore\n        /* \"#utility.yul\":9877:9881   */\n      0x20\n        /* \"#utility.yul\":9874:9875   */\n      0x00\n        /* \"#utility.yul\":9864:9882   */\n      keccak256\n        /* \"#utility.yul\":9856:9882   */\n      swap1\n      pop\n        /* \"#utility.yul\":9748:9889   */\n      swap2\n      swap1\n      pop\n      jump\t// out\n        /* \"#utility.yul\":9895:9988   */\n    tag_93:\n        /* \"#utility.yul\":9932:9938   */\n      0x00\n        /* \"#utility.yul\":9979:9981   */\n      0x20\n        /* \"#utility.yul\":9974:9976   */\n      0x1f\n        /* \"#utility.yul\":9967:9972   */\n      dup4\n        /* \"#utility.yul\":9963:9977   */\n      add\n        /* \"#utility.yul\":9959:9982   */\n      div\n        /* \"#utility.yul\":9949:9982   */\n      swap1\n      pop\n        /* \"#utility.yul\":9895:9988   */\n      swap2\n      swap1\n      pop\n      jump\t// out\n        /* \"#utility.yul\":9994:10101   */\n    tag_94:\n        /* \"#utility.yul\":10038:10046   */\n      0x00\n        /* \"#utility.yul\":10088:10093   */\n      dup3\n        /* \"#utility.yul\":10082:10086   */\n      dup3\n        /* \"#utility.yul\":10078:10094   */\n      shl\n        /* \"#utility.yul\":10057:10094   */\n      swap1\n      pop\n        /* \"#utility.yul\":9994:10101   */\n      swap3\n      swap2\n      pop\n      pop\n      jump\t// out\n        /* \"#utility.yul\":10107:10500   */\n    tag_95:\n        /* \"#utility.yul\":10176:10182   */\n      0x00\n        /* \"#utility.yul\":10226:10227   */\n      0x08\n        /* \"#utility.yul\":10214:10224   */\n      dup4\n        /* \"#utility.yul\":10210:10228   */\n      mul\n        /* \"#utility.yul\":10249:10346   */\n      tag_212\n        /* \"#utility.yul\":10279:10345   */\n      0xffffffffffffffffffffffffffffffffffffffffffffffffffffffffffffffff\n        /* \"#utility.yul\":10268:10277   */\n      dup3\n        /* \"#utility.yul\":10249:10346   */\n      tag_94\n      jump\t// in\n    tag_212:\n        /* \"#utility.yul\":10367:10406   */\n      tag_213\n        /* \"#utility.yul\":10397:10405   */\n      dup7\n        /* \"#utility.yul\":10386:10395   */\n      dup4\n        /* \"#utility.yul\":10367:10406   */\n      tag_94\n      jump\t// in\n    tag_213:\n        /* \"#utility.yul\":10355:10406   */\n      swap6\n      pop\n        /* \"#utility.yul\":10439:10443   */\n      dup1\n        /* \"#utility.yul\":10435:10444   */\n      not\n        /* \"#utility.yul\":10428:10433   */\n      dup5\n        /* \"#utility.yul\":10424:10445   */\n      and\n        /* \"#utility.yul\":10415:10445   */\n      swap4\n      pop\n        /* \"#utility.yul\":10488:10492   */\n      dup1\n        /* \"#utility.yul\":10478:10486   */\n      dup7\n        /* \"#utility.yul\":10474:10493   */\n      and\n        /* \"#utility.yul\":10467:10472   */\n      dup5\n        /* \"#utility.yul\":10464:10494   */\n      or\n        /* \"#utility.yul\":10454:10494   */\n      swap3\n      pop\n        /* \"#utility.yul\":10183:10500   */\n      pop\n      pop\n        /* \"#utility.yul\":10107:10500   */\n      swap4\n      swap3\n      pop\n      pop\n      pop\n      jump\t// out\n        /* \"#utility.yul\":10506:10566   */\n    tag_96:\n        /* \"#utility.yul\":10534:10537   */\n      0x00\n        /* \"#utility.yul\":10555:10560   */\n      dup2\n        /* \"#utility.yul\":10548:10560   */\n      swap1\n      pop\n        /* \"#utility.yul\":10506:10566   */\n      swap2\n      swap1\n      pop\n      jump\t// out\n        /* \"#utility.yul\":10572:10714   */\n    tag_97:\n        /* \"#utility.yul\":10622:10631   */\n      0x00\n        /* \"#utility.yul\":10655:10708   */\n      tag_216\n        /* \"#utility.yul\":10673:10707   */\n      tag_217\n        /* \"#utility.yul\":10682:10706   */\n      tag_218\n        /* \"#utility.yul\":10700:10705   */\n      dup5\n        /* \"#utility.yul\":10682:10706   */\n      tag_78\n      jump\t// in\n    tag_218:\n        /* \"#utility.yul\":10673:10707   */\n      tag_96\n      jump\t// in\n    tag_217:\n        /* \"#utility.yul\":10655:10708   */\n      tag_78\n      jump\t// in\n    tag_216:\n        /* \"#utility.yul\":10642:10708   */\n      swap1\n      pop\n        /* \"#utility.yul\":10572:10714   */\n      swap2\n      swap1\n      pop\n      jump\t// out\n        /* \"#utility.yul\":10720:10795   */\n    tag_98:\n        /* \"#utility.yul\":10763:10766   */\n      0x00\n        /* \"#utility.yul\":10784:10789   */\n      dup2\n        /* \"#utility.yul\":10777:10789   */\n      swap1\n      pop\n        /* \"#utility.yul\":10720:10795   */\n      swap2\n      swap1\n      pop\n      jump\t// out\n        /* \"#utility.yul\":10801:11070   */\n    tag_99:\n        /* \"#utility.yul\":10911:10950   */\n      tag_221\n        /* \"#utility.yul\":10942:10949   */\n      dup4\n        /* \"#utility.yul\":10911:10950   */\n      tag_97\n      jump\t// in\n    tag_221:\n        /* \"#utility.yul\":10972:11063   */\n      tag_222\n        /* \"#utility.yul\":11021:11062   */\n      tag_223\n        /* \"#utility.yul\":11045:11061   */\n      dup3\n        /* \"#utility.yul\":11021:11062   */\n      tag_98\n      jump\t// in\n    tag_223:\n        /* \"#utility.yul\":11013:11019   */\n      dup5\n        /* \"#utility.yul\":11006:11010   */\n      dup5\n        /* \"#utility.yul\":11000:11011   */\n      sload\n        /* \"#utility.yul\":10972:11063   */\n      tag_95\n      jump\t// in\n    tag_222:\n        /* \"#utility.yul\":10966:10970   */\n      dup3\n        /* \"#utility.yul\":10959:11064   */\n      sstore\n        /* \"#utility.yul\":10877:11070   */\n      pop\n        /* \"#utility.yul\":10801:11070   */\n      pop\n      pop\n      pop\n      jump\t// out\n        /* \"#utility.yul\":11076:11149   */\n    tag_100:\n        /* \"#utility.yul\":11121:11124   */\n      0x00\n        /* \"#utility.yul\":11076:11149   */\n      swap1\n      jump\t// out\n        /* \"#utility.yul\":11155:11344   */\n    tag_101:\n        /* \"#utility.yul\":11232:11264   */\n      tag_226\n      tag_100\n      jump\t// in\n    tag_226:\n        /* \"#utility.yul\":11273:11338   */\n      tag_227\n        /* \"#utility.yul\":11331:11337   */\n      dup2\n        /* \"#utility.yul\":11323:11329   */\n      dup5\n        /* \"#utility.yul\":11317:11321   */\n      dup5\n        /* \"#utility.yul\":11273:11338   */\n      tag_99\n      jump\t// in\n    tag_227:\n        /* \"#utility.yul\":11208:11344   */\n      pop\n        /* \"#utility.yul\":11155:11344   */\n      pop\n      pop\n      jump\t// out\n        /* \"#utility.yul\":11350:11536   */\n    tag_102:\n        /* \"#utility.yul\":11410:11530   */\n    tag_229:\n        /* \"#utility.yul\":11427:11430   */\n      dup2\n        /* \"#utility.yul\":11420:11425   */\n      dup2\n        /* \"#utility.yul\":11417:11431   */\n      lt\n        /* \"#utility.yul\":11410:11530   */\n      iszero\n      tag_231\n      jumpi\n        /* \"#utility.yul\":11481:11520   */\n      tag_232\n        /* \"#utility.yul\":11518:11519   */\n      0x00\n        /* \"#utility.yul\":11511:11516   */\n      dup3\n        /* \"#utility.yul\":11481:11520   */\n      tag_101\n      jump\t// in\n    tag_232:\n        /* \"#utility.yul\":11454:11455   */\n      0x01\n        /* \"#utility.yul\":11447:11452   */\n      dup2\n        /* \"#utility.yul\":11443:11456   */\n      add\n        /* \"#utility.yul\":11434:11456   */\n      swap1\n      pop\n        /* \"#utility.yul\":11410:11530   */\n      jump(tag_229)\n    tag_231:\n        /* \"#utility.yul\":11350:11536   */\n      pop\n      pop\n      jump\t// out\n        /* \"#utility.yul\":11542:12085   */\n    tag_103:\n        /* \"#utility.yul\":11643:11645   */\n      0x1f\n        /* \"#utility.yul\":11638:11641   */\n      dup3\n        /* \"#utility.yul\":11635:11646   */\n      gt\n        /* \"#utility.yul\":11632:12078   */\n      iszero\n      tag_234\n      jumpi\n        /* \"#utility.yul\":11677:11715   */\n      tag_235\n        /* \"#utility.yul\":11709:11714   */\n      dup2\n        /* \"#utility.yul\":11677:11715   */\n      tag_92\n      jump\t// in\n    tag_235:\n        /* \"#utility.yul\":11761:11790   */\n      tag_236\n        /* \"#utility.yul\":11779:11789   */\n      dup5\n        /* \"#utility.yul\":11761:11790   */\n      tag_93\n      jump\t// in\n    tag_236:\n        /* \"#utility.yul\":11751:11759   */\n      dup2\n        /* \"#utility.yul\":11747:11791   */\n      add\n        /* \"#utility.yul\":11944:11946   */\n      0x20\n        /* \"#utility.yul\":11932:11942   */\n      dup6\n        /* \"#utility.yul\":11929:11947   */\n      lt\n        /* \"#utility.yul\":11926:11975   */\n      iszero\n      tag_237\n      jumpi\n        /* \"#utility.yul\":11965:11973   */\n      dup2\n        /* \"#utility.yul\":11950:11973   */\n      swap1\n      pop\n        /* \"#utility.yul\":11926:11975   */\n    tag_237:\n        /* \"#utility.yul\":11988:12068   */\n      tag_238\n        /* \"#utility.yul\":12044:12066   */\n      tag_239\n        /* \"#utility.yul\":12062:12065   */\n      dup6\n        /* \"#utility.yul\":12044:12066   */\n      tag_93\n      jump\t// in\n    tag_239:\n        /* \"#utility.yul\":12034:12042   */\n      dup4\n        /* \"#utility.yul\":12030:12067   */\n      add\n        /* \"#utility.yul\":12017:12028   */\n      dup3\n        /* \"#utility.yul\":11988:12068   */\n      tag_102\n      jump\t// in\n    tag_238:\n        /* \"#utility.yul\":11647:12078   */\n      pop\n      pop\n        /* \"#utility.yul\":11632:12078   */\n    tag_234:\n        /* \"#utility.yul\":11542:12085   */\n      pop\n      pop\n      pop\n      jump\t// out\n        /* \"#utility.yul\":12091:12208   */\n    tag_104:\n        /* \"#utility.yul\":12145:12153   */\n      0x00\n        /* \"#utility.yul\":12195:12200   */\n      dup3\n        /* \"#utility.yul\":12189:12193   */\n      dup3\n        /* \"#utility.yul\":12185:12201   */\n      shr\n        /* \"#utility.yul\":12164:12201   */\n      swap1\n      pop\n        /* \"#utility.yul\":12091:12208   */\n      swap3\n      swap2\n      pop\n      pop\n      jump\t// out\n        /* \"#utility.yul\":12214:12383   */\n    tag_105:\n        /* \"#utility.yul\":12258:12264   */\n      0x00\n        /* \"#utility.yul\":12291:12342   */\n      tag_242\n        /* \"#utility.yul\":12339:12340   */\n      0x00\n        /* \"#utility.yul\":12335:12341   */\n      not\n        /* \"#utility.yul\":12327:12332   */\n      dup5\n        /* \"#utility.yul\":12324:12325   */\n      0x08\n        /* \"#utility.yul\":12320:12333   */\n      mul\n        /* \"#utility.yul\":12291:12342   */\n      tag_104\n      jump\t// in\n    tag_242:\n        /* \"#utility.yul\":12287:12343   */\n      not\n        /* \"#utility.yul\":12372:12376   */\n      dup1\n        /* \"#utility.yul\":12366:12370   */\n      dup4\n        /* \"#utility.yul\":12362:12377   */\n      and\n        /* \"#utility.yul\":12352:12377   */\n      swap2\n      pop\n        /* \"#utility.yul\":12265:12383   */\n      pop\n        /* \"#utility.yul\":12214:12383   */\n      swap3\n      swap2\n      pop\n      pop\n      jump\t// out\n        /* \"#utility.yul\":12388:12683   */\n    tag_106:\n        /* \"#utility.yul\":12464:12468   */\n      0x00\n        /* \"#utility.yul\":12610:12639   */\n      tag_244\n        /* \"#utility.yul\":12635:12638   */\n      dup4\n        /* \"#utility.yul\":12629:12633   */\n      dup4\n        /* \"#utility.yul\":12610:12639   */\n      tag_105\n      jump\t// in\n    tag_244:\n        /* \"#utility.yul\":12602:12639   */\n      swap2\n      pop\n        /* \"#utility.yul\":12672:12675   */\n      dup3\n        /* \"#utility.yul\":12669:12670   */\n      0x02\n        /* \"#utility.yul\":12665:12676   */\n      mul\n        /* \"#utility.yul\":12659:12663   */\n      dup3\n        /* \"#utility.yul\":12656:12677   */\n      or\n        /* \"#utility.yul\":12648:12677   */\n      swap1\n      pop\n        /* \"#utility.yul\":12388:12683   */\n      swap3\n      swap2\n      pop\n      pop\n      jump\t// out\n        /* \"#utility.yul\":12688:14083   */\n    tag_33:\n        /* \"#utility.yul\":12805:12842   */\n      tag_246\n        /* \"#utility.yul\":12838:12841   */\n      dup3\n        /* \"#utility.yul\":12805:12842   */\n      tag_81\n      jump\t// in\n    tag_246:\n        /* \"#utility.yul\":12907:12925   */\n      0xffffffffffffffff\n        /* \"#utility.yul\":12899:12905   */\n      dup2\n        /* \"#utility.yul\":12896:12926   */\n      gt\n        /* \"#utility.yul\":12893:12949   */\n      iszero\n      tag_247\n      jumpi\n        /* \"#utility.yul\":12929:12947   */\n      tag_248\n      tag_71\n      jump\t// in\n    tag_248:\n        /* \"#utility.yul\":12893:12949   */\n    tag_247:\n        /* \"#utility.yul\":12973:13011   */\n      tag_249\n        /* \"#utility.yul\":13005:13009   */\n      dup3\n        /* \"#utility.yul\":12999:13010   */\n      sload\n        /* \"#utility.yul\":12973:13011   */\n      tag_45\n      jump\t// in\n    tag_249:\n        /* \"#utility.yul\":13058:13125   */\n      tag_250\n        /* \"#utility.yul\":13118:13124   */\n      dup3\n        /* \"#utility.yul\":13110:13116   */\n      dup3\n        /* \"#utility.yul\":13104:13108   */\n      dup6\n        /* \"#utility.yul\":13058:13125   */\n      tag_103\n      jump\t// in\n    tag_250:\n        /* \"#utility.yul\":13152:13153   */\n      0x00\n        /* \"#utility.yul\":13176:13180   */\n      0x20\n        /* \"#utility.yul\":13163:13180   */\n      swap1\n      pop\n        /* \"#utility.yul\":13208:13210   */\n      0x1f\n        /* \"#utility.yul\":13200:13206   */\n      dup4\n        /* \"#utility.yul\":13197:13211   */\n      gt\n        /* \"#utility.yul\":13225:13226   */\n      0x01\n        /* \"#utility.yul\":13220:13838   */\n      dup2\n      eq\n      tag_252\n      jumpi\n        /* \"#utility.yul\":13882:13883   */\n      0x00\n        /* \"#utility.yul\":13899:13905   */\n      dup5\n        /* \"#utility.yul\":13896:13973   */\n      iszero\n      tag_253\n      jumpi\n        /* \"#utility.yul\":13948:13957   */\n      dup3\n        /* \"#utility.yul\":13943:13946   */\n      dup8\n        /* \"#utility.yul\":13939:13958   */\n      add\n        /* \"#utility.yul\":13933:13959   */\n      mload\n        /* \"#utility.yul\":13924:13959   */\n      swap1\n      pop\n        /* \"#utility.yul\":13896:13973   */\n    tag_253:\n        /* \"#utility.yul\":13999:14066   */\n      tag_254\n        /* \"#utility.yul\":14059:14065   */\n      dup6\n        /* \"#utility.yul\":14052:14057   */\n      dup3\n        /* \"#utility.yul\":13999:14066   */\n      tag_106\n      jump\t// in\n    tag_254:\n        /* \"#utility.yul\":13993:13997   */\n      dup7\n        /* \"#utility.yul\":13986:14067   */\n      sstore\n        /* \"#utility.yul\":13855:14077   */\n      pop\n        /* \"#utility.yul\":13190:14077   */\n      jump(tag_251)\n        /* \"#utility.yul\":13220:13838   */\n    tag_252:\n        /* \"#utility.yul\":13272:13276   */\n      0x1f\n        /* \"#utility.yul\":13268:13277   */\n      not\n        /* \"#utility.yul\":13260:13266   */\n      dup5\n        /* \"#utility.yul\":13256:13278   */\n      and\n        /* \"#utility.yul\":13306:13343   */\n      tag_255\n        /* \"#utility.yul\":13338:13342   */\n      dup7\n        /* \"#utility.yul\":13306:13343   */\n      tag_92\n      jump\t// in\n    tag_255:\n        /* \"#utility.yul\":13365:13366   */\n      0x00\n        /* \"#utility.yul\":13379:13587   */\n    tag_256:\n        /* \"#utility.yul\":13393:13400   */\n      dup3\n        /* \"#utility.yul\":13390:13391   */\n      dup2\n        /* \"#utility.yul\":13387:13401   */\n      lt\n        /* \"#utility.yul\":13379:13587   */\n      iszero\n      tag_258\n      jumpi\n        /* \"#utility.yul\":13472:13481   */\n      dup5\n        /* \"#utility.yul\":13467:13470   */\n      dup10\n        /* \"#utility.yul\":13463:13482   */\n      add\n        /* \"#utility.yul\":13457:13483   */\n      mload\n        /* \"#utility.yul\":13449:13455   */\n      dup3\n        /* \"#utility.yul\":13442:13484   */\n      sstore\n        /* \"#utility.yul\":13523:13524   */\n      0x01\n        /* \"#utility.yul\":13515:13521   */\n      dup3\n        /* \"#utility.yul\":13511:13525   */\n      add\n        /* \"#utility.yul\":13501:13525   */\n      swap2\n      pop\n        /* \"#utility.yul\":13570:13572   */\n      0x20\n        /* \"#utility.yul\":13559:13568   */\n      dup6\n        /* \"#utility.yul\":13555:13573   */\n      add\n        /* \"#utility.yul\":13542:13573   */\n      swap5\n      pop\n        /* \"#utility.yul\":13416:13420   */\n      0x20\n        /* \"#utility.yul\":13413:13414   */\n      dup2\n        /* \"#utility.yul\":13409:13421   */\n      add\n        /* \"#utility.yul\":13404:13421   */\n      swap1\n      pop\n        /* \"#utility.yul\":13379:13587   */\n      jump(tag_256)\n    tag_258:\n        /* \"#utility.yul\":13615:13621   */\n      dup7\n        /* \"#utility.yul\":13606:13613   */\n      dup4\n        /* \"#utility.yul\":13603:13622   */\n      lt\n        /* \"#utility.yul\":13600:13779   */\n      iszero\n      tag_259\n      jumpi\n        /* \"#utility.yul\":13673:13682   */\n      dup5\n        /* \"#utility.yul\":13668:13671   */\n      dup10\n        /* \"#utility.yul\":13664:13683   */\n      add\n        /* \"#utility.yul\":13658:13684   */\n      mload\n        /* \"#utility.yul\":13716:13764   */\n      tag_260\n        /* \"#utility.yul\":13758:13762   */\n      0x1f\n        /* \"#utility.yul\":13750:13756   */\n      dup10\n        /* \"#utility.yul\":13746:13763   */\n      and\n        /* \"#utility.yul\":13735:13744   */\n      dup3\n        /* \"#utility.yul\":13716:13764   */\n      tag_105\n      jump\t// in\n    tag_260:\n        /* \"#utility.yul\":13708:13714   */\n      dup4\n        /* \"#utility.yul\":13701:13765   */\n      sstore\n        /* \"#utility.yul\":13623:13779   */\n      pop\n        /* \"#utility.yul\":13600:13779   */\n    tag_259:\n        /* \"#utility.yul\":13825:13826   */\n      0x01\n        /* \"#utility.yul\":13821:13822   */\n      0x02\n        /* \"#utility.yul\":13813:13819   */\n      dup9\n        /* \"#utility.yul\":13809:13823   */\n      mul\n        /* \"#utility.yul\":13805:13827   */\n      add\n        /* \"#utility.yul\":13799:13803   */\n      dup9\n        /* \"#utility.yul\":13792:13828   */\n      sstore\n        /* \"#utility.yul\":13227:13838   */\n      pop\n      pop\n      pop\n        /* \"#utility.yul\":13190:14077   */\n    tag_251:\n      pop\n        /* \"#utility.yul\":12780:14083   */\n      pop\n      pop\n      pop\n        /* \"#utility.yul\":12688:14083   */\n      pop\n      pop\n      jump\t// out\n        /* \"#utility.yul\":14089:14269   */\n    tag_107:\n        /* \"#utility.yul\":14137:14214   */\n      0x4e487b7100000000000000000000000000000000000000000000000000000000\n        /* \"#utility.yul\":14134:14135   */\n      0x00\n        /* \"#utility.yul\":14127:14215   */\n      mstore\n        /* \"#utility.yul\":14234:14238   */\n      0x11\n        /* \"#utility.yul\":14231:14232   */\n      0x04\n        /* \"#utility.yul\":14224:14239   */\n      mstore\n        /* \"#utility.yul\":14258:14262   */\n      0x24\n        /* \"#utility.yul\":14255:14256   */\n      0x00\n        /* \"#utility.yul\":14248:14263   */\n      revert\n        /* \"#utility.yul\":14275:14469   */\n    tag_39:\n        /* \"#utility.yul\":14315:14319   */\n      0x00\n        /* \"#utility.yul\":14335:14355   */\n      tag_263\n        /* \"#utility.yul\":14353:14354   */\n      dup3\n        /* \"#utility.yul\":14335:14355   */\n      tag_78\n      jump\t// in\n    tag_263:\n        /* \"#utility.yul\":14330:14355   */\n      swap2\n      pop\n        /* \"#utility.yul\":14369:14389   */\n      tag_264\n        /* \"#utility.yul\":14387:14388   */\n      dup4\n        /* \"#utility.yul\":14369:14389   */\n      tag_78\n      jump\t// in\n    tag_264:\n        /* \"#utility.yul\":14364:14389   */\n      swap3\n      pop\n        /* \"#utility.yul\":14413:14414   */\n      dup3\n        /* \"#utility.yul\":14410:14411   */\n      dup3\n        /* \"#utility.yul\":14406:14415   */\n      sub\n        /* \"#utility.yul\":14398:14415   */\n      swap1\n      pop\n        /* \"#utility.yul\":14437:14438   */\n      dup2\n        /* \"#utility.yul\":14431:14435   */\n      dup2\n        /* \"#utility.yul\":14428:14439   */\n      gt\n        /* \"#utility.yul\":14425:14462   */\n      iszero\n      tag_265\n      jumpi\n        /* \"#utility.yul\":14442:14460   */\n      tag_266\n      tag_107\n      jump\t// in\n    tag_266:\n        /* \"#utility.yul\":14425:14462   */\n    tag_265:\n        /* \"#utility.yul\":14275:14469   */\n      swap3\n      swap2\n      pop\n      pop\n      jump\t// out\n        /* \"#utility.yul\":14475:14655   */\n    tag_42:\n        /* \"#utility.yul\":14523:14600   */\n      0x4e487b7100000000000000000000000000000000000000000000000000000000\n        /* \"#utility.yul\":14520:14521   */\n      0x00\n        /* \"#utility.yul\":14513:14601   */\n      mstore\n        /* \"#utility.yul\":14620:14624   */\n      0x32\n        /* \"#utility.yul\":14617:14618   */\n      0x04\n        /* \"#utility.yul\":14610:14625   */\n      mstore\n        /* \"#utility.yul\":14644:14648   */\n      0x24\n        /* \"#utility.yul\":14641:14642   */\n      0x00\n        /* \"#utility.yul\":14634:14649   */\n      revert\n\n    auxdata: 0xa26469706673582212208ac4ed18f7b0227ce54c2d5d803458fe0343b96e70eaca6f72e2f4ae168c17b964736f6c63430008170033\n}\n",
				"bytecode": {
					"linkReferences": {},
					"object": "608060405234801561000f575f80fd5b50610bef8061001d5f395ff3fe608060405234801561000f575f80fd5b5060043610610055575f3560e01c806332ca2f4014610059578063642f9163146100755780639c380af7146100a55780639e7d93c6146100c1578063bfcc6da8146100f1575b5f80fd5b610073600480360381019061006e9190610568565b61010f565b005b61008f600480360381019061008a9190610604565b61019d565b60405161009c919061071f565b60405180910390f35b6100bf60048036038101906100ba91906107f4565b610315565b005b6100db60048036038101906100d69190610604565b610380565b6040516100e8919061084a565b60405180910390f35b6100f96103b7565b604051610106919061084a565b60405180910390f35b5f604051806080016040528086815260200185815260200184815260200183815250908060018154018082558091505060019003905f5260205f2090600402015f909190919091505f820151815f01908161016a9190610a5d565b50602082015181600101556040820151816002015560608201518160030190816101949190610a5d565b50505050505050565b6101a56103c2565b5f6001836101b39190610b59565b815481106101c4576101c3610b8c565b5b905f5260205f2090600402016040518060800160405290815f820180546101ea90610890565b80601f016020809104026020016040519081016040528092919081815260200182805461021690610890565b80156102615780601f1061023857610100808354040283529160200191610261565b820191905f5260205f20905b81548152906001019060200180831161024457829003601f168201915b50505050508152602001600182015481526020016002820154815260200160038201805461028e90610890565b80601f01602080910402602001604051908101604052809291908181526020018280546102ba90610890565b80156103055780601f106102dc57610100808354040283529160200191610305565b820191905f5260205f20905b8154815290600101906020018083116102e857829003601f168201915b5050505050815250509050919050565b5f81908060018154018082558091505060019003905f5260205f2090600402015f909190919091505f820151815f0190816103509190610a5d565b506020820151816001015560408201518160020155606082015181600301908161037a9190610a5d565b50505050565b5f8060018361038f9190610b59565b815481106103a05761039f610b8c565b5b905f5260205f209060040201600201549050919050565b5f8080549050905090565b6040518060800160405280606081526020015f81526020015f8152602001606081525090565b5f604051905090565b5f80fd5b5f80fd5b5f80fd5b5f80fd5b5f601f19601f8301169050919050565b7f4e487b71000000000000000000000000000000000000000000000000000000005f52604160045260245ffd5b61044782610401565b810181811067ffffffffffffffff8211171561046657610465610411565b5b80604052505050565b5f6104786103e8565b9050610484828261043e565b919050565b5f67ffffffffffffffff8211156104a3576104a2610411565b5b6104ac82610401565b9050602081019050919050565b828183375f83830152505050565b5f6104d96104d484610489565b61046f565b9050828152602081018484840111156104f5576104f46103fd565b5b6105008482856104b9565b509392505050565b5f82601f83011261051c5761051b6103f9565b5b813561052c8482602086016104c7565b91505092915050565b5f819050919050565b61054781610535565b8114610551575f80fd5b50565b5f813590506105628161053e565b92915050565b5f805f80608085870312156105805761057f6103f1565b5b5f85013567ffffffffffffffff81111561059d5761059c6103f5565b5b6105a987828801610508565b94505060206105ba87828801610554565b93505060406105cb87828801610554565b925050606085013567ffffffffffffffff8111156105ec576105eb6103f5565b5b6105f887828801610508565b91505092959194509250565b5f60208284031215610619576106186103f1565b5b5f61062684828501610554565b91505092915050565b5f81519050919050565b5f82825260208201905092915050565b5f5b8381101561066657808201518184015260208101905061064b565b5f8484015250505050565b5f61067b8261062f565b6106858185610639565b9350610695818560208601610649565b61069e81610401565b840191505092915050565b6106b281610535565b82525050565b5f608083015f8301518482035f8601526106d28282610671565b91505060208301516106e760208601826106a9565b5060408301516106fa60408601826106a9565b50606083015184820360608601526107128282610671565b9150508091505092915050565b5f6020820190508181035f83015261073781846106b8565b905092915050565b5f80fd5b5f80fd5b5f6080828403121561075c5761075b61073f565b5b610766608061046f565b90505f82013567ffffffffffffffff81111561078557610784610743565b5b61079184828501610508565b5f8301525060206107a484828501610554565b60208301525060406107b884828501610554565b604083015250606082013567ffffffffffffffff8111156107dc576107db610743565b5b6107e884828501610508565b60608301525092915050565b5f60208284031215610809576108086103f1565b5b5f82013567ffffffffffffffff811115610826576108256103f5565b5b61083284828501610747565b91505092915050565b61084481610535565b82525050565b5f60208201905061085d5f83018461083b565b92915050565b7f4e487b71000000000000000000000000000000000000000000000000000000005f52602260045260245ffd5b5f60028204905060018216806108a757607f821691505b6020821081036108ba576108b9610863565b5b50919050565b5f819050815f5260205f209050919050565b5f6020601f8301049050919050565b5f82821b905092915050565b5f6008830261091c7fffffffffffffffffffffffffffffffffffffffffffffffffffffffffffffffff826108e1565b61092686836108e1565b95508019841693508086168417925050509392505050565b5f819050919050565b5f61096161095c61095784610535565b61093e565b610535565b9050919050565b5f819050919050565b61097a83610947565b61098e61098682610968565b8484546108ed565b825550505050565b5f90565b6109a2610996565b6109ad818484610971565b505050565b5b818110156109d0576109c55f8261099a565b6001810190506109b3565b5050565b601f821115610a15576109e6816108c0565b6109ef846108d2565b810160208510156109fe578190505b610a12610a0a856108d2565b8301826109b2565b50505b505050565b5f82821c905092915050565b5f610a355f1984600802610a1a565b1980831691505092915050565b5f610a4d8383610a26565b9150826002028217905092915050565b610a668261062f565b67ffffffffffffffff811115610a7f57610a7e610411565b5b610a898254610890565b610a948282856109d4565b5f60209050601f831160018114610ac5575f8415610ab3578287015190505b610abd8582610a42565b865550610b24565b601f198416610ad3866108c0565b5f5b82811015610afa57848901518255600182019150602085019450602081019050610ad5565b86831015610b175784890151610b13601f891682610a26565b8355505b6001600288020188555050505b505050505050565b7f4e487b71000000000000000000000000000000000000000000000000000000005f52601160045260245ffd5b5f610b6382610535565b9150610b6e83610535565b9250828203905081811115610b8657610b85610b2c565b5b92915050565b7f4e487b71000000000000000000000000000000000000000000000000000000005f52603260045260245ffdfea26469706673582212208ac4ed18f7b0227ce54c2d5d803458fe0343b96e70eaca6f72e2f4ae168c17b964736f6c63430008170033",
					"opcodes": "PUSH1 0x80 PUSH1 0x40 MSTORE CALLVALUE DUP1 ISZERO PUSH2 0xF JUMPI PUSH0 DUP1 REVERT JUMPDEST POP PUSH2 0xBEF DUP1 PUSH2 0x1D PUSH0 CODECOPY PUSH0 RETURN INVALID PUSH1 0x80 PUSH1 0x40 MSTORE CALLVALUE DUP1 ISZERO PUSH2 0xF JUMPI PUSH0 DUP1 REVERT JUMPDEST POP PUSH1 0x4 CALLDATASIZE LT PUSH2 0x55 JUMPI PUSH0 CALLDATALOAD PUSH1 0xE0 SHR DUP1 PUSH4 0x32CA2F40 EQ PUSH2 0x59 JUMPI DUP1 PUSH4 0x642F9163 EQ PUSH2 0x75 JUMPI DUP1 PUSH4 0x9C380AF7 EQ PUSH2 0xA5 JUMPI DUP1 PUSH4 0x9E7D93C6 EQ PUSH2 0xC1 JUMPI DUP1 PUSH4 0xBFCC6DA8 EQ PUSH2 0xF1 JUMPI JUMPDEST PUSH0 DUP1 REVERT JUMPDEST PUSH2 0x73 PUSH1 0x4 DUP1 CALLDATASIZE SUB DUP2 ADD SWAP1 PUSH2 0x6E SWAP2 SWAP1 PUSH2 0x568 JUMP JUMPDEST PUSH2 0x10F JUMP JUMPDEST STOP JUMPDEST PUSH2 0x8F PUSH1 0x4 DUP1 CALLDATASIZE SUB DUP2 ADD SWAP1 PUSH2 0x8A SWAP2 SWAP1 PUSH2 0x604 JUMP JUMPDEST PUSH2 0x19D JUMP JUMPDEST PUSH1 0x40 MLOAD PUSH2 0x9C SWAP2 SWAP1 PUSH2 0x71F JUMP JUMPDEST PUSH1 0x40 MLOAD DUP1 SWAP2 SUB SWAP1 RETURN JUMPDEST PUSH2 0xBF PUSH1 0x4 DUP1 CALLDATASIZE SUB DUP2 ADD SWAP1 PUSH2 0xBA SWAP2 SWAP1 PUSH2 0x7F4 JUMP JUMPDEST PUSH2 0x315 JUMP JUMPDEST STOP JUMPDEST PUSH2 0xDB PUSH1 0x4 DUP1 CALLDATASIZE SUB DUP2 ADD SWAP1 PUSH2 0xD6 SWAP2 SWAP1 PUSH2 0x604 JUMP JUMPDEST PUSH2 0x380 JUMP JUMPDEST PUSH1 0x40 MLOAD PUSH2 0xE8 SWAP2 SWAP1 PUSH2 0x84A JUMP JUMPDEST PUSH1 0x40 MLOAD DUP1 SWAP2 SUB SWAP1 RETURN JUMPDEST PUSH2 0xF9 PUSH2 0x3B7 JUMP JUMPDEST PUSH1 0x40 MLOAD PUSH2 0x106 SWAP2 SWAP1 PUSH2 0x84A JUMP JUMPDEST PUSH1 0x40 MLOAD DUP1 SWAP2 SUB SWAP1 RETURN JUMPDEST PUSH0 PUSH1 0x40 MLOAD DUP1 PUSH1 0x80 ADD PUSH1 0x40 MSTORE DUP1 DUP7 DUP2 MSTORE PUSH1 0x20 ADD DUP6 DUP2 MSTORE PUSH1 0x20 ADD DUP5 DUP2 MSTORE PUSH1 0x20 ADD DUP4 DUP2 MSTORE POP SWAP1 DUP1 PUSH1 0x1 DUP2 SLOAD ADD DUP1 DUP3 SSTORE DUP1 SWAP2 POP POP PUSH1 0x1 SWAP1 SUB SWAP1 PUSH0 MSTORE PUSH1 0x20 PUSH0 KECCAK256 SWAP1 PUSH1 0x4 MUL ADD PUSH0 SWAP1 SWAP2 SWAP1 SWAP2 SWAP1 SWAP2 POP PUSH0 DUP3 ADD MLOAD DUP2 PUSH0 ADD SWAP1 DUP2 PUSH2 0x16A SWAP2 SWAP1 PUSH2 0xA5D JUMP JUMPDEST POP PUSH1 0x20 DUP3 ADD MLOAD DUP2 PUSH1 0x1 ADD SSTORE PUSH1 0x40 DUP3 ADD MLOAD DUP2 PUSH1 0x2 ADD SSTORE PUSH1 0x60 DUP3 ADD MLOAD DUP2 PUSH1 0x3 ADD SWAP1 DUP2 PUSH2 0x194 SWAP2 SWAP1 PUSH2 0xA5D JUMP JUMPDEST POP POP POP POP POP POP POP JUMP JUMPDEST PUSH2 0x1A5 PUSH2 0x3C2 JUMP JUMPDEST PUSH0 PUSH1 0x1 DUP4 PUSH2 0x1B3 SWAP2 SWAP1 PUSH2 0xB59 JUMP JUMPDEST DUP2 SLOAD DUP2 LT PUSH2 0x1C4 JUMPI PUSH2 0x1C3 PUSH2 0xB8C JUMP JUMPDEST JUMPDEST SWAP1 PUSH0 MSTORE PUSH1 0x20 PUSH0 KECCAK256 SWAP1 PUSH1 0x4 MUL ADD PUSH1 0x40 MLOAD DUP1 PUSH1 0x80 ADD PUSH1 0x40 MSTORE SWAP1 DUP2 PUSH0 DUP3 ADD DUP1 SLOAD PUSH2 0x1EA SWAP1 PUSH2 0x890 JUMP JUMPDEST DUP1 PUSH1 0x1F ADD PUSH1 0x20 DUP1 SWAP2 DIV MUL PUSH1 0x20 ADD PUSH1 0x40 MLOAD SWAP1 DUP2 ADD PUSH1 0x40 MSTORE DUP1 SWAP3 SWAP2 SWAP1 DUP2 DUP2 MSTORE PUSH1 0x20 ADD DUP3 DUP1 SLOAD PUSH2 0x216 SWAP1 PUSH2 0x890 JUMP JUMPDEST DUP1 ISZERO PUSH2 0x261 JUMPI DUP1 PUSH1 0x1F LT PUSH2 0x238 JUMPI PUSH2 0x100 DUP1 DUP4 SLOAD DIV MUL DUP4 MSTORE SWAP2 PUSH1 0x20 ADD SWAP2 PUSH2 0x261 JUMP JUMPDEST DUP3 ADD SWAP2 SWAP1 PUSH0 MSTORE PUSH1 0x20 PUSH0 KECCAK256 SWAP1 JUMPDEST DUP2 SLOAD DUP2 MSTORE SWAP1 PUSH1 0x1 ADD SWAP1 PUSH1 0x20 ADD DUP1 DUP4 GT PUSH2 0x244 JUMPI DUP3 SWAP1 SUB PUSH1 0x1F AND DUP3 ADD SWAP2 JUMPDEST POP POP POP POP POP DUP2 MSTORE PUSH1 0x20 ADD PUSH1 0x1 DUP3 ADD SLOAD DUP2 MSTORE PUSH1 0x20 ADD PUSH1 0x2 DUP3 ADD SLOAD DUP2 MSTORE PUSH1 0x20 ADD PUSH1 0x3 DUP3 ADD DUP1 SLOAD PUSH2 0x28E SWAP1 PUSH2 0x890 JUMP JUMPDEST DUP1 PUSH1 0x1F ADD PUSH1 0x20 DUP1 SWAP2 DIV MUL PUSH1 0x20 ADD PUSH1 0x40 MLOAD SWAP1 DUP2 ADD PUSH1 0x40 MSTORE DUP1 SWAP3 SWAP2 SWAP1 DUP2 DUP2 MSTORE PUSH1 0x20 ADD DUP3 DUP1 SLOAD PUSH2 0x2BA SWAP1 PUSH2 0x890 JUMP JUMPDEST DUP1 ISZERO PUSH2 0x305 JUMPI DUP1 PUSH1 0x1F LT PUSH2 0x2DC JUMPI PUSH2 0x100 DUP1 DUP4 SLOAD DIV MUL DUP4 MSTORE SWAP2 PUSH1 0x20 ADD SWAP2 PUSH2 0x305 JUMP JUMPDEST DUP3 ADD SWAP2 SWAP1 PUSH0 MSTORE PUSH1 0x20 PUSH0 KECCAK256 SWAP1 JUMPDEST DUP2 SLOAD DUP2 MSTORE SWAP1 PUSH1 0x1 ADD SWAP1 PUSH1 0x20 ADD DUP1 DUP4 GT PUSH2 0x2E8 JUMPI DUP3 SWAP1 SUB PUSH1 0x1F AND DUP3 ADD SWAP2 JUMPDEST POP POP POP POP POP DUP2 MSTORE POP POP SWAP1 POP SWAP2 SWAP1 POP JUMP JUMPDEST PUSH0 DUP2 SWAP1 DUP1 PUSH1 0x1 DUP2 SLOAD ADD DUP1 DUP3 SSTORE DUP1 SWAP2 POP POP PUSH1 0x1 SWAP1 SUB SWAP1 PUSH0 MSTORE PUSH1 0x20 PUSH0 KECCAK256 SWAP1 PUSH1 0x4 MUL ADD PUSH0 SWAP1 SWAP2 SWAP1 SWAP2 SWAP1 SWAP2 POP PUSH0 DUP3 ADD MLOAD DUP2 PUSH0 ADD SWAP1 DUP2 PUSH2 0x350 SWAP2 SWAP1 PUSH2 0xA5D JUMP JUMPDEST POP PUSH1 0x20 DUP3 ADD MLOAD DUP2 PUSH1 0x1 ADD SSTORE PUSH1 0x40 DUP3 ADD MLOAD DUP2 PUSH1 0x2 ADD SSTORE PUSH1 0x60 DUP3 ADD MLOAD DUP2 PUSH1 0x3 ADD SWAP1 DUP2 PUSH2 0x37A SWAP2 SWAP1 PUSH2 0xA5D JUMP JUMPDEST POP POP POP POP JUMP JUMPDEST PUSH0 DUP1 PUSH1 0x1 DUP4 PUSH2 0x38F SWAP2 SWAP1 PUSH2 0xB59 JUMP JUMPDEST DUP2 SLOAD DUP2 LT PUSH2 0x3A0 JUMPI PUSH2 0x39F PUSH2 0xB8C JUMP JUMPDEST JUMPDEST SWAP1 PUSH0 MSTORE PUSH1 0x20 PUSH0 KECCAK256 SWAP1 PUSH1 0x4 MUL ADD PUSH1 0x2 ADD SLOAD SWAP1 POP SWAP2 SWAP1 POP JUMP JUMPDEST PUSH0 DUP1 DUP1 SLOAD SWAP1 POP SWAP1 POP SWAP1 JUMP JUMPDEST PUSH1 0x40 MLOAD DUP1 PUSH1 0x80 ADD PUSH1 0x40 MSTORE DUP1 PUSH1 0x60 DUP2 MSTORE PUSH1 0x20 ADD PUSH0 DUP2 MSTORE PUSH1 0x20 ADD PUSH0 DUP2 MSTORE PUSH1 0x20 ADD PUSH1 0x60 DUP2 MSTORE POP SWAP1 JUMP JUMPDEST PUSH0 PUSH1 0x40 MLOAD SWAP1 POP SWAP1 JUMP JUMPDEST PUSH0 DUP1 REVERT JUMPDEST PUSH0 DUP1 REVERT JUMPDEST PUSH0 DUP1 REVERT JUMPDEST PUSH0 DUP1 REVERT JUMPDEST PUSH0 PUSH1 0x1F NOT PUSH1 0x1F DUP4 ADD AND SWAP1 POP SWAP2 SWAP1 POP JUMP JUMPDEST PUSH32 0x4E487B7100000000000000000000000000000000000000000000000000000000 PUSH0 MSTORE PUSH1 0x41 PUSH1 0x4 MSTORE PUSH1 0x24 PUSH0 REVERT JUMPDEST PUSH2 0x447 DUP3 PUSH2 0x401 JUMP JUMPDEST DUP2 ADD DUP2 DUP2 LT PUSH8 0xFFFFFFFFFFFFFFFF DUP3 GT OR ISZERO PUSH2 0x466 JUMPI PUSH2 0x465 PUSH2 0x411 JUMP JUMPDEST JUMPDEST DUP1 PUSH1 0x40 MSTORE POP POP POP JUMP JUMPDEST PUSH0 PUSH2 0x478 PUSH2 0x3E8 JUMP JUMPDEST SWAP1 POP PUSH2 0x484 DUP3 DUP3 PUSH2 0x43E JUMP JUMPDEST SWAP2 SWAP1 POP JUMP JUMPDEST PUSH0 PUSH8 0xFFFFFFFFFFFFFFFF DUP3 GT ISZERO PUSH2 0x4A3 JUMPI PUSH2 0x4A2 PUSH2 0x411 JUMP JUMPDEST JUMPDEST PUSH2 0x4AC DUP3 PUSH2 0x401 JUMP JUMPDEST SWAP1 POP PUSH1 0x20 DUP2 ADD SWAP1 POP SWAP2 SWAP1 POP JUMP JUMPDEST DUP3 DUP2 DUP4 CALLDATACOPY PUSH0 DUP4 DUP4 ADD MSTORE POP POP POP JUMP JUMPDEST PUSH0 PUSH2 0x4D9 PUSH2 0x4D4 DUP5 PUSH2 0x489 JUMP JUMPDEST PUSH2 0x46F JUMP JUMPDEST SWAP1 POP DUP3 DUP2 MSTORE PUSH1 0x20 DUP2 ADD DUP5 DUP5 DUP5 ADD GT ISZERO PUSH2 0x4F5 JUMPI PUSH2 0x4F4 PUSH2 0x3FD JUMP JUMPDEST JUMPDEST PUSH2 0x500 DUP5 DUP3 DUP6 PUSH2 0x4B9 JUMP JUMPDEST POP SWAP4 SWAP3 POP POP POP JUMP JUMPDEST PUSH0 DUP3 PUSH1 0x1F DUP4 ADD SLT PUSH2 0x51C JUMPI PUSH2 0x51B PUSH2 0x3F9 JUMP JUMPDEST JUMPDEST DUP2 CALLDATALOAD PUSH2 0x52C DUP5 DUP3 PUSH1 0x20 DUP7 ADD PUSH2 0x4C7 JUMP JUMPDEST SWAP2 POP POP SWAP3 SWAP2 POP POP JUMP JUMPDEST PUSH0 DUP2 SWAP1 POP SWAP2 SWAP1 POP JUMP JUMPDEST PUSH2 0x547 DUP2 PUSH2 0x535 JUMP JUMPDEST DUP2 EQ PUSH2 0x551 JUMPI PUSH0 DUP1 REVERT JUMPDEST POP JUMP JUMPDEST PUSH0 DUP2 CALLDATALOAD SWAP1 POP PUSH2 0x562 DUP2 PUSH2 0x53E JUMP JUMPDEST SWAP3 SWAP2 POP POP JUMP JUMPDEST PUSH0 DUP1 PUSH0 DUP1 PUSH1 0x80 DUP6 DUP8 SUB SLT ISZERO PUSH2 0x580 JUMPI PUSH2 0x57F PUSH2 0x3F1 JUMP JUMPDEST JUMPDEST PUSH0 DUP6 ADD CALLDATALOAD PUSH8 0xFFFFFFFFFFFFFFFF DUP2 GT ISZERO PUSH2 0x59D JUMPI PUSH2 0x59C PUSH2 0x3F5 JUMP JUMPDEST JUMPDEST PUSH2 0x5A9 DUP8 DUP3 DUP9 ADD PUSH2 0x508 JUMP JUMPDEST SWAP5 POP POP PUSH1 0x20 PUSH2 0x5BA DUP8 DUP3 DUP9 ADD PUSH2 0x554 JUMP JUMPDEST SWAP4 POP POP PUSH1 0x40 PUSH2 0x5CB DUP8 DUP3 DUP9 ADD PUSH2 0x554 JUMP JUMPDEST SWAP3 POP POP PUSH1 0x60 DUP6 ADD CALLDATALOAD PUSH8 0xFFFFFFFFFFFFFFFF DUP2 GT ISZERO PUSH2 0x5EC JUMPI PUSH2 0x5EB PUSH2 0x3F5 JUMP JUMPDEST JUMPDEST PUSH2 0x5F8 DUP8 DUP3 DUP9 ADD PUSH2 0x508 JUMP JUMPDEST SWAP2 POP POP SWAP3 SWAP6 SWAP2 SWAP5 POP SWAP3 POP JUMP JUMPDEST PUSH0 PUSH1 0x20 DUP3 DUP5 SUB SLT ISZERO PUSH2 0x619 JUMPI PUSH2 0x618 PUSH2 0x3F1 JUMP JUMPDEST JUMPDEST PUSH0 PUSH2 0x626 DUP5 DUP3 DUP6 ADD PUSH2 0x554 JUMP JUMPDEST SWAP2 POP POP SWAP3 SWAP2 POP POP JUMP JUMPDEST PUSH0 DUP2 MLOAD SWAP1 POP SWAP2 SWAP1 POP JUMP JUMPDEST PUSH0 DUP3 DUP3 MSTORE PUSH1 0x20 DUP3 ADD SWAP1 POP SWAP3 SWAP2 POP POP JUMP JUMPDEST PUSH0 JUMPDEST DUP4 DUP2 LT ISZERO PUSH2 0x666 JUMPI DUP1 DUP3 ADD MLOAD DUP2 DUP5 ADD MSTORE PUSH1 0x20 DUP2 ADD SWAP1 POP PUSH2 0x64B JUMP JUMPDEST PUSH0 DUP5 DUP5 ADD MSTORE POP POP POP POP JUMP JUMPDEST PUSH0 PUSH2 0x67B DUP3 PUSH2 0x62F JUMP JUMPDEST PUSH2 0x685 DUP2 DUP6 PUSH2 0x639 JUMP JUMPDEST SWAP4 POP PUSH2 0x695 DUP2 DUP6 PUSH1 0x20 DUP7 ADD PUSH2 0x649 JUMP JUMPDEST PUSH2 0x69E DUP2 PUSH2 0x401 JUMP JUMPDEST DUP5 ADD SWAP2 POP POP SWAP3 SWAP2 POP POP JUMP JUMPDEST PUSH2 0x6B2 DUP2 PUSH2 0x535 JUMP JUMPDEST DUP3 MSTORE POP POP JUMP JUMPDEST PUSH0 PUSH1 0x80 DUP4 ADD PUSH0 DUP4 ADD MLOAD DUP5 DUP3 SUB PUSH0 DUP7 ADD MSTORE PUSH2 0x6D2 DUP3 DUP3 PUSH2 0x671 JUMP JUMPDEST SWAP2 POP POP PUSH1 0x20 DUP4 ADD MLOAD PUSH2 0x6E7 PUSH1 0x20 DUP7 ADD DUP3 PUSH2 0x6A9 JUMP JUMPDEST POP PUSH1 0x40 DUP4 ADD MLOAD PUSH2 0x6FA PUSH1 0x40 DUP7 ADD DUP3 PUSH2 0x6A9 JUMP JUMPDEST POP PUSH1 0x60 DUP4 ADD MLOAD DUP5 DUP3 SUB PUSH1 0x60 DUP7 ADD MSTORE PUSH2 0x712 DUP3 DUP3 PUSH2 0x671 JUMP JUMPDEST SWAP2 POP POP DUP1 SWAP2 POP POP SWAP3 SWAP2 POP POP JUMP JUMPDEST PUSH0 PUSH1 0x20 DUP3 ADD SWAP1 POP DUP2 DUP2 SUB PUSH0 DUP4 ADD MSTORE PUSH2 0x737 DUP2 DUP5 PUSH2 0x6B8 JUMP JUMPDEST SWAP1 POP SWAP3 SWAP2 POP POP JUMP JUMPDEST PUSH0 DUP1 REVERT JUMPDEST PUSH0 DUP1 REVERT JUMPDEST PUSH0 PUSH1 0x80 DUP3 DUP5 SUB SLT ISZERO PUSH2 0x75C JUMPI PUSH2 0x75B PUSH2 0x73F JUMP JUMPDEST JUMPDEST PUSH2 0x766 PUSH1 0x80 PUSH2 0x46F JUMP JUMPDEST SWAP1 POP PUSH0 DUP3 ADD CALLDATALOAD PUSH8 0xFFFFFFFFFFFFFFFF DUP2 GT ISZERO PUSH2 0x785 JUMPI PUSH2 0x784 PUSH2 0x743 JUMP JUMPDEST JUMPDEST PUSH2 0x791 DUP5 DUP3 DUP6 ADD PUSH2 0x508 JUMP JUMPDEST PUSH0 DUP4 ADD MSTORE POP PUSH1 0x20 PUSH2 0x7A4 DUP5 DUP3 DUP6 ADD PUSH2 0x554 JUMP JUMPDEST PUSH1 0x20 DUP4 ADD MSTORE POP PUSH1 0x40 PUSH2 0x7B8 DUP5 DUP3 DUP6 ADD PUSH2 0x554 JUMP JUMPDEST PUSH1 0x40 DUP4 ADD MSTORE POP PUSH1 0x60 DUP3 ADD CALLDATALOAD PUSH8 0xFFFFFFFFFFFFFFFF DUP2 GT ISZERO PUSH2 0x7DC JUMPI PUSH2 0x7DB PUSH2 0x743 JUMP JUMPDEST JUMPDEST PUSH2 0x7E8 DUP5 DUP3 DUP6 ADD PUSH2 0x508 JUMP JUMPDEST PUSH1 0x60 DUP4 ADD MSTORE POP SWAP3 SWAP2 POP POP JUMP JUMPDEST PUSH0 PUSH1 0x20 DUP3 DUP5 SUB SLT ISZERO PUSH2 0x809 JUMPI PUSH2 0x808 PUSH2 0x3F1 JUMP JUMPDEST JUMPDEST PUSH0 DUP3 ADD CALLDATALOAD PUSH8 0xFFFFFFFFFFFFFFFF DUP2 GT ISZERO PUSH2 0x826 JUMPI PUSH2 0x825 PUSH2 0x3F5 JUMP JUMPDEST JUMPDEST PUSH2 0x832 DUP5 DUP3 DUP6 ADD PUSH2 0x747 JUMP JUMPDEST SWAP2 POP POP SWAP3 SWAP2 POP POP JUMP JUMPDEST PUSH2 0x844 DUP2 PUSH2 0x535 JUMP JUMPDEST DUP3 MSTORE POP POP JUMP JUMPDEST PUSH0 PUSH1 0x20 DUP3 ADD SWAP1 POP PUSH2 0x85D PUSH0 DUP4 ADD DUP5 PUSH2 0x83B JUMP JUMPDEST SWAP3 SWAP2 POP POP JUMP JUMPDEST PUSH32 0x4E487B7100000000000000000000000000000000000000000000000000000000 PUSH0 MSTORE PUSH1 0x22 PUSH1 0x4 MSTORE PUSH1 0x24 PUSH0 REVERT JUMPDEST PUSH0 PUSH1 0x2 DUP3 DIV SWAP1 POP PUSH1 0x1 DUP3 AND DUP1 PUSH2 0x8A7 JUMPI PUSH1 0x7F DUP3 AND SWAP2 POP JUMPDEST PUSH1 0x20 DUP3 LT DUP2 SUB PUSH2 0x8BA JUMPI PUSH2 0x8B9 PUSH2 0x863 JUMP JUMPDEST JUMPDEST POP SWAP2 SWAP1 POP JUMP JUMPDEST PUSH0 DUP2 SWAP1 POP DUP2 PUSH0 MSTORE PUSH1 0x20 PUSH0 KECCAK256 SWAP1 POP SWAP2 SWAP1 POP JUMP JUMPDEST PUSH0 PUSH1 0x20 PUSH1 0x1F DUP4 ADD DIV SWAP1 POP SWAP2 SWAP1 POP JUMP JUMPDEST PUSH0 DUP3 DUP3 SHL SWAP1 POP SWAP3 SWAP2 POP POP JUMP JUMPDEST PUSH0 PUSH1 0x8 DUP4 MUL PUSH2 0x91C PUSH32 0xFFFFFFFFFFFFFFFFFFFFFFFFFFFFFFFFFFFFFFFFFFFFFFFFFFFFFFFFFFFFFFFF DUP3 PUSH2 0x8E1 JUMP JUMPDEST PUSH2 0x926 DUP7 DUP4 PUSH2 0x8E1 JUMP JUMPDEST SWAP6 POP DUP1 NOT DUP5 AND SWAP4 POP DUP1 DUP7 AND DUP5 OR SWAP3 POP POP POP SWAP4 SWAP3 POP POP POP JUMP JUMPDEST PUSH0 DUP2 SWAP1 POP SWAP2 SWAP1 POP JUMP JUMPDEST PUSH0 PUSH2 0x961 PUSH2 0x95C PUSH2 0x957 DUP5 PUSH2 0x535 JUMP JUMPDEST PUSH2 0x93E JUMP JUMPDEST PUSH2 0x535 JUMP JUMPDEST SWAP1 POP SWAP2 SWAP1 POP JUMP JUMPDEST PUSH0 DUP2 SWAP1 POP SWAP2 SWAP1 POP JUMP JUMPDEST PUSH2 0x97A DUP4 PUSH2 0x947 JUMP JUMPDEST PUSH2 0x98E PUSH2 0x986 DUP3 PUSH2 0x968 JUMP JUMPDEST DUP5 DUP5 SLOAD PUSH2 0x8ED JUMP JUMPDEST DUP3 SSTORE POP POP POP POP JUMP JUMPDEST PUSH0 SWAP1 JUMP JUMPDEST PUSH2 0x9A2 PUSH2 0x996 JUMP JUMPDEST PUSH2 0x9AD DUP2 DUP5 DUP5 PUSH2 0x971 JUMP JUMPDEST POP POP POP JUMP JUMPDEST JUMPDEST DUP2 DUP2 LT ISZERO PUSH2 0x9D0 JUMPI PUSH2 0x9C5 PUSH0 DUP3 PUSH2 0x99A JUMP JUMPDEST PUSH1 0x1 DUP2 ADD SWAP1 POP PUSH2 0x9B3 JUMP JUMPDEST POP POP JUMP JUMPDEST PUSH1 0x1F DUP3 GT ISZERO PUSH2 0xA15 JUMPI PUSH2 0x9E6 DUP2 PUSH2 0x8C0 JUMP JUMPDEST PUSH2 0x9EF DUP5 PUSH2 0x8D2 JUMP JUMPDEST DUP2 ADD PUSH1 0x20 DUP6 LT ISZERO PUSH2 0x9FE JUMPI DUP2 SWAP1 POP JUMPDEST PUSH2 0xA12 PUSH2 0xA0A DUP6 PUSH2 0x8D2 JUMP JUMPDEST DUP4 ADD DUP3 PUSH2 0x9B2 JUMP JUMPDEST POP POP JUMPDEST POP POP POP JUMP JUMPDEST PUSH0 DUP3 DUP3 SHR SWAP1 POP SWAP3 SWAP2 POP POP JUMP JUMPDEST PUSH0 PUSH2 0xA35 PUSH0 NOT DUP5 PUSH1 0x8 MUL PUSH2 0xA1A JUMP JUMPDEST NOT DUP1 DUP4 AND SWAP2 POP POP SWAP3 SWAP2 POP POP JUMP JUMPDEST PUSH0 PUSH2 0xA4D DUP4 DUP4 PUSH2 0xA26 JUMP JUMPDEST SWAP2 POP DUP3 PUSH1 0x2 MUL DUP3 OR SWAP1 POP SWAP3 SWAP2 POP POP JUMP JUMPDEST PUSH2 0xA66 DUP3 PUSH2 0x62F JUMP JUMPDEST PUSH8 0xFFFFFFFFFFFFFFFF DUP2 GT ISZERO PUSH2 0xA7F JUMPI PUSH2 0xA7E PUSH2 0x411 JUMP JUMPDEST JUMPDEST PUSH2 0xA89 DUP3 SLOAD PUSH2 0x890 JUMP JUMPDEST PUSH2 0xA94 DUP3 DUP3 DUP6 PUSH2 0x9D4 JUMP JUMPDEST PUSH0 PUSH1 0x20 SWAP1 POP PUSH1 0x1F DUP4 GT PUSH1 0x1 DUP2 EQ PUSH2 0xAC5 JUMPI PUSH0 DUP5 ISZERO PUSH2 0xAB3 JUMPI DUP3 DUP8 ADD MLOAD SWAP1 POP JUMPDEST PUSH2 0xABD DUP6 DUP3 PUSH2 0xA42 JUMP JUMPDEST DUP7 SSTORE POP PUSH2 0xB24 JUMP JUMPDEST PUSH1 0x1F NOT DUP5 AND PUSH2 0xAD3 DUP7 PUSH2 0x8C0 JUMP JUMPDEST PUSH0 JUMPDEST DUP3 DUP2 LT ISZERO PUSH2 0xAFA JUMPI DUP5 DUP10 ADD MLOAD DUP3 SSTORE PUSH1 0x1 DUP3 ADD SWAP2 POP PUSH1 0x20 DUP6 ADD SWAP5 POP PUSH1 0x20 DUP2 ADD SWAP1 POP PUSH2 0xAD5 JUMP JUMPDEST DUP7 DUP4 LT ISZERO PUSH2 0xB17 JUMPI DUP5 DUP10 ADD MLOAD PUSH2 0xB13 PUSH1 0x1F DUP10 AND DUP3 PUSH2 0xA26 JUMP JUMPDEST DUP4 SSTORE POP JUMPDEST PUSH1 0x1 PUSH1 0x2 DUP9 MUL ADD DUP9 SSTORE POP POP POP JUMPDEST POP POP POP POP POP POP JUMP JUMPDEST PUSH32 0x4E487B7100000000000000000000000000000000000000000000000000000000 PUSH0 MSTORE PUSH1 0x11 PUSH1 0x4 MSTORE PUSH1 0x24 PUSH0 REVERT JUMPDEST PUSH0 PUSH2 0xB63 DUP3 PUSH2 0x535 JUMP JUMPDEST SWAP2 POP PUSH2 0xB6E DUP4 PUSH2 0x535 JUMP JUMPDEST SWAP3 POP DUP3 DUP3 SUB SWAP1 POP DUP2 DUP2 GT ISZERO PUSH2 0xB86 JUMPI PUSH2 0xB85 PUSH2 0xB2C JUMP JUMPDEST JUMPDEST SWAP3 SWAP2 POP POP JUMP JUMPDEST PUSH32 0x4E487B7100000000000000000000000000000000000000000000000000000000 PUSH0 MSTORE PUSH1 0x32 PUSH1 0x4 MSTORE PUSH1 0x24 PUSH0 REVERT INVALID LOG2 PUSH5 0x6970667358 0x22 SLT KECCAK256 DUP11 0xC4 0xED XOR 0xF7 0xB0 0x22 PUSH29 0xE54C2D5D803458FE0343B96E70EACA6F72E2F4AE168C17B964736F6C63 NUMBER STOP ADDMOD OR STOP CALLER "
				},
				"gasEstimates": {
					"creation": {
						"codeDepositCost": "611000",
						"executionCost": "643",
						"totalCost": "611643"
					},
					"external": {
						"getClassLength()": "2506",
						"getScoreOfStudent(uint256)": "infinite",
						"getStudent(uint256)": "infinite",
						"pushStudent(string,uint256,uint256,string)": "infinite",
						"pushStudent2((string,uint256,uint256,string))": "infinite"
					}
				},
				"methodIdentifiers": {
					"getClassLength()": "bfcc6da8",
					"getScoreOfStudent(uint256)": "9e7d93c6",
					"getStudent(uint256)": "642f9163",
					"pushStudent(string,uint256,uint256,string)": "32ca2f40",
					"pushStudent2((string,uint256,uint256,string))": "9c380af7"
				}
			},
			"storageLayout": {
				"storage": [
					{
						"astId": 14,
						"contract": "test.sol:TEST",
						"label": "class",
						"offset": 0,
						"slot": "0",
						"type": "t_array(t_struct(student)10_storage)dyn_storage"
					}
				],
				"types": {
					"t_array(t_struct(student)10_storage)dyn_storage": {
						"base": "t_struct(student)10_storage",
						"encoding": "dynamic_array",
						"label": "struct TEST.student[]",
						"numberOfBytes": "32"
					},
					"t_string_storage": {
						"encoding": "bytes",
						"label": "string",
						"numberOfBytes": "32"
					},
					"t_struct(student)10_storage": {
						"encoding": "inplace",
						"label": "struct TEST.student",
						"members": [
							{
								"astId": 3,
								"contract": "test.sol:TEST",
								"label": "name",
								"offset": 0,
								"slot": "0",
								"type": "t_string_storage"
							},
							{
								"astId": 5,
								"contract": "test.sol:TEST",
								"label": "number",
								"offset": 0,
								"slot": "1",
								"type": "t_uint256"
							},
							{
								"astId": 7,
								"contract": "test.sol:TEST",
								"label": "score",
								"offset": 0,
								"slot": "2",
								"type": "t_uint256"
							},
							{
								"astId": 9,
								"contract": "test.sol:TEST",
								"label": "grade",
								"offset": 0,
								"slot": "3",
								"type": "t_string_storage"
							}
						],
						"numberOfBytes": "128"
					},
					"t_uint256": {
						"encoding": "inplace",
						"label": "uint256",
						"numberOfBytes": "32"
					}
				}
			},
			"userdoc": {
				"kind": "user",
				"methods": {},
				"version": 1
			}
		}
	}
}