{
	"struct.sol": {
		"STRUCT": {
			"abi": [
				{
					"inputs": [],
					"name": "getS",
					"outputs": [
						{
							"components": [
								{
									"internalType": "string",
									"name": "name",
									"type": "string"
								},
								{
									"internalType": "bool",
									"name": "isMale",
									"type": "bool"
								},
								{
									"internalType": "uint256",
									"name": "number",
									"type": "uint256"
								}
							],
							"internalType": "struct STRUCT.Student",
							"name": "",
							"type": "tuple"
						}
					],
					"stateMutability": "view",
					"type": "function"
				},
				{
					"inputs": [],
					"name": "getSName",
					"outputs": [
						{
							"internalType": "string",
							"name": "",
							"type": "string"
						}
					],
					"stateMutability": "view",
					"type": "function"
				},
				{
					"inputs": [
						{
							"internalType": "string",
							"name": "_name",
							"type": "string"
						},
						{
							"internalType": "bool",
							"name": "_isMale",
							"type": "bool"
						},
						{
							"internalType": "uint256",
							"name": "_number",
							"type": "uint256"
						}
					],
					"name": "setS",
					"outputs": [],
					"stateMutability": "nonpayable",
					"type": "function"
				}
			],
			"devdoc": {
				"kind": "dev",
				"methods": {},
				"version": 1
			},
			"evm": {
				"assembly": "    /* \"struct.sol\":57:540  contract STRUCT {... */\n  mstore(0x40, 0x80)\n  callvalue\n  dup1\n  iszero\n  tag_1\n  jumpi\n  0x00\n  dup1\n  revert\ntag_1:\n  pop\n  dataSize(sub_0)\n  dup1\n  dataOffset(sub_0)\n  0x00\n  codecopy\n  0x00\n  return\nstop\n\nsub_0: assembly {\n        /* \"struct.sol\":57:540  contract STRUCT {... */\n      mstore(0x40, 0x80)\n      callvalue\n      dup1\n      iszero\n      tag_1\n      jumpi\n      0x00\n      dup1\n      revert\n    tag_1:\n      pop\n      jumpi(tag_2, lt(calldatasize, 0x04))\n      shr(0xe0, calldataload(0x00))\n      dup1\n      0x29ec0b2b\n      eq\n      tag_3\n      jumpi\n      dup1\n      0xa99c855e\n      eq\n      tag_4\n      jumpi\n      dup1\n      0xe93314ab\n      eq\n      tag_5\n      jumpi\n    tag_2:\n      0x00\n      dup1\n      revert\n        /* \"struct.sol\":240:363  function setS(string memory _name, bool _isMale, uint _number) public {... */\n    tag_3:\n      tag_6\n      0x04\n      dup1\n      calldatasize\n      sub\n      dup2\n      add\n      swap1\n      tag_7\n      swap2\n      swap1\n      tag_8\n      jump\t// in\n    tag_7:\n      tag_9\n      jump\t// in\n    tag_6:\n      stop\n        /* \"struct.sol\":452:537  function getSName() public view returns(string memory) {... */\n    tag_4:\n      tag_10\n      tag_11\n      jump\t// in\n    tag_10:\n      mload(0x40)\n      tag_12\n      swap2\n      swap1\n      tag_13\n      jump\t// in\n    tag_12:\n      mload(0x40)\n      dup1\n      swap2\n      sub\n      swap1\n      return\n        /* \"struct.sol\":369:446  function getS() public view returns(Student memory) {... */\n    tag_5:\n      tag_14\n      tag_15\n      jump\t// in\n    tag_14:\n      mload(0x40)\n      tag_16\n      swap2\n      swap1\n      tag_17\n      jump\t// in\n    tag_16:\n      mload(0x40)\n      dup1\n      swap2\n      sub\n      swap1\n      return\n        /* \"struct.sol\":240:363  function setS(string memory _name, bool _isMale, uint _number) public {... */\n    tag_9:\n        /* \"struct.sol\":324:356  Student(_name, _isMale, _number) */\n      mload(0x40)\n      dup1\n      0x60\n      add\n      0x40\n      mstore\n      dup1\n        /* \"struct.sol\":332:337  _name */\n      dup5\n        /* \"struct.sol\":324:356  Student(_name, _isMale, _number) */\n      dup2\n      mstore\n      0x20\n      add\n        /* \"struct.sol\":339:346  _isMale */\n      dup4\n        /* \"struct.sol\":324:356  Student(_name, _isMale, _number) */\n      iszero\n      iszero\n      dup2\n      mstore\n      0x20\n      add\n        /* \"struct.sol\":348:355  _number */\n      dup3\n        /* \"struct.sol\":324:356  Student(_name, _isMale, _number) */\n      dup2\n      mstore\n      pop\n        /* \"struct.sol\":320:321  s */\n      0x04\n        /* \"struct.sol\":320:356  s = Student(_name, _isMale, _number) */\n      0x00\n      dup3\n      add\n      mload\n      dup2\n      0x00\n      add\n      swap1\n      dup2\n      tag_19\n      swap2\n      swap1\n      tag_20\n      jump\t// in\n    tag_19:\n      pop\n      0x20\n      dup3\n      add\n      mload\n      dup2\n      0x01\n      add\n      exp(0x0100, 0x00)\n      dup2\n      sload\n      dup2\n      0xff\n      mul\n      not\n      and\n      swap1\n      dup4\n      iszero\n      iszero\n      mul\n      or\n      swap1\n      sstore\n      pop\n      0x40\n      dup3\n      add\n      mload\n      dup2\n      0x02\n      add\n      sstore\n      swap1\n      pop\n      pop\n        /* \"struct.sol\":240:363  function setS(string memory _name, bool _isMale, uint _number) public {... */\n      pop\n      pop\n      pop\n      jump\t// out\n        /* \"struct.sol\":452:537  function getSName() public view returns(string memory) {... */\n    tag_11:\n        /* \"struct.sol\":492:505  string memory */\n      0x60\n        /* \"struct.sol\":524:525  s */\n      0x04\n        /* \"struct.sol\":524:530  s.name */\n      0x00\n      add\n        /* \"struct.sol\":517:530  return s.name */\n      dup1\n      sload\n      tag_22\n      swap1\n      tag_23\n      jump\t// in\n    tag_22:\n      dup1\n      0x1f\n      add\n      0x20\n      dup1\n      swap2\n      div\n      mul\n      0x20\n      add\n      mload(0x40)\n      swap1\n      dup2\n      add\n      0x40\n      mstore\n      dup1\n      swap3\n      swap2\n      swap1\n      dup2\n      dup2\n      mstore\n      0x20\n      add\n      dup3\n      dup1\n      sload\n      tag_24\n      swap1\n      tag_23\n      jump\t// in\n    tag_24:\n      dup1\n      iszero\n      tag_25\n      jumpi\n      dup1\n      0x1f\n      lt\n      tag_26\n      jumpi\n      0x0100\n      dup1\n      dup4\n      sload\n      div\n      mul\n      dup4\n      mstore\n      swap2\n      0x20\n      add\n      swap2\n      jump(tag_25)\n    tag_26:\n      dup3\n      add\n      swap2\n      swap1\n      0x00\n      mstore\n      keccak256(0x00, 0x20)\n      swap1\n    tag_27:\n      dup2\n      sload\n      dup2\n      mstore\n      swap1\n      0x01\n      add\n      swap1\n      0x20\n      add\n      dup1\n      dup4\n      gt\n      tag_27\n      jumpi\n      dup3\n      swap1\n      sub\n      0x1f\n      and\n      dup3\n      add\n      swap2\n    tag_25:\n      pop\n      pop\n      pop\n      pop\n      pop\n      swap1\n      pop\n        /* \"struct.sol\":452:537  function getSName() public view returns(string memory) {... */\n      swap1\n      jump\t// out\n        /* \"struct.sol\":369:446  function getS() public view returns(Student memory) {... */\n    tag_15:\n        /* \"struct.sol\":405:419  Student memory */\n      tag_28\n      tag_29\n      jump\t// in\n    tag_28:\n        /* \"struct.sol\":438:439  s */\n      0x04\n        /* \"struct.sol\":431:439  return s */\n      mload(0x40)\n      dup1\n      0x60\n      add\n      0x40\n      mstore\n      swap1\n      dup2\n      0x00\n      dup3\n      add\n      dup1\n      sload\n      tag_31\n      swap1\n      tag_23\n      jump\t// in\n    tag_31:\n      dup1\n      0x1f\n      add\n      0x20\n      dup1\n      swap2\n      div\n      mul\n      0x20\n      add\n      mload(0x40)\n      swap1\n      dup2\n      add\n      0x40\n      mstore\n      dup1\n      swap3\n      swap2\n      swap1\n      dup2\n      dup2\n      mstore\n      0x20\n      add\n      dup3\n      dup1\n      sload\n      tag_32\n      swap1\n      tag_23\n      jump\t// in\n    tag_32:\n      dup1\n      iszero\n      tag_33\n      jumpi\n      dup1\n      0x1f\n      lt\n      tag_34\n      jumpi\n      0x0100\n      dup1\n      dup4\n      sload\n      div\n      mul\n      dup4\n      mstore\n      swap2\n      0x20\n      add\n      swap2\n      jump(tag_33)\n    tag_34:\n      dup3\n      add\n      swap2\n      swap1\n      0x00\n      mstore\n      keccak256(0x00, 0x20)\n      swap1\n    tag_35:\n      dup2\n      sload\n      dup2\n      mstore\n      swap1\n      0x01\n      add\n      swap1\n      0x20\n      add\n      dup1\n      dup4\n      gt\n      tag_35\n      jumpi\n      dup3\n      swap1\n      sub\n      0x1f\n      and\n      dup3\n      add\n      swap2\n    tag_33:\n      pop\n      pop\n      pop\n      pop\n      pop\n      dup2\n      mstore\n      0x20\n      add\n      0x01\n      dup3\n      add\n      0x00\n      swap1\n      sload\n      swap1\n      0x0100\n      exp\n      swap1\n      div\n      0xff\n      and\n      iszero\n      iszero\n      iszero\n      iszero\n      dup2\n      mstore\n      0x20\n      add\n      0x02\n      dup3\n      add\n      sload\n      dup2\n      mstore\n      pop\n      pop\n      swap1\n      pop\n        /* \"struct.sol\":369:446  function getS() public view returns(Student memory) {... */\n      swap1\n      jump\t// out\n    tag_29:\n      mload(0x40)\n      dup1\n      0x60\n      add\n      0x40\n      mstore\n      dup1\n      0x60\n      dup2\n      mstore\n      0x20\n      add\n      iszero(iszero(0x00))\n      dup2\n      mstore\n      0x20\n      add\n      0x00\n      dup2\n      mstore\n      pop\n      swap1\n      jump\t// out\n        /* \"#utility.yul\":7:82   */\n    tag_36:\n        /* \"#utility.yul\":40:46   */\n      0x00\n        /* \"#utility.yul\":73:75   */\n      0x40\n        /* \"#utility.yul\":67:76   */\n      mload\n        /* \"#utility.yul\":57:76   */\n      swap1\n      pop\n        /* \"#utility.yul\":7:82   */\n      swap1\n      jump\t// out\n        /* \"#utility.yul\":88:205   */\n    tag_37:\n        /* \"#utility.yul\":197:198   */\n      0x00\n        /* \"#utility.yul\":194:195   */\n      dup1\n        /* \"#utility.yul\":187:199   */\n      revert\n        /* \"#utility.yul\":211:328   */\n    tag_38:\n        /* \"#utility.yul\":320:321   */\n      0x00\n        /* \"#utility.yul\":317:318   */\n      dup1\n        /* \"#utility.yul\":310:322   */\n      revert\n        /* \"#utility.yul\":334:451   */\n    tag_39:\n        /* \"#utility.yul\":443:444   */\n      0x00\n        /* \"#utility.yul\":440:441   */\n      dup1\n        /* \"#utility.yul\":433:445   */\n      revert\n        /* \"#utility.yul\":457:574   */\n    tag_40:\n        /* \"#utility.yul\":566:567   */\n      0x00\n        /* \"#utility.yul\":563:564   */\n      dup1\n        /* \"#utility.yul\":556:568   */\n      revert\n        /* \"#utility.yul\":580:682   */\n    tag_41:\n        /* \"#utility.yul\":621:627   */\n      0x00\n        /* \"#utility.yul\":672:674   */\n      0x1f\n        /* \"#utility.yul\":668:675   */\n      not\n        /* \"#utility.yul\":663:665   */\n      0x1f\n        /* \"#utility.yul\":656:661   */\n      dup4\n        /* \"#utility.yul\":652:666   */\n      add\n        /* \"#utility.yul\":648:676   */\n      and\n        /* \"#utility.yul\":638:676   */\n      swap1\n      pop\n        /* \"#utility.yul\":580:682   */\n      swap2\n      swap1\n      pop\n      jump\t// out\n        /* \"#utility.yul\":688:868   */\n    tag_42:\n        /* \"#utility.yul\":736:813   */\n      0x4e487b7100000000000000000000000000000000000000000000000000000000\n        /* \"#utility.yul\":733:734   */\n      0x00\n        /* \"#utility.yul\":726:814   */\n      mstore\n        /* \"#utility.yul\":833:837   */\n      0x41\n        /* \"#utility.yul\":830:831   */\n      0x04\n        /* \"#utility.yul\":823:838   */\n      mstore\n        /* \"#utility.yul\":857:861   */\n      0x24\n        /* \"#utility.yul\":854:855   */\n      0x00\n        /* \"#utility.yul\":847:862   */\n      revert\n        /* \"#utility.yul\":874:1155   */\n    tag_43:\n        /* \"#utility.yul\":957:984   */\n      tag_89\n        /* \"#utility.yul\":979:983   */\n      dup3\n        /* \"#utility.yul\":957:984   */\n      tag_41\n      jump\t// in\n    tag_89:\n        /* \"#utility.yul\":949:955   */\n      dup2\n        /* \"#utility.yul\":945:985   */\n      add\n        /* \"#utility.yul\":1087:1093   */\n      dup2\n        /* \"#utility.yul\":1075:1085   */\n      dup2\n        /* \"#utility.yul\":1072:1094   */\n      lt\n        /* \"#utility.yul\":1051:1069   */\n      0xffffffffffffffff\n        /* \"#utility.yul\":1039:1049   */\n      dup3\n        /* \"#utility.yul\":1036:1070   */\n      gt\n        /* \"#utility.yul\":1033:1095   */\n      or\n        /* \"#utility.yul\":1030:1118   */\n      iszero\n      tag_90\n      jumpi\n        /* \"#utility.yul\":1098:1116   */\n      tag_91\n      tag_42\n      jump\t// in\n    tag_91:\n        /* \"#utility.yul\":1030:1118   */\n    tag_90:\n        /* \"#utility.yul\":1138:1148   */\n      dup1\n        /* \"#utility.yul\":1134:1136   */\n      0x40\n        /* \"#utility.yul\":1127:1149   */\n      mstore\n        /* \"#utility.yul\":917:1155   */\n      pop\n        /* \"#utility.yul\":874:1155   */\n      pop\n      pop\n      jump\t// out\n        /* \"#utility.yul\":1161:1290   */\n    tag_44:\n        /* \"#utility.yul\":1195:1201   */\n      0x00\n        /* \"#utility.yul\":1222:1242   */\n      tag_93\n      tag_36\n      jump\t// in\n    tag_93:\n        /* \"#utility.yul\":1212:1242   */\n      swap1\n      pop\n        /* \"#utility.yul\":1251:1284   */\n      tag_94\n        /* \"#utility.yul\":1279:1283   */\n      dup3\n        /* \"#utility.yul\":1271:1277   */\n      dup3\n        /* \"#utility.yul\":1251:1284   */\n      tag_43\n      jump\t// in\n    tag_94:\n        /* \"#utility.yul\":1161:1290   */\n      swap2\n      swap1\n      pop\n      jump\t// out\n        /* \"#utility.yul\":1296:1604   */\n    tag_45:\n        /* \"#utility.yul\":1358:1362   */\n      0x00\n        /* \"#utility.yul\":1448:1466   */\n      0xffffffffffffffff\n        /* \"#utility.yul\":1440:1446   */\n      dup3\n        /* \"#utility.yul\":1437:1467   */\n      gt\n        /* \"#utility.yul\":1434:1490   */\n      iszero\n      tag_96\n      jumpi\n        /* \"#utility.yul\":1470:1488   */\n      tag_97\n      tag_42\n      jump\t// in\n    tag_97:\n        /* \"#utility.yul\":1434:1490   */\n    tag_96:\n        /* \"#utility.yul\":1508:1537   */\n      tag_98\n        /* \"#utility.yul\":1530:1536   */\n      dup3\n        /* \"#utility.yul\":1508:1537   */\n      tag_41\n      jump\t// in\n    tag_98:\n        /* \"#utility.yul\":1500:1537   */\n      swap1\n      pop\n        /* \"#utility.yul\":1592:1596   */\n      0x20\n        /* \"#utility.yul\":1586:1590   */\n      dup2\n        /* \"#utility.yul\":1582:1597   */\n      add\n        /* \"#utility.yul\":1574:1597   */\n      swap1\n      pop\n        /* \"#utility.yul\":1296:1604   */\n      swap2\n      swap1\n      pop\n      jump\t// out\n        /* \"#utility.yul\":1610:1756   */\n    tag_46:\n        /* \"#utility.yul\":1707:1713   */\n      dup3\n        /* \"#utility.yul\":1702:1705   */\n      dup2\n        /* \"#utility.yul\":1697:1700   */\n      dup4\n        /* \"#utility.yul\":1684:1714   */\n      calldatacopy\n        /* \"#utility.yul\":1748:1749   */\n      0x00\n        /* \"#utility.yul\":1739:1745   */\n      dup4\n        /* \"#utility.yul\":1734:1737   */\n      dup4\n        /* \"#utility.yul\":1730:1746   */\n      add\n        /* \"#utility.yul\":1723:1750   */\n      mstore\n        /* \"#utility.yul\":1610:1756   */\n      pop\n      pop\n      pop\n      jump\t// out\n        /* \"#utility.yul\":1762:2187   */\n    tag_47:\n        /* \"#utility.yul\":1840:1845   */\n      0x00\n        /* \"#utility.yul\":1865:1931   */\n      tag_101\n        /* \"#utility.yul\":1881:1930   */\n      tag_102\n        /* \"#utility.yul\":1923:1929   */\n      dup5\n        /* \"#utility.yul\":1881:1930   */\n      tag_45\n      jump\t// in\n    tag_102:\n        /* \"#utility.yul\":1865:1931   */\n      tag_44\n      jump\t// in\n    tag_101:\n        /* \"#utility.yul\":1856:1931   */\n      swap1\n      pop\n        /* \"#utility.yul\":1954:1960   */\n      dup3\n        /* \"#utility.yul\":1947:1952   */\n      dup2\n        /* \"#utility.yul\":1940:1961   */\n      mstore\n        /* \"#utility.yul\":1992:1996   */\n      0x20\n        /* \"#utility.yul\":1985:1990   */\n      dup2\n        /* \"#utility.yul\":1981:1997   */\n      add\n        /* \"#utility.yul\":2030:2033   */\n      dup5\n        /* \"#utility.yul\":2021:2027   */\n      dup5\n        /* \"#utility.yul\":2016:2019   */\n      dup5\n        /* \"#utility.yul\":2012:2028   */\n      add\n        /* \"#utility.yul\":2009:2034   */\n      gt\n        /* \"#utility.yul\":2006:2118   */\n      iszero\n      tag_103\n      jumpi\n        /* \"#utility.yul\":2037:2116   */\n      tag_104\n      tag_40\n      jump\t// in\n    tag_104:\n        /* \"#utility.yul\":2006:2118   */\n    tag_103:\n        /* \"#utility.yul\":2127:2181   */\n      tag_105\n        /* \"#utility.yul\":2174:2180   */\n      dup5\n        /* \"#utility.yul\":2169:2172   */\n      dup3\n        /* \"#utility.yul\":2164:2167   */\n      dup6\n        /* \"#utility.yul\":2127:2181   */\n      tag_46\n      jump\t// in\n    tag_105:\n        /* \"#utility.yul\":1846:2187   */\n      pop\n        /* \"#utility.yul\":1762:2187   */\n      swap4\n      swap3\n      pop\n      pop\n      pop\n      jump\t// out\n        /* \"#utility.yul\":2207:2547   */\n    tag_48:\n        /* \"#utility.yul\":2263:2268   */\n      0x00\n        /* \"#utility.yul\":2312:2315   */\n      dup3\n        /* \"#utility.yul\":2305:2309   */\n      0x1f\n        /* \"#utility.yul\":2297:2303   */\n      dup4\n        /* \"#utility.yul\":2293:2310   */\n      add\n        /* \"#utility.yul\":2289:2316   */\n      slt\n        /* \"#utility.yul\":2279:2401   */\n      tag_107\n      jumpi\n        /* \"#utility.yul\":2320:2399   */\n      tag_108\n      tag_39\n      jump\t// in\n    tag_108:\n        /* \"#utility.yul\":2279:2401   */\n    tag_107:\n        /* \"#utility.yul\":2437:2443   */\n      dup2\n        /* \"#utility.yul\":2424:2444   */\n      calldataload\n        /* \"#utility.yul\":2462:2541   */\n      tag_109\n        /* \"#utility.yul\":2537:2540   */\n      dup5\n        /* \"#utility.yul\":2529:2535   */\n      dup3\n        /* \"#utility.yul\":2522:2526   */\n      0x20\n        /* \"#utility.yul\":2514:2520   */\n      dup7\n        /* \"#utility.yul\":2510:2527   */\n      add\n        /* \"#utility.yul\":2462:2541   */\n      tag_47\n      jump\t// in\n    tag_109:\n        /* \"#utility.yul\":2453:2541   */\n      swap2\n      pop\n        /* \"#utility.yul\":2269:2547   */\n      pop\n        /* \"#utility.yul\":2207:2547   */\n      swap3\n      swap2\n      pop\n      pop\n      jump\t// out\n        /* \"#utility.yul\":2553:2643   */\n    tag_49:\n        /* \"#utility.yul\":2587:2594   */\n      0x00\n        /* \"#utility.yul\":2630:2635   */\n      dup2\n        /* \"#utility.yul\":2623:2636   */\n      iszero\n        /* \"#utility.yul\":2616:2637   */\n      iszero\n        /* \"#utility.yul\":2605:2637   */\n      swap1\n      pop\n        /* \"#utility.yul\":2553:2643   */\n      swap2\n      swap1\n      pop\n      jump\t// out\n        /* \"#utility.yul\":2649:2765   */\n    tag_50:\n        /* \"#utility.yul\":2719:2740   */\n      tag_112\n        /* \"#utility.yul\":2734:2739   */\n      dup2\n        /* \"#utility.yul\":2719:2740   */\n      tag_49\n      jump\t// in\n    tag_112:\n        /* \"#utility.yul\":2712:2717   */\n      dup2\n        /* \"#utility.yul\":2709:2741   */\n      eq\n        /* \"#utility.yul\":2699:2759   */\n      tag_113\n      jumpi\n        /* \"#utility.yul\":2755:2756   */\n      0x00\n        /* \"#utility.yul\":2752:2753   */\n      dup1\n        /* \"#utility.yul\":2745:2757   */\n      revert\n        /* \"#utility.yul\":2699:2759   */\n    tag_113:\n        /* \"#utility.yul\":2649:2765   */\n      pop\n      jump\t// out\n        /* \"#utility.yul\":2771:2904   */\n    tag_51:\n        /* \"#utility.yul\":2814:2819   */\n      0x00\n        /* \"#utility.yul\":2852:2858   */\n      dup2\n        /* \"#utility.yul\":2839:2859   */\n      calldataload\n        /* \"#utility.yul\":2830:2859   */\n      swap1\n      pop\n        /* \"#utility.yul\":2868:2898   */\n      tag_115\n        /* \"#utility.yul\":2892:2897   */\n      dup2\n        /* \"#utility.yul\":2868:2898   */\n      tag_50\n      jump\t// in\n    tag_115:\n        /* \"#utility.yul\":2771:2904   */\n      swap3\n      swap2\n      pop\n      pop\n      jump\t// out\n        /* \"#utility.yul\":2910:2987   */\n    tag_52:\n        /* \"#utility.yul\":2947:2954   */\n      0x00\n        /* \"#utility.yul\":2976:2981   */\n      dup2\n        /* \"#utility.yul\":2965:2981   */\n      swap1\n      pop\n        /* \"#utility.yul\":2910:2987   */\n      swap2\n      swap1\n      pop\n      jump\t// out\n        /* \"#utility.yul\":2993:3115   */\n    tag_53:\n        /* \"#utility.yul\":3066:3090   */\n      tag_118\n        /* \"#utility.yul\":3084:3089   */\n      dup2\n        /* \"#utility.yul\":3066:3090   */\n      tag_52\n      jump\t// in\n    tag_118:\n        /* \"#utility.yul\":3059:3064   */\n      dup2\n        /* \"#utility.yul\":3056:3091   */\n      eq\n        /* \"#utility.yul\":3046:3109   */\n      tag_119\n      jumpi\n        /* \"#utility.yul\":3105:3106   */\n      0x00\n        /* \"#utility.yul\":3102:3103   */\n      dup1\n        /* \"#utility.yul\":3095:3107   */\n      revert\n        /* \"#utility.yul\":3046:3109   */\n    tag_119:\n        /* \"#utility.yul\":2993:3115   */\n      pop\n      jump\t// out\n        /* \"#utility.yul\":3121:3260   */\n    tag_54:\n        /* \"#utility.yul\":3167:3172   */\n      0x00\n        /* \"#utility.yul\":3205:3211   */\n      dup2\n        /* \"#utility.yul\":3192:3212   */\n      calldataload\n        /* \"#utility.yul\":3183:3212   */\n      swap1\n      pop\n        /* \"#utility.yul\":3221:3254   */\n      tag_121\n        /* \"#utility.yul\":3248:3253   */\n      dup2\n        /* \"#utility.yul\":3221:3254   */\n      tag_53\n      jump\t// in\n    tag_121:\n        /* \"#utility.yul\":3121:3260   */\n      swap3\n      swap2\n      pop\n      pop\n      jump\t// out\n        /* \"#utility.yul\":3266:4059   */\n    tag_8:\n        /* \"#utility.yul\":3350:3356   */\n      0x00\n        /* \"#utility.yul\":3358:3364   */\n      dup1\n        /* \"#utility.yul\":3366:3372   */\n      0x00\n        /* \"#utility.yul\":3415:3417   */\n      0x60\n        /* \"#utility.yul\":3403:3412   */\n      dup5\n        /* \"#utility.yul\":3394:3401   */\n      dup7\n        /* \"#utility.yul\":3390:3413   */\n      sub\n        /* \"#utility.yul\":3386:3418   */\n      slt\n        /* \"#utility.yul\":3383:3502   */\n      iszero\n      tag_123\n      jumpi\n        /* \"#utility.yul\":3421:3500   */\n      tag_124\n      tag_37\n      jump\t// in\n    tag_124:\n        /* \"#utility.yul\":3383:3502   */\n    tag_123:\n        /* \"#utility.yul\":3569:3570   */\n      0x00\n        /* \"#utility.yul\":3558:3567   */\n      dup5\n        /* \"#utility.yul\":3554:3571   */\n      add\n        /* \"#utility.yul\":3541:3572   */\n      calldataload\n        /* \"#utility.yul\":3599:3617   */\n      0xffffffffffffffff\n        /* \"#utility.yul\":3591:3597   */\n      dup2\n        /* \"#utility.yul\":3588:3618   */\n      gt\n        /* \"#utility.yul\":3585:3702   */\n      iszero\n      tag_125\n      jumpi\n        /* \"#utility.yul\":3621:3700   */\n      tag_126\n      tag_38\n      jump\t// in\n    tag_126:\n        /* \"#utility.yul\":3585:3702   */\n    tag_125:\n        /* \"#utility.yul\":3726:3789   */\n      tag_127\n        /* \"#utility.yul\":3781:3788   */\n      dup7\n        /* \"#utility.yul\":3772:3778   */\n      dup3\n        /* \"#utility.yul\":3761:3770   */\n      dup8\n        /* \"#utility.yul\":3757:3779   */\n      add\n        /* \"#utility.yul\":3726:3789   */\n      tag_48\n      jump\t// in\n    tag_127:\n        /* \"#utility.yul\":3716:3789   */\n      swap4\n      pop\n        /* \"#utility.yul\":3512:3799   */\n      pop\n        /* \"#utility.yul\":3838:3840   */\n      0x20\n        /* \"#utility.yul\":3864:3914   */\n      tag_128\n        /* \"#utility.yul\":3906:3913   */\n      dup7\n        /* \"#utility.yul\":3897:3903   */\n      dup3\n        /* \"#utility.yul\":3886:3895   */\n      dup8\n        /* \"#utility.yul\":3882:3904   */\n      add\n        /* \"#utility.yul\":3864:3914   */\n      tag_51\n      jump\t// in\n    tag_128:\n        /* \"#utility.yul\":3854:3914   */\n      swap3\n      pop\n        /* \"#utility.yul\":3809:3924   */\n      pop\n        /* \"#utility.yul\":3963:3965   */\n      0x40\n        /* \"#utility.yul\":3989:4042   */\n      tag_129\n        /* \"#utility.yul\":4034:4041   */\n      dup7\n        /* \"#utility.yul\":4025:4031   */\n      dup3\n        /* \"#utility.yul\":4014:4023   */\n      dup8\n        /* \"#utility.yul\":4010:4032   */\n      add\n        /* \"#utility.yul\":3989:4042   */\n      tag_54\n      jump\t// in\n    tag_129:\n        /* \"#utility.yul\":3979:4042   */\n      swap2\n      pop\n        /* \"#utility.yul\":3934:4052   */\n      pop\n        /* \"#utility.yul\":3266:4059   */\n      swap3\n      pop\n      swap3\n      pop\n      swap3\n      jump\t// out\n        /* \"#utility.yul\":4065:4164   */\n    tag_55:\n        /* \"#utility.yul\":4117:4123   */\n      0x00\n        /* \"#utility.yul\":4151:4156   */\n      dup2\n        /* \"#utility.yul\":4145:4157   */\n      mload\n        /* \"#utility.yul\":4135:4157   */\n      swap1\n      pop\n        /* \"#utility.yul\":4065:4164   */\n      swap2\n      swap1\n      pop\n      jump\t// out\n        /* \"#utility.yul\":4170:4339   */\n    tag_56:\n        /* \"#utility.yul\":4254:4265   */\n      0x00\n        /* \"#utility.yul\":4288:4294   */\n      dup3\n        /* \"#utility.yul\":4283:4286   */\n      dup3\n        /* \"#utility.yul\":4276:4295   */\n      mstore\n        /* \"#utility.yul\":4328:4332   */\n      0x20\n        /* \"#utility.yul\":4323:4326   */\n      dup3\n        /* \"#utility.yul\":4319:4333   */\n      add\n        /* \"#utility.yul\":4304:4333   */\n      swap1\n      pop\n        /* \"#utility.yul\":4170:4339   */\n      swap3\n      swap2\n      pop\n      pop\n      jump\t// out\n        /* \"#utility.yul\":4345:4591   */\n    tag_57:\n        /* \"#utility.yul\":4426:4427   */\n      0x00\n        /* \"#utility.yul\":4436:4549   */\n    tag_133:\n        /* \"#utility.yul\":4450:4456   */\n      dup4\n        /* \"#utility.yul\":4447:4448   */\n      dup2\n        /* \"#utility.yul\":4444:4457   */\n      lt\n        /* \"#utility.yul\":4436:4549   */\n      iszero\n      tag_135\n      jumpi\n        /* \"#utility.yul\":4535:4536   */\n      dup1\n        /* \"#utility.yul\":4530:4533   */\n      dup3\n        /* \"#utility.yul\":4526:4537   */\n      add\n        /* \"#utility.yul\":4520:4538   */\n      mload\n        /* \"#utility.yul\":4516:4517   */\n      dup2\n        /* \"#utility.yul\":4511:4514   */\n      dup5\n        /* \"#utility.yul\":4507:4518   */\n      add\n        /* \"#utility.yul\":4500:4539   */\n      mstore\n        /* \"#utility.yul\":4472:4474   */\n      0x20\n        /* \"#utility.yul\":4469:4470   */\n      dup2\n        /* \"#utility.yul\":4465:4475   */\n      add\n        /* \"#utility.yul\":4460:4475   */\n      swap1\n      pop\n        /* \"#utility.yul\":4436:4549   */\n      jump(tag_133)\n    tag_135:\n        /* \"#utility.yul\":4583:4584   */\n      0x00\n        /* \"#utility.yul\":4574:4580   */\n      dup5\n        /* \"#utility.yul\":4569:4572   */\n      dup5\n        /* \"#utility.yul\":4565:4581   */\n      add\n        /* \"#utility.yul\":4558:4585   */\n      mstore\n        /* \"#utility.yul\":4407:4591   */\n      pop\n        /* \"#utility.yul\":4345:4591   */\n      pop\n      pop\n      pop\n      jump\t// out\n        /* \"#utility.yul\":4597:4974   */\n    tag_58:\n        /* \"#utility.yul\":4685:4688   */\n      0x00\n        /* \"#utility.yul\":4713:4752   */\n      tag_137\n        /* \"#utility.yul\":4746:4751   */\n      dup3\n        /* \"#utility.yul\":4713:4752   */\n      tag_55\n      jump\t// in\n    tag_137:\n        /* \"#utility.yul\":4768:4839   */\n      tag_138\n        /* \"#utility.yul\":4832:4838   */\n      dup2\n        /* \"#utility.yul\":4827:4830   */\n      dup6\n        /* \"#utility.yul\":4768:4839   */\n      tag_56\n      jump\t// in\n    tag_138:\n        /* \"#utility.yul\":4761:4839   */\n      swap4\n      pop\n        /* \"#utility.yul\":4848:4913   */\n      tag_139\n        /* \"#utility.yul\":4906:4912   */\n      dup2\n        /* \"#utility.yul\":4901:4904   */\n      dup6\n        /* \"#utility.yul\":4894:4898   */\n      0x20\n        /* \"#utility.yul\":4887:4892   */\n      dup7\n        /* \"#utility.yul\":4883:4899   */\n      add\n        /* \"#utility.yul\":4848:4913   */\n      tag_57\n      jump\t// in\n    tag_139:\n        /* \"#utility.yul\":4938:4967   */\n      tag_140\n        /* \"#utility.yul\":4960:4966   */\n      dup2\n        /* \"#utility.yul\":4938:4967   */\n      tag_41\n      jump\t// in\n    tag_140:\n        /* \"#utility.yul\":4933:4936   */\n      dup5\n        /* \"#utility.yul\":4929:4968   */\n      add\n        /* \"#utility.yul\":4922:4968   */\n      swap2\n      pop\n        /* \"#utility.yul\":4689:4974   */\n      pop\n        /* \"#utility.yul\":4597:4974   */\n      swap3\n      swap2\n      pop\n      pop\n      jump\t// out\n        /* \"#utility.yul\":4980:5293   */\n    tag_13:\n        /* \"#utility.yul\":5093:5097   */\n      0x00\n        /* \"#utility.yul\":5131:5133   */\n      0x20\n        /* \"#utility.yul\":5120:5129   */\n      dup3\n        /* \"#utility.yul\":5116:5134   */\n      add\n        /* \"#utility.yul\":5108:5134   */\n      swap1\n      pop\n        /* \"#utility.yul\":5180:5189   */\n      dup2\n        /* \"#utility.yul\":5174:5178   */\n      dup2\n        /* \"#utility.yul\":5170:5190   */\n      sub\n        /* \"#utility.yul\":5166:5167   */\n      0x00\n        /* \"#utility.yul\":5155:5164   */\n      dup4\n        /* \"#utility.yul\":5151:5168   */\n      add\n        /* \"#utility.yul\":5144:5191   */\n      mstore\n        /* \"#utility.yul\":5208:5286   */\n      tag_142\n        /* \"#utility.yul\":5281:5285   */\n      dup2\n        /* \"#utility.yul\":5272:5278   */\n      dup5\n        /* \"#utility.yul\":5208:5286   */\n      tag_58\n      jump\t// in\n    tag_142:\n        /* \"#utility.yul\":5200:5286   */\n      swap1\n      pop\n        /* \"#utility.yul\":4980:5293   */\n      swap3\n      swap2\n      pop\n      pop\n      jump\t// out\n        /* \"#utility.yul\":5299:5458   */\n    tag_59:\n        /* \"#utility.yul\":5373:5384   */\n      0x00\n        /* \"#utility.yul\":5407:5413   */\n      dup3\n        /* \"#utility.yul\":5402:5405   */\n      dup3\n        /* \"#utility.yul\":5395:5414   */\n      mstore\n        /* \"#utility.yul\":5447:5451   */\n      0x20\n        /* \"#utility.yul\":5442:5445   */\n      dup3\n        /* \"#utility.yul\":5438:5452   */\n      add\n        /* \"#utility.yul\":5423:5452   */\n      swap1\n      pop\n        /* \"#utility.yul\":5299:5458   */\n      swap3\n      swap2\n      pop\n      pop\n      jump\t// out\n        /* \"#utility.yul\":5464:5821   */\n    tag_60:\n        /* \"#utility.yul\":5542:5545   */\n      0x00\n        /* \"#utility.yul\":5570:5609   */\n      tag_145\n        /* \"#utility.yul\":5603:5608   */\n      dup3\n        /* \"#utility.yul\":5570:5609   */\n      tag_55\n      jump\t// in\n    tag_145:\n        /* \"#utility.yul\":5625:5686   */\n      tag_146\n        /* \"#utility.yul\":5679:5685   */\n      dup2\n        /* \"#utility.yul\":5674:5677   */\n      dup6\n        /* \"#utility.yul\":5625:5686   */\n      tag_59\n      jump\t// in\n    tag_146:\n        /* \"#utility.yul\":5618:5686   */\n      swap4\n      pop\n        /* \"#utility.yul\":5695:5760   */\n      tag_147\n        /* \"#utility.yul\":5753:5759   */\n      dup2\n        /* \"#utility.yul\":5748:5751   */\n      dup6\n        /* \"#utility.yul\":5741:5745   */\n      0x20\n        /* \"#utility.yul\":5734:5739   */\n      dup7\n        /* \"#utility.yul\":5730:5746   */\n      add\n        /* \"#utility.yul\":5695:5760   */\n      tag_57\n      jump\t// in\n    tag_147:\n        /* \"#utility.yul\":5785:5814   */\n      tag_148\n        /* \"#utility.yul\":5807:5813   */\n      dup2\n        /* \"#utility.yul\":5785:5814   */\n      tag_41\n      jump\t// in\n    tag_148:\n        /* \"#utility.yul\":5780:5783   */\n      dup5\n        /* \"#utility.yul\":5776:5815   */\n      add\n        /* \"#utility.yul\":5769:5815   */\n      swap2\n      pop\n        /* \"#utility.yul\":5546:5821   */\n      pop\n        /* \"#utility.yul\":5464:5821   */\n      swap3\n      swap2\n      pop\n      pop\n      jump\t// out\n        /* \"#utility.yul\":5827:5926   */\n    tag_61:\n        /* \"#utility.yul\":5898:5919   */\n      tag_150\n        /* \"#utility.yul\":5913:5918   */\n      dup2\n        /* \"#utility.yul\":5898:5919   */\n      tag_49\n      jump\t// in\n    tag_150:\n        /* \"#utility.yul\":5893:5896   */\n      dup3\n        /* \"#utility.yul\":5886:5920   */\n      mstore\n        /* \"#utility.yul\":5827:5926   */\n      pop\n      pop\n      jump\t// out\n        /* \"#utility.yul\":5932:6040   */\n    tag_62:\n        /* \"#utility.yul\":6009:6033   */\n      tag_152\n        /* \"#utility.yul\":6027:6032   */\n      dup2\n        /* \"#utility.yul\":6009:6033   */\n      tag_52\n      jump\t// in\n    tag_152:\n        /* \"#utility.yul\":6004:6007   */\n      dup3\n        /* \"#utility.yul\":5997:6034   */\n      mstore\n        /* \"#utility.yul\":5932:6040   */\n      pop\n      pop\n      jump\t// out\n        /* \"#utility.yul\":6100:6872   */\n    tag_63:\n        /* \"#utility.yul\":6213:6216   */\n      0x00\n        /* \"#utility.yul\":6249:6253   */\n      0x60\n        /* \"#utility.yul\":6244:6247   */\n      dup4\n        /* \"#utility.yul\":6240:6254   */\n      add\n        /* \"#utility.yul\":6336:6340   */\n      0x00\n        /* \"#utility.yul\":6329:6334   */\n      dup4\n        /* \"#utility.yul\":6325:6341   */\n      add\n        /* \"#utility.yul\":6319:6342   */\n      mload\n        /* \"#utility.yul\":6389:6392   */\n      dup5\n        /* \"#utility.yul\":6383:6387   */\n      dup3\n        /* \"#utility.yul\":6379:6393   */\n      sub\n        /* \"#utility.yul\":6372:6376   */\n      0x00\n        /* \"#utility.yul\":6367:6370   */\n      dup7\n        /* \"#utility.yul\":6363:6377   */\n      add\n        /* \"#utility.yul\":6356:6394   */\n      mstore\n        /* \"#utility.yul\":6415:6488   */\n      tag_154\n        /* \"#utility.yul\":6483:6487   */\n      dup3\n        /* \"#utility.yul\":6469:6481   */\n      dup3\n        /* \"#utility.yul\":6415:6488   */\n      tag_60\n      jump\t// in\n    tag_154:\n        /* \"#utility.yul\":6407:6488   */\n      swap2\n      pop\n        /* \"#utility.yul\":6264:6499   */\n      pop\n        /* \"#utility.yul\":6583:6587   */\n      0x20\n        /* \"#utility.yul\":6576:6581   */\n      dup4\n        /* \"#utility.yul\":6572:6588   */\n      add\n        /* \"#utility.yul\":6566:6589   */\n      mload\n        /* \"#utility.yul\":6602:6659   */\n      tag_155\n        /* \"#utility.yul\":6653:6657   */\n      0x20\n        /* \"#utility.yul\":6648:6651   */\n      dup7\n        /* \"#utility.yul\":6644:6658   */\n      add\n        /* \"#utility.yul\":6630:6642   */\n      dup3\n        /* \"#utility.yul\":6602:6659   */\n      tag_61\n      jump\t// in\n    tag_155:\n        /* \"#utility.yul\":6509:6669   */\n      pop\n        /* \"#utility.yul\":6753:6757   */\n      0x40\n        /* \"#utility.yul\":6746:6751   */\n      dup4\n        /* \"#utility.yul\":6742:6758   */\n      add\n        /* \"#utility.yul\":6736:6759   */\n      mload\n        /* \"#utility.yul\":6772:6835   */\n      tag_156\n        /* \"#utility.yul\":6829:6833   */\n      0x40\n        /* \"#utility.yul\":6824:6827   */\n      dup7\n        /* \"#utility.yul\":6820:6834   */\n      add\n        /* \"#utility.yul\":6806:6818   */\n      dup3\n        /* \"#utility.yul\":6772:6835   */\n      tag_62\n      jump\t// in\n    tag_156:\n        /* \"#utility.yul\":6679:6845   */\n      pop\n        /* \"#utility.yul\":6862:6866   */\n      dup1\n        /* \"#utility.yul\":6855:6866   */\n      swap2\n      pop\n        /* \"#utility.yul\":6218:6872   */\n      pop\n        /* \"#utility.yul\":6100:6872   */\n      swap3\n      swap2\n      pop\n      pop\n      jump\t// out\n        /* \"#utility.yul\":6878:7239   */\n    tag_17:\n        /* \"#utility.yul\":7015:7019   */\n      0x00\n        /* \"#utility.yul\":7053:7055   */\n      0x20\n        /* \"#utility.yul\":7042:7051   */\n      dup3\n        /* \"#utility.yul\":7038:7056   */\n      add\n        /* \"#utility.yul\":7030:7056   */\n      swap1\n      pop\n        /* \"#utility.yul\":7102:7111   */\n      dup2\n        /* \"#utility.yul\":7096:7100   */\n      dup2\n        /* \"#utility.yul\":7092:7112   */\n      sub\n        /* \"#utility.yul\":7088:7089   */\n      0x00\n        /* \"#utility.yul\":7077:7086   */\n      dup4\n        /* \"#utility.yul\":7073:7090   */\n      add\n        /* \"#utility.yul\":7066:7113   */\n      mstore\n        /* \"#utility.yul\":7130:7232   */\n      tag_158\n        /* \"#utility.yul\":7227:7231   */\n      dup2\n        /* \"#utility.yul\":7218:7224   */\n      dup5\n        /* \"#utility.yul\":7130:7232   */\n      tag_63\n      jump\t// in\n    tag_158:\n        /* \"#utility.yul\":7122:7232   */\n      swap1\n      pop\n        /* \"#utility.yul\":6878:7239   */\n      swap3\n      swap2\n      pop\n      pop\n      jump\t// out\n        /* \"#utility.yul\":7245:7425   */\n    tag_64:\n        /* \"#utility.yul\":7293:7370   */\n      0x4e487b7100000000000000000000000000000000000000000000000000000000\n        /* \"#utility.yul\":7290:7291   */\n      0x00\n        /* \"#utility.yul\":7283:7371   */\n      mstore\n        /* \"#utility.yul\":7390:7394   */\n      0x22\n        /* \"#utility.yul\":7387:7388   */\n      0x04\n        /* \"#utility.yul\":7380:7395   */\n      mstore\n        /* \"#utility.yul\":7414:7418   */\n      0x24\n        /* \"#utility.yul\":7411:7412   */\n      0x00\n        /* \"#utility.yul\":7404:7419   */\n      revert\n        /* \"#utility.yul\":7431:7751   */\n    tag_23:\n        /* \"#utility.yul\":7475:7481   */\n      0x00\n        /* \"#utility.yul\":7512:7513   */\n      0x02\n        /* \"#utility.yul\":7506:7510   */\n      dup3\n        /* \"#utility.yul\":7502:7514   */\n      div\n        /* \"#utility.yul\":7492:7514   */\n      swap1\n      pop\n        /* \"#utility.yul\":7559:7560   */\n      0x01\n        /* \"#utility.yul\":7553:7557   */\n      dup3\n        /* \"#utility.yul\":7549:7561   */\n      and\n        /* \"#utility.yul\":7580:7598   */\n      dup1\n        /* \"#utility.yul\":7570:7651   */\n      tag_161\n      jumpi\n        /* \"#utility.yul\":7636:7640   */\n      0x7f\n        /* \"#utility.yul\":7628:7634   */\n      dup3\n        /* \"#utility.yul\":7624:7641   */\n      and\n        /* \"#utility.yul\":7614:7641   */\n      swap2\n      pop\n        /* \"#utility.yul\":7570:7651   */\n    tag_161:\n        /* \"#utility.yul\":7698:7700   */\n      0x20\n        /* \"#utility.yul\":7690:7696   */\n      dup3\n        /* \"#utility.yul\":7687:7701   */\n      lt\n        /* \"#utility.yul\":7667:7685   */\n      dup2\n        /* \"#utility.yul\":7664:7702   */\n      sub\n        /* \"#utility.yul\":7661:7745   */\n      tag_162\n      jumpi\n        /* \"#utility.yul\":7717:7735   */\n      tag_163\n      tag_64\n      jump\t// in\n    tag_163:\n        /* \"#utility.yul\":7661:7745   */\n    tag_162:\n        /* \"#utility.yul\":7482:7751   */\n      pop\n        /* \"#utility.yul\":7431:7751   */\n      swap2\n      swap1\n      pop\n      jump\t// out\n        /* \"#utility.yul\":7757:7898   */\n    tag_65:\n        /* \"#utility.yul\":7806:7810   */\n      0x00\n        /* \"#utility.yul\":7829:7832   */\n      dup2\n        /* \"#utility.yul\":7821:7832   */\n      swap1\n      pop\n        /* \"#utility.yul\":7852:7855   */\n      dup2\n        /* \"#utility.yul\":7849:7850   */\n      0x00\n        /* \"#utility.yul\":7842:7856   */\n      mstore\n        /* \"#utility.yul\":7886:7890   */\n      0x20\n        /* \"#utility.yul\":7883:7884   */\n      0x00\n        /* \"#utility.yul\":7873:7891   */\n      keccak256\n        /* \"#utility.yul\":7865:7891   */\n      swap1\n      pop\n        /* \"#utility.yul\":7757:7898   */\n      swap2\n      swap1\n      pop\n      jump\t// out\n        /* \"#utility.yul\":7904:7997   */\n    tag_66:\n        /* \"#utility.yul\":7941:7947   */\n      0x00\n        /* \"#utility.yul\":7988:7990   */\n      0x20\n        /* \"#utility.yul\":7983:7985   */\n      0x1f\n        /* \"#utility.yul\":7976:7981   */\n      dup4\n        /* \"#utility.yul\":7972:7986   */\n      add\n        /* \"#utility.yul\":7968:7991   */\n      div\n        /* \"#utility.yul\":7958:7991   */\n      swap1\n      pop\n        /* \"#utility.yul\":7904:7997   */\n      swap2\n      swap1\n      pop\n      jump\t// out\n        /* \"#utility.yul\":8003:8110   */\n    tag_67:\n        /* \"#utility.yul\":8047:8055   */\n      0x00\n        /* \"#utility.yul\":8097:8102   */\n      dup3\n        /* \"#utility.yul\":8091:8095   */\n      dup3\n        /* \"#utility.yul\":8087:8103   */\n      shl\n        /* \"#utility.yul\":8066:8103   */\n      swap1\n      pop\n        /* \"#utility.yul\":8003:8110   */\n      swap3\n      swap2\n      pop\n      pop\n      jump\t// out\n        /* \"#utility.yul\":8116:8509   */\n    tag_68:\n        /* \"#utility.yul\":8185:8191   */\n      0x00\n        /* \"#utility.yul\":8235:8236   */\n      0x08\n        /* \"#utility.yul\":8223:8233   */\n      dup4\n        /* \"#utility.yul\":8219:8237   */\n      mul\n        /* \"#utility.yul\":8258:8355   */\n      tag_168\n        /* \"#utility.yul\":8288:8354   */\n      0xffffffffffffffffffffffffffffffffffffffffffffffffffffffffffffffff\n        /* \"#utility.yul\":8277:8286   */\n      dup3\n        /* \"#utility.yul\":8258:8355   */\n      tag_67\n      jump\t// in\n    tag_168:\n        /* \"#utility.yul\":8376:8415   */\n      tag_169\n        /* \"#utility.yul\":8406:8414   */\n      dup7\n        /* \"#utility.yul\":8395:8404   */\n      dup4\n        /* \"#utility.yul\":8376:8415   */\n      tag_67\n      jump\t// in\n    tag_169:\n        /* \"#utility.yul\":8364:8415   */\n      swap6\n      pop\n        /* \"#utility.yul\":8448:8452   */\n      dup1\n        /* \"#utility.yul\":8444:8453   */\n      not\n        /* \"#utility.yul\":8437:8442   */\n      dup5\n        /* \"#utility.yul\":8433:8454   */\n      and\n        /* \"#utility.yul\":8424:8454   */\n      swap4\n      pop\n        /* \"#utility.yul\":8497:8501   */\n      dup1\n        /* \"#utility.yul\":8487:8495   */\n      dup7\n        /* \"#utility.yul\":8483:8502   */\n      and\n        /* \"#utility.yul\":8476:8481   */\n      dup5\n        /* \"#utility.yul\":8473:8503   */\n      or\n        /* \"#utility.yul\":8463:8503   */\n      swap3\n      pop\n        /* \"#utility.yul\":8192:8509   */\n      pop\n      pop\n        /* \"#utility.yul\":8116:8509   */\n      swap4\n      swap3\n      pop\n      pop\n      pop\n      jump\t// out\n        /* \"#utility.yul\":8515:8575   */\n    tag_69:\n        /* \"#utility.yul\":8543:8546   */\n      0x00\n        /* \"#utility.yul\":8564:8569   */\n      dup2\n        /* \"#utility.yul\":8557:8569   */\n      swap1\n      pop\n        /* \"#utility.yul\":8515:8575   */\n      swap2\n      swap1\n      pop\n      jump\t// out\n        /* \"#utility.yul\":8581:8723   */\n    tag_70:\n        /* \"#utility.yul\":8631:8640   */\n      0x00\n        /* \"#utility.yul\":8664:8717   */\n      tag_172\n        /* \"#utility.yul\":8682:8716   */\n      tag_173\n        /* \"#utility.yul\":8691:8715   */\n      tag_174\n        /* \"#utility.yul\":8709:8714   */\n      dup5\n        /* \"#utility.yul\":8691:8715   */\n      tag_52\n      jump\t// in\n    tag_174:\n        /* \"#utility.yul\":8682:8716   */\n      tag_69\n      jump\t// in\n    tag_173:\n        /* \"#utility.yul\":8664:8717   */\n      tag_52\n      jump\t// in\n    tag_172:\n        /* \"#utility.yul\":8651:8717   */\n      swap1\n      pop\n        /* \"#utility.yul\":8581:8723   */\n      swap2\n      swap1\n      pop\n      jump\t// out\n        /* \"#utility.yul\":8729:8804   */\n    tag_71:\n        /* \"#utility.yul\":8772:8775   */\n      0x00\n        /* \"#utility.yul\":8793:8798   */\n      dup2\n        /* \"#utility.yul\":8786:8798   */\n      swap1\n      pop\n        /* \"#utility.yul\":8729:8804   */\n      swap2\n      swap1\n      pop\n      jump\t// out\n        /* \"#utility.yul\":8810:9079   */\n    tag_72:\n        /* \"#utility.yul\":8920:8959   */\n      tag_177\n        /* \"#utility.yul\":8951:8958   */\n      dup4\n        /* \"#utility.yul\":8920:8959   */\n      tag_70\n      jump\t// in\n    tag_177:\n        /* \"#utility.yul\":8981:9072   */\n      tag_178\n        /* \"#utility.yul\":9030:9071   */\n      tag_179\n        /* \"#utility.yul\":9054:9070   */\n      dup3\n        /* \"#utility.yul\":9030:9071   */\n      tag_71\n      jump\t// in\n    tag_179:\n        /* \"#utility.yul\":9022:9028   */\n      dup5\n        /* \"#utility.yul\":9015:9019   */\n      dup5\n        /* \"#utility.yul\":9009:9020   */\n      sload\n        /* \"#utility.yul\":8981:9072   */\n      tag_68\n      jump\t// in\n    tag_178:\n        /* \"#utility.yul\":8975:8979   */\n      dup3\n        /* \"#utility.yul\":8968:9073   */\n      sstore\n        /* \"#utility.yul\":8886:9079   */\n      pop\n        /* \"#utility.yul\":8810:9079   */\n      pop\n      pop\n      pop\n      jump\t// out\n        /* \"#utility.yul\":9085:9158   */\n    tag_73:\n        /* \"#utility.yul\":9130:9133   */\n      0x00\n        /* \"#utility.yul\":9085:9158   */\n      swap1\n      jump\t// out\n        /* \"#utility.yul\":9164:9353   */\n    tag_74:\n        /* \"#utility.yul\":9241:9273   */\n      tag_182\n      tag_73\n      jump\t// in\n    tag_182:\n        /* \"#utility.yul\":9282:9347   */\n      tag_183\n        /* \"#utility.yul\":9340:9346   */\n      dup2\n        /* \"#utility.yul\":9332:9338   */\n      dup5\n        /* \"#utility.yul\":9326:9330   */\n      dup5\n        /* \"#utility.yul\":9282:9347   */\n      tag_72\n      jump\t// in\n    tag_183:\n        /* \"#utility.yul\":9217:9353   */\n      pop\n        /* \"#utility.yul\":9164:9353   */\n      pop\n      pop\n      jump\t// out\n        /* \"#utility.yul\":9359:9545   */\n    tag_75:\n        /* \"#utility.yul\":9419:9539   */\n    tag_185:\n        /* \"#utility.yul\":9436:9439   */\n      dup2\n        /* \"#utility.yul\":9429:9434   */\n      dup2\n        /* \"#utility.yul\":9426:9440   */\n      lt\n        /* \"#utility.yul\":9419:9539   */\n      iszero\n      tag_187\n      jumpi\n        /* \"#utility.yul\":9490:9529   */\n      tag_188\n        /* \"#utility.yul\":9527:9528   */\n      0x00\n        /* \"#utility.yul\":9520:9525   */\n      dup3\n        /* \"#utility.yul\":9490:9529   */\n      tag_74\n      jump\t// in\n    tag_188:\n        /* \"#utility.yul\":9463:9464   */\n      0x01\n        /* \"#utility.yul\":9456:9461   */\n      dup2\n        /* \"#utility.yul\":9452:9465   */\n      add\n        /* \"#utility.yul\":9443:9465   */\n      swap1\n      pop\n        /* \"#utility.yul\":9419:9539   */\n      jump(tag_185)\n    tag_187:\n        /* \"#utility.yul\":9359:9545   */\n      pop\n      pop\n      jump\t// out\n        /* \"#utility.yul\":9551:10094   */\n    tag_76:\n        /* \"#utility.yul\":9652:9654   */\n      0x1f\n        /* \"#utility.yul\":9647:9650   */\n      dup3\n        /* \"#utility.yul\":9644:9655   */\n      gt\n        /* \"#utility.yul\":9641:10087   */\n      iszero\n      tag_190\n      jumpi\n        /* \"#utility.yul\":9686:9724   */\n      tag_191\n        /* \"#utility.yul\":9718:9723   */\n      dup2\n        /* \"#utility.yul\":9686:9724   */\n      tag_65\n      jump\t// in\n    tag_191:\n        /* \"#utility.yul\":9770:9799   */\n      tag_192\n        /* \"#utility.yul\":9788:9798   */\n      dup5\n        /* \"#utility.yul\":9770:9799   */\n      tag_66\n      jump\t// in\n    tag_192:\n        /* \"#utility.yul\":9760:9768   */\n      dup2\n        /* \"#utility.yul\":9756:9800   */\n      add\n        /* \"#utility.yul\":9953:9955   */\n      0x20\n        /* \"#utility.yul\":9941:9951   */\n      dup6\n        /* \"#utility.yul\":9938:9956   */\n      lt\n        /* \"#utility.yul\":9935:9984   */\n      iszero\n      tag_193\n      jumpi\n        /* \"#utility.yul\":9974:9982   */\n      dup2\n        /* \"#utility.yul\":9959:9982   */\n      swap1\n      pop\n        /* \"#utility.yul\":9935:9984   */\n    tag_193:\n        /* \"#utility.yul\":9997:10077   */\n      tag_194\n        /* \"#utility.yul\":10053:10075   */\n      tag_195\n        /* \"#utility.yul\":10071:10074   */\n      dup6\n        /* \"#utility.yul\":10053:10075   */\n      tag_66\n      jump\t// in\n    tag_195:\n        /* \"#utility.yul\":10043:10051   */\n      dup4\n        /* \"#utility.yul\":10039:10076   */\n      add\n        /* \"#utility.yul\":10026:10037   */\n      dup3\n        /* \"#utility.yul\":9997:10077   */\n      tag_75\n      jump\t// in\n    tag_194:\n        /* \"#utility.yul\":9656:10087   */\n      pop\n      pop\n        /* \"#utility.yul\":9641:10087   */\n    tag_190:\n        /* \"#utility.yul\":9551:10094   */\n      pop\n      pop\n      pop\n      jump\t// out\n        /* \"#utility.yul\":10100:10217   */\n    tag_77:\n        /* \"#utility.yul\":10154:10162   */\n      0x00\n        /* \"#utility.yul\":10204:10209   */\n      dup3\n        /* \"#utility.yul\":10198:10202   */\n      dup3\n        /* \"#utility.yul\":10194:10210   */\n      shr\n        /* \"#utility.yul\":10173:10210   */\n      swap1\n      pop\n        /* \"#utility.yul\":10100:10217   */\n      swap3\n      swap2\n      pop\n      pop\n      jump\t// out\n        /* \"#utility.yul\":10223:10392   */\n    tag_78:\n        /* \"#utility.yul\":10267:10273   */\n      0x00\n        /* \"#utility.yul\":10300:10351   */\n      tag_198\n        /* \"#utility.yul\":10348:10349   */\n      0x00\n        /* \"#utility.yul\":10344:10350   */\n      not\n        /* \"#utility.yul\":10336:10341   */\n      dup5\n        /* \"#utility.yul\":10333:10334   */\n      0x08\n        /* \"#utility.yul\":10329:10342   */\n      mul\n        /* \"#utility.yul\":10300:10351   */\n      tag_77\n      jump\t// in\n    tag_198:\n        /* \"#utility.yul\":10296:10352   */\n      not\n        /* \"#utility.yul\":10381:10385   */\n      dup1\n        /* \"#utility.yul\":10375:10379   */\n      dup4\n        /* \"#utility.yul\":10371:10386   */\n      and\n        /* \"#utility.yul\":10361:10386   */\n      swap2\n      pop\n        /* \"#utility.yul\":10274:10392   */\n      pop\n        /* \"#utility.yul\":10223:10392   */\n      swap3\n      swap2\n      pop\n      pop\n      jump\t// out\n        /* \"#utility.yul\":10397:10692   */\n    tag_79:\n        /* \"#utility.yul\":10473:10477   */\n      0x00\n        /* \"#utility.yul\":10619:10648   */\n      tag_200\n        /* \"#utility.yul\":10644:10647   */\n      dup4\n        /* \"#utility.yul\":10638:10642   */\n      dup4\n        /* \"#utility.yul\":10619:10648   */\n      tag_78\n      jump\t// in\n    tag_200:\n        /* \"#utility.yul\":10611:10648   */\n      swap2\n      pop\n        /* \"#utility.yul\":10681:10684   */\n      dup3\n        /* \"#utility.yul\":10678:10679   */\n      0x02\n        /* \"#utility.yul\":10674:10685   */\n      mul\n        /* \"#utility.yul\":10668:10672   */\n      dup3\n        /* \"#utility.yul\":10665:10686   */\n      or\n        /* \"#utility.yul\":10657:10686   */\n      swap1\n      pop\n        /* \"#utility.yul\":10397:10692   */\n      swap3\n      swap2\n      pop\n      pop\n      jump\t// out\n        /* \"#utility.yul\":10697:12092   */\n    tag_20:\n        /* \"#utility.yul\":10814:10851   */\n      tag_202\n        /* \"#utility.yul\":10847:10850   */\n      dup3\n        /* \"#utility.yul\":10814:10851   */\n      tag_55\n      jump\t// in\n    tag_202:\n        /* \"#utility.yul\":10916:10934   */\n      0xffffffffffffffff\n        /* \"#utility.yul\":10908:10914   */\n      dup2\n        /* \"#utility.yul\":10905:10935   */\n      gt\n        /* \"#utility.yul\":10902:10958   */\n      iszero\n      tag_203\n      jumpi\n        /* \"#utility.yul\":10938:10956   */\n      tag_204\n      tag_42\n      jump\t// in\n    tag_204:\n        /* \"#utility.yul\":10902:10958   */\n    tag_203:\n        /* \"#utility.yul\":10982:11020   */\n      tag_205\n        /* \"#utility.yul\":11014:11018   */\n      dup3\n        /* \"#utility.yul\":11008:11019   */\n      sload\n        /* \"#utility.yul\":10982:11020   */\n      tag_23\n      jump\t// in\n    tag_205:\n        /* \"#utility.yul\":11067:11134   */\n      tag_206\n        /* \"#utility.yul\":11127:11133   */\n      dup3\n        /* \"#utility.yul\":11119:11125   */\n      dup3\n        /* \"#utility.yul\":11113:11117   */\n      dup6\n        /* \"#utility.yul\":11067:11134   */\n      tag_76\n      jump\t// in\n    tag_206:\n        /* \"#utility.yul\":11161:11162   */\n      0x00\n        /* \"#utility.yul\":11185:11189   */\n      0x20\n        /* \"#utility.yul\":11172:11189   */\n      swap1\n      pop\n        /* \"#utility.yul\":11217:11219   */\n      0x1f\n        /* \"#utility.yul\":11209:11215   */\n      dup4\n        /* \"#utility.yul\":11206:11220   */\n      gt\n        /* \"#utility.yul\":11234:11235   */\n      0x01\n        /* \"#utility.yul\":11229:11847   */\n      dup2\n      eq\n      tag_208\n      jumpi\n        /* \"#utility.yul\":11891:11892   */\n      0x00\n        /* \"#utility.yul\":11908:11914   */\n      dup5\n        /* \"#utility.yul\":11905:11982   */\n      iszero\n      tag_209\n      jumpi\n        /* \"#utility.yul\":11957:11966   */\n      dup3\n        /* \"#utility.yul\":11952:11955   */\n      dup8\n        /* \"#utility.yul\":11948:11967   */\n      add\n        /* \"#utility.yul\":11942:11968   */\n      mload\n        /* \"#utility.yul\":11933:11968   */\n      swap1\n      pop\n        /* \"#utility.yul\":11905:11982   */\n    tag_209:\n        /* \"#utility.yul\":12008:12075   */\n      tag_210\n        /* \"#utility.yul\":12068:12074   */\n      dup6\n        /* \"#utility.yul\":12061:12066   */\n      dup3\n        /* \"#utility.yul\":12008:12075   */\n      tag_79\n      jump\t// in\n    tag_210:\n        /* \"#utility.yul\":12002:12006   */\n      dup7\n        /* \"#utility.yul\":11995:12076   */\n      sstore\n        /* \"#utility.yul\":11864:12086   */\n      pop\n        /* \"#utility.yul\":11199:12086   */\n      jump(tag_207)\n        /* \"#utility.yul\":11229:11847   */\n    tag_208:\n        /* \"#utility.yul\":11281:11285   */\n      0x1f\n        /* \"#utility.yul\":11277:11286   */\n      not\n        /* \"#utility.yul\":11269:11275   */\n      dup5\n        /* \"#utility.yul\":11265:11287   */\n      and\n        /* \"#utility.yul\":11315:11352   */\n      tag_211\n        /* \"#utility.yul\":11347:11351   */\n      dup7\n        /* \"#utility.yul\":11315:11352   */\n      tag_65\n      jump\t// in\n    tag_211:\n        /* \"#utility.yul\":11374:11375   */\n      0x00\n        /* \"#utility.yul\":11388:11596   */\n    tag_212:\n        /* \"#utility.yul\":11402:11409   */\n      dup3\n        /* \"#utility.yul\":11399:11400   */\n      dup2\n        /* \"#utility.yul\":11396:11410   */\n      lt\n        /* \"#utility.yul\":11388:11596   */\n      iszero\n      tag_214\n      jumpi\n        /* \"#utility.yul\":11481:11490   */\n      dup5\n        /* \"#utility.yul\":11476:11479   */\n      dup10\n        /* \"#utility.yul\":11472:11491   */\n      add\n        /* \"#utility.yul\":11466:11492   */\n      mload\n        /* \"#utility.yul\":11458:11464   */\n      dup3\n        /* \"#utility.yul\":11451:11493   */\n      sstore\n        /* \"#utility.yul\":11532:11533   */\n      0x01\n        /* \"#utility.yul\":11524:11530   */\n      dup3\n        /* \"#utility.yul\":11520:11534   */\n      add\n        /* \"#utility.yul\":11510:11534   */\n      swap2\n      pop\n        /* \"#utility.yul\":11579:11581   */\n      0x20\n        /* \"#utility.yul\":11568:11577   */\n      dup6\n        /* \"#utility.yul\":11564:11582   */\n      add\n        /* \"#utility.yul\":11551:11582   */\n      swap5\n      pop\n        /* \"#utility.yul\":11425:11429   */\n      0x20\n        /* \"#utility.yul\":11422:11423   */\n      dup2\n        /* \"#utility.yul\":11418:11430   */\n      add\n        /* \"#utility.yul\":11413:11430   */\n      swap1\n      pop\n        /* \"#utility.yul\":11388:11596   */\n      jump(tag_212)\n    tag_214:\n        /* \"#utility.yul\":11624:11630   */\n      dup7\n        /* \"#utility.yul\":11615:11622   */\n      dup4\n        /* \"#utility.yul\":11612:11631   */\n      lt\n        /* \"#utility.yul\":11609:11788   */\n      iszero\n      tag_215\n      jumpi\n        /* \"#utility.yul\":11682:11691   */\n      dup5\n        /* \"#utility.yul\":11677:11680   */\n      dup10\n        /* \"#utility.yul\":11673:11692   */\n      add\n        /* \"#utility.yul\":11667:11693   */\n      mload\n        /* \"#utility.yul\":11725:11773   */\n      tag_216\n        /* \"#utility.yul\":11767:11771   */\n      0x1f\n        /* \"#utility.yul\":11759:11765   */\n      dup10\n        /* \"#utility.yul\":11755:11772   */\n      and\n        /* \"#utility.yul\":11744:11753   */\n      dup3\n        /* \"#utility.yul\":11725:11773   */\n      tag_78\n      jump\t// in\n    tag_216:\n        /* \"#utility.yul\":11717:11723   */\n      dup4\n        /* \"#utility.yul\":11710:11774   */\n      sstore\n        /* \"#utility.yul\":11632:11788   */\n      pop\n        /* \"#utility.yul\":11609:11788   */\n    tag_215:\n        /* \"#utility.yul\":11834:11835   */\n      0x01\n        /* \"#utility.yul\":11830:11831   */\n      0x02\n        /* \"#utility.yul\":11822:11828   */\n      dup9\n        /* \"#utility.yul\":11818:11832   */\n      mul\n        /* \"#utility.yul\":11814:11836   */\n      add\n        /* \"#utility.yul\":11808:11812   */\n      dup9\n        /* \"#utility.yul\":11801:11837   */\n      sstore\n        /* \"#utility.yul\":11236:11847   */\n      pop\n      pop\n      pop\n        /* \"#utility.yul\":11199:12086   */\n    tag_207:\n      pop\n        /* \"#utility.yul\":10789:12092   */\n      pop\n      pop\n      pop\n        /* \"#utility.yul\":10697:12092   */\n      pop\n      pop\n      jump\t// out\n\n    auxdata: 0xa26469706673582212204904519bc1d34ea0fda4b82c5ea4fd7188dd2aa2edfe43db1e9c58bf929bb3c164736f6c63430008170033\n}\n",
				"bytecode": {
					"linkReferences": {},
					"object": "608060405234801561000f575f80fd5b5061090c8061001d5f395ff3fe608060405234801561000f575f80fd5b506004361061003f575f3560e01c806329ec0b2b14610043578063a99c855e1461005f578063e93314ab1461007d575b5f80fd5b61005d60048036038101906100589190610434565b61009b565b005b6100676100ff565b604051610074919061051a565b60405180910390f35b610085610191565b60405161009291906105ed565b60405180910390f35b604051806060016040528084815260200183151581526020018281525060045f820151815f0190816100cd9190610807565b506020820151816001015f6101000a81548160ff02191690831515021790555060408201518160020155905050505050565b606060045f0180546101109061063a565b80601f016020809104026020016040519081016040528092919081815260200182805461013c9061063a565b80156101875780601f1061015e57610100808354040283529160200191610187565b820191905f5260205f20905b81548152906001019060200180831161016a57829003601f168201915b5050505050905090565b61019961025e565b60046040518060600160405290815f820180546101b59061063a565b80601f01602080910402602001604051908101604052809291908181526020018280546101e19061063a565b801561022c5780601f106102035761010080835404028352916020019161022c565b820191905f5260205f20905b81548152906001019060200180831161020f57829003601f168201915b50505050508152602001600182015f9054906101000a900460ff16151515158152602001600282015481525050905090565b6040518060600160405280606081526020015f151581526020015f81525090565b5f604051905090565b5f80fd5b5f80fd5b5f80fd5b5f80fd5b5f601f19601f8301169050919050565b7f4e487b71000000000000000000000000000000000000000000000000000000005f52604160045260245ffd5b6102de82610298565b810181811067ffffffffffffffff821117156102fd576102fc6102a8565b5b80604052505050565b5f61030f61027f565b905061031b82826102d5565b919050565b5f67ffffffffffffffff82111561033a576103396102a8565b5b61034382610298565b9050602081019050919050565b828183375f83830152505050565b5f61037061036b84610320565b610306565b90508281526020810184848401111561038c5761038b610294565b5b610397848285610350565b509392505050565b5f82601f8301126103b3576103b2610290565b5b81356103c384826020860161035e565b91505092915050565b5f8115159050919050565b6103e0816103cc565b81146103ea575f80fd5b50565b5f813590506103fb816103d7565b92915050565b5f819050919050565b61041381610401565b811461041d575f80fd5b50565b5f8135905061042e8161040a565b92915050565b5f805f6060848603121561044b5761044a610288565b5b5f84013567ffffffffffffffff8111156104685761046761028c565b5b6104748682870161039f565b9350506020610485868287016103ed565b925050604061049686828701610420565b9150509250925092565b5f81519050919050565b5f82825260208201905092915050565b5f5b838110156104d75780820151818401526020810190506104bc565b5f8484015250505050565b5f6104ec826104a0565b6104f681856104aa565b93506105068185602086016104ba565b61050f81610298565b840191505092915050565b5f6020820190508181035f83015261053281846104e2565b905092915050565b5f82825260208201905092915050565b5f610554826104a0565b61055e818561053a565b935061056e8185602086016104ba565b61057781610298565b840191505092915050565b61058b816103cc565b82525050565b61059a81610401565b82525050565b5f606083015f8301518482035f8601526105ba828261054a565b91505060208301516105cf6020860182610582565b5060408301516105e26040860182610591565b508091505092915050565b5f6020820190508181035f83015261060581846105a0565b905092915050565b7f4e487b71000000000000000000000000000000000000000000000000000000005f52602260045260245ffd5b5f600282049050600182168061065157607f821691505b6020821081036106645761066361060d565b5b50919050565b5f819050815f5260205f209050919050565b5f6020601f8301049050919050565b5f82821b905092915050565b5f600883026106c67fffffffffffffffffffffffffffffffffffffffffffffffffffffffffffffffff8261068b565b6106d0868361068b565b95508019841693508086168417925050509392505050565b5f819050919050565b5f61070b61070661070184610401565b6106e8565b610401565b9050919050565b5f819050919050565b610724836106f1565b61073861073082610712565b848454610697565b825550505050565b5f90565b61074c610740565b61075781848461071b565b505050565b5b8181101561077a5761076f5f82610744565b60018101905061075d565b5050565b601f8211156107bf576107908161066a565b6107998461067c565b810160208510156107a8578190505b6107bc6107b48561067c565b83018261075c565b50505b505050565b5f82821c905092915050565b5f6107df5f19846008026107c4565b1980831691505092915050565b5f6107f783836107d0565b9150826002028217905092915050565b610810826104a0565b67ffffffffffffffff811115610829576108286102a8565b5b610833825461063a565b61083e82828561077e565b5f60209050601f83116001811461086f575f841561085d578287015190505b61086785826107ec565b8655506108ce565b601f19841661087d8661066a565b5f5b828110156108a45784890151825560018201915060208501945060208101905061087f565b868310156108c157848901516108bd601f8916826107d0565b8355505b6001600288020188555050505b50505050505056fea26469706673582212204904519bc1d34ea0fda4b82c5ea4fd7188dd2aa2edfe43db1e9c58bf929bb3c164736f6c63430008170033",
					"opcodes": "PUSH1 0x80 PUSH1 0x40 MSTORE CALLVALUE DUP1 ISZERO PUSH2 0xF JUMPI PUSH0 DUP1 REVERT JUMPDEST POP PUSH2 0x90C DUP1 PUSH2 0x1D PUSH0 CODECOPY PUSH0 RETURN INVALID PUSH1 0x80 PUSH1 0x40 MSTORE CALLVALUE DUP1 ISZERO PUSH2 0xF JUMPI PUSH0 DUP1 REVERT JUMPDEST POP PUSH1 0x4 CALLDATASIZE LT PUSH2 0x3F JUMPI PUSH0 CALLDATALOAD PUSH1 0xE0 SHR DUP1 PUSH4 0x29EC0B2B EQ PUSH2 0x43 JUMPI DUP1 PUSH4 0xA99C855E EQ PUSH2 0x5F JUMPI DUP1 PUSH4 0xE93314AB EQ PUSH2 0x7D JUMPI JUMPDEST PUSH0 DUP1 REVERT JUMPDEST PUSH2 0x5D PUSH1 0x4 DUP1 CALLDATASIZE SUB DUP2 ADD SWAP1 PUSH2 0x58 SWAP2 SWAP1 PUSH2 0x434 JUMP JUMPDEST PUSH2 0x9B JUMP JUMPDEST STOP JUMPDEST PUSH2 0x67 PUSH2 0xFF JUMP JUMPDEST PUSH1 0x40 MLOAD PUSH2 0x74 SWAP2 SWAP1 PUSH2 0x51A JUMP JUMPDEST PUSH1 0x40 MLOAD DUP1 SWAP2 SUB SWAP1 RETURN JUMPDEST PUSH2 0x85 PUSH2 0x191 JUMP JUMPDEST PUSH1 0x40 MLOAD PUSH2 0x92 SWAP2 SWAP1 PUSH2 0x5ED JUMP JUMPDEST PUSH1 0x40 MLOAD DUP1 SWAP2 SUB SWAP1 RETURN JUMPDEST PUSH1 0x40 MLOAD DUP1 PUSH1 0x60 ADD PUSH1 0x40 MSTORE DUP1 DUP5 DUP2 MSTORE PUSH1 0x20 ADD DUP4 ISZERO ISZERO DUP2 MSTORE PUSH1 0x20 ADD DUP3 DUP2 MSTORE POP PUSH1 0x4 PUSH0 DUP3 ADD MLOAD DUP2 PUSH0 ADD SWAP1 DUP2 PUSH2 0xCD SWAP2 SWAP1 PUSH2 0x807 JUMP JUMPDEST POP PUSH1 0x20 DUP3 ADD MLOAD DUP2 PUSH1 0x1 ADD PUSH0 PUSH2 0x100 EXP DUP2 SLOAD DUP2 PUSH1 0xFF MUL NOT AND SWAP1 DUP4 ISZERO ISZERO MUL OR SWAP1 SSTORE POP PUSH1 0x40 DUP3 ADD MLOAD DUP2 PUSH1 0x2 ADD SSTORE SWAP1 POP POP POP POP POP JUMP JUMPDEST PUSH1 0x60 PUSH1 0x4 PUSH0 ADD DUP1 SLOAD PUSH2 0x110 SWAP1 PUSH2 0x63A JUMP JUMPDEST DUP1 PUSH1 0x1F ADD PUSH1 0x20 DUP1 SWAP2 DIV MUL PUSH1 0x20 ADD PUSH1 0x40 MLOAD SWAP1 DUP2 ADD PUSH1 0x40 MSTORE DUP1 SWAP3 SWAP2 SWAP1 DUP2 DUP2 MSTORE PUSH1 0x20 ADD DUP3 DUP1 SLOAD PUSH2 0x13C SWAP1 PUSH2 0x63A JUMP JUMPDEST DUP1 ISZERO PUSH2 0x187 JUMPI DUP1 PUSH1 0x1F LT PUSH2 0x15E JUMPI PUSH2 0x100 DUP1 DUP4 SLOAD DIV MUL DUP4 MSTORE SWAP2 PUSH1 0x20 ADD SWAP2 PUSH2 0x187 JUMP JUMPDEST DUP3 ADD SWAP2 SWAP1 PUSH0 MSTORE PUSH1 0x20 PUSH0 KECCAK256 SWAP1 JUMPDEST DUP2 SLOAD DUP2 MSTORE SWAP1 PUSH1 0x1 ADD SWAP1 PUSH1 0x20 ADD DUP1 DUP4 GT PUSH2 0x16A JUMPI DUP3 SWAP1 SUB PUSH1 0x1F AND DUP3 ADD SWAP2 JUMPDEST POP POP POP POP POP SWAP1 POP SWAP1 JUMP JUMPDEST PUSH2 0x199 PUSH2 0x25E JUMP JUMPDEST PUSH1 0x4 PUSH1 0x40 MLOAD DUP1 PUSH1 0x60 ADD PUSH1 0x40 MSTORE SWAP1 DUP2 PUSH0 DUP3 ADD DUP1 SLOAD PUSH2 0x1B5 SWAP1 PUSH2 0x63A JUMP JUMPDEST DUP1 PUSH1 0x1F ADD PUSH1 0x20 DUP1 SWAP2 DIV MUL PUSH1 0x20 ADD PUSH1 0x40 MLOAD SWAP1 DUP2 ADD PUSH1 0x40 MSTORE DUP1 SWAP3 SWAP2 SWAP1 DUP2 DUP2 MSTORE PUSH1 0x20 ADD DUP3 DUP1 SLOAD PUSH2 0x1E1 SWAP1 PUSH2 0x63A JUMP JUMPDEST DUP1 ISZERO PUSH2 0x22C JUMPI DUP1 PUSH1 0x1F LT PUSH2 0x203 JUMPI PUSH2 0x100 DUP1 DUP4 SLOAD DIV MUL DUP4 MSTORE SWAP2 PUSH1 0x20 ADD SWAP2 PUSH2 0x22C JUMP JUMPDEST DUP3 ADD SWAP2 SWAP1 PUSH0 MSTORE PUSH1 0x20 PUSH0 KECCAK256 SWAP1 JUMPDEST DUP2 SLOAD DUP2 MSTORE SWAP1 PUSH1 0x1 ADD SWAP1 PUSH1 0x20 ADD DUP1 DUP4 GT PUSH2 0x20F JUMPI DUP3 SWAP1 SUB PUSH1 0x1F AND DUP3 ADD SWAP2 JUMPDEST POP POP POP POP POP DUP2 MSTORE PUSH1 0x20 ADD PUSH1 0x1 DUP3 ADD PUSH0 SWAP1 SLOAD SWAP1 PUSH2 0x100 EXP SWAP1 DIV PUSH1 0xFF AND ISZERO ISZERO ISZERO ISZERO DUP2 MSTORE PUSH1 0x20 ADD PUSH1 0x2 DUP3 ADD SLOAD DUP2 MSTORE POP POP SWAP1 POP SWAP1 JUMP JUMPDEST PUSH1 0x40 MLOAD DUP1 PUSH1 0x60 ADD PUSH1 0x40 MSTORE DUP1 PUSH1 0x60 DUP2 MSTORE PUSH1 0x20 ADD PUSH0 ISZERO ISZERO DUP2 MSTORE PUSH1 0x20 ADD PUSH0 DUP2 MSTORE POP SWAP1 JUMP JUMPDEST PUSH0 PUSH1 0x40 MLOAD SWAP1 POP SWAP1 JUMP JUMPDEST PUSH0 DUP1 REVERT JUMPDEST PUSH0 DUP1 REVERT JUMPDEST PUSH0 DUP1 REVERT JUMPDEST PUSH0 DUP1 REVERT JUMPDEST PUSH0 PUSH1 0x1F NOT PUSH1 0x1F DUP4 ADD AND SWAP1 POP SWAP2 SWAP1 POP JUMP JUMPDEST PUSH32 0x4E487B7100000000000000000000000000000000000000000000000000000000 PUSH0 MSTORE PUSH1 0x41 PUSH1 0x4 MSTORE PUSH1 0x24 PUSH0 REVERT JUMPDEST PUSH2 0x2DE DUP3 PUSH2 0x298 JUMP JUMPDEST DUP2 ADD DUP2 DUP2 LT PUSH8 0xFFFFFFFFFFFFFFFF DUP3 GT OR ISZERO PUSH2 0x2FD JUMPI PUSH2 0x2FC PUSH2 0x2A8 JUMP JUMPDEST JUMPDEST DUP1 PUSH1 0x40 MSTORE POP POP POP JUMP JUMPDEST PUSH0 PUSH2 0x30F PUSH2 0x27F JUMP JUMPDEST SWAP1 POP PUSH2 0x31B DUP3 DUP3 PUSH2 0x2D5 JUMP JUMPDEST SWAP2 SWAP1 POP JUMP JUMPDEST PUSH0 PUSH8 0xFFFFFFFFFFFFFFFF DUP3 GT ISZERO PUSH2 0x33A JUMPI PUSH2 0x339 PUSH2 0x2A8 JUMP JUMPDEST JUMPDEST PUSH2 0x343 DUP3 PUSH2 0x298 JUMP JUMPDEST SWAP1 POP PUSH1 0x20 DUP2 ADD SWAP1 POP SWAP2 SWAP1 POP JUMP JUMPDEST DUP3 DUP2 DUP4 CALLDATACOPY PUSH0 DUP4 DUP4 ADD MSTORE POP POP POP JUMP JUMPDEST PUSH0 PUSH2 0x370 PUSH2 0x36B DUP5 PUSH2 0x320 JUMP JUMPDEST PUSH2 0x306 JUMP JUMPDEST SWAP1 POP DUP3 DUP2 MSTORE PUSH1 0x20 DUP2 ADD DUP5 DUP5 DUP5 ADD GT ISZERO PUSH2 0x38C JUMPI PUSH2 0x38B PUSH2 0x294 JUMP JUMPDEST JUMPDEST PUSH2 0x397 DUP5 DUP3 DUP6 PUSH2 0x350 JUMP JUMPDEST POP SWAP4 SWAP3 POP POP POP JUMP JUMPDEST PUSH0 DUP3 PUSH1 0x1F DUP4 ADD SLT PUSH2 0x3B3 JUMPI PUSH2 0x3B2 PUSH2 0x290 JUMP JUMPDEST JUMPDEST DUP2 CALLDATALOAD PUSH2 0x3C3 DUP5 DUP3 PUSH1 0x20 DUP7 ADD PUSH2 0x35E JUMP JUMPDEST SWAP2 POP POP SWAP3 SWAP2 POP POP JUMP JUMPDEST PUSH0 DUP2 ISZERO ISZERO SWAP1 POP SWAP2 SWAP1 POP JUMP JUMPDEST PUSH2 0x3E0 DUP2 PUSH2 0x3CC JUMP JUMPDEST DUP2 EQ PUSH2 0x3EA JUMPI PUSH0 DUP1 REVERT JUMPDEST POP JUMP JUMPDEST PUSH0 DUP2 CALLDATALOAD SWAP1 POP PUSH2 0x3FB DUP2 PUSH2 0x3D7 JUMP JUMPDEST SWAP3 SWAP2 POP POP JUMP JUMPDEST PUSH0 DUP2 SWAP1 POP SWAP2 SWAP1 POP JUMP JUMPDEST PUSH2 0x413 DUP2 PUSH2 0x401 JUMP JUMPDEST DUP2 EQ PUSH2 0x41D JUMPI PUSH0 DUP1 REVERT JUMPDEST POP JUMP JUMPDEST PUSH0 DUP2 CALLDATALOAD SWAP1 POP PUSH2 0x42E DUP2 PUSH2 0x40A JUMP JUMPDEST SWAP3 SWAP2 POP POP JUMP JUMPDEST PUSH0 DUP1 PUSH0 PUSH1 0x60 DUP5 DUP7 SUB SLT ISZERO PUSH2 0x44B JUMPI PUSH2 0x44A PUSH2 0x288 JUMP JUMPDEST JUMPDEST PUSH0 DUP5 ADD CALLDATALOAD PUSH8 0xFFFFFFFFFFFFFFFF DUP2 GT ISZERO PUSH2 0x468 JUMPI PUSH2 0x467 PUSH2 0x28C JUMP JUMPDEST JUMPDEST PUSH2 0x474 DUP7 DUP3 DUP8 ADD PUSH2 0x39F JUMP JUMPDEST SWAP4 POP POP PUSH1 0x20 PUSH2 0x485 DUP7 DUP3 DUP8 ADD PUSH2 0x3ED JUMP JUMPDEST SWAP3 POP POP PUSH1 0x40 PUSH2 0x496 DUP7 DUP3 DUP8 ADD PUSH2 0x420 JUMP JUMPDEST SWAP2 POP POP SWAP3 POP SWAP3 POP SWAP3 JUMP JUMPDEST PUSH0 DUP2 MLOAD SWAP1 POP SWAP2 SWAP1 POP JUMP JUMPDEST PUSH0 DUP3 DUP3 MSTORE PUSH1 0x20 DUP3 ADD SWAP1 POP SWAP3 SWAP2 POP POP JUMP JUMPDEST PUSH0 JUMPDEST DUP4 DUP2 LT ISZERO PUSH2 0x4D7 JUMPI DUP1 DUP3 ADD MLOAD DUP2 DUP5 ADD MSTORE PUSH1 0x20 DUP2 ADD SWAP1 POP PUSH2 0x4BC JUMP JUMPDEST PUSH0 DUP5 DUP5 ADD MSTORE POP POP POP POP JUMP JUMPDEST PUSH0 PUSH2 0x4EC DUP3 PUSH2 0x4A0 JUMP JUMPDEST PUSH2 0x4F6 DUP2 DUP6 PUSH2 0x4AA JUMP JUMPDEST SWAP4 POP PUSH2 0x506 DUP2 DUP6 PUSH1 0x20 DUP7 ADD PUSH2 0x4BA JUMP JUMPDEST PUSH2 0x50F DUP2 PUSH2 0x298 JUMP JUMPDEST DUP5 ADD SWAP2 POP POP SWAP3 SWAP2 POP POP JUMP JUMPDEST PUSH0 PUSH1 0x20 DUP3 ADD SWAP1 POP DUP2 DUP2 SUB PUSH0 DUP4 ADD MSTORE PUSH2 0x532 DUP2 DUP5 PUSH2 0x4E2 JUMP JUMPDEST SWAP1 POP SWAP3 SWAP2 POP POP JUMP JUMPDEST PUSH0 DUP3 DUP3 MSTORE PUSH1 0x20 DUP3 ADD SWAP1 POP SWAP3 SWAP2 POP POP JUMP JUMPDEST PUSH0 PUSH2 0x554 DUP3 PUSH2 0x4A0 JUMP JUMPDEST PUSH2 0x55E DUP2 DUP6 PUSH2 0x53A JUMP JUMPDEST SWAP4 POP PUSH2 0x56E DUP2 DUP6 PUSH1 0x20 DUP7 ADD PUSH2 0x4BA JUMP JUMPDEST PUSH2 0x577 DUP2 PUSH2 0x298 JUMP JUMPDEST DUP5 ADD SWAP2 POP POP SWAP3 SWAP2 POP POP JUMP JUMPDEST PUSH2 0x58B DUP2 PUSH2 0x3CC JUMP JUMPDEST DUP3 MSTORE POP POP JUMP JUMPDEST PUSH2 0x59A DUP2 PUSH2 0x401 JUMP JUMPDEST DUP3 MSTORE POP POP JUMP JUMPDEST PUSH0 PUSH1 0x60 DUP4 ADD PUSH0 DUP4 ADD MLOAD DUP5 DUP3 SUB PUSH0 DUP7 ADD MSTORE PUSH2 0x5BA DUP3 DUP3 PUSH2 0x54A JUMP JUMPDEST SWAP2 POP POP PUSH1 0x20 DUP4 ADD MLOAD PUSH2 0x5CF PUSH1 0x20 DUP7 ADD DUP3 PUSH2 0x582 JUMP JUMPDEST POP PUSH1 0x40 DUP4 ADD MLOAD PUSH2 0x5E2 PUSH1 0x40 DUP7 ADD DUP3 PUSH2 0x591 JUMP JUMPDEST POP DUP1 SWAP2 POP POP SWAP3 SWAP2 POP POP JUMP JUMPDEST PUSH0 PUSH1 0x20 DUP3 ADD SWAP1 POP DUP2 DUP2 SUB PUSH0 DUP4 ADD MSTORE PUSH2 0x605 DUP2 DUP5 PUSH2 0x5A0 JUMP JUMPDEST SWAP1 POP SWAP3 SWAP2 POP POP JUMP JUMPDEST PUSH32 0x4E487B7100000000000000000000000000000000000000000000000000000000 PUSH0 MSTORE PUSH1 0x22 PUSH1 0x4 MSTORE PUSH1 0x24 PUSH0 REVERT JUMPDEST PUSH0 PUSH1 0x2 DUP3 DIV SWAP1 POP PUSH1 0x1 DUP3 AND DUP1 PUSH2 0x651 JUMPI PUSH1 0x7F DUP3 AND SWAP2 POP JUMPDEST PUSH1 0x20 DUP3 LT DUP2 SUB PUSH2 0x664 JUMPI PUSH2 0x663 PUSH2 0x60D JUMP JUMPDEST JUMPDEST POP SWAP2 SWAP1 POP JUMP JUMPDEST PUSH0 DUP2 SWAP1 POP DUP2 PUSH0 MSTORE PUSH1 0x20 PUSH0 KECCAK256 SWAP1 POP SWAP2 SWAP1 POP JUMP JUMPDEST PUSH0 PUSH1 0x20 PUSH1 0x1F DUP4 ADD DIV SWAP1 POP SWAP2 SWAP1 POP JUMP JUMPDEST PUSH0 DUP3 DUP3 SHL SWAP1 POP SWAP3 SWAP2 POP POP JUMP JUMPDEST PUSH0 PUSH1 0x8 DUP4 MUL PUSH2 0x6C6 PUSH32 0xFFFFFFFFFFFFFFFFFFFFFFFFFFFFFFFFFFFFFFFFFFFFFFFFFFFFFFFFFFFFFFFF DUP3 PUSH2 0x68B JUMP JUMPDEST PUSH2 0x6D0 DUP7 DUP4 PUSH2 0x68B JUMP JUMPDEST SWAP6 POP DUP1 NOT DUP5 AND SWAP4 POP DUP1 DUP7 AND DUP5 OR SWAP3 POP POP POP SWAP4 SWAP3 POP POP POP JUMP JUMPDEST PUSH0 DUP2 SWAP1 POP SWAP2 SWAP1 POP JUMP JUMPDEST PUSH0 PUSH2 0x70B PUSH2 0x706 PUSH2 0x701 DUP5 PUSH2 0x401 JUMP JUMPDEST PUSH2 0x6E8 JUMP JUMPDEST PUSH2 0x401 JUMP JUMPDEST SWAP1 POP SWAP2 SWAP1 POP JUMP JUMPDEST PUSH0 DUP2 SWAP1 POP SWAP2 SWAP1 POP JUMP JUMPDEST PUSH2 0x724 DUP4 PUSH2 0x6F1 JUMP JUMPDEST PUSH2 0x738 PUSH2 0x730 DUP3 PUSH2 0x712 JUMP JUMPDEST DUP5 DUP5 SLOAD PUSH2 0x697 JUMP JUMPDEST DUP3 SSTORE POP POP POP POP JUMP JUMPDEST PUSH0 SWAP1 JUMP JUMPDEST PUSH2 0x74C PUSH2 0x740 JUMP JUMPDEST PUSH2 0x757 DUP2 DUP5 DUP5 PUSH2 0x71B JUMP JUMPDEST POP POP POP JUMP JUMPDEST JUMPDEST DUP2 DUP2 LT ISZERO PUSH2 0x77A JUMPI PUSH2 0x76F PUSH0 DUP3 PUSH2 0x744 JUMP JUMPDEST PUSH1 0x1 DUP2 ADD SWAP1 POP PUSH2 0x75D JUMP JUMPDEST POP POP JUMP JUMPDEST PUSH1 0x1F DUP3 GT ISZERO PUSH2 0x7BF JUMPI PUSH2 0x790 DUP2 PUSH2 0x66A JUMP JUMPDEST PUSH2 0x799 DUP5 PUSH2 0x67C JUMP JUMPDEST DUP2 ADD PUSH1 0x20 DUP6 LT ISZERO PUSH2 0x7A8 JUMPI DUP2 SWAP1 POP JUMPDEST PUSH2 0x7BC PUSH2 0x7B4 DUP6 PUSH2 0x67C JUMP JUMPDEST DUP4 ADD DUP3 PUSH2 0x75C JUMP JUMPDEST POP POP JUMPDEST POP POP POP JUMP JUMPDEST PUSH0 DUP3 DUP3 SHR SWAP1 POP SWAP3 SWAP2 POP POP JUMP JUMPDEST PUSH0 PUSH2 0x7DF PUSH0 NOT DUP5 PUSH1 0x8 MUL PUSH2 0x7C4 JUMP JUMPDEST NOT DUP1 DUP4 AND SWAP2 POP POP SWAP3 SWAP2 POP POP JUMP JUMPDEST PUSH0 PUSH2 0x7F7 DUP4 DUP4 PUSH2 0x7D0 JUMP JUMPDEST SWAP2 POP DUP3 PUSH1 0x2 MUL DUP3 OR SWAP1 POP SWAP3 SWAP2 POP POP JUMP JUMPDEST PUSH2 0x810 DUP3 PUSH2 0x4A0 JUMP JUMPDEST PUSH8 0xFFFFFFFFFFFFFFFF DUP2 GT ISZERO PUSH2 0x829 JUMPI PUSH2 0x828 PUSH2 0x2A8 JUMP JUMPDEST JUMPDEST PUSH2 0x833 DUP3 SLOAD PUSH2 0x63A JUMP JUMPDEST PUSH2 0x83E DUP3 DUP3 DUP6 PUSH2 0x77E JUMP JUMPDEST PUSH0 PUSH1 0x20 SWAP1 POP PUSH1 0x1F DUP4 GT PUSH1 0x1 DUP2 EQ PUSH2 0x86F JUMPI PUSH0 DUP5 ISZERO PUSH2 0x85D JUMPI DUP3 DUP8 ADD MLOAD SWAP1 POP JUMPDEST PUSH2 0x867 DUP6 DUP3 PUSH2 0x7EC JUMP JUMPDEST DUP7 SSTORE POP PUSH2 0x8CE JUMP JUMPDEST PUSH1 0x1F NOT DUP5 AND PUSH2 0x87D DUP7 PUSH2 0x66A JUMP JUMPDEST PUSH0 JUMPDEST DUP3 DUP2 LT ISZERO PUSH2 0x8A4 JUMPI DUP5 DUP10 ADD MLOAD DUP3 SSTORE PUSH1 0x1 DUP3 ADD SWAP2 POP PUSH1 0x20 DUP6 ADD SWAP5 POP PUSH1 0x20 DUP2 ADD SWAP1 POP PUSH2 0x87F JUMP JUMPDEST DUP7 DUP4 LT ISZERO PUSH2 0x8C1 JUMPI DUP5 DUP10 ADD MLOAD PUSH2 0x8BD PUSH1 0x1F DUP10 AND DUP3 PUSH2 0x7D0 JUMP JUMPDEST DUP4 SSTORE POP JUMPDEST PUSH1 0x1 PUSH1 0x2 DUP9 MUL ADD DUP9 SSTORE POP POP POP JUMPDEST POP POP POP POP POP POP JUMP INVALID LOG2 PUSH5 0x6970667358 0x22 SLT KECCAK256 0x49 DIV MLOAD SWAP12 0xC1 0xD3 0x4E LOG0 REVERT LOG4 0xB8 0x2C 0x5E LOG4 REVERT PUSH18 0x88DD2AA2EDFE43DB1E9C58BF929BB3C16473 PUSH16 0x6C634300081700330000000000000000 "
				},
				"gasEstimates": {
					"creation": {
						"codeDepositCost": "463200",
						"executionCost": "497",
						"totalCost": "463697"
					},
					"external": {
						"getS()": "infinite",
						"getSName()": "infinite",
						"setS(string,bool,uint256)": "infinite"
					}
				},
				"methodIdentifiers": {
					"getS()": "e93314ab",
					"getSName()": "a99c855e",
					"setS(string,bool,uint256)": "29ec0b2b"
				}
			},
			"storageLayout": {
				"storage": [
					{
						"astId": 10,
						"contract": "struct.sol:STRUCT",
						"label": "a",
						"offset": 0,
						"slot": "0",
						"type": "t_uint256"
					},
					{
						"astId": 12,
						"contract": "struct.sol:STRUCT",
						"label": "b",
						"offset": 0,
						"slot": "1",
						"type": "t_string_storage"
					},
					{
						"astId": 14,
						"contract": "struct.sol:STRUCT",
						"label": "c",
						"offset": 0,
						"slot": "2",
						"type": "t_bytes_storage"
					},
					{
						"astId": 16,
						"contract": "struct.sol:STRUCT",
						"label": "d",
						"offset": 0,
						"slot": "3",
						"type": "t_bool"
					},
					{
						"astId": 19,
						"contract": "struct.sol:STRUCT",
						"label": "s",
						"offset": 0,
						"slot": "4",
						"type": "t_struct(Student)8_storage"
					}
				],
				"types": {
					"t_bool": {
						"encoding": "inplace",
						"label": "bool",
						"numberOfBytes": "1"
					},
					"t_bytes_storage": {
						"encoding": "bytes",
						"label": "bytes",
						"numberOfBytes": "32"
					},
					"t_string_storage": {
						"encoding": "bytes",
						"label": "string",
						"numberOfBytes": "32"
					},
					"t_struct(Student)8_storage": {
						"encoding": "inplace",
						"label": "struct STRUCT.Student",
						"members": [
							{
								"astId": 3,
								"contract": "struct.sol:STRUCT",
								"label": "name",
								"offset": 0,
								"slot": "0",
								"type": "t_string_storage"
							},
							{
								"astId": 5,
								"contract": "struct.sol:STRUCT",
								"label": "isMale",
								"offset": 0,
								"slot": "1",
								"type": "t_bool"
							},
							{
								"astId": 7,
								"contract": "struct.sol:STRUCT",
								"label": "number",
								"offset": 0,
								"slot": "2",
								"type": "t_uint256"
							}
						],
						"numberOfBytes": "96"
					},
					"t_uint256": {
						"encoding": "inplace",
						"label": "uint256",
						"numberOfBytes": "32"
					}
				}
			},
			"userdoc": {
				"kind": "user",
				"methods": {},
				"version": 1
			}
		}
	}
}