{
	"mapping3.sol": {
		"MAPPING3": {
			"abi": [
				{
					"inputs": [
						{
							"internalType": "string",
							"name": "_name",
							"type": "string"
						},
						{
							"components": [
								{
									"internalType": "uint256",
									"name": "number",
									"type": "uint256"
								},
								{
									"internalType": "uint256",
									"name": "score",
									"type": "uint256"
								}
							],
							"internalType": "struct MAPPING3.student",
							"name": "_student",
							"type": "tuple"
						}
					],
					"name": "setStudent",
					"outputs": [],
					"stateMutability": "nonpayable",
					"type": "function"
				}
			],
			"devdoc": {
				"kind": "dev",
				"methods": {},
				"version": 1
			},
			"evm": {
				"assembly": "    /* \"mapping3.sol\":57:340  contract MAPPING3 {... */\n  mstore(0x40, 0x80)\n  callvalue\n  dup1\n  iszero\n  tag_1\n  jumpi\n  0x00\n  dup1\n  revert\ntag_1:\n  pop\n  dataSize(sub_0)\n  dup1\n  dataOffset(sub_0)\n  0x00\n  codecopy\n  0x00\n  return\nstop\n\nsub_0: assembly {\n        /* \"mapping3.sol\":57:340  contract MAPPING3 {... */\n      mstore(0x40, 0x80)\n      callvalue\n      dup1\n      iszero\n      tag_1\n      jumpi\n      0x00\n      dup1\n      revert\n    tag_1:\n      pop\n      jumpi(tag_2, lt(calldatasize, 0x04))\n      shr(0xe0, calldataload(0x00))\n      dup1\n      0xb4b7aac0\n      eq\n      tag_3\n      jumpi\n    tag_2:\n      0x00\n      dup1\n      revert\n        /* \"mapping3.sol\":221:337  function setStudent(string memory _name, student memory _student) public {... */\n    tag_3:\n      tag_4\n      0x04\n      dup1\n      calldatasize\n      sub\n      dup2\n      add\n      swap1\n      tag_5\n      swap2\n      swap1\n      tag_6\n      jump\t// in\n    tag_5:\n      tag_7\n      jump\t// in\n    tag_4:\n      stop\n    tag_7:\n        /* \"mapping3.sol\":322:330  _student */\n      dup1\n        /* \"mapping3.sol\":304:312  students */\n      0x00\n        /* \"mapping3.sol\":313:318  _name */\n      dup4\n        /* \"mapping3.sol\":304:319  students[_name] */\n      mload(0x40)\n      tag_9\n      swap2\n      swap1\n      tag_10\n      jump\t// in\n    tag_9:\n      swap1\n      dup2\n      mstore\n      0x20\n      add\n      mload(0x40)\n      dup1\n      swap2\n      sub\n      swap1\n      keccak256\n        /* \"mapping3.sol\":304:330  students[_name] = _student */\n      0x00\n      dup3\n      add\n      mload\n      dup2\n      0x00\n      add\n      sstore\n      0x20\n      dup3\n      add\n      mload\n      dup2\n      0x01\n      add\n      sstore\n      swap1\n      pop\n      pop\n        /* \"mapping3.sol\":221:337  function setStudent(string memory _name, student memory _student) public {... */\n      pop\n      pop\n      jump\t// out\n        /* \"#utility.yul\":7:82   */\n    tag_11:\n        /* \"#utility.yul\":40:46   */\n      0x00\n        /* \"#utility.yul\":73:75   */\n      0x40\n        /* \"#utility.yul\":67:76   */\n      mload\n        /* \"#utility.yul\":57:76   */\n      swap1\n      pop\n        /* \"#utility.yul\":7:82   */\n      swap1\n      jump\t// out\n        /* \"#utility.yul\":88:205   */\n    tag_12:\n        /* \"#utility.yul\":197:198   */\n      0x00\n        /* \"#utility.yul\":194:195   */\n      dup1\n        /* \"#utility.yul\":187:199   */\n      revert\n        /* \"#utility.yul\":211:328   */\n    tag_13:\n        /* \"#utility.yul\":320:321   */\n      0x00\n        /* \"#utility.yul\":317:318   */\n      dup1\n        /* \"#utility.yul\":310:322   */\n      revert\n        /* \"#utility.yul\":334:451   */\n    tag_14:\n        /* \"#utility.yul\":443:444   */\n      0x00\n        /* \"#utility.yul\":440:441   */\n      dup1\n        /* \"#utility.yul\":433:445   */\n      revert\n        /* \"#utility.yul\":457:574   */\n    tag_15:\n        /* \"#utility.yul\":566:567   */\n      0x00\n        /* \"#utility.yul\":563:564   */\n      dup1\n        /* \"#utility.yul\":556:568   */\n      revert\n        /* \"#utility.yul\":580:682   */\n    tag_16:\n        /* \"#utility.yul\":621:627   */\n      0x00\n        /* \"#utility.yul\":672:674   */\n      0x1f\n        /* \"#utility.yul\":668:675   */\n      not\n        /* \"#utility.yul\":663:665   */\n      0x1f\n        /* \"#utility.yul\":656:661   */\n      dup4\n        /* \"#utility.yul\":652:666   */\n      add\n        /* \"#utility.yul\":648:676   */\n      and\n        /* \"#utility.yul\":638:676   */\n      swap1\n      pop\n        /* \"#utility.yul\":580:682   */\n      swap2\n      swap1\n      pop\n      jump\t// out\n        /* \"#utility.yul\":688:868   */\n    tag_17:\n        /* \"#utility.yul\":736:813   */\n      0x4e487b7100000000000000000000000000000000000000000000000000000000\n        /* \"#utility.yul\":733:734   */\n      0x00\n        /* \"#utility.yul\":726:814   */\n      mstore\n        /* \"#utility.yul\":833:837   */\n      0x41\n        /* \"#utility.yul\":830:831   */\n      0x04\n        /* \"#utility.yul\":823:838   */\n      mstore\n        /* \"#utility.yul\":857:861   */\n      0x24\n        /* \"#utility.yul\":854:855   */\n      0x00\n        /* \"#utility.yul\":847:862   */\n      revert\n        /* \"#utility.yul\":874:1155   */\n    tag_18:\n        /* \"#utility.yul\":957:984   */\n      tag_43\n        /* \"#utility.yul\":979:983   */\n      dup3\n        /* \"#utility.yul\":957:984   */\n      tag_16\n      jump\t// in\n    tag_43:\n        /* \"#utility.yul\":949:955   */\n      dup2\n        /* \"#utility.yul\":945:985   */\n      add\n        /* \"#utility.yul\":1087:1093   */\n      dup2\n        /* \"#utility.yul\":1075:1085   */\n      dup2\n        /* \"#utility.yul\":1072:1094   */\n      lt\n        /* \"#utility.yul\":1051:1069   */\n      0xffffffffffffffff\n        /* \"#utility.yul\":1039:1049   */\n      dup3\n        /* \"#utility.yul\":1036:1070   */\n      gt\n        /* \"#utility.yul\":1033:1095   */\n      or\n        /* \"#utility.yul\":1030:1118   */\n      iszero\n      tag_44\n      jumpi\n        /* \"#utility.yul\":1098:1116   */\n      tag_45\n      tag_17\n      jump\t// in\n    tag_45:\n        /* \"#utility.yul\":1030:1118   */\n    tag_44:\n        /* \"#utility.yul\":1138:1148   */\n      dup1\n        /* \"#utility.yul\":1134:1136   */\n      0x40\n        /* \"#utility.yul\":1127:1149   */\n      mstore\n        /* \"#utility.yul\":917:1155   */\n      pop\n        /* \"#utility.yul\":874:1155   */\n      pop\n      pop\n      jump\t// out\n        /* \"#utility.yul\":1161:1290   */\n    tag_19:\n        /* \"#utility.yul\":1195:1201   */\n      0x00\n        /* \"#utility.yul\":1222:1242   */\n      tag_47\n      tag_11\n      jump\t// in\n    tag_47:\n        /* \"#utility.yul\":1212:1242   */\n      swap1\n      pop\n        /* \"#utility.yul\":1251:1284   */\n      tag_48\n        /* \"#utility.yul\":1279:1283   */\n      dup3\n        /* \"#utility.yul\":1271:1277   */\n      dup3\n        /* \"#utility.yul\":1251:1284   */\n      tag_18\n      jump\t// in\n    tag_48:\n        /* \"#utility.yul\":1161:1290   */\n      swap2\n      swap1\n      pop\n      jump\t// out\n        /* \"#utility.yul\":1296:1604   */\n    tag_20:\n        /* \"#utility.yul\":1358:1362   */\n      0x00\n        /* \"#utility.yul\":1448:1466   */\n      0xffffffffffffffff\n        /* \"#utility.yul\":1440:1446   */\n      dup3\n        /* \"#utility.yul\":1437:1467   */\n      gt\n        /* \"#utility.yul\":1434:1490   */\n      iszero\n      tag_50\n      jumpi\n        /* \"#utility.yul\":1470:1488   */\n      tag_51\n      tag_17\n      jump\t// in\n    tag_51:\n        /* \"#utility.yul\":1434:1490   */\n    tag_50:\n        /* \"#utility.yul\":1508:1537   */\n      tag_52\n        /* \"#utility.yul\":1530:1536   */\n      dup3\n        /* \"#utility.yul\":1508:1537   */\n      tag_16\n      jump\t// in\n    tag_52:\n        /* \"#utility.yul\":1500:1537   */\n      swap1\n      pop\n        /* \"#utility.yul\":1592:1596   */\n      0x20\n        /* \"#utility.yul\":1586:1590   */\n      dup2\n        /* \"#utility.yul\":1582:1597   */\n      add\n        /* \"#utility.yul\":1574:1597   */\n      swap1\n      pop\n        /* \"#utility.yul\":1296:1604   */\n      swap2\n      swap1\n      pop\n      jump\t// out\n        /* \"#utility.yul\":1610:1756   */\n    tag_21:\n        /* \"#utility.yul\":1707:1713   */\n      dup3\n        /* \"#utility.yul\":1702:1705   */\n      dup2\n        /* \"#utility.yul\":1697:1700   */\n      dup4\n        /* \"#utility.yul\":1684:1714   */\n      calldatacopy\n        /* \"#utility.yul\":1748:1749   */\n      0x00\n        /* \"#utility.yul\":1739:1745   */\n      dup4\n        /* \"#utility.yul\":1734:1737   */\n      dup4\n        /* \"#utility.yul\":1730:1746   */\n      add\n        /* \"#utility.yul\":1723:1750   */\n      mstore\n        /* \"#utility.yul\":1610:1756   */\n      pop\n      pop\n      pop\n      jump\t// out\n        /* \"#utility.yul\":1762:2187   */\n    tag_22:\n        /* \"#utility.yul\":1840:1845   */\n      0x00\n        /* \"#utility.yul\":1865:1931   */\n      tag_55\n        /* \"#utility.yul\":1881:1930   */\n      tag_56\n        /* \"#utility.yul\":1923:1929   */\n      dup5\n        /* \"#utility.yul\":1881:1930   */\n      tag_20\n      jump\t// in\n    tag_56:\n        /* \"#utility.yul\":1865:1931   */\n      tag_19\n      jump\t// in\n    tag_55:\n        /* \"#utility.yul\":1856:1931   */\n      swap1\n      pop\n        /* \"#utility.yul\":1954:1960   */\n      dup3\n        /* \"#utility.yul\":1947:1952   */\n      dup2\n        /* \"#utility.yul\":1940:1961   */\n      mstore\n        /* \"#utility.yul\":1992:1996   */\n      0x20\n        /* \"#utility.yul\":1985:1990   */\n      dup2\n        /* \"#utility.yul\":1981:1997   */\n      add\n        /* \"#utility.yul\":2030:2033   */\n      dup5\n        /* \"#utility.yul\":2021:2027   */\n      dup5\n        /* \"#utility.yul\":2016:2019   */\n      dup5\n        /* \"#utility.yul\":2012:2028   */\n      add\n        /* \"#utility.yul\":2009:2034   */\n      gt\n        /* \"#utility.yul\":2006:2118   */\n      iszero\n      tag_57\n      jumpi\n        /* \"#utility.yul\":2037:2116   */\n      tag_58\n      tag_15\n      jump\t// in\n    tag_58:\n        /* \"#utility.yul\":2006:2118   */\n    tag_57:\n        /* \"#utility.yul\":2127:2181   */\n      tag_59\n        /* \"#utility.yul\":2174:2180   */\n      dup5\n        /* \"#utility.yul\":2169:2172   */\n      dup3\n        /* \"#utility.yul\":2164:2167   */\n      dup6\n        /* \"#utility.yul\":2127:2181   */\n      tag_21\n      jump\t// in\n    tag_59:\n        /* \"#utility.yul\":1846:2187   */\n      pop\n        /* \"#utility.yul\":1762:2187   */\n      swap4\n      swap3\n      pop\n      pop\n      pop\n      jump\t// out\n        /* \"#utility.yul\":2207:2547   */\n    tag_23:\n        /* \"#utility.yul\":2263:2268   */\n      0x00\n        /* \"#utility.yul\":2312:2315   */\n      dup3\n        /* \"#utility.yul\":2305:2309   */\n      0x1f\n        /* \"#utility.yul\":2297:2303   */\n      dup4\n        /* \"#utility.yul\":2293:2310   */\n      add\n        /* \"#utility.yul\":2289:2316   */\n      slt\n        /* \"#utility.yul\":2279:2401   */\n      tag_61\n      jumpi\n        /* \"#utility.yul\":2320:2399   */\n      tag_62\n      tag_14\n      jump\t// in\n    tag_62:\n        /* \"#utility.yul\":2279:2401   */\n    tag_61:\n        /* \"#utility.yul\":2437:2443   */\n      dup2\n        /* \"#utility.yul\":2424:2444   */\n      calldataload\n        /* \"#utility.yul\":2462:2541   */\n      tag_63\n        /* \"#utility.yul\":2537:2540   */\n      dup5\n        /* \"#utility.yul\":2529:2535   */\n      dup3\n        /* \"#utility.yul\":2522:2526   */\n      0x20\n        /* \"#utility.yul\":2514:2520   */\n      dup7\n        /* \"#utility.yul\":2510:2527   */\n      add\n        /* \"#utility.yul\":2462:2541   */\n      tag_22\n      jump\t// in\n    tag_63:\n        /* \"#utility.yul\":2453:2541   */\n      swap2\n      pop\n        /* \"#utility.yul\":2269:2547   */\n      pop\n        /* \"#utility.yul\":2207:2547   */\n      swap3\n      swap2\n      pop\n      pop\n      jump\t// out\n        /* \"#utility.yul\":2553:2670   */\n    tag_24:\n        /* \"#utility.yul\":2662:2663   */\n      0x00\n        /* \"#utility.yul\":2659:2660   */\n      dup1\n        /* \"#utility.yul\":2652:2664   */\n      revert\n        /* \"#utility.yul\":2799:2876   */\n    tag_26:\n        /* \"#utility.yul\":2836:2843   */\n      0x00\n        /* \"#utility.yul\":2865:2870   */\n      dup2\n        /* \"#utility.yul\":2854:2870   */\n      swap1\n      pop\n        /* \"#utility.yul\":2799:2876   */\n      swap2\n      swap1\n      pop\n      jump\t// out\n        /* \"#utility.yul\":2882:3004   */\n    tag_27:\n        /* \"#utility.yul\":2955:2979   */\n      tag_68\n        /* \"#utility.yul\":2973:2978   */\n      dup2\n        /* \"#utility.yul\":2955:2979   */\n      tag_26\n      jump\t// in\n    tag_68:\n        /* \"#utility.yul\":2948:2953   */\n      dup2\n        /* \"#utility.yul\":2945:2980   */\n      eq\n        /* \"#utility.yul\":2935:2998   */\n      tag_69\n      jumpi\n        /* \"#utility.yul\":2994:2995   */\n      0x00\n        /* \"#utility.yul\":2991:2992   */\n      dup1\n        /* \"#utility.yul\":2984:2996   */\n      revert\n        /* \"#utility.yul\":2935:2998   */\n    tag_69:\n        /* \"#utility.yul\":2882:3004   */\n      pop\n      jump\t// out\n        /* \"#utility.yul\":3010:3149   */\n    tag_28:\n        /* \"#utility.yul\":3056:3061   */\n      0x00\n        /* \"#utility.yul\":3094:3100   */\n      dup2\n        /* \"#utility.yul\":3081:3101   */\n      calldataload\n        /* \"#utility.yul\":3072:3101   */\n      swap1\n      pop\n        /* \"#utility.yul\":3110:3143   */\n      tag_71\n        /* \"#utility.yul\":3137:3142   */\n      dup2\n        /* \"#utility.yul\":3110:3143   */\n      tag_27\n      jump\t// in\n    tag_71:\n        /* \"#utility.yul\":3010:3149   */\n      swap3\n      swap2\n      pop\n      pop\n      jump\t// out\n        /* \"#utility.yul\":3186:3760   */\n    tag_29:\n        /* \"#utility.yul\":3257:3262   */\n      0x00\n        /* \"#utility.yul\":3301:3305   */\n      0x40\n        /* \"#utility.yul\":3289:3298   */\n      dup3\n        /* \"#utility.yul\":3284:3287   */\n      dup5\n        /* \"#utility.yul\":3280:3299   */\n      sub\n        /* \"#utility.yul\":3276:3306   */\n      slt\n        /* \"#utility.yul\":3273:3390   */\n      iszero\n      tag_73\n      jumpi\n        /* \"#utility.yul\":3309:3388   */\n      tag_74\n      tag_24\n      jump\t// in\n    tag_74:\n        /* \"#utility.yul\":3273:3390   */\n    tag_73:\n        /* \"#utility.yul\":3408:3429   */\n      tag_75\n        /* \"#utility.yul\":3424:3428   */\n      0x40\n        /* \"#utility.yul\":3408:3429   */\n      tag_19\n      jump\t// in\n    tag_75:\n        /* \"#utility.yul\":3399:3429   */\n      swap1\n      pop\n        /* \"#utility.yul\":3490:3491   */\n      0x00\n        /* \"#utility.yul\":3530:3579   */\n      tag_76\n        /* \"#utility.yul\":3575:3578   */\n      dup5\n        /* \"#utility.yul\":3566:3572   */\n      dup3\n        /* \"#utility.yul\":3555:3564   */\n      dup6\n        /* \"#utility.yul\":3551:3573   */\n      add\n        /* \"#utility.yul\":3530:3579   */\n      tag_28\n      jump\t// in\n    tag_76:\n        /* \"#utility.yul\":3523:3527   */\n      0x00\n        /* \"#utility.yul\":3516:3521   */\n      dup4\n        /* \"#utility.yul\":3512:3528   */\n      add\n        /* \"#utility.yul\":3505:3580   */\n      mstore\n        /* \"#utility.yul\":3439:3591   */\n      pop\n        /* \"#utility.yul\":3651:3653   */\n      0x20\n        /* \"#utility.yul\":3692:3741   */\n      tag_77\n        /* \"#utility.yul\":3737:3740   */\n      dup5\n        /* \"#utility.yul\":3728:3734   */\n      dup3\n        /* \"#utility.yul\":3717:3726   */\n      dup6\n        /* \"#utility.yul\":3713:3735   */\n      add\n        /* \"#utility.yul\":3692:3741   */\n      tag_28\n      jump\t// in\n    tag_77:\n        /* \"#utility.yul\":3685:3689   */\n      0x20\n        /* \"#utility.yul\":3678:3683   */\n      dup4\n        /* \"#utility.yul\":3674:3690   */\n      add\n        /* \"#utility.yul\":3667:3742   */\n      mstore\n        /* \"#utility.yul\":3601:3753   */\n      pop\n        /* \"#utility.yul\":3186:3760   */\n      swap3\n      swap2\n      pop\n      pop\n      jump\t// out\n        /* \"#utility.yul\":3766:4464   */\n    tag_6:\n        /* \"#utility.yul\":3866:3872   */\n      0x00\n        /* \"#utility.yul\":3874:3880   */\n      dup1\n        /* \"#utility.yul\":3923:3925   */\n      0x60\n        /* \"#utility.yul\":3911:3920   */\n      dup4\n        /* \"#utility.yul\":3902:3909   */\n      dup6\n        /* \"#utility.yul\":3898:3921   */\n      sub\n        /* \"#utility.yul\":3894:3926   */\n      slt\n        /* \"#utility.yul\":3891:4010   */\n      iszero\n      tag_79\n      jumpi\n        /* \"#utility.yul\":3929:4008   */\n      tag_80\n      tag_12\n      jump\t// in\n    tag_80:\n        /* \"#utility.yul\":3891:4010   */\n    tag_79:\n        /* \"#utility.yul\":4077:4078   */\n      0x00\n        /* \"#utility.yul\":4066:4075   */\n      dup4\n        /* \"#utility.yul\":4062:4079   */\n      add\n        /* \"#utility.yul\":4049:4080   */\n      calldataload\n        /* \"#utility.yul\":4107:4125   */\n      0xffffffffffffffff\n        /* \"#utility.yul\":4099:4105   */\n      dup2\n        /* \"#utility.yul\":4096:4126   */\n      gt\n        /* \"#utility.yul\":4093:4210   */\n      iszero\n      tag_81\n      jumpi\n        /* \"#utility.yul\":4129:4208   */\n      tag_82\n      tag_13\n      jump\t// in\n    tag_82:\n        /* \"#utility.yul\":4093:4210   */\n    tag_81:\n        /* \"#utility.yul\":4234:4297   */\n      tag_83\n        /* \"#utility.yul\":4289:4296   */\n      dup6\n        /* \"#utility.yul\":4280:4286   */\n      dup3\n        /* \"#utility.yul\":4269:4278   */\n      dup7\n        /* \"#utility.yul\":4265:4287   */\n      add\n        /* \"#utility.yul\":4234:4297   */\n      tag_23\n      jump\t// in\n    tag_83:\n        /* \"#utility.yul\":4224:4297   */\n      swap3\n      pop\n        /* \"#utility.yul\":4020:4307   */\n      pop\n        /* \"#utility.yul\":4346:4348   */\n      0x20\n        /* \"#utility.yul\":4372:4447   */\n      tag_84\n        /* \"#utility.yul\":4439:4446   */\n      dup6\n        /* \"#utility.yul\":4430:4436   */\n      dup3\n        /* \"#utility.yul\":4419:4428   */\n      dup7\n        /* \"#utility.yul\":4415:4437   */\n      add\n        /* \"#utility.yul\":4372:4447   */\n      tag_29\n      jump\t// in\n    tag_84:\n        /* \"#utility.yul\":4362:4447   */\n      swap2\n      pop\n        /* \"#utility.yul\":4317:4457   */\n      pop\n        /* \"#utility.yul\":3766:4464   */\n      swap3\n      pop\n      swap3\n      swap1\n      pop\n      jump\t// out\n        /* \"#utility.yul\":4470:4569   */\n    tag_30:\n        /* \"#utility.yul\":4522:4528   */\n      0x00\n        /* \"#utility.yul\":4556:4561   */\n      dup2\n        /* \"#utility.yul\":4550:4562   */\n      mload\n        /* \"#utility.yul\":4540:4562   */\n      swap1\n      pop\n        /* \"#utility.yul\":4470:4569   */\n      swap2\n      swap1\n      pop\n      jump\t// out\n        /* \"#utility.yul\":4575:4723   */\n    tag_31:\n        /* \"#utility.yul\":4677:4688   */\n      0x00\n        /* \"#utility.yul\":4714:4717   */\n      dup2\n        /* \"#utility.yul\":4699:4717   */\n      swap1\n      pop\n        /* \"#utility.yul\":4575:4723   */\n      swap3\n      swap2\n      pop\n      pop\n      jump\t// out\n        /* \"#utility.yul\":4729:4975   */\n    tag_32:\n        /* \"#utility.yul\":4810:4811   */\n      0x00\n        /* \"#utility.yul\":4820:4933   */\n    tag_88:\n        /* \"#utility.yul\":4834:4840   */\n      dup4\n        /* \"#utility.yul\":4831:4832   */\n      dup2\n        /* \"#utility.yul\":4828:4841   */\n      lt\n        /* \"#utility.yul\":4820:4933   */\n      iszero\n      tag_90\n      jumpi\n        /* \"#utility.yul\":4919:4920   */\n      dup1\n        /* \"#utility.yul\":4914:4917   */\n      dup3\n        /* \"#utility.yul\":4910:4921   */\n      add\n        /* \"#utility.yul\":4904:4922   */\n      mload\n        /* \"#utility.yul\":4900:4901   */\n      dup2\n        /* \"#utility.yul\":4895:4898   */\n      dup5\n        /* \"#utility.yul\":4891:4902   */\n      add\n        /* \"#utility.yul\":4884:4923   */\n      mstore\n        /* \"#utility.yul\":4856:4858   */\n      0x20\n        /* \"#utility.yul\":4853:4854   */\n      dup2\n        /* \"#utility.yul\":4849:4859   */\n      add\n        /* \"#utility.yul\":4844:4859   */\n      swap1\n      pop\n        /* \"#utility.yul\":4820:4933   */\n      jump(tag_88)\n    tag_90:\n        /* \"#utility.yul\":4967:4968   */\n      0x00\n        /* \"#utility.yul\":4958:4964   */\n      dup5\n        /* \"#utility.yul\":4953:4956   */\n      dup5\n        /* \"#utility.yul\":4949:4965   */\n      add\n        /* \"#utility.yul\":4942:4969   */\n      mstore\n        /* \"#utility.yul\":4791:4975   */\n      pop\n        /* \"#utility.yul\":4729:4975   */\n      pop\n      pop\n      pop\n      jump\t// out\n        /* \"#utility.yul\":4981:5371   */\n    tag_33:\n        /* \"#utility.yul\":5087:5090   */\n      0x00\n        /* \"#utility.yul\":5115:5154   */\n      tag_92\n        /* \"#utility.yul\":5148:5153   */\n      dup3\n        /* \"#utility.yul\":5115:5154   */\n      tag_30\n      jump\t// in\n    tag_92:\n        /* \"#utility.yul\":5170:5259   */\n      tag_93\n        /* \"#utility.yul\":5252:5258   */\n      dup2\n        /* \"#utility.yul\":5247:5250   */\n      dup6\n        /* \"#utility.yul\":5170:5259   */\n      tag_31\n      jump\t// in\n    tag_93:\n        /* \"#utility.yul\":5163:5259   */\n      swap4\n      pop\n        /* \"#utility.yul\":5268:5333   */\n      tag_94\n        /* \"#utility.yul\":5326:5332   */\n      dup2\n        /* \"#utility.yul\":5321:5324   */\n      dup6\n        /* \"#utility.yul\":5314:5318   */\n      0x20\n        /* \"#utility.yul\":5307:5312   */\n      dup7\n        /* \"#utility.yul\":5303:5319   */\n      add\n        /* \"#utility.yul\":5268:5333   */\n      tag_32\n      jump\t// in\n    tag_94:\n        /* \"#utility.yul\":5358:5364   */\n      dup1\n        /* \"#utility.yul\":5353:5356   */\n      dup5\n        /* \"#utility.yul\":5349:5365   */\n      add\n        /* \"#utility.yul\":5342:5365   */\n      swap2\n      pop\n        /* \"#utility.yul\":5091:5371   */\n      pop\n        /* \"#utility.yul\":4981:5371   */\n      swap3\n      swap2\n      pop\n      pop\n      jump\t// out\n        /* \"#utility.yul\":5377:5652   */\n    tag_10:\n        /* \"#utility.yul\":5509:5512   */\n      0x00\n        /* \"#utility.yul\":5531:5626   */\n      tag_96\n        /* \"#utility.yul\":5622:5625   */\n      dup3\n        /* \"#utility.yul\":5613:5619   */\n      dup5\n        /* \"#utility.yul\":5531:5626   */\n      tag_33\n      jump\t// in\n    tag_96:\n        /* \"#utility.yul\":5524:5626   */\n      swap2\n      pop\n        /* \"#utility.yul\":5643:5646   */\n      dup2\n        /* \"#utility.yul\":5636:5646   */\n      swap1\n      pop\n        /* \"#utility.yul\":5377:5652   */\n      swap3\n      swap2\n      pop\n      pop\n      jump\t// out\n\n    auxdata: 0xa26469706673582212209ef6828d4736bc2c99856c27df0022bc6b03d89cae6ac2e1966a3c5cad3e5ce264736f6c63430008170033\n}\n",
				"bytecode": {
					"linkReferences": {},
					"object": "608060405234801561000f575f80fd5b506103638061001d5f395ff3fe608060405234801561000f575f80fd5b5060043610610029575f3560e01c8063b4b7aac01461002d575b5f80fd5b61004760048036038101906100429190610251565b610049565b005b805f836040516100599190610317565b90815260200160405180910390205f820151815f0155602082015181600101559050505050565b5f604051905090565b5f80fd5b5f80fd5b5f80fd5b5f80fd5b5f601f19601f8301169050919050565b7f4e487b71000000000000000000000000000000000000000000000000000000005f52604160045260245ffd5b6100df82610099565b810181811067ffffffffffffffff821117156100fe576100fd6100a9565b5b80604052505050565b5f610110610080565b905061011c82826100d6565b919050565b5f67ffffffffffffffff82111561013b5761013a6100a9565b5b61014482610099565b9050602081019050919050565b828183375f83830152505050565b5f61017161016c84610121565b610107565b90508281526020810184848401111561018d5761018c610095565b5b610198848285610151565b509392505050565b5f82601f8301126101b4576101b3610091565b5b81356101c484826020860161015f565b91505092915050565b5f80fd5b5f819050919050565b6101e3816101d1565b81146101ed575f80fd5b50565b5f813590506101fe816101da565b92915050565b5f60408284031215610219576102186101cd565b5b6102236040610107565b90505f610232848285016101f0565b5f830152506020610245848285016101f0565b60208301525092915050565b5f806060838503121561026757610266610089565b5b5f83013567ffffffffffffffff8111156102845761028361008d565b5b610290858286016101a0565b92505060206102a185828601610204565b9150509250929050565b5f81519050919050565b5f81905092915050565b5f5b838110156102dc5780820151818401526020810190506102c1565b5f8484015250505050565b5f6102f1826102ab565b6102fb81856102b5565b935061030b8185602086016102bf565b80840191505092915050565b5f61032282846102e7565b91508190509291505056fea26469706673582212209ef6828d4736bc2c99856c27df0022bc6b03d89cae6ac2e1966a3c5cad3e5ce264736f6c63430008170033",
					"opcodes": "PUSH1 0x80 PUSH1 0x40 MSTORE CALLVALUE DUP1 ISZERO PUSH2 0xF JUMPI PUSH0 DUP1 REVERT JUMPDEST POP PUSH2 0x363 DUP1 PUSH2 0x1D PUSH0 CODECOPY PUSH0 RETURN INVALID PUSH1 0x80 PUSH1 0x40 MSTORE CALLVALUE DUP1 ISZERO PUSH2 0xF JUMPI PUSH0 DUP1 REVERT JUMPDEST POP PUSH1 0x4 CALLDATASIZE LT PUSH2 0x29 JUMPI PUSH0 CALLDATALOAD PUSH1 0xE0 SHR DUP1 PUSH4 0xB4B7AAC0 EQ PUSH2 0x2D JUMPI JUMPDEST PUSH0 DUP1 REVERT JUMPDEST PUSH2 0x47 PUSH1 0x4 DUP1 CALLDATASIZE SUB DUP2 ADD SWAP1 PUSH2 0x42 SWAP2 SWAP1 PUSH2 0x251 JUMP JUMPDEST PUSH2 0x49 JUMP JUMPDEST STOP JUMPDEST DUP1 PUSH0 DUP4 PUSH1 0x40 MLOAD PUSH2 0x59 SWAP2 SWAP1 PUSH2 0x317 JUMP JUMPDEST SWAP1 DUP2 MSTORE PUSH1 0x20 ADD PUSH1 0x40 MLOAD DUP1 SWAP2 SUB SWAP1 KECCAK256 PUSH0 DUP3 ADD MLOAD DUP2 PUSH0 ADD SSTORE PUSH1 0x20 DUP3 ADD MLOAD DUP2 PUSH1 0x1 ADD SSTORE SWAP1 POP POP POP POP JUMP JUMPDEST PUSH0 PUSH1 0x40 MLOAD SWAP1 POP SWAP1 JUMP JUMPDEST PUSH0 DUP1 REVERT JUMPDEST PUSH0 DUP1 REVERT JUMPDEST PUSH0 DUP1 REVERT JUMPDEST PUSH0 DUP1 REVERT JUMPDEST PUSH0 PUSH1 0x1F NOT PUSH1 0x1F DUP4 ADD AND SWAP1 POP SWAP2 SWAP1 POP JUMP JUMPDEST PUSH32 0x4E487B7100000000000000000000000000000000000000000000000000000000 PUSH0 MSTORE PUSH1 0x41 PUSH1 0x4 MSTORE PUSH1 0x24 PUSH0 REVERT JUMPDEST PUSH2 0xDF DUP3 PUSH2 0x99 JUMP JUMPDEST DUP2 ADD DUP2 DUP2 LT PUSH8 0xFFFFFFFFFFFFFFFF DUP3 GT OR ISZERO PUSH2 0xFE JUMPI PUSH2 0xFD PUSH2 0xA9 JUMP JUMPDEST JUMPDEST DUP1 PUSH1 0x40 MSTORE POP POP POP JUMP JUMPDEST PUSH0 PUSH2 0x110 PUSH2 0x80 JUMP JUMPDEST SWAP1 POP PUSH2 0x11C DUP3 DUP3 PUSH2 0xD6 JUMP JUMPDEST SWAP2 SWAP1 POP JUMP JUMPDEST PUSH0 PUSH8 0xFFFFFFFFFFFFFFFF DUP3 GT ISZERO PUSH2 0x13B JUMPI PUSH2 0x13A PUSH2 0xA9 JUMP JUMPDEST JUMPDEST PUSH2 0x144 DUP3 PUSH2 0x99 JUMP JUMPDEST SWAP1 POP PUSH1 0x20 DUP2 ADD SWAP1 POP SWAP2 SWAP1 POP JUMP JUMPDEST DUP3 DUP2 DUP4 CALLDATACOPY PUSH0 DUP4 DUP4 ADD MSTORE POP POP POP JUMP JUMPDEST PUSH0 PUSH2 0x171 PUSH2 0x16C DUP5 PUSH2 0x121 JUMP JUMPDEST PUSH2 0x107 JUMP JUMPDEST SWAP1 POP DUP3 DUP2 MSTORE PUSH1 0x20 DUP2 ADD DUP5 DUP5 DUP5 ADD GT ISZERO PUSH2 0x18D JUMPI PUSH2 0x18C PUSH2 0x95 JUMP JUMPDEST JUMPDEST PUSH2 0x198 DUP5 DUP3 DUP6 PUSH2 0x151 JUMP JUMPDEST POP SWAP4 SWAP3 POP POP POP JUMP JUMPDEST PUSH0 DUP3 PUSH1 0x1F DUP4 ADD SLT PUSH2 0x1B4 JUMPI PUSH2 0x1B3 PUSH2 0x91 JUMP JUMPDEST JUMPDEST DUP2 CALLDATALOAD PUSH2 0x1C4 DUP5 DUP3 PUSH1 0x20 DUP7 ADD PUSH2 0x15F JUMP JUMPDEST SWAP2 POP POP SWAP3 SWAP2 POP POP JUMP JUMPDEST PUSH0 DUP1 REVERT JUMPDEST PUSH0 DUP2 SWAP1 POP SWAP2 SWAP1 POP JUMP JUMPDEST PUSH2 0x1E3 DUP2 PUSH2 0x1D1 JUMP JUMPDEST DUP2 EQ PUSH2 0x1ED JUMPI PUSH0 DUP1 REVERT JUMPDEST POP JUMP JUMPDEST PUSH0 DUP2 CALLDATALOAD SWAP1 POP PUSH2 0x1FE DUP2 PUSH2 0x1DA JUMP JUMPDEST SWAP3 SWAP2 POP POP JUMP JUMPDEST PUSH0 PUSH1 0x40 DUP3 DUP5 SUB SLT ISZERO PUSH2 0x219 JUMPI PUSH2 0x218 PUSH2 0x1CD JUMP JUMPDEST JUMPDEST PUSH2 0x223 PUSH1 0x40 PUSH2 0x107 JUMP JUMPDEST SWAP1 POP PUSH0 PUSH2 0x232 DUP5 DUP3 DUP6 ADD PUSH2 0x1F0 JUMP JUMPDEST PUSH0 DUP4 ADD MSTORE POP PUSH1 0x20 PUSH2 0x245 DUP5 DUP3 DUP6 ADD PUSH2 0x1F0 JUMP JUMPDEST PUSH1 0x20 DUP4 ADD MSTORE POP SWAP3 SWAP2 POP POP JUMP JUMPDEST PUSH0 DUP1 PUSH1 0x60 DUP4 DUP6 SUB SLT ISZERO PUSH2 0x267 JUMPI PUSH2 0x266 PUSH2 0x89 JUMP JUMPDEST JUMPDEST PUSH0 DUP4 ADD CALLDATALOAD PUSH8 0xFFFFFFFFFFFFFFFF DUP2 GT ISZERO PUSH2 0x284 JUMPI PUSH2 0x283 PUSH2 0x8D JUMP JUMPDEST JUMPDEST PUSH2 0x290 DUP6 DUP3 DUP7 ADD PUSH2 0x1A0 JUMP JUMPDEST SWAP3 POP POP PUSH1 0x20 PUSH2 0x2A1 DUP6 DUP3 DUP7 ADD PUSH2 0x204 JUMP JUMPDEST SWAP2 POP POP SWAP3 POP SWAP3 SWAP1 POP JUMP JUMPDEST PUSH0 DUP2 MLOAD SWAP1 POP SWAP2 SWAP1 POP JUMP JUMPDEST PUSH0 DUP2 SWAP1 POP SWAP3 SWAP2 POP POP JUMP JUMPDEST PUSH0 JUMPDEST DUP4 DUP2 LT ISZERO PUSH2 0x2DC JUMPI DUP1 DUP3 ADD MLOAD DUP2 DUP5 ADD MSTORE PUSH1 0x20 DUP2 ADD SWAP1 POP PUSH2 0x2C1 JUMP JUMPDEST PUSH0 DUP5 DUP5 ADD MSTORE POP POP POP POP JUMP JUMPDEST PUSH0 PUSH2 0x2F1 DUP3 PUSH2 0x2AB JUMP JUMPDEST PUSH2 0x2FB DUP2 DUP6 PUSH2 0x2B5 JUMP JUMPDEST SWAP4 POP PUSH2 0x30B DUP2 DUP6 PUSH1 0x20 DUP7 ADD PUSH2 0x2BF JUMP JUMPDEST DUP1 DUP5 ADD SWAP2 POP POP SWAP3 SWAP2 POP POP JUMP JUMPDEST PUSH0 PUSH2 0x322 DUP3 DUP5 PUSH2 0x2E7 JUMP JUMPDEST SWAP2 POP DUP2 SWAP1 POP SWAP3 SWAP2 POP POP JUMP INVALID LOG2 PUSH5 0x6970667358 0x22 SLT KECCAK256 SWAP15 0xF6 DUP3 DUP14 SELFBALANCE CALLDATASIZE 0xBC 0x2C SWAP10 DUP6 PUSH13 0x27DF0022BC6B03D89CAE6AC2E1 SWAP7 PUSH11 0x3C5CAD3E5CE264736F6C63 NUMBER STOP ADDMOD OR STOP CALLER "
				},
				"gasEstimates": {
					"creation": {
						"codeDepositCost": "173400",
						"executionCost": "218",
						"totalCost": "173618"
					},
					"external": {
						"setStudent(string,(uint256,uint256))": "infinite"
					}
				},
				"methodIdentifiers": {
					"setStudent(string,(uint256,uint256))": "b4b7aac0"
				}
			},
			"storageLayout": {
				"storage": [
					{
						"astId": 11,
						"contract": "mapping3.sol:MAPPING3",
						"label": "students",
						"offset": 0,
						"slot": "0",
						"type": "t_mapping(t_string_memory_ptr,t_struct(student)6_storage)"
					}
				],
				"types": {
					"t_mapping(t_string_memory_ptr,t_struct(student)6_storage)": {
						"encoding": "mapping",
						"key": "t_string_memory_ptr",
						"label": "mapping(string => struct MAPPING3.student)",
						"numberOfBytes": "32",
						"value": "t_struct(student)6_storage"
					},
					"t_string_memory_ptr": {
						"encoding": "bytes",
						"label": "string",
						"numberOfBytes": "32"
					},
					"t_struct(student)6_storage": {
						"encoding": "inplace",
						"label": "struct MAPPING3.student",
						"members": [
							{
								"astId": 3,
								"contract": "mapping3.sol:MAPPING3",
								"label": "number",
								"offset": 0,
								"slot": "0",
								"type": "t_uint256"
							},
							{
								"astId": 5,
								"contract": "mapping3.sol:MAPPING3",
								"label": "score",
								"offset": 0,
								"slot": "1",
								"type": "t_uint256"
							}
						],
						"numberOfBytes": "64"
					},
					"t_uint256": {
						"encoding": "inplace",
						"label": "uint256",
						"numberOfBytes": "32"
					}
				}
			},
			"userdoc": {
				"kind": "user",
				"methods": {},
				"version": 1
			}
		}
	}
}