{
	"if3.sol": {
		"If3": {
			"abi": [
				{
					"inputs": [
						{
							"internalType": "uint256",
							"name": "_number",
							"type": "uint256"
						}
					],
					"name": "ex2",
					"outputs": [
						{
							"internalType": "string",
							"name": "",
							"type": "string"
						}
					],
					"stateMutability": "pure",
					"type": "function"
				},
				{
					"inputs": [
						{
							"internalType": "uint256",
							"name": "_a",
							"type": "uint256"
						}
					],
					"name": "grade",
					"outputs": [
						{
							"internalType": "string",
							"name": "",
							"type": "string"
						}
					],
					"stateMutability": "pure",
					"type": "function"
				}
			],
			"devdoc": {
				"kind": "dev",
				"methods": {},
				"version": 1
			},
			"evm": {
				"assembly": "    /* \"if3.sol\":57:918  contract If3 { // 가짓수 나눠서 실행해야 할 때... */\n  mstore(0x40, 0x80)\n  callvalue\n  dup1\n  iszero\n  tag_1\n  jumpi\n  0x00\n  dup1\n  revert\ntag_1:\n  pop\n  dataSize(sub_0)\n  dup1\n  dataOffset(sub_0)\n  0x00\n  codecopy\n  0x00\n  return\nstop\n\nsub_0: assembly {\n        /* \"if3.sol\":57:918  contract If3 { // 가짓수 나눠서 실행해야 할 때... */\n      mstore(0x40, 0x80)\n      callvalue\n      dup1\n      iszero\n      tag_1\n      jumpi\n      0x00\n      dup1\n      revert\n    tag_1:\n      pop\n      jumpi(tag_2, lt(calldatasize, 0x04))\n      shr(0xe0, calldataload(0x00))\n      dup1\n      0x11ae1579\n      eq\n      tag_3\n      jumpi\n      dup1\n      0x11afbbcf\n      eq\n      tag_4\n      jumpi\n    tag_2:\n      0x00\n      dup1\n      revert\n        /* \"if3.sol\":121:493  function grade(uint _a) public pure returns(string memory) {... */\n    tag_3:\n      tag_5\n      0x04\n      dup1\n      calldatasize\n      sub\n      dup2\n      add\n      swap1\n      tag_6\n      swap2\n      swap1\n      tag_7\n      jump\t// in\n    tag_6:\n      tag_8\n      jump\t// in\n    tag_5:\n      mload(0x40)\n      tag_9\n      swap2\n      swap1\n      tag_10\n      jump\t// in\n    tag_9:\n      mload(0x40)\n      dup1\n      swap2\n      sub\n      swap1\n      return\n        /* \"if3.sol\":499:915  function ex2(uint _number) public pure returns(string memory) {... */\n    tag_4:\n      tag_11\n      0x04\n      dup1\n      calldatasize\n      sub\n      dup2\n      add\n      swap1\n      tag_12\n      swap2\n      swap1\n      tag_7\n      jump\t// in\n    tag_12:\n      tag_13\n      jump\t// in\n    tag_11:\n      mload(0x40)\n      tag_14\n      swap2\n      swap1\n      tag_10\n      jump\t// in\n    tag_14:\n      mload(0x40)\n      dup1\n      swap2\n      sub\n      swap1\n      return\n        /* \"if3.sol\":121:493  function grade(uint _a) public pure returns(string memory) {... */\n    tag_8:\n        /* \"if3.sol\":165:178  string memory */\n      0x60\n        /* \"if3.sol\":203:205  20 */\n      0x14\n        /* \"if3.sol\":198:200  _a */\n      dup3\n        /* \"if3.sol\":198:205  _a>= 20 */\n      lt\n      iszero\n        /* \"if3.sol\":198:215  _a>= 20 && _a<=40 */\n      dup1\n      iszero\n      tag_16\n      jumpi\n      pop\n        /* \"if3.sol\":213:215  40 */\n      0x28\n        /* \"if3.sol\":209:211  _a */\n      dup3\n        /* \"if3.sol\":209:215  _a<=40 */\n      gt\n      iszero\n        /* \"if3.sol\":198:215  _a>= 20 && _a<=40 */\n    tag_16:\n        /* \"if3.sol\":194:487  if( _a>= 20 && _a<=40) {... */\n      iszero\n      tag_17\n      jumpi\n        /* \"if3.sol\":248:249  0 */\n      0x00\n        /* \"if3.sol\":243:244  2 */\n      0x02\n        /* \"if3.sol\":239:241  _a */\n      dup4\n        /* \"if3.sol\":239:244  _a %2 */\n      tag_18\n      swap2\n      swap1\n      tag_19\n      jump\t// in\n    tag_18:\n        /* \"if3.sol\":239:249  _a %2 == 0 */\n      sub\n        /* \"if3.sol\":235:359  if (_a %2 == 0) {... */\n      tag_20\n      jumpi\n        /* \"if3.sol\":273:283  return \"b\" */\n      mload(0x40)\n      dup1\n      0x40\n      add\n      0x40\n      mstore\n      dup1\n      0x01\n      dup2\n      mstore\n      0x20\n      add\n      0x6200000000000000000000000000000000000000000000000000000000000000\n      dup2\n      mstore\n      pop\n      swap1\n      pop\n      jump(tag_15)\n        /* \"if3.sol\":235:359  if (_a %2 == 0) {... */\n    tag_20:\n        /* \"if3.sol\":330:340  return \"c\" */\n      mload(0x40)\n      dup1\n      0x40\n      add\n      0x40\n      mstore\n      dup1\n      0x01\n      dup2\n      mstore\n      0x20\n      add\n      0x6300000000000000000000000000000000000000000000000000000000000000\n      dup2\n      mstore\n      pop\n      swap1\n      pop\n      jump(tag_15)\n        /* \"if3.sol\":194:487  if( _a>= 20 && _a<=40) {... */\n    tag_17:\n        /* \"if3.sol\":392:393  0 */\n      0x00\n        /* \"if3.sol\":387:388  2 */\n      0x02\n        /* \"if3.sol\":382:384  _a */\n      dup4\n        /* \"if3.sol\":382:388  _a % 2 */\n      tag_23\n      swap2\n      swap1\n      tag_19\n      jump\t// in\n    tag_23:\n        /* \"if3.sol\":382:393  _a % 2 != 0 */\n      eq\n        /* \"if3.sol\":379:487  if(_a % 2 != 0) {... */\n      tag_24\n      jumpi\n        /* \"if3.sol\":413:423  return \"a\" */\n      mload(0x40)\n      dup1\n      0x40\n      add\n      0x40\n      mstore\n      dup1\n      0x01\n      dup2\n      mstore\n      0x20\n      add\n      0x6100000000000000000000000000000000000000000000000000000000000000\n      dup2\n      mstore\n      pop\n      swap1\n      pop\n      jump(tag_15)\n        /* \"if3.sol\":379:487  if(_a % 2 != 0) {... */\n    tag_24:\n        /* \"if3.sol\":462:472  return \"d\" */\n      mload(0x40)\n      dup1\n      0x40\n      add\n      0x40\n      mstore\n      dup1\n      0x01\n      dup2\n      mstore\n      0x20\n      add\n      0x6400000000000000000000000000000000000000000000000000000000000000\n      dup2\n      mstore\n      pop\n      swap1\n      pop\n        /* \"if3.sol\":121:493  function grade(uint _a) public pure returns(string memory) {... */\n    tag_15:\n      swap2\n      swap1\n      pop\n      jump\t// out\n        /* \"if3.sol\":499:915  function ex2(uint _number) public pure returns(string memory) {... */\n    tag_13:\n        /* \"if3.sol\":546:559  string memory */\n      0x60\n        /* \"if3.sol\":589:590  0 */\n      0x00\n        /* \"if3.sol\":584:585  2 */\n      0x02\n        /* \"if3.sol\":574:581  _number */\n      dup4\n        /* \"if3.sol\":574:585  _number % 2 */\n      tag_27\n      swap2\n      swap1\n      tag_19\n      jump\t// in\n    tag_27:\n        /* \"if3.sol\":574:590  _number % 2 == 0 */\n      eq\n        /* \"if3.sol\":574:606  _number % 2 == 0 && _number > 40 */\n      dup1\n      iszero\n      tag_28\n      jumpi\n      pop\n        /* \"if3.sol\":604:606  40 */\n      0x28\n        /* \"if3.sol\":594:601  _number */\n      dup3\n        /* \"if3.sol\":594:606  _number > 40 */\n      gt\n        /* \"if3.sol\":574:606  _number % 2 == 0 && _number > 40 */\n    tag_28:\n        /* \"if3.sol\":574:622  _number % 2 == 0 && _number > 40 || _number < 20 */\n      dup1\n      tag_29\n      jumpi\n      pop\n        /* \"if3.sol\":620:622  20 */\n      0x14\n        /* \"if3.sol\":610:617  _number */\n      dup3\n        /* \"if3.sol\":610:622  _number < 20 */\n      lt\n        /* \"if3.sol\":574:622  _number % 2 == 0 && _number > 40 || _number < 20 */\n    tag_29:\n        /* \"if3.sol\":571:909  if(_number % 2 == 0 && _number > 40 || _number < 20) {... */\n      iszero\n      tag_30\n      jumpi\n        /* \"if3.sol\":638:648  return \"A\" */\n      mload(0x40)\n      dup1\n      0x40\n      add\n      0x40\n      mstore\n      dup1\n      0x01\n      dup2\n      mstore\n      0x20\n      add\n      0x4100000000000000000000000000000000000000000000000000000000000000\n      dup2\n      mstore\n      pop\n      swap1\n      pop\n      jump(tag_26)\n        /* \"if3.sol\":571:909  if(_number % 2 == 0 && _number > 40 || _number < 20) {... */\n    tag_30:\n        /* \"if3.sol\":679:681  40 */\n      0x28\n        /* \"if3.sol\":668:675  _number */\n      dup3\n        /* \"if3.sol\":668:681  _number <= 40 */\n      gt\n      iszero\n        /* \"if3.sol\":668:698  _number <= 40 && _number >= 20 */\n      dup1\n      iszero\n      tag_32\n      jumpi\n      pop\n        /* \"if3.sol\":696:698  20 */\n      0x14\n        /* \"if3.sol\":685:692  _number */\n      dup3\n        /* \"if3.sol\":685:698  _number >= 20 */\n      lt\n      iszero\n        /* \"if3.sol\":668:698  _number <= 40 && _number >= 20 */\n    tag_32:\n        /* \"if3.sol\":668:718  _number <= 40 && _number >= 20 && _number % 2 == 0 */\n      dup1\n      iszero\n      tag_33\n      jumpi\n      pop\n        /* \"if3.sol\":717:718  0 */\n      0x00\n        /* \"if3.sol\":712:713  2 */\n      0x02\n        /* \"if3.sol\":702:709  _number */\n      dup4\n        /* \"if3.sol\":702:713  _number % 2 */\n      tag_34\n      swap2\n      swap1\n      tag_19\n      jump\t// in\n    tag_34:\n        /* \"if3.sol\":702:718  _number % 2 == 0 */\n      eq\n        /* \"if3.sol\":668:718  _number <= 40 && _number >= 20 && _number % 2 == 0 */\n    tag_33:\n        /* \"if3.sol\":665:909  if(_number <= 40 && _number >= 20 && _number % 2 == 0) {... */\n      iszero\n      tag_35\n      jumpi\n        /* \"if3.sol\":734:744  return \"B\" */\n      mload(0x40)\n      dup1\n      0x40\n      add\n      0x40\n      mstore\n      dup1\n      0x01\n      dup2\n      mstore\n      0x20\n      add\n      0x4200000000000000000000000000000000000000000000000000000000000000\n      dup2\n      mstore\n      pop\n      swap1\n      pop\n      jump(tag_26)\n        /* \"if3.sol\":665:909  if(_number <= 40 && _number >= 20 && _number % 2 == 0) {... */\n    tag_35:\n        /* \"if3.sol\":775:777  40 */\n      0x28\n        /* \"if3.sol\":764:771  _number */\n      dup3\n        /* \"if3.sol\":764:777  _number <= 40 */\n      gt\n      iszero\n        /* \"if3.sol\":764:794  _number <= 40 && _number >= 20 */\n      dup1\n      iszero\n      tag_37\n      jumpi\n      pop\n        /* \"if3.sol\":792:794  20 */\n      0x14\n        /* \"if3.sol\":781:788  _number */\n      dup3\n        /* \"if3.sol\":781:794  _number >= 20 */\n      lt\n      iszero\n        /* \"if3.sol\":764:794  _number <= 40 && _number >= 20 */\n    tag_37:\n        /* \"if3.sol\":764:814  _number <= 40 && _number >= 20 && _number % 2 != 0 */\n      dup1\n      iszero\n      tag_38\n      jumpi\n      pop\n        /* \"if3.sol\":813:814  0 */\n      0x00\n        /* \"if3.sol\":808:809  2 */\n      0x02\n        /* \"if3.sol\":798:805  _number */\n      dup4\n        /* \"if3.sol\":798:809  _number % 2 */\n      tag_39\n      swap2\n      swap1\n      tag_19\n      jump\t// in\n    tag_39:\n        /* \"if3.sol\":798:814  _number % 2 != 0 */\n      eq\n      iszero\n        /* \"if3.sol\":764:814  _number <= 40 && _number >= 20 && _number % 2 != 0 */\n    tag_38:\n        /* \"if3.sol\":761:909  if(_number <= 40 && _number >= 20 && _number % 2 != 0) {... */\n      iszero\n      tag_40\n      jumpi\n        /* \"if3.sol\":830:840  return \"C\" */\n      mload(0x40)\n      dup1\n      0x40\n      add\n      0x40\n      mstore\n      dup1\n      0x01\n      dup2\n      mstore\n      0x20\n      add\n      0x4300000000000000000000000000000000000000000000000000000000000000\n      dup2\n      mstore\n      pop\n      swap1\n      pop\n      jump(tag_26)\n        /* \"if3.sol\":761:909  if(_number <= 40 && _number >= 20 && _number % 2 != 0) {... */\n    tag_40:\n        /* \"if3.sol\":888:898  return \"D\" */\n      mload(0x40)\n      dup1\n      0x40\n      add\n      0x40\n      mstore\n      dup1\n      0x01\n      dup2\n      mstore\n      0x20\n      add\n      0x4400000000000000000000000000000000000000000000000000000000000000\n      dup2\n      mstore\n      pop\n      swap1\n      pop\n        /* \"if3.sol\":499:915  function ex2(uint _number) public pure returns(string memory) {... */\n    tag_26:\n      swap2\n      swap1\n      pop\n      jump\t// out\n        /* \"#utility.yul\":88:205   */\n    tag_43:\n        /* \"#utility.yul\":197:198   */\n      0x00\n        /* \"#utility.yul\":194:195   */\n      dup1\n        /* \"#utility.yul\":187:199   */\n      revert\n        /* \"#utility.yul\":334:411   */\n    tag_45:\n        /* \"#utility.yul\":371:378   */\n      0x00\n        /* \"#utility.yul\":400:405   */\n      dup2\n        /* \"#utility.yul\":389:405   */\n      swap1\n      pop\n        /* \"#utility.yul\":334:411   */\n      swap2\n      swap1\n      pop\n      jump\t// out\n        /* \"#utility.yul\":417:539   */\n    tag_46:\n        /* \"#utility.yul\":490:514   */\n      tag_60\n        /* \"#utility.yul\":508:513   */\n      dup2\n        /* \"#utility.yul\":490:514   */\n      tag_45\n      jump\t// in\n    tag_60:\n        /* \"#utility.yul\":483:488   */\n      dup2\n        /* \"#utility.yul\":480:515   */\n      eq\n        /* \"#utility.yul\":470:533   */\n      tag_61\n      jumpi\n        /* \"#utility.yul\":529:530   */\n      0x00\n        /* \"#utility.yul\":526:527   */\n      dup1\n        /* \"#utility.yul\":519:531   */\n      revert\n        /* \"#utility.yul\":470:533   */\n    tag_61:\n        /* \"#utility.yul\":417:539   */\n      pop\n      jump\t// out\n        /* \"#utility.yul\":545:684   */\n    tag_47:\n        /* \"#utility.yul\":591:596   */\n      0x00\n        /* \"#utility.yul\":629:635   */\n      dup2\n        /* \"#utility.yul\":616:636   */\n      calldataload\n        /* \"#utility.yul\":607:636   */\n      swap1\n      pop\n        /* \"#utility.yul\":645:678   */\n      tag_63\n        /* \"#utility.yul\":672:677   */\n      dup2\n        /* \"#utility.yul\":645:678   */\n      tag_46\n      jump\t// in\n    tag_63:\n        /* \"#utility.yul\":545:684   */\n      swap3\n      swap2\n      pop\n      pop\n      jump\t// out\n        /* \"#utility.yul\":690:1019   */\n    tag_7:\n        /* \"#utility.yul\":749:755   */\n      0x00\n        /* \"#utility.yul\":798:800   */\n      0x20\n        /* \"#utility.yul\":786:795   */\n      dup3\n        /* \"#utility.yul\":777:784   */\n      dup5\n        /* \"#utility.yul\":773:796   */\n      sub\n        /* \"#utility.yul\":769:801   */\n      slt\n        /* \"#utility.yul\":766:885   */\n      iszero\n      tag_65\n      jumpi\n        /* \"#utility.yul\":804:883   */\n      tag_66\n      tag_43\n      jump\t// in\n    tag_66:\n        /* \"#utility.yul\":766:885   */\n    tag_65:\n        /* \"#utility.yul\":924:925   */\n      0x00\n        /* \"#utility.yul\":949:1002   */\n      tag_67\n        /* \"#utility.yul\":994:1001   */\n      dup5\n        /* \"#utility.yul\":985:991   */\n      dup3\n        /* \"#utility.yul\":974:983   */\n      dup6\n        /* \"#utility.yul\":970:992   */\n      add\n        /* \"#utility.yul\":949:1002   */\n      tag_47\n      jump\t// in\n    tag_67:\n        /* \"#utility.yul\":939:1002   */\n      swap2\n      pop\n        /* \"#utility.yul\":895:1012   */\n      pop\n        /* \"#utility.yul\":690:1019   */\n      swap3\n      swap2\n      pop\n      pop\n      jump\t// out\n        /* \"#utility.yul\":1025:1124   */\n    tag_48:\n        /* \"#utility.yul\":1077:1083   */\n      0x00\n        /* \"#utility.yul\":1111:1116   */\n      dup2\n        /* \"#utility.yul\":1105:1117   */\n      mload\n        /* \"#utility.yul\":1095:1117   */\n      swap1\n      pop\n        /* \"#utility.yul\":1025:1124   */\n      swap2\n      swap1\n      pop\n      jump\t// out\n        /* \"#utility.yul\":1130:1299   */\n    tag_49:\n        /* \"#utility.yul\":1214:1225   */\n      0x00\n        /* \"#utility.yul\":1248:1254   */\n      dup3\n        /* \"#utility.yul\":1243:1246   */\n      dup3\n        /* \"#utility.yul\":1236:1255   */\n      mstore\n        /* \"#utility.yul\":1288:1292   */\n      0x20\n        /* \"#utility.yul\":1283:1286   */\n      dup3\n        /* \"#utility.yul\":1279:1293   */\n      add\n        /* \"#utility.yul\":1264:1293   */\n      swap1\n      pop\n        /* \"#utility.yul\":1130:1299   */\n      swap3\n      swap2\n      pop\n      pop\n      jump\t// out\n        /* \"#utility.yul\":1305:1551   */\n    tag_50:\n        /* \"#utility.yul\":1386:1387   */\n      0x00\n        /* \"#utility.yul\":1396:1509   */\n    tag_71:\n        /* \"#utility.yul\":1410:1416   */\n      dup4\n        /* \"#utility.yul\":1407:1408   */\n      dup2\n        /* \"#utility.yul\":1404:1417   */\n      lt\n        /* \"#utility.yul\":1396:1509   */\n      iszero\n      tag_73\n      jumpi\n        /* \"#utility.yul\":1495:1496   */\n      dup1\n        /* \"#utility.yul\":1490:1493   */\n      dup3\n        /* \"#utility.yul\":1486:1497   */\n      add\n        /* \"#utility.yul\":1480:1498   */\n      mload\n        /* \"#utility.yul\":1476:1477   */\n      dup2\n        /* \"#utility.yul\":1471:1474   */\n      dup5\n        /* \"#utility.yul\":1467:1478   */\n      add\n        /* \"#utility.yul\":1460:1499   */\n      mstore\n        /* \"#utility.yul\":1432:1434   */\n      0x20\n        /* \"#utility.yul\":1429:1430   */\n      dup2\n        /* \"#utility.yul\":1425:1435   */\n      add\n        /* \"#utility.yul\":1420:1435   */\n      swap1\n      pop\n        /* \"#utility.yul\":1396:1509   */\n      jump(tag_71)\n    tag_73:\n        /* \"#utility.yul\":1543:1544   */\n      0x00\n        /* \"#utility.yul\":1534:1540   */\n      dup5\n        /* \"#utility.yul\":1529:1532   */\n      dup5\n        /* \"#utility.yul\":1525:1541   */\n      add\n        /* \"#utility.yul\":1518:1545   */\n      mstore\n        /* \"#utility.yul\":1367:1551   */\n      pop\n        /* \"#utility.yul\":1305:1551   */\n      pop\n      pop\n      pop\n      jump\t// out\n        /* \"#utility.yul\":1557:1659   */\n    tag_51:\n        /* \"#utility.yul\":1598:1604   */\n      0x00\n        /* \"#utility.yul\":1649:1651   */\n      0x1f\n        /* \"#utility.yul\":1645:1652   */\n      not\n        /* \"#utility.yul\":1640:1642   */\n      0x1f\n        /* \"#utility.yul\":1633:1638   */\n      dup4\n        /* \"#utility.yul\":1629:1643   */\n      add\n        /* \"#utility.yul\":1625:1653   */\n      and\n        /* \"#utility.yul\":1615:1653   */\n      swap1\n      pop\n        /* \"#utility.yul\":1557:1659   */\n      swap2\n      swap1\n      pop\n      jump\t// out\n        /* \"#utility.yul\":1665:2042   */\n    tag_52:\n        /* \"#utility.yul\":1753:1756   */\n      0x00\n        /* \"#utility.yul\":1781:1820   */\n      tag_76\n        /* \"#utility.yul\":1814:1819   */\n      dup3\n        /* \"#utility.yul\":1781:1820   */\n      tag_48\n      jump\t// in\n    tag_76:\n        /* \"#utility.yul\":1836:1907   */\n      tag_77\n        /* \"#utility.yul\":1900:1906   */\n      dup2\n        /* \"#utility.yul\":1895:1898   */\n      dup6\n        /* \"#utility.yul\":1836:1907   */\n      tag_49\n      jump\t// in\n    tag_77:\n        /* \"#utility.yul\":1829:1907   */\n      swap4\n      pop\n        /* \"#utility.yul\":1916:1981   */\n      tag_78\n        /* \"#utility.yul\":1974:1980   */\n      dup2\n        /* \"#utility.yul\":1969:1972   */\n      dup6\n        /* \"#utility.yul\":1962:1966   */\n      0x20\n        /* \"#utility.yul\":1955:1960   */\n      dup7\n        /* \"#utility.yul\":1951:1967   */\n      add\n        /* \"#utility.yul\":1916:1981   */\n      tag_50\n      jump\t// in\n    tag_78:\n        /* \"#utility.yul\":2006:2035   */\n      tag_79\n        /* \"#utility.yul\":2028:2034   */\n      dup2\n        /* \"#utility.yul\":2006:2035   */\n      tag_51\n      jump\t// in\n    tag_79:\n        /* \"#utility.yul\":2001:2004   */\n      dup5\n        /* \"#utility.yul\":1997:2036   */\n      add\n        /* \"#utility.yul\":1990:2036   */\n      swap2\n      pop\n        /* \"#utility.yul\":1757:2042   */\n      pop\n        /* \"#utility.yul\":1665:2042   */\n      swap3\n      swap2\n      pop\n      pop\n      jump\t// out\n        /* \"#utility.yul\":2048:2361   */\n    tag_10:\n        /* \"#utility.yul\":2161:2165   */\n      0x00\n        /* \"#utility.yul\":2199:2201   */\n      0x20\n        /* \"#utility.yul\":2188:2197   */\n      dup3\n        /* \"#utility.yul\":2184:2202   */\n      add\n        /* \"#utility.yul\":2176:2202   */\n      swap1\n      pop\n        /* \"#utility.yul\":2248:2257   */\n      dup2\n        /* \"#utility.yul\":2242:2246   */\n      dup2\n        /* \"#utility.yul\":2238:2258   */\n      sub\n        /* \"#utility.yul\":2234:2235   */\n      0x00\n        /* \"#utility.yul\":2223:2232   */\n      dup4\n        /* \"#utility.yul\":2219:2236   */\n      add\n        /* \"#utility.yul\":2212:2259   */\n      mstore\n        /* \"#utility.yul\":2276:2354   */\n      tag_81\n        /* \"#utility.yul\":2349:2353   */\n      dup2\n        /* \"#utility.yul\":2340:2346   */\n      dup5\n        /* \"#utility.yul\":2276:2354   */\n      tag_52\n      jump\t// in\n    tag_81:\n        /* \"#utility.yul\":2268:2354   */\n      swap1\n      pop\n        /* \"#utility.yul\":2048:2361   */\n      swap3\n      swap2\n      pop\n      pop\n      jump\t// out\n        /* \"#utility.yul\":2367:2547   */\n    tag_53:\n        /* \"#utility.yul\":2415:2492   */\n      0x4e487b7100000000000000000000000000000000000000000000000000000000\n        /* \"#utility.yul\":2412:2413   */\n      0x00\n        /* \"#utility.yul\":2405:2493   */\n      mstore\n        /* \"#utility.yul\":2512:2516   */\n      0x12\n        /* \"#utility.yul\":2509:2510   */\n      0x04\n        /* \"#utility.yul\":2502:2517   */\n      mstore\n        /* \"#utility.yul\":2536:2540   */\n      0x24\n        /* \"#utility.yul\":2533:2534   */\n      0x00\n        /* \"#utility.yul\":2526:2541   */\n      revert\n        /* \"#utility.yul\":2553:2729   */\n    tag_19:\n        /* \"#utility.yul\":2585:2586   */\n      0x00\n        /* \"#utility.yul\":2602:2622   */\n      tag_84\n        /* \"#utility.yul\":2620:2621   */\n      dup3\n        /* \"#utility.yul\":2602:2622   */\n      tag_45\n      jump\t// in\n    tag_84:\n        /* \"#utility.yul\":2597:2622   */\n      swap2\n      pop\n        /* \"#utility.yul\":2636:2656   */\n      tag_85\n        /* \"#utility.yul\":2654:2655   */\n      dup4\n        /* \"#utility.yul\":2636:2656   */\n      tag_45\n      jump\t// in\n    tag_85:\n        /* \"#utility.yul\":2631:2656   */\n      swap3\n      pop\n        /* \"#utility.yul\":2675:2676   */\n      dup3\n        /* \"#utility.yul\":2665:2700   */\n      tag_86\n      jumpi\n        /* \"#utility.yul\":2680:2698   */\n      tag_87\n      tag_53\n      jump\t// in\n    tag_87:\n        /* \"#utility.yul\":2665:2700   */\n    tag_86:\n        /* \"#utility.yul\":2721:2722   */\n      dup3\n        /* \"#utility.yul\":2718:2719   */\n      dup3\n        /* \"#utility.yul\":2714:2723   */\n      mod\n        /* \"#utility.yul\":2709:2723   */\n      swap1\n      pop\n        /* \"#utility.yul\":2553:2729   */\n      swap3\n      swap2\n      pop\n      pop\n      jump\t// out\n\n    auxdata: 0xa264697066735822122084969757f31728fbf74ce8d412eafa7a07aae1cdefad033cc69fd15dd3864c4a64736f6c63430008170033\n}\n",
				"bytecode": {
					"linkReferences": {},
					"object": "608060405234801561000f575f80fd5b506104ea8061001d5f395ff3fe608060405234801561000f575f80fd5b5060043610610034575f3560e01c806311ae15791461003857806311afbbcf14610068575b5f80fd5b610052600480360381019061004d9190610382565b610098565b60405161005f9190610437565b60405180910390f35b610082600480360381019061007d9190610382565b6101cc565b60405161008f9190610437565b60405180910390f35b6060601482101580156100ac575060288211155b1561013e575f6002836100bf9190610484565b03610101576040518060400160405280600181526020017f620000000000000000000000000000000000000000000000000000000000000081525090506101c7565b6040518060400160405280600181526020017f630000000000000000000000000000000000000000000000000000000000000081525090506101c7565b5f60028361014c9190610484565b1461018e576040518060400160405280600181526020017f610000000000000000000000000000000000000000000000000000000000000081525090506101c7565b6040518060400160405280600181526020017f640000000000000000000000000000000000000000000000000000000000000081525090505b919050565b60605f6002836101dc9190610484565b1480156101e95750602882115b806101f45750601482105b15610236576040518060400160405280600181526020017f41000000000000000000000000000000000000000000000000000000000000008152509050610346565b60288211158015610248575060148210155b801561025f57505f60028361025d9190610484565b145b156102a1576040518060400160405280600181526020017f42000000000000000000000000000000000000000000000000000000000000008152509050610346565b602882111580156102b3575060148210155b80156102cb57505f6002836102c89190610484565b14155b1561030d576040518060400160405280600181526020017f43000000000000000000000000000000000000000000000000000000000000008152509050610346565b6040518060400160405280600181526020017f440000000000000000000000000000000000000000000000000000000000000081525090505b919050565b5f80fd5b5f819050919050565b6103618161034f565b811461036b575f80fd5b50565b5f8135905061037c81610358565b92915050565b5f602082840312156103975761039661034b565b5b5f6103a48482850161036e565b91505092915050565b5f81519050919050565b5f82825260208201905092915050565b5f5b838110156103e45780820151818401526020810190506103c9565b5f8484015250505050565b5f601f19601f8301169050919050565b5f610409826103ad565b61041381856103b7565b93506104238185602086016103c7565b61042c816103ef565b840191505092915050565b5f6020820190508181035f83015261044f81846103ff565b905092915050565b7f4e487b71000000000000000000000000000000000000000000000000000000005f52601260045260245ffd5b5f61048e8261034f565b91506104998361034f565b9250826104a9576104a8610457565b5b82820690509291505056fea264697066735822122084969757f31728fbf74ce8d412eafa7a07aae1cdefad033cc69fd15dd3864c4a64736f6c63430008170033",
					"opcodes": "PUSH1 0x80 PUSH1 0x40 MSTORE CALLVALUE DUP1 ISZERO PUSH2 0xF JUMPI PUSH0 DUP1 REVERT JUMPDEST POP PUSH2 0x4EA DUP1 PUSH2 0x1D PUSH0 CODECOPY PUSH0 RETURN INVALID PUSH1 0x80 PUSH1 0x40 MSTORE CALLVALUE DUP1 ISZERO PUSH2 0xF JUMPI PUSH0 DUP1 REVERT JUMPDEST POP PUSH1 0x4 CALLDATASIZE LT PUSH2 0x34 JUMPI PUSH0 CALLDATALOAD PUSH1 0xE0 SHR DUP1 PUSH4 0x11AE1579 EQ PUSH2 0x38 JUMPI DUP1 PUSH4 0x11AFBBCF EQ PUSH2 0x68 JUMPI JUMPDEST PUSH0 DUP1 REVERT JUMPDEST PUSH2 0x52 PUSH1 0x4 DUP1 CALLDATASIZE SUB DUP2 ADD SWAP1 PUSH2 0x4D SWAP2 SWAP1 PUSH2 0x382 JUMP JUMPDEST PUSH2 0x98 JUMP JUMPDEST PUSH1 0x40 MLOAD PUSH2 0x5F SWAP2 SWAP1 PUSH2 0x437 JUMP JUMPDEST PUSH1 0x40 MLOAD DUP1 SWAP2 SUB SWAP1 RETURN JUMPDEST PUSH2 0x82 PUSH1 0x4 DUP1 CALLDATASIZE SUB DUP2 ADD SWAP1 PUSH2 0x7D SWAP2 SWAP1 PUSH2 0x382 JUMP JUMPDEST PUSH2 0x1CC JUMP JUMPDEST PUSH1 0x40 MLOAD PUSH2 0x8F SWAP2 SWAP1 PUSH2 0x437 JUMP JUMPDEST PUSH1 0x40 MLOAD DUP1 SWAP2 SUB SWAP1 RETURN JUMPDEST PUSH1 0x60 PUSH1 0x14 DUP3 LT ISZERO DUP1 ISZERO PUSH2 0xAC JUMPI POP PUSH1 0x28 DUP3 GT ISZERO JUMPDEST ISZERO PUSH2 0x13E JUMPI PUSH0 PUSH1 0x2 DUP4 PUSH2 0xBF SWAP2 SWAP1 PUSH2 0x484 JUMP JUMPDEST SUB PUSH2 0x101 JUMPI PUSH1 0x40 MLOAD DUP1 PUSH1 0x40 ADD PUSH1 0x40 MSTORE DUP1 PUSH1 0x1 DUP2 MSTORE PUSH1 0x20 ADD PUSH32 0x6200000000000000000000000000000000000000000000000000000000000000 DUP2 MSTORE POP SWAP1 POP PUSH2 0x1C7 JUMP JUMPDEST PUSH1 0x40 MLOAD DUP1 PUSH1 0x40 ADD PUSH1 0x40 MSTORE DUP1 PUSH1 0x1 DUP2 MSTORE PUSH1 0x20 ADD PUSH32 0x6300000000000000000000000000000000000000000000000000000000000000 DUP2 MSTORE POP SWAP1 POP PUSH2 0x1C7 JUMP JUMPDEST PUSH0 PUSH1 0x2 DUP4 PUSH2 0x14C SWAP2 SWAP1 PUSH2 0x484 JUMP JUMPDEST EQ PUSH2 0x18E JUMPI PUSH1 0x40 MLOAD DUP1 PUSH1 0x40 ADD PUSH1 0x40 MSTORE DUP1 PUSH1 0x1 DUP2 MSTORE PUSH1 0x20 ADD PUSH32 0x6100000000000000000000000000000000000000000000000000000000000000 DUP2 MSTORE POP SWAP1 POP PUSH2 0x1C7 JUMP JUMPDEST PUSH1 0x40 MLOAD DUP1 PUSH1 0x40 ADD PUSH1 0x40 MSTORE DUP1 PUSH1 0x1 DUP2 MSTORE PUSH1 0x20 ADD PUSH32 0x6400000000000000000000000000000000000000000000000000000000000000 DUP2 MSTORE POP SWAP1 POP JUMPDEST SWAP2 SWAP1 POP JUMP JUMPDEST PUSH1 0x60 PUSH0 PUSH1 0x2 DUP4 PUSH2 0x1DC SWAP2 SWAP1 PUSH2 0x484 JUMP JUMPDEST EQ DUP1 ISZERO PUSH2 0x1E9 JUMPI POP PUSH1 0x28 DUP3 GT JUMPDEST DUP1 PUSH2 0x1F4 JUMPI POP PUSH1 0x14 DUP3 LT JUMPDEST ISZERO PUSH2 0x236 JUMPI PUSH1 0x40 MLOAD DUP1 PUSH1 0x40 ADD PUSH1 0x40 MSTORE DUP1 PUSH1 0x1 DUP2 MSTORE PUSH1 0x20 ADD PUSH32 0x4100000000000000000000000000000000000000000000000000000000000000 DUP2 MSTORE POP SWAP1 POP PUSH2 0x346 JUMP JUMPDEST PUSH1 0x28 DUP3 GT ISZERO DUP1 ISZERO PUSH2 0x248 JUMPI POP PUSH1 0x14 DUP3 LT ISZERO JUMPDEST DUP1 ISZERO PUSH2 0x25F JUMPI POP PUSH0 PUSH1 0x2 DUP4 PUSH2 0x25D SWAP2 SWAP1 PUSH2 0x484 JUMP JUMPDEST EQ JUMPDEST ISZERO PUSH2 0x2A1 JUMPI PUSH1 0x40 MLOAD DUP1 PUSH1 0x40 ADD PUSH1 0x40 MSTORE DUP1 PUSH1 0x1 DUP2 MSTORE PUSH1 0x20 ADD PUSH32 0x4200000000000000000000000000000000000000000000000000000000000000 DUP2 MSTORE POP SWAP1 POP PUSH2 0x346 JUMP JUMPDEST PUSH1 0x28 DUP3 GT ISZERO DUP1 ISZERO PUSH2 0x2B3 JUMPI POP PUSH1 0x14 DUP3 LT ISZERO JUMPDEST DUP1 ISZERO PUSH2 0x2CB JUMPI POP PUSH0 PUSH1 0x2 DUP4 PUSH2 0x2C8 SWAP2 SWAP1 PUSH2 0x484 JUMP JUMPDEST EQ ISZERO JUMPDEST ISZERO PUSH2 0x30D JUMPI PUSH1 0x40 MLOAD DUP1 PUSH1 0x40 ADD PUSH1 0x40 MSTORE DUP1 PUSH1 0x1 DUP2 MSTORE PUSH1 0x20 ADD PUSH32 0x4300000000000000000000000000000000000000000000000000000000000000 DUP2 MSTORE POP SWAP1 POP PUSH2 0x346 JUMP JUMPDEST PUSH1 0x40 MLOAD DUP1 PUSH1 0x40 ADD PUSH1 0x40 MSTORE DUP1 PUSH1 0x1 DUP2 MSTORE PUSH1 0x20 ADD PUSH32 0x4400000000000000000000000000000000000000000000000000000000000000 DUP2 MSTORE POP SWAP1 POP JUMPDEST SWAP2 SWAP1 POP JUMP JUMPDEST PUSH0 DUP1 REVERT JUMPDEST PUSH0 DUP2 SWAP1 POP SWAP2 SWAP1 POP JUMP JUMPDEST PUSH2 0x361 DUP2 PUSH2 0x34F JUMP JUMPDEST DUP2 EQ PUSH2 0x36B JUMPI PUSH0 DUP1 REVERT JUMPDEST POP JUMP JUMPDEST PUSH0 DUP2 CALLDATALOAD SWAP1 POP PUSH2 0x37C DUP2 PUSH2 0x358 JUMP JUMPDEST SWAP3 SWAP2 POP POP JUMP JUMPDEST PUSH0 PUSH1 0x20 DUP3 DUP5 SUB SLT ISZERO PUSH2 0x397 JUMPI PUSH2 0x396 PUSH2 0x34B JUMP JUMPDEST JUMPDEST PUSH0 PUSH2 0x3A4 DUP5 DUP3 DUP6 ADD PUSH2 0x36E JUMP JUMPDEST SWAP2 POP POP SWAP3 SWAP2 POP POP JUMP JUMPDEST PUSH0 DUP2 MLOAD SWAP1 POP SWAP2 SWAP1 POP JUMP JUMPDEST PUSH0 DUP3 DUP3 MSTORE PUSH1 0x20 DUP3 ADD SWAP1 POP SWAP3 SWAP2 POP POP JUMP JUMPDEST PUSH0 JUMPDEST DUP4 DUP2 LT ISZERO PUSH2 0x3E4 JUMPI DUP1 DUP3 ADD MLOAD DUP2 DUP5 ADD MSTORE PUSH1 0x20 DUP2 ADD SWAP1 POP PUSH2 0x3C9 JUMP JUMPDEST PUSH0 DUP5 DUP5 ADD MSTORE POP POP POP POP JUMP JUMPDEST PUSH0 PUSH1 0x1F NOT PUSH1 0x1F DUP4 ADD AND SWAP1 POP SWAP2 SWAP1 POP JUMP JUMPDEST PUSH0 PUSH2 0x409 DUP3 PUSH2 0x3AD JUMP JUMPDEST PUSH2 0x413 DUP2 DUP6 PUSH2 0x3B7 JUMP JUMPDEST SWAP4 POP PUSH2 0x423 DUP2 DUP6 PUSH1 0x20 DUP7 ADD PUSH2 0x3C7 JUMP JUMPDEST PUSH2 0x42C DUP2 PUSH2 0x3EF JUMP JUMPDEST DUP5 ADD SWAP2 POP POP SWAP3 SWAP2 POP POP JUMP JUMPDEST PUSH0 PUSH1 0x20 DUP3 ADD SWAP1 POP DUP2 DUP2 SUB PUSH0 DUP4 ADD MSTORE PUSH2 0x44F DUP2 DUP5 PUSH2 0x3FF JUMP JUMPDEST SWAP1 POP SWAP3 SWAP2 POP POP JUMP JUMPDEST PUSH32 0x4E487B7100000000000000000000000000000000000000000000000000000000 PUSH0 MSTORE PUSH1 0x12 PUSH1 0x4 MSTORE PUSH1 0x24 PUSH0 REVERT JUMPDEST PUSH0 PUSH2 0x48E DUP3 PUSH2 0x34F JUMP JUMPDEST SWAP2 POP PUSH2 0x499 DUP4 PUSH2 0x34F JUMP JUMPDEST SWAP3 POP DUP3 PUSH2 0x4A9 JUMPI PUSH2 0x4A8 PUSH2 0x457 JUMP JUMPDEST JUMPDEST DUP3 DUP3 MOD SWAP1 POP SWAP3 SWAP2 POP POP JUMP INVALID LOG2 PUSH5 0x6970667358 0x22 SLT KECCAK256 DUP5 SWAP7 SWAP8 JUMPI RETURN OR 0x28 0xFB 0xF7 0x4C 0xE8 0xD4 SLT 0xEA STATICCALL PUSH27 0x7AAE1CDEFAD033CC69FD15DD3864C4A64736F6C63430008170033 "
				},
				"gasEstimates": {
					"creation": {
						"codeDepositCost": "251600",
						"executionCost": "292",
						"totalCost": "251892"
					},
					"external": {
						"ex2(uint256)": "infinite",
						"grade(uint256)": "infinite"
					}
				},
				"methodIdentifiers": {
					"ex2(uint256)": "11afbbcf",
					"grade(uint256)": "11ae1579"
				}
			},
			"storageLayout": {
				"storage": [],
				"types": null
			},
			"userdoc": {
				"kind": "user",
				"methods": {},
				"version": 1
			}
		}
	}
}