{
	"for.sol": {
		"FOR": {
			"abi": [
				{
					"inputs": [],
					"name": "loop1",
					"outputs": [
						{
							"internalType": "uint256",
							"name": "",
							"type": "uint256"
						}
					],
					"stateMutability": "pure",
					"type": "function"
				},
				{
					"inputs": [],
					"name": "loop2",
					"outputs": [
						{
							"internalType": "uint256",
							"name": "",
							"type": "uint256"
						},
						{
							"internalType": "uint256",
							"name": "",
							"type": "uint256"
						}
					],
					"stateMutability": "pure",
					"type": "function"
				},
				{
					"inputs": [],
					"name": "loop3",
					"outputs": [
						{
							"internalType": "uint256",
							"name": "",
							"type": "uint256"
						}
					],
					"stateMutability": "pure",
					"type": "function"
				},
				{
					"inputs": [],
					"name": "loop4",
					"outputs": [
						{
							"internalType": "uint256",
							"name": "",
							"type": "uint256"
						}
					],
					"stateMutability": "pure",
					"type": "function"
				},
				{
					"inputs": [],
					"name": "loop5",
					"outputs": [
						{
							"internalType": "uint256",
							"name": "",
							"type": "uint256"
						}
					],
					"stateMutability": "pure",
					"type": "function"
				}
			],
			"devdoc": {
				"kind": "dev",
				"methods": {},
				"version": 1
			},
			"evm": {
				"assembly": "    /* \"for.sol\":57:968  contract FOR { // 평균 구할 때 사용.... */\n  mstore(0x40, 0x80)\n  callvalue\n  dup1\n  iszero\n  tag_1\n  jumpi\n  0x00\n  dup1\n  revert\ntag_1:\n  pop\n  dataSize(sub_0)\n  dup1\n  dataOffset(sub_0)\n  0x00\n  codecopy\n  0x00\n  return\nstop\n\nsub_0: assembly {\n        /* \"for.sol\":57:968  contract FOR { // 평균 구할 때 사용.... */\n      mstore(0x40, 0x80)\n      callvalue\n      dup1\n      iszero\n      tag_1\n      jumpi\n      0x00\n      dup1\n      revert\n    tag_1:\n      pop\n      jumpi(tag_2, lt(calldatasize, 0x04))\n      shr(0xe0, calldataload(0x00))\n      dup1\n      0x3fbd13e2\n      eq\n      tag_3\n      jumpi\n      dup1\n      0x9dfeea2b\n      eq\n      tag_4\n      jumpi\n      dup1\n      0xa89edd59\n      eq\n      tag_5\n      jumpi\n      dup1\n      0xd70f3e3e\n      eq\n      tag_6\n      jumpi\n      dup1\n      0xf5fb1bf8\n      eq\n      tag_7\n      jumpi\n    tag_2:\n      0x00\n      dup1\n      revert\n        /* \"for.sol\":802:960  function loop5() public pure returns(uint) {... */\n    tag_3:\n      tag_8\n      tag_9\n      jump\t// in\n    tag_8:\n      mload(0x40)\n      tag_10\n      swap2\n      swap1\n      tag_11\n      jump\t// in\n    tag_10:\n      mload(0x40)\n      dup1\n      swap2\n      sub\n      swap1\n      return\n        /* \"for.sol\":472:629  function loop3() public pure returns(uint) {... */\n    tag_4:\n      tag_12\n      tag_13\n      jump\t// in\n    tag_12:\n      mload(0x40)\n      tag_14\n      swap2\n      swap1\n      tag_11\n      jump\t// in\n    tag_14:\n      mload(0x40)\n      dup1\n      swap2\n      sub\n      swap1\n      return\n        /* \"for.sol\":278:466  function loop2() public pure returns(uint, uint) {... */\n    tag_5:\n      tag_15\n      tag_16\n      jump\t// in\n    tag_15:\n      mload(0x40)\n      tag_17\n      swap3\n      swap2\n      swap1\n      tag_18\n      jump\t// in\n    tag_17:\n      mload(0x40)\n      dup1\n      swap2\n      sub\n      swap1\n      return\n        /* \"for.sol\":636:794  function loop4() public pure returns(uint) {... */\n    tag_6:\n      tag_19\n      tag_20\n      jump\t// in\n    tag_19:\n      mload(0x40)\n      tag_21\n      swap2\n      swap1\n      tag_11\n      jump\t// in\n    tag_21:\n      mload(0x40)\n      dup1\n      swap2\n      sub\n      swap1\n      return\n        /* \"for.sol\":106:271  function loop1() public pure returns(uint) {... */\n    tag_7:\n      tag_22\n      tag_23\n      jump\t// in\n    tag_22:\n      mload(0x40)\n      tag_24\n      swap2\n      swap1\n      tag_11\n      jump\t// in\n    tag_24:\n      mload(0x40)\n      dup1\n      swap2\n      sub\n      swap1\n      return\n        /* \"for.sol\":802:960  function loop5() public pure returns(uint) {... */\n    tag_9:\n        /* \"for.sol\":839:843  uint */\n      0x00\n        /* \"for.sol\":855:861  uint a */\n      dup1\n        /* \"for.sol\":876:882  uint i */\n      0x00\n        /* \"for.sol\":883:884  1 */\n      0x01\n        /* \"for.sol\":876:884  uint i=1 */\n      swap1\n      pop\n        /* \"for.sol\":872:934  for(uint i=1; i <= 100; i*=2) {... */\n    tag_26:\n        /* \"for.sol\":891:894  100 */\n      0x64\n        /* \"for.sol\":886:887  i */\n      dup2\n        /* \"for.sol\":886:894  i <= 100 */\n      gt\n        /* \"for.sol\":872:934  for(uint i=1; i <= 100; i*=2) {... */\n      tag_27\n      jumpi\n        /* \"for.sol\":921:922  i */\n      dup1\n        /* \"for.sol\":916:922  a += i */\n      dup3\n      tag_29\n      swap2\n      swap1\n      tag_30\n      jump\t// in\n    tag_29:\n      swap2\n      pop\n        /* \"for.sol\":899:900  2 */\n      0x02\n        /* \"for.sol\":896:900  i*=2 */\n      dup2\n      tag_31\n      swap2\n      swap1\n      tag_32\n      jump\t// in\n    tag_31:\n      swap1\n      pop\n        /* \"for.sol\":872:934  for(uint i=1; i <= 100; i*=2) {... */\n      jump(tag_26)\n    tag_27:\n      pop\n        /* \"for.sol\":952:953  a */\n      dup1\n        /* \"for.sol\":945:953  return a */\n      swap2\n      pop\n      pop\n        /* \"for.sol\":802:960  function loop5() public pure returns(uint) {... */\n      swap1\n      jump\t// out\n        /* \"for.sol\":472:629  function loop3() public pure returns(uint) {... */\n    tag_13:\n        /* \"for.sol\":509:513  uint */\n      0x00\n        /* \"for.sol\":525:531  uint a */\n      dup1\n        /* \"for.sol\":546:552  uint i */\n      0x00\n        /* \"for.sol\":553:554  1 */\n      0x01\n        /* \"for.sol\":546:554  uint i=1 */\n      swap1\n      pop\n        /* \"for.sol\":542:603  for(uint i=1; i <= 100; i++) {... */\n    tag_34:\n        /* \"for.sol\":561:564  100 */\n      0x64\n        /* \"for.sol\":556:557  i */\n      dup2\n        /* \"for.sol\":556:564  i <= 100 */\n      gt\n        /* \"for.sol\":542:603  for(uint i=1; i <= 100; i++) {... */\n      tag_35\n      jumpi\n        /* \"for.sol\":590:591  i */\n      dup1\n        /* \"for.sol\":585:591  a += i */\n      dup3\n      tag_37\n      swap2\n      swap1\n      tag_30\n      jump\t// in\n    tag_37:\n      swap2\n      pop\n        /* \"for.sol\":566:569  i++ */\n      dup1\n      dup1\n      tag_38\n      swap1\n      tag_39\n      jump\t// in\n    tag_38:\n      swap2\n      pop\n      pop\n        /* \"for.sol\":542:603  for(uint i=1; i <= 100; i++) {... */\n      jump(tag_34)\n    tag_35:\n      pop\n        /* \"for.sol\":621:622  a */\n      dup1\n        /* \"for.sol\":614:622  return a */\n      swap2\n      pop\n      pop\n        /* \"for.sol\":472:629  function loop3() public pure returns(uint) {... */\n      swap1\n      jump\t// out\n        /* \"for.sol\":278:466  function loop2() public pure returns(uint, uint) {... */\n    tag_16:\n        /* \"for.sol\":315:319  uint */\n      0x00\n        /* \"for.sol\":321:325  uint */\n      dup1\n        /* \"for.sol\":337:343  uint a */\n      0x00\n        /* \"for.sol\":353:359  uint i */\n      dup1\n        /* \"for.sol\":376:377  1 */\n      0x01\n        /* \"for.sol\":374:377  i=1 */\n      swap1\n      pop\n        /* \"for.sol\":370:436  for(i=1; i<=6; i++) {... */\n    tag_41:\n        /* \"for.sol\":382:383  6 */\n      0x06\n        /* \"for.sol\":379:380  i */\n      dup2\n        /* \"for.sol\":379:383  i<=6 */\n      gt\n        /* \"for.sol\":370:436  for(i=1; i<=6; i++) {... */\n      tag_42\n      jumpi\n        /* \"for.sol\":409:410  i */\n      dup1\n        /* \"for.sol\":404:410  a += i */\n      dup3\n      tag_44\n      swap2\n      swap1\n      tag_30\n      jump\t// in\n    tag_44:\n      swap2\n      pop\n        /* \"for.sol\":385:388  i++ */\n      dup1\n      dup1\n      tag_45\n      swap1\n      tag_39\n      jump\t// in\n    tag_45:\n      swap2\n      pop\n      pop\n        /* \"for.sol\":370:436  for(i=1; i<=6; i++) {... */\n      jump(tag_41)\n    tag_42:\n        /* \"for.sol\":454:455  a */\n      dup2\n        /* \"for.sol\":457:458  i */\n      dup2\n        /* \"for.sol\":446:459  return (a, i) */\n      swap4\n      pop\n      swap4\n      pop\n      pop\n      pop\n        /* \"for.sol\":278:466  function loop2() public pure returns(uint, uint) {... */\n      swap1\n      swap2\n      jump\t// out\n        /* \"for.sol\":636:794  function loop4() public pure returns(uint) {... */\n    tag_20:\n        /* \"for.sol\":673:677  uint */\n      0x00\n        /* \"for.sol\":689:695  uint a */\n      dup1\n        /* \"for.sol\":710:716  uint i */\n      0x00\n        /* \"for.sol\":717:718  1 */\n      0x01\n        /* \"for.sol\":710:718  uint i=1 */\n      swap1\n      pop\n        /* \"for.sol\":706:768  for(uint i=1; i <= 100; i+=2) {... */\n    tag_47:\n        /* \"for.sol\":725:728  100 */\n      0x64\n        /* \"for.sol\":720:721  i */\n      dup2\n        /* \"for.sol\":720:728  i <= 100 */\n      gt\n        /* \"for.sol\":706:768  for(uint i=1; i <= 100; i+=2) {... */\n      tag_48\n      jumpi\n        /* \"for.sol\":755:756  i */\n      dup1\n        /* \"for.sol\":750:756  a += i */\n      dup3\n      tag_50\n      swap2\n      swap1\n      tag_30\n      jump\t// in\n    tag_50:\n      swap2\n      pop\n        /* \"for.sol\":733:734  2 */\n      0x02\n        /* \"for.sol\":730:734  i+=2 */\n      dup2\n      tag_51\n      swap2\n      swap1\n      tag_30\n      jump\t// in\n    tag_51:\n      swap1\n      pop\n        /* \"for.sol\":706:768  for(uint i=1; i <= 100; i+=2) {... */\n      jump(tag_47)\n    tag_48:\n      pop\n        /* \"for.sol\":786:787  a */\n      dup1\n        /* \"for.sol\":779:787  return a */\n      swap2\n      pop\n      pop\n        /* \"for.sol\":636:794  function loop4() public pure returns(uint) {... */\n      swap1\n      jump\t// out\n        /* \"for.sol\":106:271  function loop1() public pure returns(uint) {... */\n    tag_23:\n        /* \"for.sol\":143:147  uint */\n      0x00\n        /* \"for.sol\":159:165  uint a */\n      dup1\n        /* \"for.sol\":180:186  uint i */\n      0x00\n        /* \"for.sol\":176:246  for(uint i=0; i<5; i++) {... */\n    tag_53:\n        /* \"for.sol\":192:193  5 */\n      0x05\n        /* \"for.sol\":190:191  i */\n      dup2\n        /* \"for.sol\":190:193  i<5 */\n      lt\n        /* \"for.sol\":176:246  for(uint i=0; i<5; i++) {... */\n      iszero\n      tag_54\n      jumpi\n        /* \"for.sol\":219:220  i */\n      dup1\n        /* \"for.sol\":214:220  a += i */\n      dup3\n      tag_56\n      swap2\n      swap1\n      tag_30\n      jump\t// in\n    tag_56:\n      swap2\n      pop\n        /* \"for.sol\":195:198  i++ */\n      dup1\n      dup1\n      0x01\n      add\n      swap2\n      pop\n      pop\n        /* \"for.sol\":176:246  for(uint i=0; i<5; i++) {... */\n      jump(tag_53)\n    tag_54:\n      pop\n        /* \"for.sol\":263:264  a */\n      dup1\n        /* \"for.sol\":256:264  return a */\n      swap2\n      pop\n      pop\n        /* \"for.sol\":106:271  function loop1() public pure returns(uint) {... */\n      swap1\n      jump\t// out\n        /* \"#utility.yul\":7:84   */\n    tag_57:\n        /* \"#utility.yul\":44:51   */\n      0x00\n        /* \"#utility.yul\":73:78   */\n      dup2\n        /* \"#utility.yul\":62:78   */\n      swap1\n      pop\n        /* \"#utility.yul\":7:84   */\n      swap2\n      swap1\n      pop\n      jump\t// out\n        /* \"#utility.yul\":90:208   */\n    tag_58:\n        /* \"#utility.yul\":177:201   */\n      tag_63\n        /* \"#utility.yul\":195:200   */\n      dup2\n        /* \"#utility.yul\":177:201   */\n      tag_57\n      jump\t// in\n    tag_63:\n        /* \"#utility.yul\":172:175   */\n      dup3\n        /* \"#utility.yul\":165:202   */\n      mstore\n        /* \"#utility.yul\":90:208   */\n      pop\n      pop\n      jump\t// out\n        /* \"#utility.yul\":214:436   */\n    tag_11:\n        /* \"#utility.yul\":307:311   */\n      0x00\n        /* \"#utility.yul\":345:347   */\n      0x20\n        /* \"#utility.yul\":334:343   */\n      dup3\n        /* \"#utility.yul\":330:348   */\n      add\n        /* \"#utility.yul\":322:348   */\n      swap1\n      pop\n        /* \"#utility.yul\":358:429   */\n      tag_65\n        /* \"#utility.yul\":426:427   */\n      0x00\n        /* \"#utility.yul\":415:424   */\n      dup4\n        /* \"#utility.yul\":411:428   */\n      add\n        /* \"#utility.yul\":402:408   */\n      dup5\n        /* \"#utility.yul\":358:429   */\n      tag_58\n      jump\t// in\n    tag_65:\n        /* \"#utility.yul\":214:436   */\n      swap3\n      swap2\n      pop\n      pop\n      jump\t// out\n        /* \"#utility.yul\":442:774   */\n    tag_18:\n        /* \"#utility.yul\":563:567   */\n      0x00\n        /* \"#utility.yul\":601:603   */\n      0x40\n        /* \"#utility.yul\":590:599   */\n      dup3\n        /* \"#utility.yul\":586:604   */\n      add\n        /* \"#utility.yul\":578:604   */\n      swap1\n      pop\n        /* \"#utility.yul\":614:685   */\n      tag_67\n        /* \"#utility.yul\":682:683   */\n      0x00\n        /* \"#utility.yul\":671:680   */\n      dup4\n        /* \"#utility.yul\":667:684   */\n      add\n        /* \"#utility.yul\":658:664   */\n      dup6\n        /* \"#utility.yul\":614:685   */\n      tag_58\n      jump\t// in\n    tag_67:\n        /* \"#utility.yul\":695:767   */\n      tag_68\n        /* \"#utility.yul\":763:765   */\n      0x20\n        /* \"#utility.yul\":752:761   */\n      dup4\n        /* \"#utility.yul\":748:766   */\n      add\n        /* \"#utility.yul\":739:745   */\n      dup5\n        /* \"#utility.yul\":695:767   */\n      tag_58\n      jump\t// in\n    tag_68:\n        /* \"#utility.yul\":442:774   */\n      swap4\n      swap3\n      pop\n      pop\n      pop\n      jump\t// out\n        /* \"#utility.yul\":780:960   */\n    tag_59:\n        /* \"#utility.yul\":828:905   */\n      0x4e487b7100000000000000000000000000000000000000000000000000000000\n        /* \"#utility.yul\":825:826   */\n      0x00\n        /* \"#utility.yul\":818:906   */\n      mstore\n        /* \"#utility.yul\":925:929   */\n      0x11\n        /* \"#utility.yul\":922:923   */\n      0x04\n        /* \"#utility.yul\":915:930   */\n      mstore\n        /* \"#utility.yul\":949:953   */\n      0x24\n        /* \"#utility.yul\":946:947   */\n      0x00\n        /* \"#utility.yul\":939:954   */\n      revert\n        /* \"#utility.yul\":966:1157   */\n    tag_30:\n        /* \"#utility.yul\":1006:1009   */\n      0x00\n        /* \"#utility.yul\":1025:1045   */\n      tag_71\n        /* \"#utility.yul\":1043:1044   */\n      dup3\n        /* \"#utility.yul\":1025:1045   */\n      tag_57\n      jump\t// in\n    tag_71:\n        /* \"#utility.yul\":1020:1045   */\n      swap2\n      pop\n        /* \"#utility.yul\":1059:1079   */\n      tag_72\n        /* \"#utility.yul\":1077:1078   */\n      dup4\n        /* \"#utility.yul\":1059:1079   */\n      tag_57\n      jump\t// in\n    tag_72:\n        /* \"#utility.yul\":1054:1079   */\n      swap3\n      pop\n        /* \"#utility.yul\":1102:1103   */\n      dup3\n        /* \"#utility.yul\":1099:1100   */\n      dup3\n        /* \"#utility.yul\":1095:1104   */\n      add\n        /* \"#utility.yul\":1088:1104   */\n      swap1\n      pop\n        /* \"#utility.yul\":1123:1126   */\n      dup1\n        /* \"#utility.yul\":1120:1121   */\n      dup3\n        /* \"#utility.yul\":1117:1127   */\n      gt\n        /* \"#utility.yul\":1114:1150   */\n      iszero\n      tag_73\n      jumpi\n        /* \"#utility.yul\":1130:1148   */\n      tag_74\n      tag_59\n      jump\t// in\n    tag_74:\n        /* \"#utility.yul\":1114:1150   */\n    tag_73:\n        /* \"#utility.yul\":966:1157   */\n      swap3\n      swap2\n      pop\n      pop\n      jump\t// out\n        /* \"#utility.yul\":1163:1573   */\n    tag_32:\n        /* \"#utility.yul\":1203:1210   */\n      0x00\n        /* \"#utility.yul\":1226:1246   */\n      tag_76\n        /* \"#utility.yul\":1244:1245   */\n      dup3\n        /* \"#utility.yul\":1226:1246   */\n      tag_57\n      jump\t// in\n    tag_76:\n        /* \"#utility.yul\":1221:1246   */\n      swap2\n      pop\n        /* \"#utility.yul\":1260:1280   */\n      tag_77\n        /* \"#utility.yul\":1278:1279   */\n      dup4\n        /* \"#utility.yul\":1260:1280   */\n      tag_57\n      jump\t// in\n    tag_77:\n        /* \"#utility.yul\":1255:1280   */\n      swap3\n      pop\n        /* \"#utility.yul\":1315:1316   */\n      dup3\n        /* \"#utility.yul\":1312:1313   */\n      dup3\n        /* \"#utility.yul\":1308:1317   */\n      mul\n        /* \"#utility.yul\":1337:1367   */\n      tag_78\n        /* \"#utility.yul\":1355:1366   */\n      dup2\n        /* \"#utility.yul\":1337:1367   */\n      tag_57\n      jump\t// in\n    tag_78:\n        /* \"#utility.yul\":1326:1367   */\n      swap2\n      pop\n        /* \"#utility.yul\":1516:1517   */\n      dup3\n        /* \"#utility.yul\":1507:1514   */\n      dup3\n        /* \"#utility.yul\":1503:1518   */\n      div\n        /* \"#utility.yul\":1500:1501   */\n      dup5\n        /* \"#utility.yul\":1497:1519   */\n      eq\n        /* \"#utility.yul\":1477:1478   */\n      dup4\n        /* \"#utility.yul\":1470:1479   */\n      iszero\n        /* \"#utility.yul\":1450:1533   */\n      or\n        /* \"#utility.yul\":1427:1566   */\n      tag_79\n      jumpi\n        /* \"#utility.yul\":1546:1564   */\n      tag_80\n      tag_59\n      jump\t// in\n    tag_80:\n        /* \"#utility.yul\":1427:1566   */\n    tag_79:\n        /* \"#utility.yul\":1211:1573   */\n      pop\n        /* \"#utility.yul\":1163:1573   */\n      swap3\n      swap2\n      pop\n      pop\n      jump\t// out\n        /* \"#utility.yul\":1579:1812   */\n    tag_39:\n        /* \"#utility.yul\":1618:1621   */\n      0x00\n        /* \"#utility.yul\":1641:1665   */\n      tag_82\n        /* \"#utility.yul\":1659:1664   */\n      dup3\n        /* \"#utility.yul\":1641:1665   */\n      tag_57\n      jump\t// in\n    tag_82:\n        /* \"#utility.yul\":1632:1665   */\n      swap2\n      pop\n        /* \"#utility.yul\":1687:1753   */\n      0xffffffffffffffffffffffffffffffffffffffffffffffffffffffffffffffff\n        /* \"#utility.yul\":1680:1685   */\n      dup3\n        /* \"#utility.yul\":1677:1754   */\n      sub\n        /* \"#utility.yul\":1674:1777   */\n      tag_83\n      jumpi\n        /* \"#utility.yul\":1757:1775   */\n      tag_84\n      tag_59\n      jump\t// in\n    tag_84:\n        /* \"#utility.yul\":1674:1777   */\n    tag_83:\n        /* \"#utility.yul\":1804:1805   */\n      0x01\n        /* \"#utility.yul\":1797:1802   */\n      dup3\n        /* \"#utility.yul\":1793:1806   */\n      add\n        /* \"#utility.yul\":1786:1806   */\n      swap1\n      pop\n        /* \"#utility.yul\":1579:1812   */\n      swap2\n      swap1\n      pop\n      jump\t// out\n\n    auxdata: 0xa2646970667358221220ebd65f7c6b8b60e0594daab9aac51d18b7e9f70d37109e3b1da307b50d62a29e64736f6c63430008170033\n}\n",
				"bytecode": {
					"linkReferences": {},
					"object": "608060405234801561000f575f80fd5b506103818061001d5f395ff3fe608060405234801561000f575f80fd5b5060043610610055575f3560e01c80633fbd13e2146100595780639dfeea2b14610077578063a89edd5914610095578063d70f3e3e146100b4578063f5fb1bf8146100d2575b5f80fd5b6100616100f0565b60405161006e9190610223565b60405180910390f35b61007f61012a565b60405161008c9190610223565b60405180910390f35b61009d610163565b6040516100ab92919061023c565b60405180910390f35b6100bc6101a1565b6040516100c99190610223565b60405180910390f35b6100da6101db565b6040516100e79190610223565b60405180910390f35b5f805f600190505b6064811161012257808261010c9190610290565b915060028161011b91906102c3565b90506100f8565b508091505090565b5f805f600190505b6064811161015b5780826101469190610290565b9150808061015390610304565b915050610132565b508091505090565b5f805f80600190505b600681116101955780826101809190610290565b9150808061018d90610304565b91505061016c565b81819350935050509091565b5f805f600190505b606481116101d35780826101bd9190610290565b91506002816101cc9190610290565b90506101a9565b508091505090565b5f805f5b60058110156102035780826101f49190610290565b915080806001019150506101df565b508091505090565b5f819050919050565b61021d8161020b565b82525050565b5f6020820190506102365f830184610214565b92915050565b5f60408201905061024f5f830185610214565b61025c6020830184610214565b9392505050565b7f4e487b71000000000000000000000000000000000000000000000000000000005f52601160045260245ffd5b5f61029a8261020b565b91506102a58361020b565b92508282019050808211156102bd576102bc610263565b5b92915050565b5f6102cd8261020b565b91506102d88361020b565b92508282026102e68161020b565b915082820484148315176102fd576102fc610263565b5b5092915050565b5f61030e8261020b565b91507fffffffffffffffffffffffffffffffffffffffffffffffffffffffffffffffff82036103405761033f610263565b5b60018201905091905056fea2646970667358221220ebd65f7c6b8b60e0594daab9aac51d18b7e9f70d37109e3b1da307b50d62a29e64736f6c63430008170033",
					"opcodes": "PUSH1 0x80 PUSH1 0x40 MSTORE CALLVALUE DUP1 ISZERO PUSH2 0xF JUMPI PUSH0 DUP1 REVERT JUMPDEST POP PUSH2 0x381 DUP1 PUSH2 0x1D PUSH0 CODECOPY PUSH0 RETURN INVALID PUSH1 0x80 PUSH1 0x40 MSTORE CALLVALUE DUP1 ISZERO PUSH2 0xF JUMPI PUSH0 DUP1 REVERT JUMPDEST POP PUSH1 0x4 CALLDATASIZE LT PUSH2 0x55 JUMPI PUSH0 CALLDATALOAD PUSH1 0xE0 SHR DUP1 PUSH4 0x3FBD13E2 EQ PUSH2 0x59 JUMPI DUP1 PUSH4 0x9DFEEA2B EQ PUSH2 0x77 JUMPI DUP1 PUSH4 0xA89EDD59 EQ PUSH2 0x95 JUMPI DUP1 PUSH4 0xD70F3E3E EQ PUSH2 0xB4 JUMPI DUP1 PUSH4 0xF5FB1BF8 EQ PUSH2 0xD2 JUMPI JUMPDEST PUSH0 DUP1 REVERT JUMPDEST PUSH2 0x61 PUSH2 0xF0 JUMP JUMPDEST PUSH1 0x40 MLOAD PUSH2 0x6E SWAP2 SWAP1 PUSH2 0x223 JUMP JUMPDEST PUSH1 0x40 MLOAD DUP1 SWAP2 SUB SWAP1 RETURN JUMPDEST PUSH2 0x7F PUSH2 0x12A JUMP JUMPDEST PUSH1 0x40 MLOAD PUSH2 0x8C SWAP2 SWAP1 PUSH2 0x223 JUMP JUMPDEST PUSH1 0x40 MLOAD DUP1 SWAP2 SUB SWAP1 RETURN JUMPDEST PUSH2 0x9D PUSH2 0x163 JUMP JUMPDEST PUSH1 0x40 MLOAD PUSH2 0xAB SWAP3 SWAP2 SWAP1 PUSH2 0x23C JUMP JUMPDEST PUSH1 0x40 MLOAD DUP1 SWAP2 SUB SWAP1 RETURN JUMPDEST PUSH2 0xBC PUSH2 0x1A1 JUMP JUMPDEST PUSH1 0x40 MLOAD PUSH2 0xC9 SWAP2 SWAP1 PUSH2 0x223 JUMP JUMPDEST PUSH1 0x40 MLOAD DUP1 SWAP2 SUB SWAP1 RETURN JUMPDEST PUSH2 0xDA PUSH2 0x1DB JUMP JUMPDEST PUSH1 0x40 MLOAD PUSH2 0xE7 SWAP2 SWAP1 PUSH2 0x223 JUMP JUMPDEST PUSH1 0x40 MLOAD DUP1 SWAP2 SUB SWAP1 RETURN JUMPDEST PUSH0 DUP1 PUSH0 PUSH1 0x1 SWAP1 POP JUMPDEST PUSH1 0x64 DUP2 GT PUSH2 0x122 JUMPI DUP1 DUP3 PUSH2 0x10C SWAP2 SWAP1 PUSH2 0x290 JUMP JUMPDEST SWAP2 POP PUSH1 0x2 DUP2 PUSH2 0x11B SWAP2 SWAP1 PUSH2 0x2C3 JUMP JUMPDEST SWAP1 POP PUSH2 0xF8 JUMP JUMPDEST POP DUP1 SWAP2 POP POP SWAP1 JUMP JUMPDEST PUSH0 DUP1 PUSH0 PUSH1 0x1 SWAP1 POP JUMPDEST PUSH1 0x64 DUP2 GT PUSH2 0x15B JUMPI DUP1 DUP3 PUSH2 0x146 SWAP2 SWAP1 PUSH2 0x290 JUMP JUMPDEST SWAP2 POP DUP1 DUP1 PUSH2 0x153 SWAP1 PUSH2 0x304 JUMP JUMPDEST SWAP2 POP POP PUSH2 0x132 JUMP JUMPDEST POP DUP1 SWAP2 POP POP SWAP1 JUMP JUMPDEST PUSH0 DUP1 PUSH0 DUP1 PUSH1 0x1 SWAP1 POP JUMPDEST PUSH1 0x6 DUP2 GT PUSH2 0x195 JUMPI DUP1 DUP3 PUSH2 0x180 SWAP2 SWAP1 PUSH2 0x290 JUMP JUMPDEST SWAP2 POP DUP1 DUP1 PUSH2 0x18D SWAP1 PUSH2 0x304 JUMP JUMPDEST SWAP2 POP POP PUSH2 0x16C JUMP JUMPDEST DUP2 DUP2 SWAP4 POP SWAP4 POP POP POP SWAP1 SWAP2 JUMP JUMPDEST PUSH0 DUP1 PUSH0 PUSH1 0x1 SWAP1 POP JUMPDEST PUSH1 0x64 DUP2 GT PUSH2 0x1D3 JUMPI DUP1 DUP3 PUSH2 0x1BD SWAP2 SWAP1 PUSH2 0x290 JUMP JUMPDEST SWAP2 POP PUSH1 0x2 DUP2 PUSH2 0x1CC SWAP2 SWAP1 PUSH2 0x290 JUMP JUMPDEST SWAP1 POP PUSH2 0x1A9 JUMP JUMPDEST POP DUP1 SWAP2 POP POP SWAP1 JUMP JUMPDEST PUSH0 DUP1 PUSH0 JUMPDEST PUSH1 0x5 DUP2 LT ISZERO PUSH2 0x203 JUMPI DUP1 DUP3 PUSH2 0x1F4 SWAP2 SWAP1 PUSH2 0x290 JUMP JUMPDEST SWAP2 POP DUP1 DUP1 PUSH1 0x1 ADD SWAP2 POP POP PUSH2 0x1DF JUMP JUMPDEST POP DUP1 SWAP2 POP POP SWAP1 JUMP JUMPDEST PUSH0 DUP2 SWAP1 POP SWAP2 SWAP1 POP JUMP JUMPDEST PUSH2 0x21D DUP2 PUSH2 0x20B JUMP JUMPDEST DUP3 MSTORE POP POP JUMP JUMPDEST PUSH0 PUSH1 0x20 DUP3 ADD SWAP1 POP PUSH2 0x236 PUSH0 DUP4 ADD DUP5 PUSH2 0x214 JUMP JUMPDEST SWAP3 SWAP2 POP POP JUMP JUMPDEST PUSH0 PUSH1 0x40 DUP3 ADD SWAP1 POP PUSH2 0x24F PUSH0 DUP4 ADD DUP6 PUSH2 0x214 JUMP JUMPDEST PUSH2 0x25C PUSH1 0x20 DUP4 ADD DUP5 PUSH2 0x214 JUMP JUMPDEST SWAP4 SWAP3 POP POP POP JUMP JUMPDEST PUSH32 0x4E487B7100000000000000000000000000000000000000000000000000000000 PUSH0 MSTORE PUSH1 0x11 PUSH1 0x4 MSTORE PUSH1 0x24 PUSH0 REVERT JUMPDEST PUSH0 PUSH2 0x29A DUP3 PUSH2 0x20B JUMP JUMPDEST SWAP2 POP PUSH2 0x2A5 DUP4 PUSH2 0x20B JUMP JUMPDEST SWAP3 POP DUP3 DUP3 ADD SWAP1 POP DUP1 DUP3 GT ISZERO PUSH2 0x2BD JUMPI PUSH2 0x2BC PUSH2 0x263 JUMP JUMPDEST JUMPDEST SWAP3 SWAP2 POP POP JUMP JUMPDEST PUSH0 PUSH2 0x2CD DUP3 PUSH2 0x20B JUMP JUMPDEST SWAP2 POP PUSH2 0x2D8 DUP4 PUSH2 0x20B JUMP JUMPDEST SWAP3 POP DUP3 DUP3 MUL PUSH2 0x2E6 DUP2 PUSH2 0x20B JUMP JUMPDEST SWAP2 POP DUP3 DUP3 DIV DUP5 EQ DUP4 ISZERO OR PUSH2 0x2FD JUMPI PUSH2 0x2FC PUSH2 0x263 JUMP JUMPDEST JUMPDEST POP SWAP3 SWAP2 POP POP JUMP JUMPDEST PUSH0 PUSH2 0x30E DUP3 PUSH2 0x20B JUMP JUMPDEST SWAP2 POP PUSH32 0xFFFFFFFFFFFFFFFFFFFFFFFFFFFFFFFFFFFFFFFFFFFFFFFFFFFFFFFFFFFFFFFF DUP3 SUB PUSH2 0x340 JUMPI PUSH2 0x33F PUSH2 0x263 JUMP JUMPDEST JUMPDEST PUSH1 0x1 DUP3 ADD SWAP1 POP SWAP2 SWAP1 POP JUMP INVALID LOG2 PUSH5 0x6970667358 0x22 SLT KECCAK256 0xEB 0xD6 PUSH0 PUSH29 0x6B8B60E0594DAAB9AAC51D18B7E9F70D37109E3B1DA307B50D62A29E64 PUSH20 0x6F6C634300081700330000000000000000000000 "
				},
				"gasEstimates": {
					"creation": {
						"codeDepositCost": "179400",
						"executionCost": "224",
						"totalCost": "179624"
					},
					"external": {
						"loop1()": "infinite",
						"loop2()": "infinite",
						"loop3()": "infinite",
						"loop4()": "infinite",
						"loop5()": "infinite"
					}
				},
				"methodIdentifiers": {
					"loop1()": "f5fb1bf8",
					"loop2()": "a89edd59",
					"loop3()": "9dfeea2b",
					"loop4()": "d70f3e3e",
					"loop5()": "3fbd13e2"
				}
			},
			"storageLayout": {
				"storage": [],
				"types": null
			},
			"userdoc": {
				"kind": "user",
				"methods": {},
				"version": 1
			}
		}
	}
}