{
	"contracts/review.sol": {
		"REVIEW": {
			"abi": [
				{
					"inputs": [
						{
							"internalType": "uint256",
							"name": "_a",
							"type": "uint256"
						},
						{
							"internalType": "uint256",
							"name": "_b",
							"type": "uint256"
						},
						{
							"internalType": "uint256",
							"name": "_c",
							"type": "uint256"
						}
					],
					"name": "addABC",
					"outputs": [
						{
							"internalType": "uint256",
							"name": "",
							"type": "uint256"
						}
					],
					"stateMutability": "pure",
					"type": "function"
				},
				{
					"inputs": [
						{
							"internalType": "uint256",
							"name": "_n",
							"type": "uint256"
						}
					],
					"name": "deleteNumber",
					"outputs": [],
					"stateMutability": "nonpayable",
					"type": "function"
				},
				{
					"inputs": [
						{
							"internalType": "uint256",
							"name": "_a",
							"type": "uint256"
						}
					],
					"name": "getNumber",
					"outputs": [
						{
							"internalType": "uint256",
							"name": "",
							"type": "uint256"
						}
					],
					"stateMutability": "view",
					"type": "function"
				},
				{
					"inputs": [
						{
							"internalType": "uint256",
							"name": "_a",
							"type": "uint256"
						},
						{
							"internalType": "uint256",
							"name": "_b",
							"type": "uint256"
						},
						{
							"internalType": "uint256",
							"name": "_c",
							"type": "uint256"
						}
					],
					"name": "multipyABC",
					"outputs": [
						{
							"internalType": "uint256",
							"name": "",
							"type": "uint256"
						}
					],
					"stateMutability": "pure",
					"type": "function"
				},
				{
					"inputs": [],
					"name": "popNumber",
					"outputs": [],
					"stateMutability": "nonpayable",
					"type": "function"
				},
				{
					"inputs": [
						{
							"internalType": "string",
							"name": "_a",
							"type": "string"
						}
					],
					"name": "pushLetter",
					"outputs": [],
					"stateMutability": "nonpayable",
					"type": "function"
				},
				{
					"inputs": [
						{
							"internalType": "uint256",
							"name": "_a",
							"type": "uint256"
						}
					],
					"name": "pushNumber",
					"outputs": [],
					"stateMutability": "nonpayable",
					"type": "function"
				},
				{
					"inputs": [
						{
							"internalType": "uint256",
							"name": "_a",
							"type": "uint256"
						},
						{
							"internalType": "uint256",
							"name": "_b",
							"type": "uint256"
						}
					],
					"name": "setNumber",
					"outputs": [],
					"stateMutability": "nonpayable",
					"type": "function"
				}
			],
			"devdoc": {
				"kind": "dev",
				"methods": {},
				"version": 1
			},
			"evm": {
				"assembly": "    /* \"contracts/review.sol\":57:882  contract REVIEW {... */\n  mstore(0x40, 0x80)\n  callvalue\n  dup1\n  iszero\n  tag_1\n  jumpi\n  0x00\n  dup1\n  revert\ntag_1:\n  pop\n  dataSize(sub_0)\n  dup1\n  dataOffset(sub_0)\n  0x00\n  codecopy\n  0x00\n  return\nstop\n\nsub_0: assembly {\n        /* \"contracts/review.sol\":57:882  contract REVIEW {... */\n      mstore(0x40, 0x80)\n      callvalue\n      dup1\n      iszero\n      tag_1\n      jumpi\n      0x00\n      dup1\n      revert\n    tag_1:\n      pop\n      jumpi(tag_2, lt(calldatasize, 0x04))\n      shr(0xe0, calldataload(0x00))\n      dup1\n      0x3c544314\n      gt\n      tag_11\n      jumpi\n      dup1\n      0x3c544314\n      eq\n      tag_7\n      jumpi\n      dup1\n      0x6b19e8c7\n      eq\n      tag_8\n      jumpi\n      dup1\n      0xd99d5f25\n      eq\n      tag_9\n      jumpi\n      dup1\n      0xfc563658\n      eq\n      tag_10\n      jumpi\n      jump(tag_2)\n    tag_11:\n      dup1\n      0x067cda81\n      eq\n      tag_3\n      jumpi\n      dup1\n      0x2705f37f\n      eq\n      tag_4\n      jumpi\n      dup1\n      0x2bfe1805\n      eq\n      tag_5\n      jumpi\n      dup1\n      0x2cf10140\n      eq\n      tag_6\n      jumpi\n    tag_2:\n      0x00\n      dup1\n      revert\n        /* \"contracts/review.sol\":802:879  function deleteNumber(uint _n) public {... */\n    tag_3:\n      tag_12\n      0x04\n      dup1\n      calldatasize\n      sub\n      dup2\n      add\n      swap1\n      tag_13\n      swap2\n      swap1\n      tag_14\n      jump\t// in\n    tag_13:\n      tag_15\n      jump\t// in\n    tag_12:\n      stop\n        /* \"contracts/review.sol\":556:614  function popNumber() public {... */\n    tag_4:\n      tag_16\n      tag_17\n      jump\t// in\n    tag_16:\n      stop\n        /* \"contracts/review.sol\":397:466  function pushNumber(uint _a) public {... */\n    tag_5:\n      tag_18\n      0x04\n      dup1\n      calldatasize\n      sub\n      dup2\n      add\n      swap1\n      tag_19\n      swap2\n      swap1\n      tag_14\n      jump\t// in\n    tag_19:\n      tag_20\n      jump\t// in\n    tag_18:\n      stop\n        /* \"contracts/review.sol\":167:274  function addABC(uint _a, uint _b, uint _c) public pure returns(uint) {... */\n    tag_6:\n      tag_21\n      0x04\n      dup1\n      calldatasize\n      sub\n      dup2\n      add\n      swap1\n      tag_22\n      swap2\n      swap1\n      tag_23\n      jump\t// in\n    tag_22:\n      tag_24\n      jump\t// in\n    tag_21:\n      mload(0x40)\n      tag_25\n      swap2\n      swap1\n      tag_26\n      jump\t// in\n    tag_25:\n      mload(0x40)\n      dup1\n      swap2\n      sub\n      swap1\n      return\n        /* \"contracts/review.sol\":472:550  function pushLetter(string memory _a) public {... */\n    tag_7:\n      tag_27\n      0x04\n      dup1\n      calldatasize\n      sub\n      dup2\n      add\n      swap1\n      tag_28\n      swap2\n      swap1\n      tag_29\n      jump\t// in\n    tag_28:\n      tag_30\n      jump\t// in\n    tag_27:\n      stop\n        /* \"contracts/review.sol\":719:796  function setNumber(uint _a, uint _b) public {... */\n    tag_8:\n      tag_31\n      0x04\n      dup1\n      calldatasize\n      sub\n      dup2\n      add\n      swap1\n      tag_32\n      swap2\n      swap1\n      tag_33\n      jump\t// in\n    tag_32:\n      tag_34\n      jump\t// in\n    tag_31:\n      stop\n        /* \"contracts/review.sol\":280:391  function multipyABC(uint _a, uint _b, uint _c) public pure returns(uint) {... */\n    tag_9:\n      tag_35\n      0x04\n      dup1\n      calldatasize\n      sub\n      dup2\n      add\n      swap1\n      tag_36\n      swap2\n      swap1\n      tag_23\n      jump\t// in\n    tag_36:\n      tag_37\n      jump\t// in\n    tag_35:\n      mload(0x40)\n      tag_38\n      swap2\n      swap1\n      tag_26\n      jump\t// in\n    tag_38:\n      mload(0x40)\n      dup1\n      swap2\n      sub\n      swap1\n      return\n        /* \"contracts/review.sol\":620:713  function getNumber(uint _a) public view returns(uint) {... */\n    tag_10:\n      tag_39\n      0x04\n      dup1\n      calldatasize\n      sub\n      dup2\n      add\n      swap1\n      tag_40\n      swap2\n      swap1\n      tag_14\n      jump\t// in\n    tag_40:\n      tag_41\n      jump\t// in\n    tag_39:\n      mload(0x40)\n      tag_42\n      swap2\n      swap1\n      tag_26\n      jump\t// in\n    tag_42:\n      mload(0x40)\n      dup1\n      swap2\n      sub\n      swap1\n      return\n        /* \"contracts/review.sol\":802:879  function deleteNumber(uint _n) public {... */\n    tag_15:\n        /* \"contracts/review.sol\":857:864  numbers */\n      0x03\n        /* \"contracts/review.sol\":870:871  1 */\n      0x01\n        /* \"contracts/review.sol\":865:867  _n */\n      dup3\n        /* \"contracts/review.sol\":865:871  _n - 1 */\n      tag_44\n      swap2\n      swap1\n      tag_45\n      jump\t// in\n    tag_44:\n        /* \"contracts/review.sol\":857:872  numbers[_n - 1] */\n      dup2\n      sload\n      dup2\n      lt\n      tag_46\n      jumpi\n      tag_47\n      tag_48\n      jump\t// in\n    tag_47:\n    tag_46:\n      swap1\n      0x00\n      mstore\n      keccak256(0x00, 0x20)\n      add\n        /* \"contracts/review.sol\":850:872  delete numbers[_n - 1] */\n      0x00\n      swap1\n      sstore\n        /* \"contracts/review.sol\":802:879  function deleteNumber(uint _n) public {... */\n      pop\n      jump\t// out\n        /* \"contracts/review.sol\":556:614  function popNumber() public {... */\n    tag_17:\n        /* \"contracts/review.sol\":594:601  numbers */\n      0x03\n        /* \"contracts/review.sol\":594:607  numbers.pop() */\n      dup1\n      sload\n      dup1\n      tag_51\n      jumpi\n      tag_52\n      tag_53\n      jump\t// in\n    tag_52:\n    tag_51:\n      0x01\n      swap1\n      sub\n      dup2\n      dup2\n      swap1\n      0x00\n      mstore\n      keccak256(0x00, 0x20)\n      add\n      0x00\n      swap1\n      sstore\n      swap1\n      sstore\n        /* \"contracts/review.sol\":556:614  function popNumber() public {... */\n      jump\t// out\n        /* \"contracts/review.sol\":397:466  function pushNumber(uint _a) public {... */\n    tag_20:\n        /* \"contracts/review.sol\":443:450  numbers */\n      0x03\n        /* \"contracts/review.sol\":456:458  _a */\n      dup2\n        /* \"contracts/review.sol\":443:459  numbers.push(_a) */\n      swap1\n      dup1\n      0x01\n      dup2\n      sload\n      add\n      dup1\n      dup3\n      sstore\n      dup1\n      swap2\n      pop\n      pop\n      0x01\n      swap1\n      sub\n      swap1\n      0x00\n      mstore\n      keccak256(0x00, 0x20)\n      add\n      0x00\n      swap1\n      swap2\n      swap1\n      swap2\n      swap1\n      swap2\n      pop\n      sstore\n        /* \"contracts/review.sol\":397:466  function pushNumber(uint _a) public {... */\n      pop\n      jump\t// out\n        /* \"contracts/review.sol\":167:274  function addABC(uint _a, uint _b, uint _c) public pure returns(uint) {... */\n    tag_24:\n        /* \"contracts/review.sol\":230:234  uint */\n      0x00\n        /* \"contracts/review.sol\":264:266  _c */\n      dup2\n        /* \"contracts/review.sol\":259:261  _b */\n      dup4\n        /* \"contracts/review.sol\":254:256  _a */\n      dup6\n        /* \"contracts/review.sol\":254:261  _a + _b */\n      tag_58\n      swap2\n      swap1\n      tag_59\n      jump\t// in\n    tag_58:\n        /* \"contracts/review.sol\":254:266  _a + _b + _c */\n      tag_60\n      swap2\n      swap1\n      tag_59\n      jump\t// in\n    tag_60:\n        /* \"contracts/review.sol\":246:267  return (_a + _b + _c) */\n      swap1\n      pop\n        /* \"contracts/review.sol\":167:274  function addABC(uint _a, uint _b, uint _c) public pure returns(uint) {... */\n      swap4\n      swap3\n      pop\n      pop\n      pop\n      jump\t// out\n        /* \"contracts/review.sol\":472:550  function pushLetter(string memory _a) public {... */\n    tag_30:\n        /* \"contracts/review.sol\":527:534  letters */\n      0x04\n        /* \"contracts/review.sol\":540:542  _a */\n      dup2\n        /* \"contracts/review.sol\":527:543  letters.push(_a) */\n      swap1\n      dup1\n      0x01\n      dup2\n      sload\n      add\n      dup1\n      dup3\n      sstore\n      dup1\n      swap2\n      pop\n      pop\n      0x01\n      swap1\n      sub\n      swap1\n      0x00\n      mstore\n      keccak256(0x00, 0x20)\n      add\n      0x00\n      swap1\n      swap2\n      swap1\n      swap2\n      swap1\n      swap2\n      pop\n      swap1\n      dup2\n      tag_63\n      swap2\n      swap1\n      tag_64\n      jump\t// in\n    tag_63:\n      pop\n        /* \"contracts/review.sol\":472:550  function pushLetter(string memory _a) public {... */\n      pop\n      jump\t// out\n        /* \"contracts/review.sol\":719:796  function setNumber(uint _a, uint _b) public {... */\n    tag_34:\n        /* \"contracts/review.sol\":787:789  _b */\n      dup1\n        /* \"contracts/review.sol\":773:780  numbers */\n      0x03\n        /* \"contracts/review.sol\":781:783  _a */\n      dup4\n        /* \"contracts/review.sol\":773:784  numbers[_a] */\n      dup2\n      sload\n      dup2\n      lt\n      tag_66\n      jumpi\n      tag_67\n      tag_48\n      jump\t// in\n    tag_67:\n    tag_66:\n      swap1\n      0x00\n      mstore\n      keccak256(0x00, 0x20)\n      add\n        /* \"contracts/review.sol\":773:789  numbers[_a] = _b */\n      dup2\n      swap1\n      sstore\n      pop\n        /* \"contracts/review.sol\":719:796  function setNumber(uint _a, uint _b) public {... */\n      pop\n      pop\n      jump\t// out\n        /* \"contracts/review.sol\":280:391  function multipyABC(uint _a, uint _b, uint _c) public pure returns(uint) {... */\n    tag_37:\n        /* \"contracts/review.sol\":347:351  uint */\n      0x00\n        /* \"contracts/review.sol\":381:383  _c */\n      dup2\n        /* \"contracts/review.sol\":376:378  _b */\n      dup4\n        /* \"contracts/review.sol\":371:373  _a */\n      dup6\n        /* \"contracts/review.sol\":371:378  _a * _b */\n      tag_70\n      swap2\n      swap1\n      tag_71\n      jump\t// in\n    tag_70:\n        /* \"contracts/review.sol\":371:383  _a * _b * _c */\n      tag_72\n      swap2\n      swap1\n      tag_71\n      jump\t// in\n    tag_72:\n        /* \"contracts/review.sol\":363:384  return (_a * _b * _c) */\n      swap1\n      pop\n        /* \"contracts/review.sol\":280:391  function multipyABC(uint _a, uint _b, uint _c) public pure returns(uint) {... */\n      swap4\n      swap3\n      pop\n      pop\n      pop\n      jump\t// out\n        /* \"contracts/review.sol\":620:713  function getNumber(uint _a) public view returns(uint) {... */\n    tag_41:\n        /* \"contracts/review.sol\":668:672  uint */\n      0x00\n        /* \"contracts/review.sol\":691:698  numbers */\n      0x03\n        /* \"contracts/review.sol\":704:705  1 */\n      0x01\n        /* \"contracts/review.sol\":699:701  _a */\n      dup4\n        /* \"contracts/review.sol\":699:705  _a - 1 */\n      tag_74\n      swap2\n      swap1\n      tag_45\n      jump\t// in\n    tag_74:\n        /* \"contracts/review.sol\":691:706  numbers[_a - 1] */\n      dup2\n      sload\n      dup2\n      lt\n      tag_75\n      jumpi\n      tag_76\n      tag_48\n      jump\t// in\n    tag_76:\n    tag_75:\n      swap1\n      0x00\n      mstore\n      keccak256(0x00, 0x20)\n      add\n      sload\n        /* \"contracts/review.sol\":684:706  return numbers[_a - 1] */\n      swap1\n      pop\n        /* \"contracts/review.sol\":620:713  function getNumber(uint _a) public view returns(uint) {... */\n      swap2\n      swap1\n      pop\n      jump\t// out\n        /* \"#utility.yul\":7:82   */\n    tag_78:\n        /* \"#utility.yul\":40:46   */\n      0x00\n        /* \"#utility.yul\":73:75   */\n      0x40\n        /* \"#utility.yul\":67:76   */\n      mload\n        /* \"#utility.yul\":57:76   */\n      swap1\n      pop\n        /* \"#utility.yul\":7:82   */\n      swap1\n      jump\t// out\n        /* \"#utility.yul\":88:205   */\n    tag_79:\n        /* \"#utility.yul\":197:198   */\n      0x00\n        /* \"#utility.yul\":194:195   */\n      dup1\n        /* \"#utility.yul\":187:199   */\n      revert\n        /* \"#utility.yul\":211:328   */\n    tag_80:\n        /* \"#utility.yul\":320:321   */\n      0x00\n        /* \"#utility.yul\":317:318   */\n      dup1\n        /* \"#utility.yul\":310:322   */\n      revert\n        /* \"#utility.yul\":334:411   */\n    tag_81:\n        /* \"#utility.yul\":371:378   */\n      0x00\n        /* \"#utility.yul\":400:405   */\n      dup2\n        /* \"#utility.yul\":389:405   */\n      swap1\n      pop\n        /* \"#utility.yul\":334:411   */\n      swap2\n      swap1\n      pop\n      jump\t// out\n        /* \"#utility.yul\":417:539   */\n    tag_82:\n        /* \"#utility.yul\":490:514   */\n      tag_120\n        /* \"#utility.yul\":508:513   */\n      dup2\n        /* \"#utility.yul\":490:514   */\n      tag_81\n      jump\t// in\n    tag_120:\n        /* \"#utility.yul\":483:488   */\n      dup2\n        /* \"#utility.yul\":480:515   */\n      eq\n        /* \"#utility.yul\":470:533   */\n      tag_121\n      jumpi\n        /* \"#utility.yul\":529:530   */\n      0x00\n        /* \"#utility.yul\":526:527   */\n      dup1\n        /* \"#utility.yul\":519:531   */\n      revert\n        /* \"#utility.yul\":470:533   */\n    tag_121:\n        /* \"#utility.yul\":417:539   */\n      pop\n      jump\t// out\n        /* \"#utility.yul\":545:684   */\n    tag_83:\n        /* \"#utility.yul\":591:596   */\n      0x00\n        /* \"#utility.yul\":629:635   */\n      dup2\n        /* \"#utility.yul\":616:636   */\n      calldataload\n        /* \"#utility.yul\":607:636   */\n      swap1\n      pop\n        /* \"#utility.yul\":645:678   */\n      tag_123\n        /* \"#utility.yul\":672:677   */\n      dup2\n        /* \"#utility.yul\":645:678   */\n      tag_82\n      jump\t// in\n    tag_123:\n        /* \"#utility.yul\":545:684   */\n      swap3\n      swap2\n      pop\n      pop\n      jump\t// out\n        /* \"#utility.yul\":690:1019   */\n    tag_14:\n        /* \"#utility.yul\":749:755   */\n      0x00\n        /* \"#utility.yul\":798:800   */\n      0x20\n        /* \"#utility.yul\":786:795   */\n      dup3\n        /* \"#utility.yul\":777:784   */\n      dup5\n        /* \"#utility.yul\":773:796   */\n      sub\n        /* \"#utility.yul\":769:801   */\n      slt\n        /* \"#utility.yul\":766:885   */\n      iszero\n      tag_125\n      jumpi\n        /* \"#utility.yul\":804:883   */\n      tag_126\n      tag_79\n      jump\t// in\n    tag_126:\n        /* \"#utility.yul\":766:885   */\n    tag_125:\n        /* \"#utility.yul\":924:925   */\n      0x00\n        /* \"#utility.yul\":949:1002   */\n      tag_127\n        /* \"#utility.yul\":994:1001   */\n      dup5\n        /* \"#utility.yul\":985:991   */\n      dup3\n        /* \"#utility.yul\":974:983   */\n      dup6\n        /* \"#utility.yul\":970:992   */\n      add\n        /* \"#utility.yul\":949:1002   */\n      tag_83\n      jump\t// in\n    tag_127:\n        /* \"#utility.yul\":939:1002   */\n      swap2\n      pop\n        /* \"#utility.yul\":895:1012   */\n      pop\n        /* \"#utility.yul\":690:1019   */\n      swap3\n      swap2\n      pop\n      pop\n      jump\t// out\n        /* \"#utility.yul\":1025:1644   */\n    tag_23:\n        /* \"#utility.yul\":1102:1108   */\n      0x00\n        /* \"#utility.yul\":1110:1116   */\n      dup1\n        /* \"#utility.yul\":1118:1124   */\n      0x00\n        /* \"#utility.yul\":1167:1169   */\n      0x60\n        /* \"#utility.yul\":1155:1164   */\n      dup5\n        /* \"#utility.yul\":1146:1153   */\n      dup7\n        /* \"#utility.yul\":1142:1165   */\n      sub\n        /* \"#utility.yul\":1138:1170   */\n      slt\n        /* \"#utility.yul\":1135:1254   */\n      iszero\n      tag_129\n      jumpi\n        /* \"#utility.yul\":1173:1252   */\n      tag_130\n      tag_79\n      jump\t// in\n    tag_130:\n        /* \"#utility.yul\":1135:1254   */\n    tag_129:\n        /* \"#utility.yul\":1293:1294   */\n      0x00\n        /* \"#utility.yul\":1318:1371   */\n      tag_131\n        /* \"#utility.yul\":1363:1370   */\n      dup7\n        /* \"#utility.yul\":1354:1360   */\n      dup3\n        /* \"#utility.yul\":1343:1352   */\n      dup8\n        /* \"#utility.yul\":1339:1361   */\n      add\n        /* \"#utility.yul\":1318:1371   */\n      tag_83\n      jump\t// in\n    tag_131:\n        /* \"#utility.yul\":1308:1371   */\n      swap4\n      pop\n        /* \"#utility.yul\":1264:1381   */\n      pop\n        /* \"#utility.yul\":1420:1422   */\n      0x20\n        /* \"#utility.yul\":1446:1499   */\n      tag_132\n        /* \"#utility.yul\":1491:1498   */\n      dup7\n        /* \"#utility.yul\":1482:1488   */\n      dup3\n        /* \"#utility.yul\":1471:1480   */\n      dup8\n        /* \"#utility.yul\":1467:1489   */\n      add\n        /* \"#utility.yul\":1446:1499   */\n      tag_83\n      jump\t// in\n    tag_132:\n        /* \"#utility.yul\":1436:1499   */\n      swap3\n      pop\n        /* \"#utility.yul\":1391:1509   */\n      pop\n        /* \"#utility.yul\":1548:1550   */\n      0x40\n        /* \"#utility.yul\":1574:1627   */\n      tag_133\n        /* \"#utility.yul\":1619:1626   */\n      dup7\n        /* \"#utility.yul\":1610:1616   */\n      dup3\n        /* \"#utility.yul\":1599:1608   */\n      dup8\n        /* \"#utility.yul\":1595:1617   */\n      add\n        /* \"#utility.yul\":1574:1627   */\n      tag_83\n      jump\t// in\n    tag_133:\n        /* \"#utility.yul\":1564:1627   */\n      swap2\n      pop\n        /* \"#utility.yul\":1519:1637   */\n      pop\n        /* \"#utility.yul\":1025:1644   */\n      swap3\n      pop\n      swap3\n      pop\n      swap3\n      jump\t// out\n        /* \"#utility.yul\":1650:1768   */\n    tag_84:\n        /* \"#utility.yul\":1737:1761   */\n      tag_135\n        /* \"#utility.yul\":1755:1760   */\n      dup2\n        /* \"#utility.yul\":1737:1761   */\n      tag_81\n      jump\t// in\n    tag_135:\n        /* \"#utility.yul\":1732:1735   */\n      dup3\n        /* \"#utility.yul\":1725:1762   */\n      mstore\n        /* \"#utility.yul\":1650:1768   */\n      pop\n      pop\n      jump\t// out\n        /* \"#utility.yul\":1774:1996   */\n    tag_26:\n        /* \"#utility.yul\":1867:1871   */\n      0x00\n        /* \"#utility.yul\":1905:1907   */\n      0x20\n        /* \"#utility.yul\":1894:1903   */\n      dup3\n        /* \"#utility.yul\":1890:1908   */\n      add\n        /* \"#utility.yul\":1882:1908   */\n      swap1\n      pop\n        /* \"#utility.yul\":1918:1989   */\n      tag_137\n        /* \"#utility.yul\":1986:1987   */\n      0x00\n        /* \"#utility.yul\":1975:1984   */\n      dup4\n        /* \"#utility.yul\":1971:1988   */\n      add\n        /* \"#utility.yul\":1962:1968   */\n      dup5\n        /* \"#utility.yul\":1918:1989   */\n      tag_84\n      jump\t// in\n    tag_137:\n        /* \"#utility.yul\":1774:1996   */\n      swap3\n      swap2\n      pop\n      pop\n      jump\t// out\n        /* \"#utility.yul\":2002:2119   */\n    tag_85:\n        /* \"#utility.yul\":2111:2112   */\n      0x00\n        /* \"#utility.yul\":2108:2109   */\n      dup1\n        /* \"#utility.yul\":2101:2113   */\n      revert\n        /* \"#utility.yul\":2125:2242   */\n    tag_86:\n        /* \"#utility.yul\":2234:2235   */\n      0x00\n        /* \"#utility.yul\":2231:2232   */\n      dup1\n        /* \"#utility.yul\":2224:2236   */\n      revert\n        /* \"#utility.yul\":2248:2350   */\n    tag_87:\n        /* \"#utility.yul\":2289:2295   */\n      0x00\n        /* \"#utility.yul\":2340:2342   */\n      0x1f\n        /* \"#utility.yul\":2336:2343   */\n      not\n        /* \"#utility.yul\":2331:2333   */\n      0x1f\n        /* \"#utility.yul\":2324:2329   */\n      dup4\n        /* \"#utility.yul\":2320:2334   */\n      add\n        /* \"#utility.yul\":2316:2344   */\n      and\n        /* \"#utility.yul\":2306:2344   */\n      swap1\n      pop\n        /* \"#utility.yul\":2248:2350   */\n      swap2\n      swap1\n      pop\n      jump\t// out\n        /* \"#utility.yul\":2356:2536   */\n    tag_88:\n        /* \"#utility.yul\":2404:2481   */\n      0x4e487b7100000000000000000000000000000000000000000000000000000000\n        /* \"#utility.yul\":2401:2402   */\n      0x00\n        /* \"#utility.yul\":2394:2482   */\n      mstore\n        /* \"#utility.yul\":2501:2505   */\n      0x41\n        /* \"#utility.yul\":2498:2499   */\n      0x04\n        /* \"#utility.yul\":2491:2506   */\n      mstore\n        /* \"#utility.yul\":2525:2529   */\n      0x24\n        /* \"#utility.yul\":2522:2523   */\n      0x00\n        /* \"#utility.yul\":2515:2530   */\n      revert\n        /* \"#utility.yul\":2542:2823   */\n    tag_89:\n        /* \"#utility.yul\":2625:2652   */\n      tag_143\n        /* \"#utility.yul\":2647:2651   */\n      dup3\n        /* \"#utility.yul\":2625:2652   */\n      tag_87\n      jump\t// in\n    tag_143:\n        /* \"#utility.yul\":2617:2623   */\n      dup2\n        /* \"#utility.yul\":2613:2653   */\n      add\n        /* \"#utility.yul\":2755:2761   */\n      dup2\n        /* \"#utility.yul\":2743:2753   */\n      dup2\n        /* \"#utility.yul\":2740:2762   */\n      lt\n        /* \"#utility.yul\":2719:2737   */\n      0xffffffffffffffff\n        /* \"#utility.yul\":2707:2717   */\n      dup3\n        /* \"#utility.yul\":2704:2738   */\n      gt\n        /* \"#utility.yul\":2701:2763   */\n      or\n        /* \"#utility.yul\":2698:2786   */\n      iszero\n      tag_144\n      jumpi\n        /* \"#utility.yul\":2766:2784   */\n      tag_145\n      tag_88\n      jump\t// in\n    tag_145:\n        /* \"#utility.yul\":2698:2786   */\n    tag_144:\n        /* \"#utility.yul\":2806:2816   */\n      dup1\n        /* \"#utility.yul\":2802:2804   */\n      0x40\n        /* \"#utility.yul\":2795:2817   */\n      mstore\n        /* \"#utility.yul\":2585:2823   */\n      pop\n        /* \"#utility.yul\":2542:2823   */\n      pop\n      pop\n      jump\t// out\n        /* \"#utility.yul\":2829:2958   */\n    tag_90:\n        /* \"#utility.yul\":2863:2869   */\n      0x00\n        /* \"#utility.yul\":2890:2910   */\n      tag_147\n      tag_78\n      jump\t// in\n    tag_147:\n        /* \"#utility.yul\":2880:2910   */\n      swap1\n      pop\n        /* \"#utility.yul\":2919:2952   */\n      tag_148\n        /* \"#utility.yul\":2947:2951   */\n      dup3\n        /* \"#utility.yul\":2939:2945   */\n      dup3\n        /* \"#utility.yul\":2919:2952   */\n      tag_89\n      jump\t// in\n    tag_148:\n        /* \"#utility.yul\":2829:2958   */\n      swap2\n      swap1\n      pop\n      jump\t// out\n        /* \"#utility.yul\":2964:3272   */\n    tag_91:\n        /* \"#utility.yul\":3026:3030   */\n      0x00\n        /* \"#utility.yul\":3116:3134   */\n      0xffffffffffffffff\n        /* \"#utility.yul\":3108:3114   */\n      dup3\n        /* \"#utility.yul\":3105:3135   */\n      gt\n        /* \"#utility.yul\":3102:3158   */\n      iszero\n      tag_150\n      jumpi\n        /* \"#utility.yul\":3138:3156   */\n      tag_151\n      tag_88\n      jump\t// in\n    tag_151:\n        /* \"#utility.yul\":3102:3158   */\n    tag_150:\n        /* \"#utility.yul\":3176:3205   */\n      tag_152\n        /* \"#utility.yul\":3198:3204   */\n      dup3\n        /* \"#utility.yul\":3176:3205   */\n      tag_87\n      jump\t// in\n    tag_152:\n        /* \"#utility.yul\":3168:3205   */\n      swap1\n      pop\n        /* \"#utility.yul\":3260:3264   */\n      0x20\n        /* \"#utility.yul\":3254:3258   */\n      dup2\n        /* \"#utility.yul\":3250:3265   */\n      add\n        /* \"#utility.yul\":3242:3265   */\n      swap1\n      pop\n        /* \"#utility.yul\":2964:3272   */\n      swap2\n      swap1\n      pop\n      jump\t// out\n        /* \"#utility.yul\":3278:3424   */\n    tag_92:\n        /* \"#utility.yul\":3375:3381   */\n      dup3\n        /* \"#utility.yul\":3370:3373   */\n      dup2\n        /* \"#utility.yul\":3365:3368   */\n      dup4\n        /* \"#utility.yul\":3352:3382   */\n      calldatacopy\n        /* \"#utility.yul\":3416:3417   */\n      0x00\n        /* \"#utility.yul\":3407:3413   */\n      dup4\n        /* \"#utility.yul\":3402:3405   */\n      dup4\n        /* \"#utility.yul\":3398:3414   */\n      add\n        /* \"#utility.yul\":3391:3418   */\n      mstore\n        /* \"#utility.yul\":3278:3424   */\n      pop\n      pop\n      pop\n      jump\t// out\n        /* \"#utility.yul\":3430:3855   */\n    tag_93:\n        /* \"#utility.yul\":3508:3513   */\n      0x00\n        /* \"#utility.yul\":3533:3599   */\n      tag_155\n        /* \"#utility.yul\":3549:3598   */\n      tag_156\n        /* \"#utility.yul\":3591:3597   */\n      dup5\n        /* \"#utility.yul\":3549:3598   */\n      tag_91\n      jump\t// in\n    tag_156:\n        /* \"#utility.yul\":3533:3599   */\n      tag_90\n      jump\t// in\n    tag_155:\n        /* \"#utility.yul\":3524:3599   */\n      swap1\n      pop\n        /* \"#utility.yul\":3622:3628   */\n      dup3\n        /* \"#utility.yul\":3615:3620   */\n      dup2\n        /* \"#utility.yul\":3608:3629   */\n      mstore\n        /* \"#utility.yul\":3660:3664   */\n      0x20\n        /* \"#utility.yul\":3653:3658   */\n      dup2\n        /* \"#utility.yul\":3649:3665   */\n      add\n        /* \"#utility.yul\":3698:3701   */\n      dup5\n        /* \"#utility.yul\":3689:3695   */\n      dup5\n        /* \"#utility.yul\":3684:3687   */\n      dup5\n        /* \"#utility.yul\":3680:3696   */\n      add\n        /* \"#utility.yul\":3677:3702   */\n      gt\n        /* \"#utility.yul\":3674:3786   */\n      iszero\n      tag_157\n      jumpi\n        /* \"#utility.yul\":3705:3784   */\n      tag_158\n      tag_86\n      jump\t// in\n    tag_158:\n        /* \"#utility.yul\":3674:3786   */\n    tag_157:\n        /* \"#utility.yul\":3795:3849   */\n      tag_159\n        /* \"#utility.yul\":3842:3848   */\n      dup5\n        /* \"#utility.yul\":3837:3840   */\n      dup3\n        /* \"#utility.yul\":3832:3835   */\n      dup6\n        /* \"#utility.yul\":3795:3849   */\n      tag_92\n      jump\t// in\n    tag_159:\n        /* \"#utility.yul\":3514:3855   */\n      pop\n        /* \"#utility.yul\":3430:3855   */\n      swap4\n      swap3\n      pop\n      pop\n      pop\n      jump\t// out\n        /* \"#utility.yul\":3875:4215   */\n    tag_94:\n        /* \"#utility.yul\":3931:3936   */\n      0x00\n        /* \"#utility.yul\":3980:3983   */\n      dup3\n        /* \"#utility.yul\":3973:3977   */\n      0x1f\n        /* \"#utility.yul\":3965:3971   */\n      dup4\n        /* \"#utility.yul\":3961:3978   */\n      add\n        /* \"#utility.yul\":3957:3984   */\n      slt\n        /* \"#utility.yul\":3947:4069   */\n      tag_161\n      jumpi\n        /* \"#utility.yul\":3988:4067   */\n      tag_162\n      tag_85\n      jump\t// in\n    tag_162:\n        /* \"#utility.yul\":3947:4069   */\n    tag_161:\n        /* \"#utility.yul\":4105:4111   */\n      dup2\n        /* \"#utility.yul\":4092:4112   */\n      calldataload\n        /* \"#utility.yul\":4130:4209   */\n      tag_163\n        /* \"#utility.yul\":4205:4208   */\n      dup5\n        /* \"#utility.yul\":4197:4203   */\n      dup3\n        /* \"#utility.yul\":4190:4194   */\n      0x20\n        /* \"#utility.yul\":4182:4188   */\n      dup7\n        /* \"#utility.yul\":4178:4195   */\n      add\n        /* \"#utility.yul\":4130:4209   */\n      tag_93\n      jump\t// in\n    tag_163:\n        /* \"#utility.yul\":4121:4209   */\n      swap2\n      pop\n        /* \"#utility.yul\":3937:4215   */\n      pop\n        /* \"#utility.yul\":3875:4215   */\n      swap3\n      swap2\n      pop\n      pop\n      jump\t// out\n        /* \"#utility.yul\":4221:4730   */\n    tag_29:\n        /* \"#utility.yul\":4290:4296   */\n      0x00\n        /* \"#utility.yul\":4339:4341   */\n      0x20\n        /* \"#utility.yul\":4327:4336   */\n      dup3\n        /* \"#utility.yul\":4318:4325   */\n      dup5\n        /* \"#utility.yul\":4314:4337   */\n      sub\n        /* \"#utility.yul\":4310:4342   */\n      slt\n        /* \"#utility.yul\":4307:4426   */\n      iszero\n      tag_165\n      jumpi\n        /* \"#utility.yul\":4345:4424   */\n      tag_166\n      tag_79\n      jump\t// in\n    tag_166:\n        /* \"#utility.yul\":4307:4426   */\n    tag_165:\n        /* \"#utility.yul\":4493:4494   */\n      0x00\n        /* \"#utility.yul\":4482:4491   */\n      dup3\n        /* \"#utility.yul\":4478:4495   */\n      add\n        /* \"#utility.yul\":4465:4496   */\n      calldataload\n        /* \"#utility.yul\":4523:4541   */\n      0xffffffffffffffff\n        /* \"#utility.yul\":4515:4521   */\n      dup2\n        /* \"#utility.yul\":4512:4542   */\n      gt\n        /* \"#utility.yul\":4509:4626   */\n      iszero\n      tag_167\n      jumpi\n        /* \"#utility.yul\":4545:4624   */\n      tag_168\n      tag_80\n      jump\t// in\n    tag_168:\n        /* \"#utility.yul\":4509:4626   */\n    tag_167:\n        /* \"#utility.yul\":4650:4713   */\n      tag_169\n        /* \"#utility.yul\":4705:4712   */\n      dup5\n        /* \"#utility.yul\":4696:4702   */\n      dup3\n        /* \"#utility.yul\":4685:4694   */\n      dup6\n        /* \"#utility.yul\":4681:4703   */\n      add\n        /* \"#utility.yul\":4650:4713   */\n      tag_94\n      jump\t// in\n    tag_169:\n        /* \"#utility.yul\":4640:4713   */\n      swap2\n      pop\n        /* \"#utility.yul\":4436:4723   */\n      pop\n        /* \"#utility.yul\":4221:4730   */\n      swap3\n      swap2\n      pop\n      pop\n      jump\t// out\n        /* \"#utility.yul\":4736:5210   */\n    tag_33:\n        /* \"#utility.yul\":4804:4810   */\n      0x00\n        /* \"#utility.yul\":4812:4818   */\n      dup1\n        /* \"#utility.yul\":4861:4863   */\n      0x40\n        /* \"#utility.yul\":4849:4858   */\n      dup4\n        /* \"#utility.yul\":4840:4847   */\n      dup6\n        /* \"#utility.yul\":4836:4859   */\n      sub\n        /* \"#utility.yul\":4832:4864   */\n      slt\n        /* \"#utility.yul\":4829:4948   */\n      iszero\n      tag_171\n      jumpi\n        /* \"#utility.yul\":4867:4946   */\n      tag_172\n      tag_79\n      jump\t// in\n    tag_172:\n        /* \"#utility.yul\":4829:4948   */\n    tag_171:\n        /* \"#utility.yul\":4987:4988   */\n      0x00\n        /* \"#utility.yul\":5012:5065   */\n      tag_173\n        /* \"#utility.yul\":5057:5064   */\n      dup6\n        /* \"#utility.yul\":5048:5054   */\n      dup3\n        /* \"#utility.yul\":5037:5046   */\n      dup7\n        /* \"#utility.yul\":5033:5055   */\n      add\n        /* \"#utility.yul\":5012:5065   */\n      tag_83\n      jump\t// in\n    tag_173:\n        /* \"#utility.yul\":5002:5065   */\n      swap3\n      pop\n        /* \"#utility.yul\":4958:5075   */\n      pop\n        /* \"#utility.yul\":5114:5116   */\n      0x20\n        /* \"#utility.yul\":5140:5193   */\n      tag_174\n        /* \"#utility.yul\":5185:5192   */\n      dup6\n        /* \"#utility.yul\":5176:5182   */\n      dup3\n        /* \"#utility.yul\":5165:5174   */\n      dup7\n        /* \"#utility.yul\":5161:5183   */\n      add\n        /* \"#utility.yul\":5140:5193   */\n      tag_83\n      jump\t// in\n    tag_174:\n        /* \"#utility.yul\":5130:5193   */\n      swap2\n      pop\n        /* \"#utility.yul\":5085:5203   */\n      pop\n        /* \"#utility.yul\":4736:5210   */\n      swap3\n      pop\n      swap3\n      swap1\n      pop\n      jump\t// out\n        /* \"#utility.yul\":5216:5396   */\n    tag_95:\n        /* \"#utility.yul\":5264:5341   */\n      0x4e487b7100000000000000000000000000000000000000000000000000000000\n        /* \"#utility.yul\":5261:5262   */\n      0x00\n        /* \"#utility.yul\":5254:5342   */\n      mstore\n        /* \"#utility.yul\":5361:5365   */\n      0x11\n        /* \"#utility.yul\":5358:5359   */\n      0x04\n        /* \"#utility.yul\":5351:5366   */\n      mstore\n        /* \"#utility.yul\":5385:5389   */\n      0x24\n        /* \"#utility.yul\":5382:5383   */\n      0x00\n        /* \"#utility.yul\":5375:5390   */\n      revert\n        /* \"#utility.yul\":5402:5596   */\n    tag_45:\n        /* \"#utility.yul\":5442:5446   */\n      0x00\n        /* \"#utility.yul\":5462:5482   */\n      tag_177\n        /* \"#utility.yul\":5480:5481   */\n      dup3\n        /* \"#utility.yul\":5462:5482   */\n      tag_81\n      jump\t// in\n    tag_177:\n        /* \"#utility.yul\":5457:5482   */\n      swap2\n      pop\n        /* \"#utility.yul\":5496:5516   */\n      tag_178\n        /* \"#utility.yul\":5514:5515   */\n      dup4\n        /* \"#utility.yul\":5496:5516   */\n      tag_81\n      jump\t// in\n    tag_178:\n        /* \"#utility.yul\":5491:5516   */\n      swap3\n      pop\n        /* \"#utility.yul\":5540:5541   */\n      dup3\n        /* \"#utility.yul\":5537:5538   */\n      dup3\n        /* \"#utility.yul\":5533:5542   */\n      sub\n        /* \"#utility.yul\":5525:5542   */\n      swap1\n      pop\n        /* \"#utility.yul\":5564:5565   */\n      dup2\n        /* \"#utility.yul\":5558:5562   */\n      dup2\n        /* \"#utility.yul\":5555:5566   */\n      gt\n        /* \"#utility.yul\":5552:5589   */\n      iszero\n      tag_179\n      jumpi\n        /* \"#utility.yul\":5569:5587   */\n      tag_180\n      tag_95\n      jump\t// in\n    tag_180:\n        /* \"#utility.yul\":5552:5589   */\n    tag_179:\n        /* \"#utility.yul\":5402:5596   */\n      swap3\n      swap2\n      pop\n      pop\n      jump\t// out\n        /* \"#utility.yul\":5602:5782   */\n    tag_48:\n        /* \"#utility.yul\":5650:5727   */\n      0x4e487b7100000000000000000000000000000000000000000000000000000000\n        /* \"#utility.yul\":5647:5648   */\n      0x00\n        /* \"#utility.yul\":5640:5728   */\n      mstore\n        /* \"#utility.yul\":5747:5751   */\n      0x32\n        /* \"#utility.yul\":5744:5745   */\n      0x04\n        /* \"#utility.yul\":5737:5752   */\n      mstore\n        /* \"#utility.yul\":5771:5775   */\n      0x24\n        /* \"#utility.yul\":5768:5769   */\n      0x00\n        /* \"#utility.yul\":5761:5776   */\n      revert\n        /* \"#utility.yul\":5788:5968   */\n    tag_53:\n        /* \"#utility.yul\":5836:5913   */\n      0x4e487b7100000000000000000000000000000000000000000000000000000000\n        /* \"#utility.yul\":5833:5834   */\n      0x00\n        /* \"#utility.yul\":5826:5914   */\n      mstore\n        /* \"#utility.yul\":5933:5937   */\n      0x31\n        /* \"#utility.yul\":5930:5931   */\n      0x04\n        /* \"#utility.yul\":5923:5938   */\n      mstore\n        /* \"#utility.yul\":5957:5961   */\n      0x24\n        /* \"#utility.yul\":5954:5955   */\n      0x00\n        /* \"#utility.yul\":5947:5962   */\n      revert\n        /* \"#utility.yul\":5974:6165   */\n    tag_59:\n        /* \"#utility.yul\":6014:6017   */\n      0x00\n        /* \"#utility.yul\":6033:6053   */\n      tag_184\n        /* \"#utility.yul\":6051:6052   */\n      dup3\n        /* \"#utility.yul\":6033:6053   */\n      tag_81\n      jump\t// in\n    tag_184:\n        /* \"#utility.yul\":6028:6053   */\n      swap2\n      pop\n        /* \"#utility.yul\":6067:6087   */\n      tag_185\n        /* \"#utility.yul\":6085:6086   */\n      dup4\n        /* \"#utility.yul\":6067:6087   */\n      tag_81\n      jump\t// in\n    tag_185:\n        /* \"#utility.yul\":6062:6087   */\n      swap3\n      pop\n        /* \"#utility.yul\":6110:6111   */\n      dup3\n        /* \"#utility.yul\":6107:6108   */\n      dup3\n        /* \"#utility.yul\":6103:6112   */\n      add\n        /* \"#utility.yul\":6096:6112   */\n      swap1\n      pop\n        /* \"#utility.yul\":6131:6134   */\n      dup1\n        /* \"#utility.yul\":6128:6129   */\n      dup3\n        /* \"#utility.yul\":6125:6135   */\n      gt\n        /* \"#utility.yul\":6122:6158   */\n      iszero\n      tag_186\n      jumpi\n        /* \"#utility.yul\":6138:6156   */\n      tag_187\n      tag_95\n      jump\t// in\n    tag_187:\n        /* \"#utility.yul\":6122:6158   */\n    tag_186:\n        /* \"#utility.yul\":5974:6165   */\n      swap3\n      swap2\n      pop\n      pop\n      jump\t// out\n        /* \"#utility.yul\":6171:6270   */\n    tag_96:\n        /* \"#utility.yul\":6223:6229   */\n      0x00\n        /* \"#utility.yul\":6257:6262   */\n      dup2\n        /* \"#utility.yul\":6251:6263   */\n      mload\n        /* \"#utility.yul\":6241:6263   */\n      swap1\n      pop\n        /* \"#utility.yul\":6171:6270   */\n      swap2\n      swap1\n      pop\n      jump\t// out\n        /* \"#utility.yul\":6276:6456   */\n    tag_97:\n        /* \"#utility.yul\":6324:6401   */\n      0x4e487b7100000000000000000000000000000000000000000000000000000000\n        /* \"#utility.yul\":6321:6322   */\n      0x00\n        /* \"#utility.yul\":6314:6402   */\n      mstore\n        /* \"#utility.yul\":6421:6425   */\n      0x22\n        /* \"#utility.yul\":6418:6419   */\n      0x04\n        /* \"#utility.yul\":6411:6426   */\n      mstore\n        /* \"#utility.yul\":6445:6449   */\n      0x24\n        /* \"#utility.yul\":6442:6443   */\n      0x00\n        /* \"#utility.yul\":6435:6450   */\n      revert\n        /* \"#utility.yul\":6462:6782   */\n    tag_98:\n        /* \"#utility.yul\":6506:6512   */\n      0x00\n        /* \"#utility.yul\":6543:6544   */\n      0x02\n        /* \"#utility.yul\":6537:6541   */\n      dup3\n        /* \"#utility.yul\":6533:6545   */\n      div\n        /* \"#utility.yul\":6523:6545   */\n      swap1\n      pop\n        /* \"#utility.yul\":6590:6591   */\n      0x01\n        /* \"#utility.yul\":6584:6588   */\n      dup3\n        /* \"#utility.yul\":6580:6592   */\n      and\n        /* \"#utility.yul\":6611:6629   */\n      dup1\n        /* \"#utility.yul\":6601:6682   */\n      tag_191\n      jumpi\n        /* \"#utility.yul\":6667:6671   */\n      0x7f\n        /* \"#utility.yul\":6659:6665   */\n      dup3\n        /* \"#utility.yul\":6655:6672   */\n      and\n        /* \"#utility.yul\":6645:6672   */\n      swap2\n      pop\n        /* \"#utility.yul\":6601:6682   */\n    tag_191:\n        /* \"#utility.yul\":6729:6731   */\n      0x20\n        /* \"#utility.yul\":6721:6727   */\n      dup3\n        /* \"#utility.yul\":6718:6732   */\n      lt\n        /* \"#utility.yul\":6698:6716   */\n      dup2\n        /* \"#utility.yul\":6695:6733   */\n      sub\n        /* \"#utility.yul\":6692:6776   */\n      tag_192\n      jumpi\n        /* \"#utility.yul\":6748:6766   */\n      tag_193\n      tag_97\n      jump\t// in\n    tag_193:\n        /* \"#utility.yul\":6692:6776   */\n    tag_192:\n        /* \"#utility.yul\":6513:6782   */\n      pop\n        /* \"#utility.yul\":6462:6782   */\n      swap2\n      swap1\n      pop\n      jump\t// out\n        /* \"#utility.yul\":6788:6929   */\n    tag_99:\n        /* \"#utility.yul\":6837:6841   */\n      0x00\n        /* \"#utility.yul\":6860:6863   */\n      dup2\n        /* \"#utility.yul\":6852:6863   */\n      swap1\n      pop\n        /* \"#utility.yul\":6883:6886   */\n      dup2\n        /* \"#utility.yul\":6880:6881   */\n      0x00\n        /* \"#utility.yul\":6873:6887   */\n      mstore\n        /* \"#utility.yul\":6917:6921   */\n      0x20\n        /* \"#utility.yul\":6914:6915   */\n      0x00\n        /* \"#utility.yul\":6904:6922   */\n      keccak256\n        /* \"#utility.yul\":6896:6922   */\n      swap1\n      pop\n        /* \"#utility.yul\":6788:6929   */\n      swap2\n      swap1\n      pop\n      jump\t// out\n        /* \"#utility.yul\":6935:7028   */\n    tag_100:\n        /* \"#utility.yul\":6972:6978   */\n      0x00\n        /* \"#utility.yul\":7019:7021   */\n      0x20\n        /* \"#utility.yul\":7014:7016   */\n      0x1f\n        /* \"#utility.yul\":7007:7012   */\n      dup4\n        /* \"#utility.yul\":7003:7017   */\n      add\n        /* \"#utility.yul\":6999:7022   */\n      div\n        /* \"#utility.yul\":6989:7022   */\n      swap1\n      pop\n        /* \"#utility.yul\":6935:7028   */\n      swap2\n      swap1\n      pop\n      jump\t// out\n        /* \"#utility.yul\":7034:7141   */\n    tag_101:\n        /* \"#utility.yul\":7078:7086   */\n      0x00\n        /* \"#utility.yul\":7128:7133   */\n      dup3\n        /* \"#utility.yul\":7122:7126   */\n      dup3\n        /* \"#utility.yul\":7118:7134   */\n      shl\n        /* \"#utility.yul\":7097:7134   */\n      swap1\n      pop\n        /* \"#utility.yul\":7034:7141   */\n      swap3\n      swap2\n      pop\n      pop\n      jump\t// out\n        /* \"#utility.yul\":7147:7540   */\n    tag_102:\n        /* \"#utility.yul\":7216:7222   */\n      0x00\n        /* \"#utility.yul\":7266:7267   */\n      0x08\n        /* \"#utility.yul\":7254:7264   */\n      dup4\n        /* \"#utility.yul\":7250:7268   */\n      mul\n        /* \"#utility.yul\":7289:7386   */\n      tag_198\n        /* \"#utility.yul\":7319:7385   */\n      0xffffffffffffffffffffffffffffffffffffffffffffffffffffffffffffffff\n        /* \"#utility.yul\":7308:7317   */\n      dup3\n        /* \"#utility.yul\":7289:7386   */\n      tag_101\n      jump\t// in\n    tag_198:\n        /* \"#utility.yul\":7407:7446   */\n      tag_199\n        /* \"#utility.yul\":7437:7445   */\n      dup7\n        /* \"#utility.yul\":7426:7435   */\n      dup4\n        /* \"#utility.yul\":7407:7446   */\n      tag_101\n      jump\t// in\n    tag_199:\n        /* \"#utility.yul\":7395:7446   */\n      swap6\n      pop\n        /* \"#utility.yul\":7479:7483   */\n      dup1\n        /* \"#utility.yul\":7475:7484   */\n      not\n        /* \"#utility.yul\":7468:7473   */\n      dup5\n        /* \"#utility.yul\":7464:7485   */\n      and\n        /* \"#utility.yul\":7455:7485   */\n      swap4\n      pop\n        /* \"#utility.yul\":7528:7532   */\n      dup1\n        /* \"#utility.yul\":7518:7526   */\n      dup7\n        /* \"#utility.yul\":7514:7533   */\n      and\n        /* \"#utility.yul\":7507:7512   */\n      dup5\n        /* \"#utility.yul\":7504:7534   */\n      or\n        /* \"#utility.yul\":7494:7534   */\n      swap3\n      pop\n        /* \"#utility.yul\":7223:7540   */\n      pop\n      pop\n        /* \"#utility.yul\":7147:7540   */\n      swap4\n      swap3\n      pop\n      pop\n      pop\n      jump\t// out\n        /* \"#utility.yul\":7546:7606   */\n    tag_103:\n        /* \"#utility.yul\":7574:7577   */\n      0x00\n        /* \"#utility.yul\":7595:7600   */\n      dup2\n        /* \"#utility.yul\":7588:7600   */\n      swap1\n      pop\n        /* \"#utility.yul\":7546:7606   */\n      swap2\n      swap1\n      pop\n      jump\t// out\n        /* \"#utility.yul\":7612:7754   */\n    tag_104:\n        /* \"#utility.yul\":7662:7671   */\n      0x00\n        /* \"#utility.yul\":7695:7748   */\n      tag_202\n        /* \"#utility.yul\":7713:7747   */\n      tag_203\n        /* \"#utility.yul\":7722:7746   */\n      tag_204\n        /* \"#utility.yul\":7740:7745   */\n      dup5\n        /* \"#utility.yul\":7722:7746   */\n      tag_81\n      jump\t// in\n    tag_204:\n        /* \"#utility.yul\":7713:7747   */\n      tag_103\n      jump\t// in\n    tag_203:\n        /* \"#utility.yul\":7695:7748   */\n      tag_81\n      jump\t// in\n    tag_202:\n        /* \"#utility.yul\":7682:7748   */\n      swap1\n      pop\n        /* \"#utility.yul\":7612:7754   */\n      swap2\n      swap1\n      pop\n      jump\t// out\n        /* \"#utility.yul\":7760:7835   */\n    tag_105:\n        /* \"#utility.yul\":7803:7806   */\n      0x00\n        /* \"#utility.yul\":7824:7829   */\n      dup2\n        /* \"#utility.yul\":7817:7829   */\n      swap1\n      pop\n        /* \"#utility.yul\":7760:7835   */\n      swap2\n      swap1\n      pop\n      jump\t// out\n        /* \"#utility.yul\":7841:8110   */\n    tag_106:\n        /* \"#utility.yul\":7951:7990   */\n      tag_207\n        /* \"#utility.yul\":7982:7989   */\n      dup4\n        /* \"#utility.yul\":7951:7990   */\n      tag_104\n      jump\t// in\n    tag_207:\n        /* \"#utility.yul\":8012:8103   */\n      tag_208\n        /* \"#utility.yul\":8061:8102   */\n      tag_209\n        /* \"#utility.yul\":8085:8101   */\n      dup3\n        /* \"#utility.yul\":8061:8102   */\n      tag_105\n      jump\t// in\n    tag_209:\n        /* \"#utility.yul\":8053:8059   */\n      dup5\n        /* \"#utility.yul\":8046:8050   */\n      dup5\n        /* \"#utility.yul\":8040:8051   */\n      sload\n        /* \"#utility.yul\":8012:8103   */\n      tag_102\n      jump\t// in\n    tag_208:\n        /* \"#utility.yul\":8006:8010   */\n      dup3\n        /* \"#utility.yul\":7999:8104   */\n      sstore\n        /* \"#utility.yul\":7917:8110   */\n      pop\n        /* \"#utility.yul\":7841:8110   */\n      pop\n      pop\n      pop\n      jump\t// out\n        /* \"#utility.yul\":8116:8189   */\n    tag_107:\n        /* \"#utility.yul\":8161:8164   */\n      0x00\n        /* \"#utility.yul\":8116:8189   */\n      swap1\n      jump\t// out\n        /* \"#utility.yul\":8195:8384   */\n    tag_108:\n        /* \"#utility.yul\":8272:8304   */\n      tag_212\n      tag_107\n      jump\t// in\n    tag_212:\n        /* \"#utility.yul\":8313:8378   */\n      tag_213\n        /* \"#utility.yul\":8371:8377   */\n      dup2\n        /* \"#utility.yul\":8363:8369   */\n      dup5\n        /* \"#utility.yul\":8357:8361   */\n      dup5\n        /* \"#utility.yul\":8313:8378   */\n      tag_106\n      jump\t// in\n    tag_213:\n        /* \"#utility.yul\":8248:8384   */\n      pop\n        /* \"#utility.yul\":8195:8384   */\n      pop\n      pop\n      jump\t// out\n        /* \"#utility.yul\":8390:8576   */\n    tag_109:\n        /* \"#utility.yul\":8450:8570   */\n    tag_215:\n        /* \"#utility.yul\":8467:8470   */\n      dup2\n        /* \"#utility.yul\":8460:8465   */\n      dup2\n        /* \"#utility.yul\":8457:8471   */\n      lt\n        /* \"#utility.yul\":8450:8570   */\n      iszero\n      tag_217\n      jumpi\n        /* \"#utility.yul\":8521:8560   */\n      tag_218\n        /* \"#utility.yul\":8558:8559   */\n      0x00\n        /* \"#utility.yul\":8551:8556   */\n      dup3\n        /* \"#utility.yul\":8521:8560   */\n      tag_108\n      jump\t// in\n    tag_218:\n        /* \"#utility.yul\":8494:8495   */\n      0x01\n        /* \"#utility.yul\":8487:8492   */\n      dup2\n        /* \"#utility.yul\":8483:8496   */\n      add\n        /* \"#utility.yul\":8474:8496   */\n      swap1\n      pop\n        /* \"#utility.yul\":8450:8570   */\n      jump(tag_215)\n    tag_217:\n        /* \"#utility.yul\":8390:8576   */\n      pop\n      pop\n      jump\t// out\n        /* \"#utility.yul\":8582:9125   */\n    tag_110:\n        /* \"#utility.yul\":8683:8685   */\n      0x1f\n        /* \"#utility.yul\":8678:8681   */\n      dup3\n        /* \"#utility.yul\":8675:8686   */\n      gt\n        /* \"#utility.yul\":8672:9118   */\n      iszero\n      tag_220\n      jumpi\n        /* \"#utility.yul\":8717:8755   */\n      tag_221\n        /* \"#utility.yul\":8749:8754   */\n      dup2\n        /* \"#utility.yul\":8717:8755   */\n      tag_99\n      jump\t// in\n    tag_221:\n        /* \"#utility.yul\":8801:8830   */\n      tag_222\n        /* \"#utility.yul\":8819:8829   */\n      dup5\n        /* \"#utility.yul\":8801:8830   */\n      tag_100\n      jump\t// in\n    tag_222:\n        /* \"#utility.yul\":8791:8799   */\n      dup2\n        /* \"#utility.yul\":8787:8831   */\n      add\n        /* \"#utility.yul\":8984:8986   */\n      0x20\n        /* \"#utility.yul\":8972:8982   */\n      dup6\n        /* \"#utility.yul\":8969:8987   */\n      lt\n        /* \"#utility.yul\":8966:9015   */\n      iszero\n      tag_223\n      jumpi\n        /* \"#utility.yul\":9005:9013   */\n      dup2\n        /* \"#utility.yul\":8990:9013   */\n      swap1\n      pop\n        /* \"#utility.yul\":8966:9015   */\n    tag_223:\n        /* \"#utility.yul\":9028:9108   */\n      tag_224\n        /* \"#utility.yul\":9084:9106   */\n      tag_225\n        /* \"#utility.yul\":9102:9105   */\n      dup6\n        /* \"#utility.yul\":9084:9106   */\n      tag_100\n      jump\t// in\n    tag_225:\n        /* \"#utility.yul\":9074:9082   */\n      dup4\n        /* \"#utility.yul\":9070:9107   */\n      add\n        /* \"#utility.yul\":9057:9068   */\n      dup3\n        /* \"#utility.yul\":9028:9108   */\n      tag_109\n      jump\t// in\n    tag_224:\n        /* \"#utility.yul\":8687:9118   */\n      pop\n      pop\n        /* \"#utility.yul\":8672:9118   */\n    tag_220:\n        /* \"#utility.yul\":8582:9125   */\n      pop\n      pop\n      pop\n      jump\t// out\n        /* \"#utility.yul\":9131:9248   */\n    tag_111:\n        /* \"#utility.yul\":9185:9193   */\n      0x00\n        /* \"#utility.yul\":9235:9240   */\n      dup3\n        /* \"#utility.yul\":9229:9233   */\n      dup3\n        /* \"#utility.yul\":9225:9241   */\n      shr\n        /* \"#utility.yul\":9204:9241   */\n      swap1\n      pop\n        /* \"#utility.yul\":9131:9248   */\n      swap3\n      swap2\n      pop\n      pop\n      jump\t// out\n        /* \"#utility.yul\":9254:9423   */\n    tag_112:\n        /* \"#utility.yul\":9298:9304   */\n      0x00\n        /* \"#utility.yul\":9331:9382   */\n      tag_228\n        /* \"#utility.yul\":9379:9380   */\n      0x00\n        /* \"#utility.yul\":9375:9381   */\n      not\n        /* \"#utility.yul\":9367:9372   */\n      dup5\n        /* \"#utility.yul\":9364:9365   */\n      0x08\n        /* \"#utility.yul\":9360:9373   */\n      mul\n        /* \"#utility.yul\":9331:9382   */\n      tag_111\n      jump\t// in\n    tag_228:\n        /* \"#utility.yul\":9327:9383   */\n      not\n        /* \"#utility.yul\":9412:9416   */\n      dup1\n        /* \"#utility.yul\":9406:9410   */\n      dup4\n        /* \"#utility.yul\":9402:9417   */\n      and\n        /* \"#utility.yul\":9392:9417   */\n      swap2\n      pop\n        /* \"#utility.yul\":9305:9423   */\n      pop\n        /* \"#utility.yul\":9254:9423   */\n      swap3\n      swap2\n      pop\n      pop\n      jump\t// out\n        /* \"#utility.yul\":9428:9723   */\n    tag_113:\n        /* \"#utility.yul\":9504:9508   */\n      0x00\n        /* \"#utility.yul\":9650:9679   */\n      tag_230\n        /* \"#utility.yul\":9675:9678   */\n      dup4\n        /* \"#utility.yul\":9669:9673   */\n      dup4\n        /* \"#utility.yul\":9650:9679   */\n      tag_112\n      jump\t// in\n    tag_230:\n        /* \"#utility.yul\":9642:9679   */\n      swap2\n      pop\n        /* \"#utility.yul\":9712:9715   */\n      dup3\n        /* \"#utility.yul\":9709:9710   */\n      0x02\n        /* \"#utility.yul\":9705:9716   */\n      mul\n        /* \"#utility.yul\":9699:9703   */\n      dup3\n        /* \"#utility.yul\":9696:9717   */\n      or\n        /* \"#utility.yul\":9688:9717   */\n      swap1\n      pop\n        /* \"#utility.yul\":9428:9723   */\n      swap3\n      swap2\n      pop\n      pop\n      jump\t// out\n        /* \"#utility.yul\":9728:11123   */\n    tag_64:\n        /* \"#utility.yul\":9845:9882   */\n      tag_232\n        /* \"#utility.yul\":9878:9881   */\n      dup3\n        /* \"#utility.yul\":9845:9882   */\n      tag_96\n      jump\t// in\n    tag_232:\n        /* \"#utility.yul\":9947:9965   */\n      0xffffffffffffffff\n        /* \"#utility.yul\":9939:9945   */\n      dup2\n        /* \"#utility.yul\":9936:9966   */\n      gt\n        /* \"#utility.yul\":9933:9989   */\n      iszero\n      tag_233\n      jumpi\n        /* \"#utility.yul\":9969:9987   */\n      tag_234\n      tag_88\n      jump\t// in\n    tag_234:\n        /* \"#utility.yul\":9933:9989   */\n    tag_233:\n        /* \"#utility.yul\":10013:10051   */\n      tag_235\n        /* \"#utility.yul\":10045:10049   */\n      dup3\n        /* \"#utility.yul\":10039:10050   */\n      sload\n        /* \"#utility.yul\":10013:10051   */\n      tag_98\n      jump\t// in\n    tag_235:\n        /* \"#utility.yul\":10098:10165   */\n      tag_236\n        /* \"#utility.yul\":10158:10164   */\n      dup3\n        /* \"#utility.yul\":10150:10156   */\n      dup3\n        /* \"#utility.yul\":10144:10148   */\n      dup6\n        /* \"#utility.yul\":10098:10165   */\n      tag_110\n      jump\t// in\n    tag_236:\n        /* \"#utility.yul\":10192:10193   */\n      0x00\n        /* \"#utility.yul\":10216:10220   */\n      0x20\n        /* \"#utility.yul\":10203:10220   */\n      swap1\n      pop\n        /* \"#utility.yul\":10248:10250   */\n      0x1f\n        /* \"#utility.yul\":10240:10246   */\n      dup4\n        /* \"#utility.yul\":10237:10251   */\n      gt\n        /* \"#utility.yul\":10265:10266   */\n      0x01\n        /* \"#utility.yul\":10260:10878   */\n      dup2\n      eq\n      tag_238\n      jumpi\n        /* \"#utility.yul\":10922:10923   */\n      0x00\n        /* \"#utility.yul\":10939:10945   */\n      dup5\n        /* \"#utility.yul\":10936:11013   */\n      iszero\n      tag_239\n      jumpi\n        /* \"#utility.yul\":10988:10997   */\n      dup3\n        /* \"#utility.yul\":10983:10986   */\n      dup8\n        /* \"#utility.yul\":10979:10998   */\n      add\n        /* \"#utility.yul\":10973:10999   */\n      mload\n        /* \"#utility.yul\":10964:10999   */\n      swap1\n      pop\n        /* \"#utility.yul\":10936:11013   */\n    tag_239:\n        /* \"#utility.yul\":11039:11106   */\n      tag_240\n        /* \"#utility.yul\":11099:11105   */\n      dup6\n        /* \"#utility.yul\":11092:11097   */\n      dup3\n        /* \"#utility.yul\":11039:11106   */\n      tag_113\n      jump\t// in\n    tag_240:\n        /* \"#utility.yul\":11033:11037   */\n      dup7\n        /* \"#utility.yul\":11026:11107   */\n      sstore\n        /* \"#utility.yul\":10895:11117   */\n      pop\n        /* \"#utility.yul\":10230:11117   */\n      jump(tag_237)\n        /* \"#utility.yul\":10260:10878   */\n    tag_238:\n        /* \"#utility.yul\":10312:10316   */\n      0x1f\n        /* \"#utility.yul\":10308:10317   */\n      not\n        /* \"#utility.yul\":10300:10306   */\n      dup5\n        /* \"#utility.yul\":10296:10318   */\n      and\n        /* \"#utility.yul\":10346:10383   */\n      tag_241\n        /* \"#utility.yul\":10378:10382   */\n      dup7\n        /* \"#utility.yul\":10346:10383   */\n      tag_99\n      jump\t// in\n    tag_241:\n        /* \"#utility.yul\":10405:10406   */\n      0x00\n        /* \"#utility.yul\":10419:10627   */\n    tag_242:\n        /* \"#utility.yul\":10433:10440   */\n      dup3\n        /* \"#utility.yul\":10430:10431   */\n      dup2\n        /* \"#utility.yul\":10427:10441   */\n      lt\n        /* \"#utility.yul\":10419:10627   */\n      iszero\n      tag_244\n      jumpi\n        /* \"#utility.yul\":10512:10521   */\n      dup5\n        /* \"#utility.yul\":10507:10510   */\n      dup10\n        /* \"#utility.yul\":10503:10522   */\n      add\n        /* \"#utility.yul\":10497:10523   */\n      mload\n        /* \"#utility.yul\":10489:10495   */\n      dup3\n        /* \"#utility.yul\":10482:10524   */\n      sstore\n        /* \"#utility.yul\":10563:10564   */\n      0x01\n        /* \"#utility.yul\":10555:10561   */\n      dup3\n        /* \"#utility.yul\":10551:10565   */\n      add\n        /* \"#utility.yul\":10541:10565   */\n      swap2\n      pop\n        /* \"#utility.yul\":10610:10612   */\n      0x20\n        /* \"#utility.yul\":10599:10608   */\n      dup6\n        /* \"#utility.yul\":10595:10613   */\n      add\n        /* \"#utility.yul\":10582:10613   */\n      swap5\n      pop\n        /* \"#utility.yul\":10456:10460   */\n      0x20\n        /* \"#utility.yul\":10453:10454   */\n      dup2\n        /* \"#utility.yul\":10449:10461   */\n      add\n        /* \"#utility.yul\":10444:10461   */\n      swap1\n      pop\n        /* \"#utility.yul\":10419:10627   */\n      jump(tag_242)\n    tag_244:\n        /* \"#utility.yul\":10655:10661   */\n      dup7\n        /* \"#utility.yul\":10646:10653   */\n      dup4\n        /* \"#utility.yul\":10643:10662   */\n      lt\n        /* \"#utility.yul\":10640:10819   */\n      iszero\n      tag_245\n      jumpi\n        /* \"#utility.yul\":10713:10722   */\n      dup5\n        /* \"#utility.yul\":10708:10711   */\n      dup10\n        /* \"#utility.yul\":10704:10723   */\n      add\n        /* \"#utility.yul\":10698:10724   */\n      mload\n        /* \"#utility.yul\":10756:10804   */\n      tag_246\n        /* \"#utility.yul\":10798:10802   */\n      0x1f\n        /* \"#utility.yul\":10790:10796   */\n      dup10\n        /* \"#utility.yul\":10786:10803   */\n      and\n        /* \"#utility.yul\":10775:10784   */\n      dup3\n        /* \"#utility.yul\":10756:10804   */\n      tag_112\n      jump\t// in\n    tag_246:\n        /* \"#utility.yul\":10748:10754   */\n      dup4\n        /* \"#utility.yul\":10741:10805   */\n      sstore\n        /* \"#utility.yul\":10663:10819   */\n      pop\n        /* \"#utility.yul\":10640:10819   */\n    tag_245:\n        /* \"#utility.yul\":10865:10866   */\n      0x01\n        /* \"#utility.yul\":10861:10862   */\n      0x02\n        /* \"#utility.yul\":10853:10859   */\n      dup9\n        /* \"#utility.yul\":10849:10863   */\n      mul\n        /* \"#utility.yul\":10845:10867   */\n      add\n        /* \"#utility.yul\":10839:10843   */\n      dup9\n        /* \"#utility.yul\":10832:10868   */\n      sstore\n        /* \"#utility.yul\":10267:10878   */\n      pop\n      pop\n      pop\n        /* \"#utility.yul\":10230:11117   */\n    tag_237:\n      pop\n        /* \"#utility.yul\":9820:11123   */\n      pop\n      pop\n      pop\n        /* \"#utility.yul\":9728:11123   */\n      pop\n      pop\n      jump\t// out\n        /* \"#utility.yul\":11129:11539   */\n    tag_71:\n        /* \"#utility.yul\":11169:11176   */\n      0x00\n        /* \"#utility.yul\":11192:11212   */\n      tag_248\n        /* \"#utility.yul\":11210:11211   */\n      dup3\n        /* \"#utility.yul\":11192:11212   */\n      tag_81\n      jump\t// in\n    tag_248:\n        /* \"#utility.yul\":11187:11212   */\n      swap2\n      pop\n        /* \"#utility.yul\":11226:11246   */\n      tag_249\n        /* \"#utility.yul\":11244:11245   */\n      dup4\n        /* \"#utility.yul\":11226:11246   */\n      tag_81\n      jump\t// in\n    tag_249:\n        /* \"#utility.yul\":11221:11246   */\n      swap3\n      pop\n        /* \"#utility.yul\":11281:11282   */\n      dup3\n        /* \"#utility.yul\":11278:11279   */\n      dup3\n        /* \"#utility.yul\":11274:11283   */\n      mul\n        /* \"#utility.yul\":11303:11333   */\n      tag_250\n        /* \"#utility.yul\":11321:11332   */\n      dup2\n        /* \"#utility.yul\":11303:11333   */\n      tag_81\n      jump\t// in\n    tag_250:\n        /* \"#utility.yul\":11292:11333   */\n      swap2\n      pop\n        /* \"#utility.yul\":11482:11483   */\n      dup3\n        /* \"#utility.yul\":11473:11480   */\n      dup3\n        /* \"#utility.yul\":11469:11484   */\n      div\n        /* \"#utility.yul\":11466:11467   */\n      dup5\n        /* \"#utility.yul\":11463:11485   */\n      eq\n        /* \"#utility.yul\":11443:11444   */\n      dup4\n        /* \"#utility.yul\":11436:11445   */\n      iszero\n        /* \"#utility.yul\":11416:11499   */\n      or\n        /* \"#utility.yul\":11393:11532   */\n      tag_251\n      jumpi\n        /* \"#utility.yul\":11512:11530   */\n      tag_252\n      tag_95\n      jump\t// in\n    tag_252:\n        /* \"#utility.yul\":11393:11532   */\n    tag_251:\n        /* \"#utility.yul\":11177:11539   */\n      pop\n        /* \"#utility.yul\":11129:11539   */\n      swap3\n      swap2\n      pop\n      pop\n      jump\t// out\n\n    auxdata: 0xa2646970667358221220827ea553d08472b9477dadf613c80d4d4ae1a20c11912c7bd0c3801d20ccb7b564736f6c63430008170033\n}\n",
				"bytecode": {
					"linkReferences": {},
					"object": "608060405234801561000f575f80fd5b506109be8061001d5f395ff3fe608060405234801561000f575f80fd5b5060043610610086575f3560e01c80633c544314116100595780633c544314146100fc5780636b19e8c714610118578063d99d5f2514610134578063fc5636581461016457610086565b8063067cda811461008a5780632705f37f146100a65780632bfe1805146100b05780632cf10140146100cc575b5f80fd5b6100a4600480360381019061009f9190610323565b610194565b005b6100ae6101c2565b005b6100ca60048036038101906100c59190610323565b6101e9565b005b6100e660048036038101906100e1919061034e565b610212565b6040516100f391906103ad565b60405180910390f35b61011660048036038101906101119190610502565b610233565b005b610132600480360381019061012d9190610549565b610268565b005b61014e6004803603810190610149919061034e565b61028d565b60405161015b91906103ad565b60405180910390f35b61017e60048036038101906101799190610323565b6102ae565b60405161018b91906103ad565b60405180910390f35b60036001826101a391906105b4565b815481106101b4576101b36105e7565b5b905f5260205f20015f905550565b60038054806101d4576101d3610614565b5b600190038181905f5260205f20015f90559055565b600381908060018154018082558091505060019003905f5260205f20015f909190919091505550565b5f8183856102209190610641565b61022a9190610641565b90509392505050565b600481908060018154018082558091505060019003905f5260205f20015f9091909190915090816102649190610878565b5050565b806003838154811061027d5761027c6105e7565b5b905f5260205f2001819055505050565b5f81838561029b9190610947565b6102a59190610947565b90509392505050565b5f60036001836102be91906105b4565b815481106102cf576102ce6105e7565b5b905f5260205f2001549050919050565b5f604051905090565b5f80fd5b5f80fd5b5f819050919050565b610302816102f0565b811461030c575f80fd5b50565b5f8135905061031d816102f9565b92915050565b5f60208284031215610338576103376102e8565b5b5f6103458482850161030f565b91505092915050565b5f805f60608486031215610365576103646102e8565b5b5f6103728682870161030f565b93505060206103838682870161030f565b92505060406103948682870161030f565b9150509250925092565b6103a7816102f0565b82525050565b5f6020820190506103c05f83018461039e565b92915050565b5f80fd5b5f80fd5b5f601f19601f8301169050919050565b7f4e487b71000000000000000000000000000000000000000000000000000000005f52604160045260245ffd5b610414826103ce565b810181811067ffffffffffffffff82111715610433576104326103de565b5b80604052505050565b5f6104456102df565b9050610451828261040b565b919050565b5f67ffffffffffffffff8211156104705761046f6103de565b5b610479826103ce565b9050602081019050919050565b828183375f83830152505050565b5f6104a66104a184610456565b61043c565b9050828152602081018484840111156104c2576104c16103ca565b5b6104cd848285610486565b509392505050565b5f82601f8301126104e9576104e86103c6565b5b81356104f9848260208601610494565b91505092915050565b5f60208284031215610517576105166102e8565b5b5f82013567ffffffffffffffff811115610534576105336102ec565b5b610540848285016104d5565b91505092915050565b5f806040838503121561055f5761055e6102e8565b5b5f61056c8582860161030f565b925050602061057d8582860161030f565b9150509250929050565b7f4e487b71000000000000000000000000000000000000000000000000000000005f52601160045260245ffd5b5f6105be826102f0565b91506105c9836102f0565b92508282039050818111156105e1576105e0610587565b5b92915050565b7f4e487b71000000000000000000000000000000000000000000000000000000005f52603260045260245ffd5b7f4e487b71000000000000000000000000000000000000000000000000000000005f52603160045260245ffd5b5f61064b826102f0565b9150610656836102f0565b925082820190508082111561066e5761066d610587565b5b92915050565b5f81519050919050565b7f4e487b71000000000000000000000000000000000000000000000000000000005f52602260045260245ffd5b5f60028204905060018216806106c257607f821691505b6020821081036106d5576106d461067e565b5b50919050565b5f819050815f5260205f209050919050565b5f6020601f8301049050919050565b5f82821b905092915050565b5f600883026107377fffffffffffffffffffffffffffffffffffffffffffffffffffffffffffffffff826106fc565b61074186836106fc565b95508019841693508086168417925050509392505050565b5f819050919050565b5f61077c610777610772846102f0565b610759565b6102f0565b9050919050565b5f819050919050565b61079583610762565b6107a96107a182610783565b848454610708565b825550505050565b5f90565b6107bd6107b1565b6107c881848461078c565b505050565b5b818110156107eb576107e05f826107b5565b6001810190506107ce565b5050565b601f82111561083057610801816106db565b61080a846106ed565b81016020851015610819578190505b61082d610825856106ed565b8301826107cd565b50505b505050565b5f82821c905092915050565b5f6108505f1984600802610835565b1980831691505092915050565b5f6108688383610841565b9150826002028217905092915050565b61088182610674565b67ffffffffffffffff81111561089a576108996103de565b5b6108a482546106ab565b6108af8282856107ef565b5f60209050601f8311600181146108e0575f84156108ce578287015190505b6108d8858261085d565b86555061093f565b601f1984166108ee866106db565b5f5b82811015610915578489015182556001820191506020850194506020810190506108f0565b86831015610932578489015161092e601f891682610841565b8355505b6001600288020188555050505b505050505050565b5f610951826102f0565b915061095c836102f0565b925082820261096a816102f0565b9150828204841483151761098157610980610587565b5b509291505056fea2646970667358221220827ea553d08472b9477dadf613c80d4d4ae1a20c11912c7bd0c3801d20ccb7b564736f6c63430008170033",
					"opcodes": "PUSH1 0x80 PUSH1 0x40 MSTORE CALLVALUE DUP1 ISZERO PUSH2 0xF JUMPI PUSH0 DUP1 REVERT JUMPDEST POP PUSH2 0x9BE DUP1 PUSH2 0x1D PUSH0 CODECOPY PUSH0 RETURN INVALID PUSH1 0x80 PUSH1 0x40 MSTORE CALLVALUE DUP1 ISZERO PUSH2 0xF JUMPI PUSH0 DUP1 REVERT JUMPDEST POP PUSH1 0x4 CALLDATASIZE LT PUSH2 0x86 JUMPI PUSH0 CALLDATALOAD PUSH1 0xE0 SHR DUP1 PUSH4 0x3C544314 GT PUSH2 0x59 JUMPI DUP1 PUSH4 0x3C544314 EQ PUSH2 0xFC JUMPI DUP1 PUSH4 0x6B19E8C7 EQ PUSH2 0x118 JUMPI DUP1 PUSH4 0xD99D5F25 EQ PUSH2 0x134 JUMPI DUP1 PUSH4 0xFC563658 EQ PUSH2 0x164 JUMPI PUSH2 0x86 JUMP JUMPDEST DUP1 PUSH4 0x67CDA81 EQ PUSH2 0x8A JUMPI DUP1 PUSH4 0x2705F37F EQ PUSH2 0xA6 JUMPI DUP1 PUSH4 0x2BFE1805 EQ PUSH2 0xB0 JUMPI DUP1 PUSH4 0x2CF10140 EQ PUSH2 0xCC JUMPI JUMPDEST PUSH0 DUP1 REVERT JUMPDEST PUSH2 0xA4 PUSH1 0x4 DUP1 CALLDATASIZE SUB DUP2 ADD SWAP1 PUSH2 0x9F SWAP2 SWAP1 PUSH2 0x323 JUMP JUMPDEST PUSH2 0x194 JUMP JUMPDEST STOP JUMPDEST PUSH2 0xAE PUSH2 0x1C2 JUMP JUMPDEST STOP JUMPDEST PUSH2 0xCA PUSH1 0x4 DUP1 CALLDATASIZE SUB DUP2 ADD SWAP1 PUSH2 0xC5 SWAP2 SWAP1 PUSH2 0x323 JUMP JUMPDEST PUSH2 0x1E9 JUMP JUMPDEST STOP JUMPDEST PUSH2 0xE6 PUSH1 0x4 DUP1 CALLDATASIZE SUB DUP2 ADD SWAP1 PUSH2 0xE1 SWAP2 SWAP1 PUSH2 0x34E JUMP JUMPDEST PUSH2 0x212 JUMP JUMPDEST PUSH1 0x40 MLOAD PUSH2 0xF3 SWAP2 SWAP1 PUSH2 0x3AD JUMP JUMPDEST PUSH1 0x40 MLOAD DUP1 SWAP2 SUB SWAP1 RETURN JUMPDEST PUSH2 0x116 PUSH1 0x4 DUP1 CALLDATASIZE SUB DUP2 ADD SWAP1 PUSH2 0x111 SWAP2 SWAP1 PUSH2 0x502 JUMP JUMPDEST PUSH2 0x233 JUMP JUMPDEST STOP JUMPDEST PUSH2 0x132 PUSH1 0x4 DUP1 CALLDATASIZE SUB DUP2 ADD SWAP1 PUSH2 0x12D SWAP2 SWAP1 PUSH2 0x549 JUMP JUMPDEST PUSH2 0x268 JUMP JUMPDEST STOP JUMPDEST PUSH2 0x14E PUSH1 0x4 DUP1 CALLDATASIZE SUB DUP2 ADD SWAP1 PUSH2 0x149 SWAP2 SWAP1 PUSH2 0x34E JUMP JUMPDEST PUSH2 0x28D JUMP JUMPDEST PUSH1 0x40 MLOAD PUSH2 0x15B SWAP2 SWAP1 PUSH2 0x3AD JUMP JUMPDEST PUSH1 0x40 MLOAD DUP1 SWAP2 SUB SWAP1 RETURN JUMPDEST PUSH2 0x17E PUSH1 0x4 DUP1 CALLDATASIZE SUB DUP2 ADD SWAP1 PUSH2 0x179 SWAP2 SWAP1 PUSH2 0x323 JUMP JUMPDEST PUSH2 0x2AE JUMP JUMPDEST PUSH1 0x40 MLOAD PUSH2 0x18B SWAP2 SWAP1 PUSH2 0x3AD JUMP JUMPDEST PUSH1 0x40 MLOAD DUP1 SWAP2 SUB SWAP1 RETURN JUMPDEST PUSH1 0x3 PUSH1 0x1 DUP3 PUSH2 0x1A3 SWAP2 SWAP1 PUSH2 0x5B4 JUMP JUMPDEST DUP2 SLOAD DUP2 LT PUSH2 0x1B4 JUMPI PUSH2 0x1B3 PUSH2 0x5E7 JUMP JUMPDEST JUMPDEST SWAP1 PUSH0 MSTORE PUSH1 0x20 PUSH0 KECCAK256 ADD PUSH0 SWAP1 SSTORE POP JUMP JUMPDEST PUSH1 0x3 DUP1 SLOAD DUP1 PUSH2 0x1D4 JUMPI PUSH2 0x1D3 PUSH2 0x614 JUMP JUMPDEST JUMPDEST PUSH1 0x1 SWAP1 SUB DUP2 DUP2 SWAP1 PUSH0 MSTORE PUSH1 0x20 PUSH0 KECCAK256 ADD PUSH0 SWAP1 SSTORE SWAP1 SSTORE JUMP JUMPDEST PUSH1 0x3 DUP2 SWAP1 DUP1 PUSH1 0x1 DUP2 SLOAD ADD DUP1 DUP3 SSTORE DUP1 SWAP2 POP POP PUSH1 0x1 SWAP1 SUB SWAP1 PUSH0 MSTORE PUSH1 0x20 PUSH0 KECCAK256 ADD PUSH0 SWAP1 SWAP2 SWAP1 SWAP2 SWAP1 SWAP2 POP SSTORE POP JUMP JUMPDEST PUSH0 DUP2 DUP4 DUP6 PUSH2 0x220 SWAP2 SWAP1 PUSH2 0x641 JUMP JUMPDEST PUSH2 0x22A SWAP2 SWAP1 PUSH2 0x641 JUMP JUMPDEST SWAP1 POP SWAP4 SWAP3 POP POP POP JUMP JUMPDEST PUSH1 0x4 DUP2 SWAP1 DUP1 PUSH1 0x1 DUP2 SLOAD ADD DUP1 DUP3 SSTORE DUP1 SWAP2 POP POP PUSH1 0x1 SWAP1 SUB SWAP1 PUSH0 MSTORE PUSH1 0x20 PUSH0 KECCAK256 ADD PUSH0 SWAP1 SWAP2 SWAP1 SWAP2 SWAP1 SWAP2 POP SWAP1 DUP2 PUSH2 0x264 SWAP2 SWAP1 PUSH2 0x878 JUMP JUMPDEST POP POP JUMP JUMPDEST DUP1 PUSH1 0x3 DUP4 DUP2 SLOAD DUP2 LT PUSH2 0x27D JUMPI PUSH2 0x27C PUSH2 0x5E7 JUMP JUMPDEST JUMPDEST SWAP1 PUSH0 MSTORE PUSH1 0x20 PUSH0 KECCAK256 ADD DUP2 SWAP1 SSTORE POP POP POP JUMP JUMPDEST PUSH0 DUP2 DUP4 DUP6 PUSH2 0x29B SWAP2 SWAP1 PUSH2 0x947 JUMP JUMPDEST PUSH2 0x2A5 SWAP2 SWAP1 PUSH2 0x947 JUMP JUMPDEST SWAP1 POP SWAP4 SWAP3 POP POP POP JUMP JUMPDEST PUSH0 PUSH1 0x3 PUSH1 0x1 DUP4 PUSH2 0x2BE SWAP2 SWAP1 PUSH2 0x5B4 JUMP JUMPDEST DUP2 SLOAD DUP2 LT PUSH2 0x2CF JUMPI PUSH2 0x2CE PUSH2 0x5E7 JUMP JUMPDEST JUMPDEST SWAP1 PUSH0 MSTORE PUSH1 0x20 PUSH0 KECCAK256 ADD SLOAD SWAP1 POP SWAP2 SWAP1 POP JUMP JUMPDEST PUSH0 PUSH1 0x40 MLOAD SWAP1 POP SWAP1 JUMP JUMPDEST PUSH0 DUP1 REVERT JUMPDEST PUSH0 DUP1 REVERT JUMPDEST PUSH0 DUP2 SWAP1 POP SWAP2 SWAP1 POP JUMP JUMPDEST PUSH2 0x302 DUP2 PUSH2 0x2F0 JUMP JUMPDEST DUP2 EQ PUSH2 0x30C JUMPI PUSH0 DUP1 REVERT JUMPDEST POP JUMP JUMPDEST PUSH0 DUP2 CALLDATALOAD SWAP1 POP PUSH2 0x31D DUP2 PUSH2 0x2F9 JUMP JUMPDEST SWAP3 SWAP2 POP POP JUMP JUMPDEST PUSH0 PUSH1 0x20 DUP3 DUP5 SUB SLT ISZERO PUSH2 0x338 JUMPI PUSH2 0x337 PUSH2 0x2E8 JUMP JUMPDEST JUMPDEST PUSH0 PUSH2 0x345 DUP5 DUP3 DUP6 ADD PUSH2 0x30F JUMP JUMPDEST SWAP2 POP POP SWAP3 SWAP2 POP POP JUMP JUMPDEST PUSH0 DUP1 PUSH0 PUSH1 0x60 DUP5 DUP7 SUB SLT ISZERO PUSH2 0x365 JUMPI PUSH2 0x364 PUSH2 0x2E8 JUMP JUMPDEST JUMPDEST PUSH0 PUSH2 0x372 DUP7 DUP3 DUP8 ADD PUSH2 0x30F JUMP JUMPDEST SWAP4 POP POP PUSH1 0x20 PUSH2 0x383 DUP7 DUP3 DUP8 ADD PUSH2 0x30F JUMP JUMPDEST SWAP3 POP POP PUSH1 0x40 PUSH2 0x394 DUP7 DUP3 DUP8 ADD PUSH2 0x30F JUMP JUMPDEST SWAP2 POP POP SWAP3 POP SWAP3 POP SWAP3 JUMP JUMPDEST PUSH2 0x3A7 DUP2 PUSH2 0x2F0 JUMP JUMPDEST DUP3 MSTORE POP POP JUMP JUMPDEST PUSH0 PUSH1 0x20 DUP3 ADD SWAP1 POP PUSH2 0x3C0 PUSH0 DUP4 ADD DUP5 PUSH2 0x39E JUMP JUMPDEST SWAP3 SWAP2 POP POP JUMP JUMPDEST PUSH0 DUP1 REVERT JUMPDEST PUSH0 DUP1 REVERT JUMPDEST PUSH0 PUSH1 0x1F NOT PUSH1 0x1F DUP4 ADD AND SWAP1 POP SWAP2 SWAP1 POP JUMP JUMPDEST PUSH32 0x4E487B7100000000000000000000000000000000000000000000000000000000 PUSH0 MSTORE PUSH1 0x41 PUSH1 0x4 MSTORE PUSH1 0x24 PUSH0 REVERT JUMPDEST PUSH2 0x414 DUP3 PUSH2 0x3CE JUMP JUMPDEST DUP2 ADD DUP2 DUP2 LT PUSH8 0xFFFFFFFFFFFFFFFF DUP3 GT OR ISZERO PUSH2 0x433 JUMPI PUSH2 0x432 PUSH2 0x3DE JUMP JUMPDEST JUMPDEST DUP1 PUSH1 0x40 MSTORE POP POP POP JUMP JUMPDEST PUSH0 PUSH2 0x445 PUSH2 0x2DF JUMP JUMPDEST SWAP1 POP PUSH2 0x451 DUP3 DUP3 PUSH2 0x40B JUMP JUMPDEST SWAP2 SWAP1 POP JUMP JUMPDEST PUSH0 PUSH8 0xFFFFFFFFFFFFFFFF DUP3 GT ISZERO PUSH2 0x470 JUMPI PUSH2 0x46F PUSH2 0x3DE JUMP JUMPDEST JUMPDEST PUSH2 0x479 DUP3 PUSH2 0x3CE JUMP JUMPDEST SWAP1 POP PUSH1 0x20 DUP2 ADD SWAP1 POP SWAP2 SWAP1 POP JUMP JUMPDEST DUP3 DUP2 DUP4 CALLDATACOPY PUSH0 DUP4 DUP4 ADD MSTORE POP POP POP JUMP JUMPDEST PUSH0 PUSH2 0x4A6 PUSH2 0x4A1 DUP5 PUSH2 0x456 JUMP JUMPDEST PUSH2 0x43C JUMP JUMPDEST SWAP1 POP DUP3 DUP2 MSTORE PUSH1 0x20 DUP2 ADD DUP5 DUP5 DUP5 ADD GT ISZERO PUSH2 0x4C2 JUMPI PUSH2 0x4C1 PUSH2 0x3CA JUMP JUMPDEST JUMPDEST PUSH2 0x4CD DUP5 DUP3 DUP6 PUSH2 0x486 JUMP JUMPDEST POP SWAP4 SWAP3 POP POP POP JUMP JUMPDEST PUSH0 DUP3 PUSH1 0x1F DUP4 ADD SLT PUSH2 0x4E9 JUMPI PUSH2 0x4E8 PUSH2 0x3C6 JUMP JUMPDEST JUMPDEST DUP2 CALLDATALOAD PUSH2 0x4F9 DUP5 DUP3 PUSH1 0x20 DUP7 ADD PUSH2 0x494 JUMP JUMPDEST SWAP2 POP POP SWAP3 SWAP2 POP POP JUMP JUMPDEST PUSH0 PUSH1 0x20 DUP3 DUP5 SUB SLT ISZERO PUSH2 0x517 JUMPI PUSH2 0x516 PUSH2 0x2E8 JUMP JUMPDEST JUMPDEST PUSH0 DUP3 ADD CALLDATALOAD PUSH8 0xFFFFFFFFFFFFFFFF DUP2 GT ISZERO PUSH2 0x534 JUMPI PUSH2 0x533 PUSH2 0x2EC JUMP JUMPDEST JUMPDEST PUSH2 0x540 DUP5 DUP3 DUP6 ADD PUSH2 0x4D5 JUMP JUMPDEST SWAP2 POP POP SWAP3 SWAP2 POP POP JUMP JUMPDEST PUSH0 DUP1 PUSH1 0x40 DUP4 DUP6 SUB SLT ISZERO PUSH2 0x55F JUMPI PUSH2 0x55E PUSH2 0x2E8 JUMP JUMPDEST JUMPDEST PUSH0 PUSH2 0x56C DUP6 DUP3 DUP7 ADD PUSH2 0x30F JUMP JUMPDEST SWAP3 POP POP PUSH1 0x20 PUSH2 0x57D DUP6 DUP3 DUP7 ADD PUSH2 0x30F JUMP JUMPDEST SWAP2 POP POP SWAP3 POP SWAP3 SWAP1 POP JUMP JUMPDEST PUSH32 0x4E487B7100000000000000000000000000000000000000000000000000000000 PUSH0 MSTORE PUSH1 0x11 PUSH1 0x4 MSTORE PUSH1 0x24 PUSH0 REVERT JUMPDEST PUSH0 PUSH2 0x5BE DUP3 PUSH2 0x2F0 JUMP JUMPDEST SWAP2 POP PUSH2 0x5C9 DUP4 PUSH2 0x2F0 JUMP JUMPDEST SWAP3 POP DUP3 DUP3 SUB SWAP1 POP DUP2 DUP2 GT ISZERO PUSH2 0x5E1 JUMPI PUSH2 0x5E0 PUSH2 0x587 JUMP JUMPDEST JUMPDEST SWAP3 SWAP2 POP POP JUMP JUMPDEST PUSH32 0x4E487B7100000000000000000000000000000000000000000000000000000000 PUSH0 MSTORE PUSH1 0x32 PUSH1 0x4 MSTORE PUSH1 0x24 PUSH0 REVERT JUMPDEST PUSH32 0x4E487B7100000000000000000000000000000000000000000000000000000000 PUSH0 MSTORE PUSH1 0x31 PUSH1 0x4 MSTORE PUSH1 0x24 PUSH0 REVERT JUMPDEST PUSH0 PUSH2 0x64B DUP3 PUSH2 0x2F0 JUMP JUMPDEST SWAP2 POP PUSH2 0x656 DUP4 PUSH2 0x2F0 JUMP JUMPDEST SWAP3 POP DUP3 DUP3 ADD SWAP1 POP DUP1 DUP3 GT ISZERO PUSH2 0x66E JUMPI PUSH2 0x66D PUSH2 0x587 JUMP JUMPDEST JUMPDEST SWAP3 SWAP2 POP POP JUMP JUMPDEST PUSH0 DUP2 MLOAD SWAP1 POP SWAP2 SWAP1 POP JUMP JUMPDEST PUSH32 0x4E487B7100000000000000000000000000000000000000000000000000000000 PUSH0 MSTORE PUSH1 0x22 PUSH1 0x4 MSTORE PUSH1 0x24 PUSH0 REVERT JUMPDEST PUSH0 PUSH1 0x2 DUP3 DIV SWAP1 POP PUSH1 0x1 DUP3 AND DUP1 PUSH2 0x6C2 JUMPI PUSH1 0x7F DUP3 AND SWAP2 POP JUMPDEST PUSH1 0x20 DUP3 LT DUP2 SUB PUSH2 0x6D5 JUMPI PUSH2 0x6D4 PUSH2 0x67E JUMP JUMPDEST JUMPDEST POP SWAP2 SWAP1 POP JUMP JUMPDEST PUSH0 DUP2 SWAP1 POP DUP2 PUSH0 MSTORE PUSH1 0x20 PUSH0 KECCAK256 SWAP1 POP SWAP2 SWAP1 POP JUMP JUMPDEST PUSH0 PUSH1 0x20 PUSH1 0x1F DUP4 ADD DIV SWAP1 POP SWAP2 SWAP1 POP JUMP JUMPDEST PUSH0 DUP3 DUP3 SHL SWAP1 POP SWAP3 SWAP2 POP POP JUMP JUMPDEST PUSH0 PUSH1 0x8 DUP4 MUL PUSH2 0x737 PUSH32 0xFFFFFFFFFFFFFFFFFFFFFFFFFFFFFFFFFFFFFFFFFFFFFFFFFFFFFFFFFFFFFFFF DUP3 PUSH2 0x6FC JUMP JUMPDEST PUSH2 0x741 DUP7 DUP4 PUSH2 0x6FC JUMP JUMPDEST SWAP6 POP DUP1 NOT DUP5 AND SWAP4 POP DUP1 DUP7 AND DUP5 OR SWAP3 POP POP POP SWAP4 SWAP3 POP POP POP JUMP JUMPDEST PUSH0 DUP2 SWAP1 POP SWAP2 SWAP1 POP JUMP JUMPDEST PUSH0 PUSH2 0x77C PUSH2 0x777 PUSH2 0x772 DUP5 PUSH2 0x2F0 JUMP JUMPDEST PUSH2 0x759 JUMP JUMPDEST PUSH2 0x2F0 JUMP JUMPDEST SWAP1 POP SWAP2 SWAP1 POP JUMP JUMPDEST PUSH0 DUP2 SWAP1 POP SWAP2 SWAP1 POP JUMP JUMPDEST PUSH2 0x795 DUP4 PUSH2 0x762 JUMP JUMPDEST PUSH2 0x7A9 PUSH2 0x7A1 DUP3 PUSH2 0x783 JUMP JUMPDEST DUP5 DUP5 SLOAD PUSH2 0x708 JUMP JUMPDEST DUP3 SSTORE POP POP POP POP JUMP JUMPDEST PUSH0 SWAP1 JUMP JUMPDEST PUSH2 0x7BD PUSH2 0x7B1 JUMP JUMPDEST PUSH2 0x7C8 DUP2 DUP5 DUP5 PUSH2 0x78C JUMP JUMPDEST POP POP POP JUMP JUMPDEST JUMPDEST DUP2 DUP2 LT ISZERO PUSH2 0x7EB JUMPI PUSH2 0x7E0 PUSH0 DUP3 PUSH2 0x7B5 JUMP JUMPDEST PUSH1 0x1 DUP2 ADD SWAP1 POP PUSH2 0x7CE JUMP JUMPDEST POP POP JUMP JUMPDEST PUSH1 0x1F DUP3 GT ISZERO PUSH2 0x830 JUMPI PUSH2 0x801 DUP2 PUSH2 0x6DB JUMP JUMPDEST PUSH2 0x80A DUP5 PUSH2 0x6ED JUMP JUMPDEST DUP2 ADD PUSH1 0x20 DUP6 LT ISZERO PUSH2 0x819 JUMPI DUP2 SWAP1 POP JUMPDEST PUSH2 0x82D PUSH2 0x825 DUP6 PUSH2 0x6ED JUMP JUMPDEST DUP4 ADD DUP3 PUSH2 0x7CD JUMP JUMPDEST POP POP JUMPDEST POP POP POP JUMP JUMPDEST PUSH0 DUP3 DUP3 SHR SWAP1 POP SWAP3 SWAP2 POP POP JUMP JUMPDEST PUSH0 PUSH2 0x850 PUSH0 NOT DUP5 PUSH1 0x8 MUL PUSH2 0x835 JUMP JUMPDEST NOT DUP1 DUP4 AND SWAP2 POP POP SWAP3 SWAP2 POP POP JUMP JUMPDEST PUSH0 PUSH2 0x868 DUP4 DUP4 PUSH2 0x841 JUMP JUMPDEST SWAP2 POP DUP3 PUSH1 0x2 MUL DUP3 OR SWAP1 POP SWAP3 SWAP2 POP POP JUMP JUMPDEST PUSH2 0x881 DUP3 PUSH2 0x674 JUMP JUMPDEST PUSH8 0xFFFFFFFFFFFFFFFF DUP2 GT ISZERO PUSH2 0x89A JUMPI PUSH2 0x899 PUSH2 0x3DE JUMP JUMPDEST JUMPDEST PUSH2 0x8A4 DUP3 SLOAD PUSH2 0x6AB JUMP JUMPDEST PUSH2 0x8AF DUP3 DUP3 DUP6 PUSH2 0x7EF JUMP JUMPDEST PUSH0 PUSH1 0x20 SWAP1 POP PUSH1 0x1F DUP4 GT PUSH1 0x1 DUP2 EQ PUSH2 0x8E0 JUMPI PUSH0 DUP5 ISZERO PUSH2 0x8CE JUMPI DUP3 DUP8 ADD MLOAD SWAP1 POP JUMPDEST PUSH2 0x8D8 DUP6 DUP3 PUSH2 0x85D JUMP JUMPDEST DUP7 SSTORE POP PUSH2 0x93F JUMP JUMPDEST PUSH1 0x1F NOT DUP5 AND PUSH2 0x8EE DUP7 PUSH2 0x6DB JUMP JUMPDEST PUSH0 JUMPDEST DUP3 DUP2 LT ISZERO PUSH2 0x915 JUMPI DUP5 DUP10 ADD MLOAD DUP3 SSTORE PUSH1 0x1 DUP3 ADD SWAP2 POP PUSH1 0x20 DUP6 ADD SWAP5 POP PUSH1 0x20 DUP2 ADD SWAP1 POP PUSH2 0x8F0 JUMP JUMPDEST DUP7 DUP4 LT ISZERO PUSH2 0x932 JUMPI DUP5 DUP10 ADD MLOAD PUSH2 0x92E PUSH1 0x1F DUP10 AND DUP3 PUSH2 0x841 JUMP JUMPDEST DUP4 SSTORE POP JUMPDEST PUSH1 0x1 PUSH1 0x2 DUP9 MUL ADD DUP9 SSTORE POP POP POP JUMPDEST POP POP POP POP POP POP JUMP JUMPDEST PUSH0 PUSH2 0x951 DUP3 PUSH2 0x2F0 JUMP JUMPDEST SWAP2 POP PUSH2 0x95C DUP4 PUSH2 0x2F0 JUMP JUMPDEST SWAP3 POP DUP3 DUP3 MUL PUSH2 0x96A DUP2 PUSH2 0x2F0 JUMP JUMPDEST SWAP2 POP DUP3 DUP3 DIV DUP5 EQ DUP4 ISZERO OR PUSH2 0x981 JUMPI PUSH2 0x980 PUSH2 0x587 JUMP JUMPDEST JUMPDEST POP SWAP3 SWAP2 POP POP JUMP INVALID LOG2 PUSH5 0x6970667358 0x22 SLT KECCAK256 DUP3 PUSH31 0xA553D08472B9477DADF613C80D4D4AE1A20C11912C7BD0C3801D20CCB7B564 PUSH20 0x6F6C634300081700330000000000000000000000 "
				},
				"gasEstimates": {
					"creation": {
						"codeDepositCost": "498800",
						"executionCost": "528",
						"totalCost": "499328"
					},
					"external": {
						"addABC(uint256,uint256,uint256)": "infinite",
						"deleteNumber(uint256)": "infinite",
						"getNumber(uint256)": "infinite",
						"multipyABC(uint256,uint256,uint256)": "infinite",
						"popNumber()": "29464",
						"pushLetter(string)": "infinite",
						"pushNumber(uint256)": "46866",
						"setNumber(uint256,uint256)": "infinite"
					}
				},
				"methodIdentifiers": {
					"addABC(uint256,uint256,uint256)": "2cf10140",
					"deleteNumber(uint256)": "067cda81",
					"getNumber(uint256)": "fc563658",
					"multipyABC(uint256,uint256,uint256)": "d99d5f25",
					"popNumber()": "2705f37f",
					"pushLetter(string)": "3c544314",
					"pushNumber(uint256)": "2bfe1805",
					"setNumber(uint256,uint256)": "6b19e8c7"
				}
			},
			"storageLayout": {
				"storage": [
					{
						"astId": 3,
						"contract": "contracts/review.sol:REVIEW",
						"label": "a",
						"offset": 0,
						"slot": "0",
						"type": "t_uint256"
					},
					{
						"astId": 5,
						"contract": "contracts/review.sol:REVIEW",
						"label": "b",
						"offset": 0,
						"slot": "1",
						"type": "t_string_storage"
					},
					{
						"astId": 7,
						"contract": "contracts/review.sol:REVIEW",
						"label": "c",
						"offset": 0,
						"slot": "2",
						"type": "t_bytes_storage"
					},
					{
						"astId": 10,
						"contract": "contracts/review.sol:REVIEW",
						"label": "numbers",
						"offset": 0,
						"slot": "3",
						"type": "t_array(t_uint256)dyn_storage"
					},
					{
						"astId": 13,
						"contract": "contracts/review.sol:REVIEW",
						"label": "letters",
						"offset": 0,
						"slot": "4",
						"type": "t_array(t_string_storage)dyn_storage"
					}
				],
				"types": {
					"t_array(t_string_storage)dyn_storage": {
						"base": "t_string_storage",
						"encoding": "dynamic_array",
						"label": "string[]",
						"numberOfBytes": "32"
					},
					"t_array(t_uint256)dyn_storage": {
						"base": "t_uint256",
						"encoding": "dynamic_array",
						"label": "uint256[]",
						"numberOfBytes": "32"
					},
					"t_bytes_storage": {
						"encoding": "bytes",
						"label": "bytes",
						"numberOfBytes": "32"
					},
					"t_string_storage": {
						"encoding": "bytes",
						"label": "string",
						"numberOfBytes": "32"
					},
					"t_uint256": {
						"encoding": "inplace",
						"label": "uint256",
						"numberOfBytes": "32"
					}
				}
			},
			"userdoc": {
				"kind": "user",
				"methods": {},
				"version": 1
			}
		}
	}
}