{
	"data": {
		"bytecode": {
			"linkReferences": {},
			"object": "608060405234801561000f575f80fd5b506109748061001d5f395ff3fe608060405234801561000f575f80fd5b506004361061004a575f3560e01c80633cac14c81461004e5780637563517e1461006c578063be1c766b14610088578063f8277033146100a6575b5f80fd5b6100566100c2565b60405161006391906103ab565b60405180910390f35b6100866004803603810190610081919061053b565b61018b565b005b6100906101bd565b60405161009d91906105a4565b60405180910390f35b6100c060048036038101906100bb91906105bd565b6101c5565b005b6100ca6101f3565b5f600680602002604051908101604052809291905f905b828210156101825783820180546100f790610615565b80601f016020809104026020016040519081016040528092919081815260200182805461012390610615565b801561016e5780601f106101455761010080835404028352916020019161016e565b820191905f5260205f20905b81548152906001019060200180831161015157829003601f168201915b5050505050815260200190600101906100e1565b50505050905090565b805f60018461019a9190610672565b600681106101ab576101aa6106a5565b5b0190816101b8919061086f565b505050565b5f6006905090565b5f6001826101d39190610672565b600681106101e4576101e36106a5565b5b015f6101f0919061021a565b50565b6040518060c001604052806006905b60608152602001906001900390816102025790505090565b50805461022690610615565b5f825580601f106102375750610254565b601f0160209004905f5260205f20908101906102539190610257565b5b50565b5b8082111561026e575f815f905550600101610258565b5090565b5f60069050919050565b5f81905092915050565b5f819050919050565b5f81519050919050565b5f82825260208201905092915050565b5f5b838110156102c65780820151818401526020810190506102ab565b5f8484015250505050565b5f601f19601f8301169050919050565b5f6102eb8261028f565b6102f58185610299565b93506103058185602086016102a9565b61030e816102d1565b840191505092915050565b5f61032483836102e1565b905092915050565b5f602082019050919050565b5f61034282610272565b61034c818561027c565b93508360208202850161035e85610286565b805f5b85811015610399578484038952815161037a8582610319565b94506103858361032c565b925060208a01995050600181019050610361565b50829750879550505050505092915050565b5f6020820190508181035f8301526103c38184610338565b905092915050565b5f604051905090565b5f80fd5b5f80fd5b5f819050919050565b6103ee816103dc565b81146103f8575f80fd5b50565b5f81359050610409816103e5565b92915050565b5f80fd5b5f80fd5b7f4e487b71000000000000000000000000000000000000000000000000000000005f52604160045260245ffd5b61044d826102d1565b810181811067ffffffffffffffff8211171561046c5761046b610417565b5b80604052505050565b5f61047e6103cb565b905061048a8282610444565b919050565b5f67ffffffffffffffff8211156104a9576104a8610417565b5b6104b2826102d1565b9050602081019050919050565b828183375f83830152505050565b5f6104df6104da8461048f565b610475565b9050828152602081018484840111156104fb576104fa610413565b5b6105068482856104bf565b509392505050565b5f82601f8301126105225761052161040f565b5b81356105328482602086016104cd565b91505092915050565b5f8060408385031215610551576105506103d4565b5b5f61055e858286016103fb565b925050602083013567ffffffffffffffff81111561057f5761057e6103d8565b5b61058b8582860161050e565b9150509250929050565b61059e816103dc565b82525050565b5f6020820190506105b75f830184610595565b92915050565b5f602082840312156105d2576105d16103d4565b5b5f6105df848285016103fb565b91505092915050565b7f4e487b71000000000000000000000000000000000000000000000000000000005f52602260045260245ffd5b5f600282049050600182168061062c57607f821691505b60208210810361063f5761063e6105e8565b5b50919050565b7f4e487b71000000000000000000000000000000000000000000000000000000005f52601160045260245ffd5b5f61067c826103dc565b9150610687836103dc565b925082820390508181111561069f5761069e610645565b5b92915050565b7f4e487b71000000000000000000000000000000000000000000000000000000005f52603260045260245ffd5b5f819050815f5260205f209050919050565b5f6020601f8301049050919050565b5f82821b905092915050565b5f6008830261072e7fffffffffffffffffffffffffffffffffffffffffffffffffffffffffffffffff826106f3565b61073886836106f3565b95508019841693508086168417925050509392505050565b5f819050919050565b5f61077361076e610769846103dc565b610750565b6103dc565b9050919050565b5f819050919050565b61078c83610759565b6107a06107988261077a565b8484546106ff565b825550505050565b5f90565b6107b46107a8565b6107bf818484610783565b505050565b5b818110156107e2576107d75f826107ac565b6001810190506107c5565b5050565b601f821115610827576107f8816106d2565b610801846106e4565b81016020851015610810578190505b61082461081c856106e4565b8301826107c4565b50505b505050565b5f82821c905092915050565b5f6108475f198460080261082c565b1980831691505092915050565b5f61085f8383610838565b9150826002028217905092915050565b6108788261028f565b67ffffffffffffffff81111561089157610890610417565b5b61089b8254610615565b6108a68282856107e6565b5f60209050601f8311600181146108d7575f84156108c5578287015190505b6108cf8582610854565b865550610936565b601f1984166108e5866106d2565b5f5b8281101561090c578489015182556001820191506020850194506020810190506108e7565b868310156109295784890151610925601f891682610838565b8355505b6001600288020188555050505b50505050505056fea2646970667358221220b1269547f8d6d83e6788c5b4431e9126e3d7aff17cc0a6b9fc73eb69b94393c064736f6c63430008170033",
			"opcodes": "PUSH1 0x80 PUSH1 0x40 MSTORE CALLVALUE DUP1 ISZERO PUSH2 0xF JUMPI PUSH0 DUP1 REVERT JUMPDEST POP PUSH2 0x974 DUP1 PUSH2 0x1D PUSH0 CODECOPY PUSH0 RETURN INVALID PUSH1 0x80 PUSH1 0x40 MSTORE CALLVALUE DUP1 ISZERO PUSH2 0xF JUMPI PUSH0 DUP1 REVERT JUMPDEST POP PUSH1 0x4 CALLDATASIZE LT PUSH2 0x4A JUMPI PUSH0 CALLDATALOAD PUSH1 0xE0 SHR DUP1 PUSH4 0x3CAC14C8 EQ PUSH2 0x4E JUMPI DUP1 PUSH4 0x7563517E EQ PUSH2 0x6C JUMPI DUP1 PUSH4 0xBE1C766B EQ PUSH2 0x88 JUMPI DUP1 PUSH4 0xF8277033 EQ PUSH2 0xA6 JUMPI JUMPDEST PUSH0 DUP1 REVERT JUMPDEST PUSH2 0x56 PUSH2 0xC2 JUMP JUMPDEST PUSH1 0x40 MLOAD PUSH2 0x63 SWAP2 SWAP1 PUSH2 0x3AB JUMP JUMPDEST PUSH1 0x40 MLOAD DUP1 SWAP2 SUB SWAP1 RETURN JUMPDEST PUSH2 0x86 PUSH1 0x4 DUP1 CALLDATASIZE SUB DUP2 ADD SWAP1 PUSH2 0x81 SWAP2 SWAP1 PUSH2 0x53B JUMP JUMPDEST PUSH2 0x18B JUMP JUMPDEST STOP JUMPDEST PUSH2 0x90 PUSH2 0x1BD JUMP JUMPDEST PUSH1 0x40 MLOAD PUSH2 0x9D SWAP2 SWAP1 PUSH2 0x5A4 JUMP JUMPDEST PUSH1 0x40 MLOAD DUP1 SWAP2 SUB SWAP1 RETURN JUMPDEST PUSH2 0xC0 PUSH1 0x4 DUP1 CALLDATASIZE SUB DUP2 ADD SWAP1 PUSH2 0xBB SWAP2 SWAP1 PUSH2 0x5BD JUMP JUMPDEST PUSH2 0x1C5 JUMP JUMPDEST STOP JUMPDEST PUSH2 0xCA PUSH2 0x1F3 JUMP JUMPDEST PUSH0 PUSH1 0x6 DUP1 PUSH1 0x20 MUL PUSH1 0x40 MLOAD SWAP1 DUP2 ADD PUSH1 0x40 MSTORE DUP1 SWAP3 SWAP2 SWAP1 PUSH0 SWAP1 JUMPDEST DUP3 DUP3 LT ISZERO PUSH2 0x182 JUMPI DUP4 DUP3 ADD DUP1 SLOAD PUSH2 0xF7 SWAP1 PUSH2 0x615 JUMP JUMPDEST DUP1 PUSH1 0x1F ADD PUSH1 0x20 DUP1 SWAP2 DIV MUL PUSH1 0x20 ADD PUSH1 0x40 MLOAD SWAP1 DUP2 ADD PUSH1 0x40 MSTORE DUP1 SWAP3 SWAP2 SWAP1 DUP2 DUP2 MSTORE PUSH1 0x20 ADD DUP3 DUP1 SLOAD PUSH2 0x123 SWAP1 PUSH2 0x615 JUMP JUMPDEST DUP1 ISZERO PUSH2 0x16E JUMPI DUP1 PUSH1 0x1F LT PUSH2 0x145 JUMPI PUSH2 0x100 DUP1 DUP4 SLOAD DIV MUL DUP4 MSTORE SWAP2 PUSH1 0x20 ADD SWAP2 PUSH2 0x16E JUMP JUMPDEST DUP3 ADD SWAP2 SWAP1 PUSH0 MSTORE PUSH1 0x20 PUSH0 KECCAK256 SWAP1 JUMPDEST DUP2 SLOAD DUP2 MSTORE SWAP1 PUSH1 0x1 ADD SWAP1 PUSH1 0x20 ADD DUP1 DUP4 GT PUSH2 0x151 JUMPI DUP3 SWAP1 SUB PUSH1 0x1F AND DUP3 ADD SWAP2 JUMPDEST POP POP POP POP POP DUP2 MSTORE PUSH1 0x20 ADD SWAP1 PUSH1 0x1 ADD SWAP1 PUSH2 0xE1 JUMP JUMPDEST POP POP POP POP SWAP1 POP SWAP1 JUMP JUMPDEST DUP1 PUSH0 PUSH1 0x1 DUP5 PUSH2 0x19A SWAP2 SWAP1 PUSH2 0x672 JUMP JUMPDEST PUSH1 0x6 DUP2 LT PUSH2 0x1AB JUMPI PUSH2 0x1AA PUSH2 0x6A5 JUMP JUMPDEST JUMPDEST ADD SWAP1 DUP2 PUSH2 0x1B8 SWAP2 SWAP1 PUSH2 0x86F JUMP JUMPDEST POP POP POP JUMP JUMPDEST PUSH0 PUSH1 0x6 SWAP1 POP SWAP1 JUMP JUMPDEST PUSH0 PUSH1 0x1 DUP3 PUSH2 0x1D3 SWAP2 SWAP1 PUSH2 0x672 JUMP JUMPDEST PUSH1 0x6 DUP2 LT PUSH2 0x1E4 JUMPI PUSH2 0x1E3 PUSH2 0x6A5 JUMP JUMPDEST JUMPDEST ADD PUSH0 PUSH2 0x1F0 SWAP2 SWAP1 PUSH2 0x21A JUMP JUMPDEST POP JUMP JUMPDEST PUSH1 0x40 MLOAD DUP1 PUSH1 0xC0 ADD PUSH1 0x40 MSTORE DUP1 PUSH1 0x6 SWAP1 JUMPDEST PUSH1 0x60 DUP2 MSTORE PUSH1 0x20 ADD SWAP1 PUSH1 0x1 SWAP1 SUB SWAP1 DUP2 PUSH2 0x202 JUMPI SWAP1 POP POP SWAP1 JUMP JUMPDEST POP DUP1 SLOAD PUSH2 0x226 SWAP1 PUSH2 0x615 JUMP JUMPDEST PUSH0 DUP3 SSTORE DUP1 PUSH1 0x1F LT PUSH2 0x237 JUMPI POP PUSH2 0x254 JUMP JUMPDEST PUSH1 0x1F ADD PUSH1 0x20 SWAP1 DIV SWAP1 PUSH0 MSTORE PUSH1 0x20 PUSH0 KECCAK256 SWAP1 DUP2 ADD SWAP1 PUSH2 0x253 SWAP2 SWAP1 PUSH2 0x257 JUMP JUMPDEST JUMPDEST POP JUMP JUMPDEST JUMPDEST DUP1 DUP3 GT ISZERO PUSH2 0x26E JUMPI PUSH0 DUP2 PUSH0 SWAP1 SSTORE POP PUSH1 0x1 ADD PUSH2 0x258 JUMP JUMPDEST POP SWAP1 JUMP JUMPDEST PUSH0 PUSH1 0x6 SWAP1 POP SWAP2 SWAP1 POP JUMP JUMPDEST PUSH0 DUP2 SWAP1 POP SWAP3 SWAP2 POP POP JUMP JUMPDEST PUSH0 DUP2 SWAP1 POP SWAP2 SWAP1 POP JUMP JUMPDEST PUSH0 DUP2 MLOAD SWAP1 POP SWAP2 SWAP1 POP JUMP JUMPDEST PUSH0 DUP3 DUP3 MSTORE PUSH1 0x20 DUP3 ADD SWAP1 POP SWAP3 SWAP2 POP POP JUMP JUMPDEST PUSH0 JUMPDEST DUP4 DUP2 LT ISZERO PUSH2 0x2C6 JUMPI DUP1 DUP3 ADD MLOAD DUP2 DUP5 ADD MSTORE PUSH1 0x20 DUP2 ADD SWAP1 POP PUSH2 0x2AB JUMP JUMPDEST PUSH0 DUP5 DUP5 ADD MSTORE POP POP POP POP JUMP JUMPDEST PUSH0 PUSH1 0x1F NOT PUSH1 0x1F DUP4 ADD AND SWAP1 POP SWAP2 SWAP1 POP JUMP JUMPDEST PUSH0 PUSH2 0x2EB DUP3 PUSH2 0x28F JUMP JUMPDEST PUSH2 0x2F5 DUP2 DUP6 PUSH2 0x299 JUMP JUMPDEST SWAP4 POP PUSH2 0x305 DUP2 DUP6 PUSH1 0x20 DUP7 ADD PUSH2 0x2A9 JUMP JUMPDEST PUSH2 0x30E DUP2 PUSH2 0x2D1 JUMP JUMPDEST DUP5 ADD SWAP2 POP POP SWAP3 SWAP2 POP POP JUMP JUMPDEST PUSH0 PUSH2 0x324 DUP4 DUP4 PUSH2 0x2E1 JUMP JUMPDEST SWAP1 POP SWAP3 SWAP2 POP POP JUMP JUMPDEST PUSH0 PUSH1 0x20 DUP3 ADD SWAP1 POP SWAP2 SWAP1 POP JUMP JUMPDEST PUSH0 PUSH2 0x342 DUP3 PUSH2 0x272 JUMP JUMPDEST PUSH2 0x34C DUP2 DUP6 PUSH2 0x27C JUMP JUMPDEST SWAP4 POP DUP4 PUSH1 0x20 DUP3 MUL DUP6 ADD PUSH2 0x35E DUP6 PUSH2 0x286 JUMP JUMPDEST DUP1 PUSH0 JUMPDEST DUP6 DUP2 LT ISZERO PUSH2 0x399 JUMPI DUP5 DUP5 SUB DUP10 MSTORE DUP2 MLOAD PUSH2 0x37A DUP6 DUP3 PUSH2 0x319 JUMP JUMPDEST SWAP5 POP PUSH2 0x385 DUP4 PUSH2 0x32C JUMP JUMPDEST SWAP3 POP PUSH1 0x20 DUP11 ADD SWAP10 POP POP PUSH1 0x1 DUP2 ADD SWAP1 POP PUSH2 0x361 JUMP JUMPDEST POP DUP3 SWAP8 POP DUP8 SWAP6 POP POP POP POP POP POP SWAP3 SWAP2 POP POP JUMP JUMPDEST PUSH0 PUSH1 0x20 DUP3 ADD SWAP1 POP DUP2 DUP2 SUB PUSH0 DUP4 ADD MSTORE PUSH2 0x3C3 DUP2 DUP5 PUSH2 0x338 JUMP JUMPDEST SWAP1 POP SWAP3 SWAP2 POP POP JUMP JUMPDEST PUSH0 PUSH1 0x40 MLOAD SWAP1 POP SWAP1 JUMP JUMPDEST PUSH0 DUP1 REVERT JUMPDEST PUSH0 DUP1 REVERT JUMPDEST PUSH0 DUP2 SWAP1 POP SWAP2 SWAP1 POP JUMP JUMPDEST PUSH2 0x3EE DUP2 PUSH2 0x3DC JUMP JUMPDEST DUP2 EQ PUSH2 0x3F8 JUMPI PUSH0 DUP1 REVERT JUMPDEST POP JUMP JUMPDEST PUSH0 DUP2 CALLDATALOAD SWAP1 POP PUSH2 0x409 DUP2 PUSH2 0x3E5 JUMP JUMPDEST SWAP3 SWAP2 POP POP JUMP JUMPDEST PUSH0 DUP1 REVERT JUMPDEST PUSH0 DUP1 REVERT JUMPDEST PUSH32 0x4E487B7100000000000000000000000000000000000000000000000000000000 PUSH0 MSTORE PUSH1 0x41 PUSH1 0x4 MSTORE PUSH1 0x24 PUSH0 REVERT JUMPDEST PUSH2 0x44D DUP3 PUSH2 0x2D1 JUMP JUMPDEST DUP2 ADD DUP2 DUP2 LT PUSH8 0xFFFFFFFFFFFFFFFF DUP3 GT OR ISZERO PUSH2 0x46C JUMPI PUSH2 0x46B PUSH2 0x417 JUMP JUMPDEST JUMPDEST DUP1 PUSH1 0x40 MSTORE POP POP POP JUMP JUMPDEST PUSH0 PUSH2 0x47E PUSH2 0x3CB JUMP JUMPDEST SWAP1 POP PUSH2 0x48A DUP3 DUP3 PUSH2 0x444 JUMP JUMPDEST SWAP2 SWAP1 POP JUMP JUMPDEST PUSH0 PUSH8 0xFFFFFFFFFFFFFFFF DUP3 GT ISZERO PUSH2 0x4A9 JUMPI PUSH2 0x4A8 PUSH2 0x417 JUMP JUMPDEST JUMPDEST PUSH2 0x4B2 DUP3 PUSH2 0x2D1 JUMP JUMPDEST SWAP1 POP PUSH1 0x20 DUP2 ADD SWAP1 POP SWAP2 SWAP1 POP JUMP JUMPDEST DUP3 DUP2 DUP4 CALLDATACOPY PUSH0 DUP4 DUP4 ADD MSTORE POP POP POP JUMP JUMPDEST PUSH0 PUSH2 0x4DF PUSH2 0x4DA DUP5 PUSH2 0x48F JUMP JUMPDEST PUSH2 0x475 JUMP JUMPDEST SWAP1 POP DUP3 DUP2 MSTORE PUSH1 0x20 DUP2 ADD DUP5 DUP5 DUP5 ADD GT ISZERO PUSH2 0x4FB JUMPI PUSH2 0x4FA PUSH2 0x413 JUMP JUMPDEST JUMPDEST PUSH2 0x506 DUP5 DUP3 DUP6 PUSH2 0x4BF JUMP JUMPDEST POP SWAP4 SWAP3 POP POP POP JUMP JUMPDEST PUSH0 DUP3 PUSH1 0x1F DUP4 ADD SLT PUSH2 0x522 JUMPI PUSH2 0x521 PUSH2 0x40F JUMP JUMPDEST JUMPDEST DUP2 CALLDATALOAD PUSH2 0x532 DUP5 DUP3 PUSH1 0x20 DUP7 ADD PUSH2 0x4CD JUMP JUMPDEST SWAP2 POP POP SWAP3 SWAP2 POP POP JUMP JUMPDEST PUSH0 DUP1 PUSH1 0x40 DUP4 DUP6 SUB SLT ISZERO PUSH2 0x551 JUMPI PUSH2 0x550 PUSH2 0x3D4 JUMP JUMPDEST JUMPDEST PUSH0 PUSH2 0x55E DUP6 DUP3 DUP7 ADD PUSH2 0x3FB JUMP JUMPDEST SWAP3 POP POP PUSH1 0x20 DUP4 ADD CALLDATALOAD PUSH8 0xFFFFFFFFFFFFFFFF DUP2 GT ISZERO PUSH2 0x57F JUMPI PUSH2 0x57E PUSH2 0x3D8 JUMP JUMPDEST JUMPDEST PUSH2 0x58B DUP6 DUP3 DUP7 ADD PUSH2 0x50E JUMP JUMPDEST SWAP2 POP POP SWAP3 POP SWAP3 SWAP1 POP JUMP JUMPDEST PUSH2 0x59E DUP2 PUSH2 0x3DC JUMP JUMPDEST DUP3 MSTORE POP POP JUMP JUMPDEST PUSH0 PUSH1 0x20 DUP3 ADD SWAP1 POP PUSH2 0x5B7 PUSH0 DUP4 ADD DUP5 PUSH2 0x595 JUMP JUMPDEST SWAP3 SWAP2 POP POP JUMP JUMPDEST PUSH0 PUSH1 0x20 DUP3 DUP5 SUB SLT ISZERO PUSH2 0x5D2 JUMPI PUSH2 0x5D1 PUSH2 0x3D4 JUMP JUMPDEST JUMPDEST PUSH0 PUSH2 0x5DF DUP5 DUP3 DUP6 ADD PUSH2 0x3FB JUMP JUMPDEST SWAP2 POP POP SWAP3 SWAP2 POP POP JUMP JUMPDEST PUSH32 0x4E487B7100000000000000000000000000000000000000000000000000000000 PUSH0 MSTORE PUSH1 0x22 PUSH1 0x4 MSTORE PUSH1 0x24 PUSH0 REVERT JUMPDEST PUSH0 PUSH1 0x2 DUP3 DIV SWAP1 POP PUSH1 0x1 DUP3 AND DUP1 PUSH2 0x62C JUMPI PUSH1 0x7F DUP3 AND SWAP2 POP JUMPDEST PUSH1 0x20 DUP3 LT DUP2 SUB PUSH2 0x63F JUMPI PUSH2 0x63E PUSH2 0x5E8 JUMP JUMPDEST JUMPDEST POP SWAP2 SWAP1 POP JUMP JUMPDEST PUSH32 0x4E487B7100000000000000000000000000000000000000000000000000000000 PUSH0 MSTORE PUSH1 0x11 PUSH1 0x4 MSTORE PUSH1 0x24 PUSH0 REVERT JUMPDEST PUSH0 PUSH2 0x67C DUP3 PUSH2 0x3DC JUMP JUMPDEST SWAP2 POP PUSH2 0x687 DUP4 PUSH2 0x3DC JUMP JUMPDEST SWAP3 POP DUP3 DUP3 SUB SWAP1 POP DUP2 DUP2 GT ISZERO PUSH2 0x69F JUMPI PUSH2 0x69E PUSH2 0x645 JUMP JUMPDEST JUMPDEST SWAP3 SWAP2 POP POP JUMP JUMPDEST PUSH32 0x4E487B7100000000000000000000000000000000000000000000000000000000 PUSH0 MSTORE PUSH1 0x32 PUSH1 0x4 MSTORE PUSH1 0x24 PUSH0 REVERT JUMPDEST PUSH0 DUP2 SWAP1 POP DUP2 PUSH0 MSTORE PUSH1 0x20 PUSH0 KECCAK256 SWAP1 POP SWAP2 SWAP1 POP JUMP JUMPDEST PUSH0 PUSH1 0x20 PUSH1 0x1F DUP4 ADD DIV SWAP1 POP SWAP2 SWAP1 POP JUMP JUMPDEST PUSH0 DUP3 DUP3 SHL SWAP1 POP SWAP3 SWAP2 POP POP JUMP JUMPDEST PUSH0 PUSH1 0x8 DUP4 MUL PUSH2 0x72E PUSH32 0xFFFFFFFFFFFFFFFFFFFFFFFFFFFFFFFFFFFFFFFFFFFFFFFFFFFFFFFFFFFFFFFF DUP3 PUSH2 0x6F3 JUMP JUMPDEST PUSH2 0x738 DUP7 DUP4 PUSH2 0x6F3 JUMP JUMPDEST SWAP6 POP DUP1 NOT DUP5 AND SWAP4 POP DUP1 DUP7 AND DUP5 OR SWAP3 POP POP POP SWAP4 SWAP3 POP POP POP JUMP JUMPDEST PUSH0 DUP2 SWAP1 POP SWAP2 SWAP1 POP JUMP JUMPDEST PUSH0 PUSH2 0x773 PUSH2 0x76E PUSH2 0x769 DUP5 PUSH2 0x3DC JUMP JUMPDEST PUSH2 0x750 JUMP JUMPDEST PUSH2 0x3DC JUMP JUMPDEST SWAP1 POP SWAP2 SWAP1 POP JUMP JUMPDEST PUSH0 DUP2 SWAP1 POP SWAP2 SWAP1 POP JUMP JUMPDEST PUSH2 0x78C DUP4 PUSH2 0x759 JUMP JUMPDEST PUSH2 0x7A0 PUSH2 0x798 DUP3 PUSH2 0x77A JUMP JUMPDEST DUP5 DUP5 SLOAD PUSH2 0x6FF JUMP JUMPDEST DUP3 SSTORE POP POP POP POP JUMP JUMPDEST PUSH0 SWAP1 JUMP JUMPDEST PUSH2 0x7B4 PUSH2 0x7A8 JUMP JUMPDEST PUSH2 0x7BF DUP2 DUP5 DUP5 PUSH2 0x783 JUMP JUMPDEST POP POP POP JUMP JUMPDEST JUMPDEST DUP2 DUP2 LT ISZERO PUSH2 0x7E2 JUMPI PUSH2 0x7D7 PUSH0 DUP3 PUSH2 0x7AC JUMP JUMPDEST PUSH1 0x1 DUP2 ADD SWAP1 POP PUSH2 0x7C5 JUMP JUMPDEST POP POP JUMP JUMPDEST PUSH1 0x1F DUP3 GT ISZERO PUSH2 0x827 JUMPI PUSH2 0x7F8 DUP2 PUSH2 0x6D2 JUMP JUMPDEST PUSH2 0x801 DUP5 PUSH2 0x6E4 JUMP JUMPDEST DUP2 ADD PUSH1 0x20 DUP6 LT ISZERO PUSH2 0x810 JUMPI DUP2 SWAP1 POP JUMPDEST PUSH2 0x824 PUSH2 0x81C DUP6 PUSH2 0x6E4 JUMP JUMPDEST DUP4 ADD DUP3 PUSH2 0x7C4 JUMP JUMPDEST POP POP JUMPDEST POP POP POP JUMP JUMPDEST PUSH0 DUP3 DUP3 SHR SWAP1 POP SWAP3 SWAP2 POP POP JUMP JUMPDEST PUSH0 PUSH2 0x847 PUSH0 NOT DUP5 PUSH1 0x8 MUL PUSH2 0x82C JUMP JUMPDEST NOT DUP1 DUP4 AND SWAP2 POP POP SWAP3 SWAP2 POP POP JUMP JUMPDEST PUSH0 PUSH2 0x85F DUP4 DUP4 PUSH2 0x838 JUMP JUMPDEST SWAP2 POP DUP3 PUSH1 0x2 MUL DUP3 OR SWAP1 POP SWAP3 SWAP2 POP POP JUMP JUMPDEST PUSH2 0x878 DUP3 PUSH2 0x28F JUMP JUMPDEST PUSH8 0xFFFFFFFFFFFFFFFF DUP2 GT ISZERO PUSH2 0x891 JUMPI PUSH2 0x890 PUSH2 0x417 JUMP JUMPDEST JUMPDEST PUSH2 0x89B DUP3 SLOAD PUSH2 0x615 JUMP JUMPDEST PUSH2 0x8A6 DUP3 DUP3 DUP6 PUSH2 0x7E6 JUMP JUMPDEST PUSH0 PUSH1 0x20 SWAP1 POP PUSH1 0x1F DUP4 GT PUSH1 0x1 DUP2 EQ PUSH2 0x8D7 JUMPI PUSH0 DUP5 ISZERO PUSH2 0x8C5 JUMPI DUP3 DUP8 ADD MLOAD SWAP1 POP JUMPDEST PUSH2 0x8CF DUP6 DUP3 PUSH2 0x854 JUMP JUMPDEST DUP7 SSTORE POP PUSH2 0x936 JUMP JUMPDEST PUSH1 0x1F NOT DUP5 AND PUSH2 0x8E5 DUP7 PUSH2 0x6D2 JUMP JUMPDEST PUSH0 JUMPDEST DUP3 DUP2 LT ISZERO PUSH2 0x90C JUMPI DUP5 DUP10 ADD MLOAD DUP3 SSTORE PUSH1 0x1 DUP3 ADD SWAP2 POP PUSH1 0x20 DUP6 ADD SWAP5 POP PUSH1 0x20 DUP2 ADD SWAP1 POP PUSH2 0x8E7 JUMP JUMPDEST DUP7 DUP4 LT ISZERO PUSH2 0x929 JUMPI DUP5 DUP10 ADD MLOAD PUSH2 0x925 PUSH1 0x1F DUP10 AND DUP3 PUSH2 0x838 JUMP JUMPDEST DUP4 SSTORE POP JUMPDEST PUSH1 0x1 PUSH1 0x2 DUP9 MUL ADD DUP9 SSTORE POP POP POP JUMPDEST POP POP POP POP POP POP JUMP INVALID LOG2 PUSH5 0x6970667358 0x22 SLT KECCAK256 0xB1 0x26 SWAP6 SELFBALANCE 0xF8 0xD6 0xD8 RETURNDATACOPY PUSH8 0x88C5B4431E9126E3 0xD7 0xAF CALL PUSH29 0xC0A6B9FC73EB69B94393C064736F6C6343000817003300000000000000 "
		},
		"gasEstimates": {
			"creation": {
				"codeDepositCost": "484000",
				"executionCost": "516",
				"totalCost": "484516"
			},
			"external": {
				"deleteLetter(uint256)": "infinite",
				"getLength()": "354",
				"returnArray()": "infinite",
				"setLetter(uint256,string)": "infinite"
			}
		},
		"methodIdentifiers": {
			"deleteLetter(uint256)": "f8277033",
			"getLength()": "be1c766b",
			"returnArray()": "3cac14c8",
			"setLetter(uint256,string)": "7563517e"
		}
	},
	"abi": [
		{
			"inputs": [
				{
					"internalType": "uint256",
					"name": "_n",
					"type": "uint256"
				}
			],
			"name": "deleteLetter",
			"outputs": [],
			"stateMutability": "nonpayable",
			"type": "function"
		},
		{
			"inputs": [],
			"name": "getLength",
			"outputs": [
				{
					"internalType": "uint256",
					"name": "",
					"type": "uint256"
				}
			],
			"stateMutability": "view",
			"type": "function"
		},
		{
			"inputs": [],
			"name": "returnArray",
			"outputs": [
				{
					"internalType": "string[6]",
					"name": "",
					"type": "string[6]"
				}
			],
			"stateMutability": "view",
			"type": "function"
		},
		{
			"inputs": [
				{
					"internalType": "uint256",
					"name": "_a",
					"type": "uint256"
				},
				{
					"internalType": "string",
					"name": "_m",
					"type": "string"
				}
			],
			"name": "setLetter",
			"outputs": [],
			"stateMutability": "nonpayable",
			"type": "function"
		}
	]
}