{
	"data": {
		"bytecode": {
			"linkReferences": {},
			"object": "608060405234801561000f575f80fd5b506108278061001d5f395ff3fe608060405234801561000f575f80fd5b5060043610610034575f3560e01c806348aa931e14610038578063c736694e14610054575b5f80fd5b610052600480360381019061004d91906103ae565b610075565b005b61005c6100c6565b60405161006c94939291906104d5565b60405180910390f35b835f90816100839190610722565b508260015f6101000a81548160ff021916908360f81c0217905550816001806101000a81548161ffff021916908360f01c02179055508060028190555050505050565b60605f805f8060015f9054906101000a900460f81b60018054906101000a900460f01b6002548380546100f89061054c565b80601f01602080910402602001604051908101604052809291908181526020018280546101249061054c565b801561016f5780601f106101465761010080835404028352916020019161016f565b820191905f5260205f20905b81548152906001019060200180831161015257829003601f168201915b50505050509350935093509350935090919293565b5f604051905090565b5f80fd5b5f80fd5b5f80fd5b5f80fd5b5f601f19601f8301169050919050565b7f4e487b71000000000000000000000000000000000000000000000000000000005f52604160045260245ffd5b6101e38261019d565b810181811067ffffffffffffffff82111715610202576102016101ad565b5b80604052505050565b5f610214610184565b905061022082826101da565b919050565b5f67ffffffffffffffff82111561023f5761023e6101ad565b5b6102488261019d565b9050602081019050919050565b828183375f83830152505050565b5f61027561027084610225565b61020b565b90508281526020810184848401111561029157610290610199565b5b61029c848285610255565b509392505050565b5f82601f8301126102b8576102b7610195565b5b81356102c8848260208601610263565b91505092915050565b5f7fff0000000000000000000000000000000000000000000000000000000000000082169050919050565b610305816102d1565b811461030f575f80fd5b50565b5f81359050610320816102fc565b92915050565b5f7fffff00000000000000000000000000000000000000000000000000000000000082169050919050565b61035a81610326565b8114610364575f80fd5b50565b5f8135905061037581610351565b92915050565b5f819050919050565b61038d8161037b565b8114610397575f80fd5b50565b5f813590506103a881610384565b92915050565b5f805f80608085870312156103c6576103c561018d565b5b5f85013567ffffffffffffffff8111156103e3576103e2610191565b5b6103ef878288016102a4565b945050602061040087828801610312565b935050604061041187828801610367565b92505060606104228782880161039a565b91505092959194509250565b5f81519050919050565b5f82825260208201905092915050565b5f5b8381101561046557808201518184015260208101905061044a565b5f8484015250505050565b5f61047a8261042e565b6104848185610438565b9350610494818560208601610448565b61049d8161019d565b840191505092915050565b6104b1816102d1565b82525050565b6104c081610326565b82525050565b6104cf8161037b565b82525050565b5f6080820190508181035f8301526104ed8187610470565b90506104fc60208301866104a8565b61050960408301856104b7565b61051660608301846104c6565b95945050505050565b7f4e487b71000000000000000000000000000000000000000000000000000000005f52602260045260245ffd5b5f600282049050600182168061056357607f821691505b6020821081036105765761057561051f565b5b50919050565b5f819050815f5260205f209050919050565b5f6020601f8301049050919050565b5f82821b905092915050565b5f600883026105d87fffffffffffffffffffffffffffffffffffffffffffffffffffffffffffffffff8261059d565b6105e2868361059d565b95508019841693508086168417925050509392505050565b5f819050919050565b5f819050919050565b5f61062661062161061c846105fa565b610603565b6105fa565b9050919050565b5f819050919050565b61063f8361060c565b61065361064b8261062d565b8484546105a9565b825550505050565b5f90565b61066761065b565b610672818484610636565b505050565b5b818110156106955761068a5f8261065f565b600181019050610678565b5050565b601f8211156106da576106ab8161057c565b6106b48461058e565b810160208510156106c3578190505b6106d76106cf8561058e565b830182610677565b50505b505050565b5f82821c905092915050565b5f6106fa5f19846008026106df565b1980831691505092915050565b5f61071283836106eb565b9150826002028217905092915050565b61072b8261042e565b67ffffffffffffffff811115610744576107436101ad565b5b61074e825461054c565b610759828285610699565b5f60209050601f83116001811461078a575f8415610778578287015190505b6107828582610707565b8655506107e9565b601f1984166107988661057c565b5f5b828110156107bf5784890151825560018201915060208501945060208101905061079a565b868310156107dc57848901516107d8601f8916826106eb565b8355505b6001600288020188555050505b50505050505056fea2646970667358221220cbfe06e443af0f5f88028aed8a5e48c3579ac8dbfb152450bf1935fdab9b25fe64736f6c63430008170033",
			"opcodes": "PUSH1 0x80 PUSH1 0x40 MSTORE CALLVALUE DUP1 ISZERO PUSH2 0xF JUMPI PUSH0 DUP1 REVERT JUMPDEST POP PUSH2 0x827 DUP1 PUSH2 0x1D PUSH0 CODECOPY PUSH0 RETURN INVALID PUSH1 0x80 PUSH1 0x40 MSTORE CALLVALUE DUP1 ISZERO PUSH2 0xF JUMPI PUSH0 DUP1 REVERT JUMPDEST POP PUSH1 0x4 CALLDATASIZE LT PUSH2 0x34 JUMPI PUSH0 CALLDATALOAD PUSH1 0xE0 SHR DUP1 PUSH4 0x48AA931E EQ PUSH2 0x38 JUMPI DUP1 PUSH4 0xC736694E EQ PUSH2 0x54 JUMPI JUMPDEST PUSH0 DUP1 REVERT JUMPDEST PUSH2 0x52 PUSH1 0x4 DUP1 CALLDATASIZE SUB DUP2 ADD SWAP1 PUSH2 0x4D SWAP2 SWAP1 PUSH2 0x3AE JUMP JUMPDEST PUSH2 0x75 JUMP JUMPDEST STOP JUMPDEST PUSH2 0x5C PUSH2 0xC6 JUMP JUMPDEST PUSH1 0x40 MLOAD PUSH2 0x6C SWAP5 SWAP4 SWAP3 SWAP2 SWAP1 PUSH2 0x4D5 JUMP JUMPDEST PUSH1 0x40 MLOAD DUP1 SWAP2 SUB SWAP1 RETURN JUMPDEST DUP4 PUSH0 SWAP1 DUP2 PUSH2 0x83 SWAP2 SWAP1 PUSH2 0x722 JUMP JUMPDEST POP DUP3 PUSH1 0x1 PUSH0 PUSH2 0x100 EXP DUP2 SLOAD DUP2 PUSH1 0xFF MUL NOT AND SWAP1 DUP4 PUSH1 0xF8 SHR MUL OR SWAP1 SSTORE POP DUP2 PUSH1 0x1 DUP1 PUSH2 0x100 EXP DUP2 SLOAD DUP2 PUSH2 0xFFFF MUL NOT AND SWAP1 DUP4 PUSH1 0xF0 SHR MUL OR SWAP1 SSTORE POP DUP1 PUSH1 0x2 DUP2 SWAP1 SSTORE POP POP POP POP POP JUMP JUMPDEST PUSH1 0x60 PUSH0 DUP1 PUSH0 DUP1 PUSH1 0x1 PUSH0 SWAP1 SLOAD SWAP1 PUSH2 0x100 EXP SWAP1 DIV PUSH1 0xF8 SHL PUSH1 0x1 DUP1 SLOAD SWAP1 PUSH2 0x100 EXP SWAP1 DIV PUSH1 0xF0 SHL PUSH1 0x2 SLOAD DUP4 DUP1 SLOAD PUSH2 0xF8 SWAP1 PUSH2 0x54C JUMP JUMPDEST DUP1 PUSH1 0x1F ADD PUSH1 0x20 DUP1 SWAP2 DIV MUL PUSH1 0x20 ADD PUSH1 0x40 MLOAD SWAP1 DUP2 ADD PUSH1 0x40 MSTORE DUP1 SWAP3 SWAP2 SWAP1 DUP2 DUP2 MSTORE PUSH1 0x20 ADD DUP3 DUP1 SLOAD PUSH2 0x124 SWAP1 PUSH2 0x54C JUMP JUMPDEST DUP1 ISZERO PUSH2 0x16F JUMPI DUP1 PUSH1 0x1F LT PUSH2 0x146 JUMPI PUSH2 0x100 DUP1 DUP4 SLOAD DIV MUL DUP4 MSTORE SWAP2 PUSH1 0x20 ADD SWAP2 PUSH2 0x16F JUMP JUMPDEST DUP3 ADD SWAP2 SWAP1 PUSH0 MSTORE PUSH1 0x20 PUSH0 KECCAK256 SWAP1 JUMPDEST DUP2 SLOAD DUP2 MSTORE SWAP1 PUSH1 0x1 ADD SWAP1 PUSH1 0x20 ADD DUP1 DUP4 GT PUSH2 0x152 JUMPI DUP3 SWAP1 SUB PUSH1 0x1F AND DUP3 ADD SWAP2 JUMPDEST POP POP POP POP POP SWAP4 POP SWAP4 POP SWAP4 POP SWAP4 POP SWAP4 POP SWAP1 SWAP2 SWAP3 SWAP4 JUMP JUMPDEST PUSH0 PUSH1 0x40 MLOAD SWAP1 POP SWAP1 JUMP JUMPDEST PUSH0 DUP1 REVERT JUMPDEST PUSH0 DUP1 REVERT JUMPDEST PUSH0 DUP1 REVERT JUMPDEST PUSH0 DUP1 REVERT JUMPDEST PUSH0 PUSH1 0x1F NOT PUSH1 0x1F DUP4 ADD AND SWAP1 POP SWAP2 SWAP1 POP JUMP JUMPDEST PUSH32 0x4E487B7100000000000000000000000000000000000000000000000000000000 PUSH0 MSTORE PUSH1 0x41 PUSH1 0x4 MSTORE PUSH1 0x24 PUSH0 REVERT JUMPDEST PUSH2 0x1E3 DUP3 PUSH2 0x19D JUMP JUMPDEST DUP2 ADD DUP2 DUP2 LT PUSH8 0xFFFFFFFFFFFFFFFF DUP3 GT OR ISZERO PUSH2 0x202 JUMPI PUSH2 0x201 PUSH2 0x1AD JUMP JUMPDEST JUMPDEST DUP1 PUSH1 0x40 MSTORE POP POP POP JUMP JUMPDEST PUSH0 PUSH2 0x214 PUSH2 0x184 JUMP JUMPDEST SWAP1 POP PUSH2 0x220 DUP3 DUP3 PUSH2 0x1DA JUMP JUMPDEST SWAP2 SWAP1 POP JUMP JUMPDEST PUSH0 PUSH8 0xFFFFFFFFFFFFFFFF DUP3 GT ISZERO PUSH2 0x23F JUMPI PUSH2 0x23E PUSH2 0x1AD JUMP JUMPDEST JUMPDEST PUSH2 0x248 DUP3 PUSH2 0x19D JUMP JUMPDEST SWAP1 POP PUSH1 0x20 DUP2 ADD SWAP1 POP SWAP2 SWAP1 POP JUMP JUMPDEST DUP3 DUP2 DUP4 CALLDATACOPY PUSH0 DUP4 DUP4 ADD MSTORE POP POP POP JUMP JUMPDEST PUSH0 PUSH2 0x275 PUSH2 0x270 DUP5 PUSH2 0x225 JUMP JUMPDEST PUSH2 0x20B JUMP JUMPDEST SWAP1 POP DUP3 DUP2 MSTORE PUSH1 0x20 DUP2 ADD DUP5 DUP5 DUP5 ADD GT ISZERO PUSH2 0x291 JUMPI PUSH2 0x290 PUSH2 0x199 JUMP JUMPDEST JUMPDEST PUSH2 0x29C DUP5 DUP3 DUP6 PUSH2 0x255 JUMP JUMPDEST POP SWAP4 SWAP3 POP POP POP JUMP JUMPDEST PUSH0 DUP3 PUSH1 0x1F DUP4 ADD SLT PUSH2 0x2B8 JUMPI PUSH2 0x2B7 PUSH2 0x195 JUMP JUMPDEST JUMPDEST DUP2 CALLDATALOAD PUSH2 0x2C8 DUP5 DUP3 PUSH1 0x20 DUP7 ADD PUSH2 0x263 JUMP JUMPDEST SWAP2 POP POP SWAP3 SWAP2 POP POP JUMP JUMPDEST PUSH0 PUSH32 0xFF00000000000000000000000000000000000000000000000000000000000000 DUP3 AND SWAP1 POP SWAP2 SWAP1 POP JUMP JUMPDEST PUSH2 0x305 DUP2 PUSH2 0x2D1 JUMP JUMPDEST DUP2 EQ PUSH2 0x30F JUMPI PUSH0 DUP1 REVERT JUMPDEST POP JUMP JUMPDEST PUSH0 DUP2 CALLDATALOAD SWAP1 POP PUSH2 0x320 DUP2 PUSH2 0x2FC JUMP JUMPDEST SWAP3 SWAP2 POP POP JUMP JUMPDEST PUSH0 PUSH32 0xFFFF000000000000000000000000000000000000000000000000000000000000 DUP3 AND SWAP1 POP SWAP2 SWAP1 POP JUMP JUMPDEST PUSH2 0x35A DUP2 PUSH2 0x326 JUMP JUMPDEST DUP2 EQ PUSH2 0x364 JUMPI PUSH0 DUP1 REVERT JUMPDEST POP JUMP JUMPDEST PUSH0 DUP2 CALLDATALOAD SWAP1 POP PUSH2 0x375 DUP2 PUSH2 0x351 JUMP JUMPDEST SWAP3 SWAP2 POP POP JUMP JUMPDEST PUSH0 DUP2 SWAP1 POP SWAP2 SWAP1 POP JUMP JUMPDEST PUSH2 0x38D DUP2 PUSH2 0x37B JUMP JUMPDEST DUP2 EQ PUSH2 0x397 JUMPI PUSH0 DUP1 REVERT JUMPDEST POP JUMP JUMPDEST PUSH0 DUP2 CALLDATALOAD SWAP1 POP PUSH2 0x3A8 DUP2 PUSH2 0x384 JUMP JUMPDEST SWAP3 SWAP2 POP POP JUMP JUMPDEST PUSH0 DUP1 PUSH0 DUP1 PUSH1 0x80 DUP6 DUP8 SUB SLT ISZERO PUSH2 0x3C6 JUMPI PUSH2 0x3C5 PUSH2 0x18D JUMP JUMPDEST JUMPDEST PUSH0 DUP6 ADD CALLDATALOAD PUSH8 0xFFFFFFFFFFFFFFFF DUP2 GT ISZERO PUSH2 0x3E3 JUMPI PUSH2 0x3E2 PUSH2 0x191 JUMP JUMPDEST JUMPDEST PUSH2 0x3EF DUP8 DUP3 DUP9 ADD PUSH2 0x2A4 JUMP JUMPDEST SWAP5 POP POP PUSH1 0x20 PUSH2 0x400 DUP8 DUP3 DUP9 ADD PUSH2 0x312 JUMP JUMPDEST SWAP4 POP POP PUSH1 0x40 PUSH2 0x411 DUP8 DUP3 DUP9 ADD PUSH2 0x367 JUMP JUMPDEST SWAP3 POP POP PUSH1 0x60 PUSH2 0x422 DUP8 DUP3 DUP9 ADD PUSH2 0x39A JUMP JUMPDEST SWAP2 POP POP SWAP3 SWAP6 SWAP2 SWAP5 POP SWAP3 POP JUMP JUMPDEST PUSH0 DUP2 MLOAD SWAP1 POP SWAP2 SWAP1 POP JUMP JUMPDEST PUSH0 DUP3 DUP3 MSTORE PUSH1 0x20 DUP3 ADD SWAP1 POP SWAP3 SWAP2 POP POP JUMP JUMPDEST PUSH0 JUMPDEST DUP4 DUP2 LT ISZERO PUSH2 0x465 JUMPI DUP1 DUP3 ADD MLOAD DUP2 DUP5 ADD MSTORE PUSH1 0x20 DUP2 ADD SWAP1 POP PUSH2 0x44A JUMP JUMPDEST PUSH0 DUP5 DUP5 ADD MSTORE POP POP POP POP JUMP JUMPDEST PUSH0 PUSH2 0x47A DUP3 PUSH2 0x42E JUMP JUMPDEST PUSH2 0x484 DUP2 DUP6 PUSH2 0x438 JUMP JUMPDEST SWAP4 POP PUSH2 0x494 DUP2 DUP6 PUSH1 0x20 DUP7 ADD PUSH2 0x448 JUMP JUMPDEST PUSH2 0x49D DUP2 PUSH2 0x19D JUMP JUMPDEST DUP5 ADD SWAP2 POP POP SWAP3 SWAP2 POP POP JUMP JUMPDEST PUSH2 0x4B1 DUP2 PUSH2 0x2D1 JUMP JUMPDEST DUP3 MSTORE POP POP JUMP JUMPDEST PUSH2 0x4C0 DUP2 PUSH2 0x326 JUMP JUMPDEST DUP3 MSTORE POP POP JUMP JUMPDEST PUSH2 0x4CF DUP2 PUSH2 0x37B JUMP JUMPDEST DUP3 MSTORE POP POP JUMP JUMPDEST PUSH0 PUSH1 0x80 DUP3 ADD SWAP1 POP DUP2 DUP2 SUB PUSH0 DUP4 ADD MSTORE PUSH2 0x4ED DUP2 DUP8 PUSH2 0x470 JUMP JUMPDEST SWAP1 POP PUSH2 0x4FC PUSH1 0x20 DUP4 ADD DUP7 PUSH2 0x4A8 JUMP JUMPDEST PUSH2 0x509 PUSH1 0x40 DUP4 ADD DUP6 PUSH2 0x4B7 JUMP JUMPDEST PUSH2 0x516 PUSH1 0x60 DUP4 ADD DUP5 PUSH2 0x4C6 JUMP JUMPDEST SWAP6 SWAP5 POP POP POP POP POP JUMP JUMPDEST PUSH32 0x4E487B7100000000000000000000000000000000000000000000000000000000 PUSH0 MSTORE PUSH1 0x22 PUSH1 0x4 MSTORE PUSH1 0x24 PUSH0 REVERT JUMPDEST PUSH0 PUSH1 0x2 DUP3 DIV SWAP1 POP PUSH1 0x1 DUP3 AND DUP1 PUSH2 0x563 JUMPI PUSH1 0x7F DUP3 AND SWAP2 POP JUMPDEST PUSH1 0x20 DUP3 LT DUP2 SUB PUSH2 0x576 JUMPI PUSH2 0x575 PUSH2 0x51F JUMP JUMPDEST JUMPDEST POP SWAP2 SWAP1 POP JUMP JUMPDEST PUSH0 DUP2 SWAP1 POP DUP2 PUSH0 MSTORE PUSH1 0x20 PUSH0 KECCAK256 SWAP1 POP SWAP2 SWAP1 POP JUMP JUMPDEST PUSH0 PUSH1 0x20 PUSH1 0x1F DUP4 ADD DIV SWAP1 POP SWAP2 SWAP1 POP JUMP JUMPDEST PUSH0 DUP3 DUP3 SHL SWAP1 POP SWAP3 SWAP2 POP POP JUMP JUMPDEST PUSH0 PUSH1 0x8 DUP4 MUL PUSH2 0x5D8 PUSH32 0xFFFFFFFFFFFFFFFFFFFFFFFFFFFFFFFFFFFFFFFFFFFFFFFFFFFFFFFFFFFFFFFF DUP3 PUSH2 0x59D JUMP JUMPDEST PUSH2 0x5E2 DUP7 DUP4 PUSH2 0x59D JUMP JUMPDEST SWAP6 POP DUP1 NOT DUP5 AND SWAP4 POP DUP1 DUP7 AND DUP5 OR SWAP3 POP POP POP SWAP4 SWAP3 POP POP POP JUMP JUMPDEST PUSH0 DUP2 SWAP1 POP SWAP2 SWAP1 POP JUMP JUMPDEST PUSH0 DUP2 SWAP1 POP SWAP2 SWAP1 POP JUMP JUMPDEST PUSH0 PUSH2 0x626 PUSH2 0x621 PUSH2 0x61C DUP5 PUSH2 0x5FA JUMP JUMPDEST PUSH2 0x603 JUMP JUMPDEST PUSH2 0x5FA JUMP JUMPDEST SWAP1 POP SWAP2 SWAP1 POP JUMP JUMPDEST PUSH0 DUP2 SWAP1 POP SWAP2 SWAP1 POP JUMP JUMPDEST PUSH2 0x63F DUP4 PUSH2 0x60C JUMP JUMPDEST PUSH2 0x653 PUSH2 0x64B DUP3 PUSH2 0x62D JUMP JUMPDEST DUP5 DUP5 SLOAD PUSH2 0x5A9 JUMP JUMPDEST DUP3 SSTORE POP POP POP POP JUMP JUMPDEST PUSH0 SWAP1 JUMP JUMPDEST PUSH2 0x667 PUSH2 0x65B JUMP JUMPDEST PUSH2 0x672 DUP2 DUP5 DUP5 PUSH2 0x636 JUMP JUMPDEST POP POP POP JUMP JUMPDEST JUMPDEST DUP2 DUP2 LT ISZERO PUSH2 0x695 JUMPI PUSH2 0x68A PUSH0 DUP3 PUSH2 0x65F JUMP JUMPDEST PUSH1 0x1 DUP2 ADD SWAP1 POP PUSH2 0x678 JUMP JUMPDEST POP POP JUMP JUMPDEST PUSH1 0x1F DUP3 GT ISZERO PUSH2 0x6DA JUMPI PUSH2 0x6AB DUP2 PUSH2 0x57C JUMP JUMPDEST PUSH2 0x6B4 DUP5 PUSH2 0x58E JUMP JUMPDEST DUP2 ADD PUSH1 0x20 DUP6 LT ISZERO PUSH2 0x6C3 JUMPI DUP2 SWAP1 POP JUMPDEST PUSH2 0x6D7 PUSH2 0x6CF DUP6 PUSH2 0x58E JUMP JUMPDEST DUP4 ADD DUP3 PUSH2 0x677 JUMP JUMPDEST POP POP JUMPDEST POP POP POP JUMP JUMPDEST PUSH0 DUP3 DUP3 SHR SWAP1 POP SWAP3 SWAP2 POP POP JUMP JUMPDEST PUSH0 PUSH2 0x6FA PUSH0 NOT DUP5 PUSH1 0x8 MUL PUSH2 0x6DF JUMP JUMPDEST NOT DUP1 DUP4 AND SWAP2 POP POP SWAP3 SWAP2 POP POP JUMP JUMPDEST PUSH0 PUSH2 0x712 DUP4 DUP4 PUSH2 0x6EB JUMP JUMPDEST SWAP2 POP DUP3 PUSH1 0x2 MUL DUP3 OR SWAP1 POP SWAP3 SWAP2 POP POP JUMP JUMPDEST PUSH2 0x72B DUP3 PUSH2 0x42E JUMP JUMPDEST PUSH8 0xFFFFFFFFFFFFFFFF DUP2 GT ISZERO PUSH2 0x744 JUMPI PUSH2 0x743 PUSH2 0x1AD JUMP JUMPDEST JUMPDEST PUSH2 0x74E DUP3 SLOAD PUSH2 0x54C JUMP JUMPDEST PUSH2 0x759 DUP3 DUP3 DUP6 PUSH2 0x699 JUMP JUMPDEST PUSH0 PUSH1 0x20 SWAP1 POP PUSH1 0x1F DUP4 GT PUSH1 0x1 DUP2 EQ PUSH2 0x78A JUMPI PUSH0 DUP5 ISZERO PUSH2 0x778 JUMPI DUP3 DUP8 ADD MLOAD SWAP1 POP JUMPDEST PUSH2 0x782 DUP6 DUP3 PUSH2 0x707 JUMP JUMPDEST DUP7 SSTORE POP PUSH2 0x7E9 JUMP JUMPDEST PUSH1 0x1F NOT DUP5 AND PUSH2 0x798 DUP7 PUSH2 0x57C JUMP JUMPDEST PUSH0 JUMPDEST DUP3 DUP2 LT ISZERO PUSH2 0x7BF JUMPI DUP5 DUP10 ADD MLOAD DUP3 SSTORE PUSH1 0x1 DUP3 ADD SWAP2 POP PUSH1 0x20 DUP6 ADD SWAP5 POP PUSH1 0x20 DUP2 ADD SWAP1 POP PUSH2 0x79A JUMP JUMPDEST DUP7 DUP4 LT ISZERO PUSH2 0x7DC JUMPI DUP5 DUP10 ADD MLOAD PUSH2 0x7D8 PUSH1 0x1F DUP10 AND DUP3 PUSH2 0x6EB JUMP JUMPDEST DUP4 SSTORE POP JUMPDEST PUSH1 0x1 PUSH1 0x2 DUP9 MUL ADD DUP9 SSTORE POP POP POP JUMPDEST POP POP POP POP POP POP JUMP INVALID LOG2 PUSH5 0x6970667358 0x22 SLT KECCAK256 0xCB INVALID MOD 0xE4 NUMBER 0xAF 0xF PUSH0 DUP9 MUL DUP11 0xED DUP11 0x5E BASEFEE 0xC3 JUMPI SWAP11 0xC8 0xDB 0xFB ISZERO 0x24 POP 0xBF NOT CALLDATALOAD REVERT 0xAB SWAP12 0x25 INVALID PUSH5 0x736F6C6343 STOP ADDMOD OR STOP CALLER "
		},
		"gasEstimates": {
			"creation": {
				"codeDepositCost": "417400",
				"executionCost": "453",
				"totalCost": "417853"
			},
			"external": {
				"getABCD()": "infinite",
				"setABCD(bytes,bytes1,bytes2,bytes32)": "infinite"
			}
		},
		"methodIdentifiers": {
			"getABCD()": "c736694e",
			"setABCD(bytes,bytes1,bytes2,bytes32)": "48aa931e"
		}
	},
	"abi": [
		{
			"inputs": [],
			"name": "getABCD",
			"outputs": [
				{
					"internalType": "bytes",
					"name": "",
					"type": "bytes"
				},
				{
					"internalType": "bytes1",
					"name": "",
					"type": "bytes1"
				},
				{
					"internalType": "bytes2",
					"name": "",
					"type": "bytes2"
				},
				{
					"internalType": "bytes32",
					"name": "",
					"type": "bytes32"
				}
			],
			"stateMutability": "view",
			"type": "function"
		},
		{
			"inputs": [
				{
					"internalType": "bytes",
					"name": "_a",
					"type": "bytes"
				},
				{
					"internalType": "bytes1",
					"name": "_b",
					"type": "bytes1"
				},
				{
					"internalType": "bytes2",
					"name": "_c",
					"type": "bytes2"
				},
				{
					"internalType": "bytes32",
					"name": "_d",
					"type": "bytes32"
				}
			],
			"name": "setABCD",
			"outputs": [],
			"stateMutability": "nonpayable",
			"type": "function"
		}
	]
}