{
	"data": {
		"bytecode": {
			"linkReferences": {},
			"object": "608060405234801561000f575f80fd5b50610e758061001d5f395ff3fe608060405234801561000f575f80fd5b506004361061007b575f3560e01c8063642f916311610059578063642f9163146100d7578063a99c855e14610107578063bc84f21314610125578063e93314ab146101415761007b565b806329ec0b2b1461007f5780634a48604a1461009b57806357e61ea4146100b9575b5f80fd5b61009960048036038101906100949190610795565b61015f565b005b6100a36101c3565b6040516100b09190610810565b60405180910390f35b6100c16101cf565b6040516100ce91906109c9565b60405180910390f35b6100f160048036038101906100ec91906109e9565b6102de565b6040516100fe9190610a61565b60405180910390f35b61010f6103d7565b60405161011c9190610ac9565b60405180910390f35b61013f600480360381019061013a9190610795565b610469565b005b6101496104f2565b6040516101569190610a61565b60405180910390f35b604051806060016040528084815260200183151581526020018281525060045f820151815f0190816101919190610ce3565b506020820151816001015f6101000a81548160ff02191690831515021790555060408201518160020155905050505050565b5f600460020154905090565b60606007805480602002602001604051908101604052809291908181526020015f905b828210156102d5578382905f5260205f2090600302016040518060600160405290815f8201805461022290610b16565b80601f016020809104026020016040519081016040528092919081815260200182805461024e90610b16565b80156102995780601f1061027057610100808354040283529160200191610299565b820191905f5260205f20905b81548152906001019060200180831161027c57829003601f168201915b50505050508152602001600182015f9054906101000a900460ff16151515158152602001600282015481525050815260200190600101906101f2565b50505050905090565b6102e66105bf565b60076001836102f59190610ddf565b8154811061030657610305610e12565b5b905f5260205f2090600302016040518060600160405290815f8201805461032c90610b16565b80601f016020809104026020016040519081016040528092919081815260200182805461035890610b16565b80156103a35780601f1061037a576101008083540402835291602001916103a3565b820191905f5260205f20905b81548152906001019060200180831161038657829003601f168201915b50505050508152602001600182015f9054906101000a900460ff161515151581526020016002820154815250509050919050565b606060045f0180546103e890610b16565b80601f016020809104026020016040519081016040528092919081815260200182805461041490610b16565b801561045f5780601f106104365761010080835404028352916020019161045f565b820191905f5260205f20905b81548152906001019060200180831161044257829003601f168201915b5050505050905090565b60076040518060600160405280858152602001841515815260200183815250908060018154018082558091505060019003905f5260205f2090600302015f909190919091505f820151815f0190816104c19190610ce3565b506020820151816001015f6101000a81548160ff021916908315150217905550604082015181600201555050505050565b6104fa6105bf565b60046040518060600160405290815f8201805461051690610b16565b80601f016020809104026020016040519081016040528092919081815260200182805461054290610b16565b801561058d5780601f106105645761010080835404028352916020019161058d565b820191905f5260205f20905b81548152906001019060200180831161057057829003601f168201915b50505050508152602001600182015f9054906101000a900460ff16151515158152602001600282015481525050905090565b6040518060600160405280606081526020015f151581526020015f81525090565b5f604051905090565b5f80fd5b5f80fd5b5f80fd5b5f80fd5b5f601f19601f8301169050919050565b7f4e487b71000000000000000000000000000000000000000000000000000000005f52604160045260245ffd5b61063f826105f9565b810181811067ffffffffffffffff8211171561065e5761065d610609565b5b80604052505050565b5f6106706105e0565b905061067c8282610636565b919050565b5f67ffffffffffffffff82111561069b5761069a610609565b5b6106a4826105f9565b9050602081019050919050565b828183375f83830152505050565b5f6106d16106cc84610681565b610667565b9050828152602081018484840111156106ed576106ec6105f5565b5b6106f88482856106b1565b509392505050565b5f82601f830112610714576107136105f1565b5b81356107248482602086016106bf565b91505092915050565b5f8115159050919050565b6107418161072d565b811461074b575f80fd5b50565b5f8135905061075c81610738565b92915050565b5f819050919050565b61077481610762565b811461077e575f80fd5b50565b5f8135905061078f8161076b565b92915050565b5f805f606084860312156107ac576107ab6105e9565b5b5f84013567ffffffffffffffff8111156107c9576107c86105ed565b5b6107d586828701610700565b93505060206107e68682870161074e565b92505060406107f786828701610781565b9150509250925092565b61080a81610762565b82525050565b5f6020820190506108235f830184610801565b92915050565b5f81519050919050565b5f82825260208201905092915050565b5f819050602082019050919050565b5f81519050919050565b5f82825260208201905092915050565b5f5b8381101561088957808201518184015260208101905061086e565b5f8484015250505050565b5f61089e82610852565b6108a8818561085c565b93506108b881856020860161086c565b6108c1816105f9565b840191505092915050565b6108d58161072d565b82525050565b6108e481610762565b82525050565b5f606083015f8301518482035f8601526109048282610894565b915050602083015161091960208601826108cc565b50604083015161092c60408601826108db565b508091505092915050565b5f61094283836108ea565b905092915050565b5f602082019050919050565b5f61096082610829565b61096a8185610833565b93508360208202850161097c85610843565b805f5b858110156109b757848403895281516109988582610937565b94506109a38361094a565b925060208a0199505060018101905061097f565b50829750879550505050505092915050565b5f6020820190508181035f8301526109e18184610956565b905092915050565b5f602082840312156109fe576109fd6105e9565b5b5f610a0b84828501610781565b91505092915050565b5f606083015f8301518482035f860152610a2e8282610894565b9150506020830151610a4360208601826108cc565b506040830151610a5660408601826108db565b508091505092915050565b5f6020820190508181035f830152610a798184610a14565b905092915050565b5f82825260208201905092915050565b5f610a9b82610852565b610aa58185610a81565b9350610ab581856020860161086c565b610abe816105f9565b840191505092915050565b5f6020820190508181035f830152610ae18184610a91565b905092915050565b7f4e487b71000000000000000000000000000000000000000000000000000000005f52602260045260245ffd5b5f6002820490506001821680610b2d57607f821691505b602082108103610b4057610b3f610ae9565b5b50919050565b5f819050815f5260205f209050919050565b5f6020601f8301049050919050565b5f82821b905092915050565b5f60088302610ba27fffffffffffffffffffffffffffffffffffffffffffffffffffffffffffffffff82610b67565b610bac8683610b67565b95508019841693508086168417925050509392505050565b5f819050919050565b5f610be7610be2610bdd84610762565b610bc4565b610762565b9050919050565b5f819050919050565b610c0083610bcd565b610c14610c0c82610bee565b848454610b73565b825550505050565b5f90565b610c28610c1c565b610c33818484610bf7565b505050565b5b81811015610c5657610c4b5f82610c20565b600181019050610c39565b5050565b601f821115610c9b57610c6c81610b46565b610c7584610b58565b81016020851015610c84578190505b610c98610c9085610b58565b830182610c38565b50505b505050565b5f82821c905092915050565b5f610cbb5f1984600802610ca0565b1980831691505092915050565b5f610cd38383610cac565b9150826002028217905092915050565b610cec82610852565b67ffffffffffffffff811115610d0557610d04610609565b5b610d0f8254610b16565b610d1a828285610c5a565b5f60209050601f831160018114610d4b575f8415610d39578287015190505b610d438582610cc8565b865550610daa565b601f198416610d5986610b46565b5f5b82811015610d8057848901518255600182019150602085019450602081019050610d5b565b86831015610d9d5784890151610d99601f891682610cac565b8355505b6001600288020188555050505b505050505050565b7f4e487b71000000000000000000000000000000000000000000000000000000005f52601160045260245ffd5b5f610de982610762565b9150610df483610762565b9250828203905081811115610e0c57610e0b610db2565b5b92915050565b7f4e487b71000000000000000000000000000000000000000000000000000000005f52603260045260245ffdfea26469706673582212207da091b2770d8f846cfff2a5de9f1eb6eee98b907142bc4752280cbcdc5a0a5764736f6c63430008170033",
			"opcodes": "PUSH1 0x80 PUSH1 0x40 MSTORE CALLVALUE DUP1 ISZERO PUSH2 0xF JUMPI PUSH0 DUP1 REVERT JUMPDEST POP PUSH2 0xE75 DUP1 PUSH2 0x1D PUSH0 CODECOPY PUSH0 RETURN INVALID PUSH1 0x80 PUSH1 0x40 MSTORE CALLVALUE DUP1 ISZERO PUSH2 0xF JUMPI PUSH0 DUP1 REVERT JUMPDEST POP PUSH1 0x4 CALLDATASIZE LT PUSH2 0x7B JUMPI PUSH0 CALLDATALOAD PUSH1 0xE0 SHR DUP1 PUSH4 0x642F9163 GT PUSH2 0x59 JUMPI DUP1 PUSH4 0x642F9163 EQ PUSH2 0xD7 JUMPI DUP1 PUSH4 0xA99C855E EQ PUSH2 0x107 JUMPI DUP1 PUSH4 0xBC84F213 EQ PUSH2 0x125 JUMPI DUP1 PUSH4 0xE93314AB EQ PUSH2 0x141 JUMPI PUSH2 0x7B JUMP JUMPDEST DUP1 PUSH4 0x29EC0B2B EQ PUSH2 0x7F JUMPI DUP1 PUSH4 0x4A48604A EQ PUSH2 0x9B JUMPI DUP1 PUSH4 0x57E61EA4 EQ PUSH2 0xB9 JUMPI JUMPDEST PUSH0 DUP1 REVERT JUMPDEST PUSH2 0x99 PUSH1 0x4 DUP1 CALLDATASIZE SUB DUP2 ADD SWAP1 PUSH2 0x94 SWAP2 SWAP1 PUSH2 0x795 JUMP JUMPDEST PUSH2 0x15F JUMP JUMPDEST STOP JUMPDEST PUSH2 0xA3 PUSH2 0x1C3 JUMP JUMPDEST PUSH1 0x40 MLOAD PUSH2 0xB0 SWAP2 SWAP1 PUSH2 0x810 JUMP JUMPDEST PUSH1 0x40 MLOAD DUP1 SWAP2 SUB SWAP1 RETURN JUMPDEST PUSH2 0xC1 PUSH2 0x1CF JUMP JUMPDEST PUSH1 0x40 MLOAD PUSH2 0xCE SWAP2 SWAP1 PUSH2 0x9C9 JUMP JUMPDEST PUSH1 0x40 MLOAD DUP1 SWAP2 SUB SWAP1 RETURN JUMPDEST PUSH2 0xF1 PUSH1 0x4 DUP1 CALLDATASIZE SUB DUP2 ADD SWAP1 PUSH2 0xEC SWAP2 SWAP1 PUSH2 0x9E9 JUMP JUMPDEST PUSH2 0x2DE JUMP JUMPDEST PUSH1 0x40 MLOAD PUSH2 0xFE SWAP2 SWAP1 PUSH2 0xA61 JUMP JUMPDEST PUSH1 0x40 MLOAD DUP1 SWAP2 SUB SWAP1 RETURN JUMPDEST PUSH2 0x10F PUSH2 0x3D7 JUMP JUMPDEST PUSH1 0x40 MLOAD PUSH2 0x11C SWAP2 SWAP1 PUSH2 0xAC9 JUMP JUMPDEST PUSH1 0x40 MLOAD DUP1 SWAP2 SUB SWAP1 RETURN JUMPDEST PUSH2 0x13F PUSH1 0x4 DUP1 CALLDATASIZE SUB DUP2 ADD SWAP1 PUSH2 0x13A SWAP2 SWAP1 PUSH2 0x795 JUMP JUMPDEST PUSH2 0x469 JUMP JUMPDEST STOP JUMPDEST PUSH2 0x149 PUSH2 0x4F2 JUMP JUMPDEST PUSH1 0x40 MLOAD PUSH2 0x156 SWAP2 SWAP1 PUSH2 0xA61 JUMP JUMPDEST PUSH1 0x40 MLOAD DUP1 SWAP2 SUB SWAP1 RETURN JUMPDEST PUSH1 0x40 MLOAD DUP1 PUSH1 0x60 ADD PUSH1 0x40 MSTORE DUP1 DUP5 DUP2 MSTORE PUSH1 0x20 ADD DUP4 ISZERO ISZERO DUP2 MSTORE PUSH1 0x20 ADD DUP3 DUP2 MSTORE POP PUSH1 0x4 PUSH0 DUP3 ADD MLOAD DUP2 PUSH0 ADD SWAP1 DUP2 PUSH2 0x191 SWAP2 SWAP1 PUSH2 0xCE3 JUMP JUMPDEST POP PUSH1 0x20 DUP3 ADD MLOAD DUP2 PUSH1 0x1 ADD PUSH0 PUSH2 0x100 EXP DUP2 SLOAD DUP2 PUSH1 0xFF MUL NOT AND SWAP1 DUP4 ISZERO ISZERO MUL OR SWAP1 SSTORE POP PUSH1 0x40 DUP3 ADD MLOAD DUP2 PUSH1 0x2 ADD SSTORE SWAP1 POP POP POP POP POP JUMP JUMPDEST PUSH0 PUSH1 0x4 PUSH1 0x2 ADD SLOAD SWAP1 POP SWAP1 JUMP JUMPDEST PUSH1 0x60 PUSH1 0x7 DUP1 SLOAD DUP1 PUSH1 0x20 MUL PUSH1 0x20 ADD PUSH1 0x40 MLOAD SWAP1 DUP2 ADD PUSH1 0x40 MSTORE DUP1 SWAP3 SWAP2 SWAP1 DUP2 DUP2 MSTORE PUSH1 0x20 ADD PUSH0 SWAP1 JUMPDEST DUP3 DUP3 LT ISZERO PUSH2 0x2D5 JUMPI DUP4 DUP3 SWAP1 PUSH0 MSTORE PUSH1 0x20 PUSH0 KECCAK256 SWAP1 PUSH1 0x3 MUL ADD PUSH1 0x40 MLOAD DUP1 PUSH1 0x60 ADD PUSH1 0x40 MSTORE SWAP1 DUP2 PUSH0 DUP3 ADD DUP1 SLOAD PUSH2 0x222 SWAP1 PUSH2 0xB16 JUMP JUMPDEST DUP1 PUSH1 0x1F ADD PUSH1 0x20 DUP1 SWAP2 DIV MUL PUSH1 0x20 ADD PUSH1 0x40 MLOAD SWAP1 DUP2 ADD PUSH1 0x40 MSTORE DUP1 SWAP3 SWAP2 SWAP1 DUP2 DUP2 MSTORE PUSH1 0x20 ADD DUP3 DUP1 SLOAD PUSH2 0x24E SWAP1 PUSH2 0xB16 JUMP JUMPDEST DUP1 ISZERO PUSH2 0x299 JUMPI DUP1 PUSH1 0x1F LT PUSH2 0x270 JUMPI PUSH2 0x100 DUP1 DUP4 SLOAD DIV MUL DUP4 MSTORE SWAP2 PUSH1 0x20 ADD SWAP2 PUSH2 0x299 JUMP JUMPDEST DUP3 ADD SWAP2 SWAP1 PUSH0 MSTORE PUSH1 0x20 PUSH0 KECCAK256 SWAP1 JUMPDEST DUP2 SLOAD DUP2 MSTORE SWAP1 PUSH1 0x1 ADD SWAP1 PUSH1 0x20 ADD DUP1 DUP4 GT PUSH2 0x27C JUMPI DUP3 SWAP1 SUB PUSH1 0x1F AND DUP3 ADD SWAP2 JUMPDEST POP POP POP POP POP DUP2 MSTORE PUSH1 0x20 ADD PUSH1 0x1 DUP3 ADD PUSH0 SWAP1 SLOAD SWAP1 PUSH2 0x100 EXP SWAP1 DIV PUSH1 0xFF AND ISZERO ISZERO ISZERO ISZERO DUP2 MSTORE PUSH1 0x20 ADD PUSH1 0x2 DUP3 ADD SLOAD DUP2 MSTORE POP POP DUP2 MSTORE PUSH1 0x20 ADD SWAP1 PUSH1 0x1 ADD SWAP1 PUSH2 0x1F2 JUMP JUMPDEST POP POP POP POP SWAP1 POP SWAP1 JUMP JUMPDEST PUSH2 0x2E6 PUSH2 0x5BF JUMP JUMPDEST PUSH1 0x7 PUSH1 0x1 DUP4 PUSH2 0x2F5 SWAP2 SWAP1 PUSH2 0xDDF JUMP JUMPDEST DUP2 SLOAD DUP2 LT PUSH2 0x306 JUMPI PUSH2 0x305 PUSH2 0xE12 JUMP JUMPDEST JUMPDEST SWAP1 PUSH0 MSTORE PUSH1 0x20 PUSH0 KECCAK256 SWAP1 PUSH1 0x3 MUL ADD PUSH1 0x40 MLOAD DUP1 PUSH1 0x60 ADD PUSH1 0x40 MSTORE SWAP1 DUP2 PUSH0 DUP3 ADD DUP1 SLOAD PUSH2 0x32C SWAP1 PUSH2 0xB16 JUMP JUMPDEST DUP1 PUSH1 0x1F ADD PUSH1 0x20 DUP1 SWAP2 DIV MUL PUSH1 0x20 ADD PUSH1 0x40 MLOAD SWAP1 DUP2 ADD PUSH1 0x40 MSTORE DUP1 SWAP3 SWAP2 SWAP1 DUP2 DUP2 MSTORE PUSH1 0x20 ADD DUP3 DUP1 SLOAD PUSH2 0x358 SWAP1 PUSH2 0xB16 JUMP JUMPDEST DUP1 ISZERO PUSH2 0x3A3 JUMPI DUP1 PUSH1 0x1F LT PUSH2 0x37A JUMPI PUSH2 0x100 DUP1 DUP4 SLOAD DIV MUL DUP4 MSTORE SWAP2 PUSH1 0x20 ADD SWAP2 PUSH2 0x3A3 JUMP JUMPDEST DUP3 ADD SWAP2 SWAP1 PUSH0 MSTORE PUSH1 0x20 PUSH0 KECCAK256 SWAP1 JUMPDEST DUP2 SLOAD DUP2 MSTORE SWAP1 PUSH1 0x1 ADD SWAP1 PUSH1 0x20 ADD DUP1 DUP4 GT PUSH2 0x386 JUMPI DUP3 SWAP1 SUB PUSH1 0x1F AND DUP3 ADD SWAP2 JUMPDEST POP POP POP POP POP DUP2 MSTORE PUSH1 0x20 ADD PUSH1 0x1 DUP3 ADD PUSH0 SWAP1 SLOAD SWAP1 PUSH2 0x100 EXP SWAP1 DIV PUSH1 0xFF AND ISZERO ISZERO ISZERO ISZERO DUP2 MSTORE PUSH1 0x20 ADD PUSH1 0x2 DUP3 ADD SLOAD DUP2 MSTORE POP POP SWAP1 POP SWAP2 SWAP1 POP JUMP JUMPDEST PUSH1 0x60 PUSH1 0x4 PUSH0 ADD DUP1 SLOAD PUSH2 0x3E8 SWAP1 PUSH2 0xB16 JUMP JUMPDEST DUP1 PUSH1 0x1F ADD PUSH1 0x20 DUP1 SWAP2 DIV MUL PUSH1 0x20 ADD PUSH1 0x40 MLOAD SWAP1 DUP2 ADD PUSH1 0x40 MSTORE DUP1 SWAP3 SWAP2 SWAP1 DUP2 DUP2 MSTORE PUSH1 0x20 ADD DUP3 DUP1 SLOAD PUSH2 0x414 SWAP1 PUSH2 0xB16 JUMP JUMPDEST DUP1 ISZERO PUSH2 0x45F JUMPI DUP1 PUSH1 0x1F LT PUSH2 0x436 JUMPI PUSH2 0x100 DUP1 DUP4 SLOAD DIV MUL DUP4 MSTORE SWAP2 PUSH1 0x20 ADD SWAP2 PUSH2 0x45F JUMP JUMPDEST DUP3 ADD SWAP2 SWAP1 PUSH0 MSTORE PUSH1 0x20 PUSH0 KECCAK256 SWAP1 JUMPDEST DUP2 SLOAD DUP2 MSTORE SWAP1 PUSH1 0x1 ADD SWAP1 PUSH1 0x20 ADD DUP1 DUP4 GT PUSH2 0x442 JUMPI DUP3 SWAP1 SUB PUSH1 0x1F AND DUP3 ADD SWAP2 JUMPDEST POP POP POP POP POP SWAP1 POP SWAP1 JUMP JUMPDEST PUSH1 0x7 PUSH1 0x40 MLOAD DUP1 PUSH1 0x60 ADD PUSH1 0x40 MSTORE DUP1 DUP6 DUP2 MSTORE PUSH1 0x20 ADD DUP5 ISZERO ISZERO DUP2 MSTORE PUSH1 0x20 ADD DUP4 DUP2 MSTORE POP SWAP1 DUP1 PUSH1 0x1 DUP2 SLOAD ADD DUP1 DUP3 SSTORE DUP1 SWAP2 POP POP PUSH1 0x1 SWAP1 SUB SWAP1 PUSH0 MSTORE PUSH1 0x20 PUSH0 KECCAK256 SWAP1 PUSH1 0x3 MUL ADD PUSH0 SWAP1 SWAP2 SWAP1 SWAP2 SWAP1 SWAP2 POP PUSH0 DUP3 ADD MLOAD DUP2 PUSH0 ADD SWAP1 DUP2 PUSH2 0x4C1 SWAP2 SWAP1 PUSH2 0xCE3 JUMP JUMPDEST POP PUSH1 0x20 DUP3 ADD MLOAD DUP2 PUSH1 0x1 ADD PUSH0 PUSH2 0x100 EXP DUP2 SLOAD DUP2 PUSH1 0xFF MUL NOT AND SWAP1 DUP4 ISZERO ISZERO MUL OR SWAP1 SSTORE POP PUSH1 0x40 DUP3 ADD MLOAD DUP2 PUSH1 0x2 ADD SSTORE POP POP POP POP POP JUMP JUMPDEST PUSH2 0x4FA PUSH2 0x5BF JUMP JUMPDEST PUSH1 0x4 PUSH1 0x40 MLOAD DUP1 PUSH1 0x60 ADD PUSH1 0x40 MSTORE SWAP1 DUP2 PUSH0 DUP3 ADD DUP1 SLOAD PUSH2 0x516 SWAP1 PUSH2 0xB16 JUMP JUMPDEST DUP1 PUSH1 0x1F ADD PUSH1 0x20 DUP1 SWAP2 DIV MUL PUSH1 0x20 ADD PUSH1 0x40 MLOAD SWAP1 DUP2 ADD PUSH1 0x40 MSTORE DUP1 SWAP3 SWAP2 SWAP1 DUP2 DUP2 MSTORE PUSH1 0x20 ADD DUP3 DUP1 SLOAD PUSH2 0x542 SWAP1 PUSH2 0xB16 JUMP JUMPDEST DUP1 ISZERO PUSH2 0x58D JUMPI DUP1 PUSH1 0x1F LT PUSH2 0x564 JUMPI PUSH2 0x100 DUP1 DUP4 SLOAD DIV MUL DUP4 MSTORE SWAP2 PUSH1 0x20 ADD SWAP2 PUSH2 0x58D JUMP JUMPDEST DUP3 ADD SWAP2 SWAP1 PUSH0 MSTORE PUSH1 0x20 PUSH0 KECCAK256 SWAP1 JUMPDEST DUP2 SLOAD DUP2 MSTORE SWAP1 PUSH1 0x1 ADD SWAP1 PUSH1 0x20 ADD DUP1 DUP4 GT PUSH2 0x570 JUMPI DUP3 SWAP1 SUB PUSH1 0x1F AND DUP3 ADD SWAP2 JUMPDEST POP POP POP POP POP DUP2 MSTORE PUSH1 0x20 ADD PUSH1 0x1 DUP3 ADD PUSH0 SWAP1 SLOAD SWAP1 PUSH2 0x100 EXP SWAP1 DIV PUSH1 0xFF AND ISZERO ISZERO ISZERO ISZERO DUP2 MSTORE PUSH1 0x20 ADD PUSH1 0x2 DUP3 ADD SLOAD DUP2 MSTORE POP POP SWAP1 POP SWAP1 JUMP JUMPDEST PUSH1 0x40 MLOAD DUP1 PUSH1 0x60 ADD PUSH1 0x40 MSTORE DUP1 PUSH1 0x60 DUP2 MSTORE PUSH1 0x20 ADD PUSH0 ISZERO ISZERO DUP2 MSTORE PUSH1 0x20 ADD PUSH0 DUP2 MSTORE POP SWAP1 JUMP JUMPDEST PUSH0 PUSH1 0x40 MLOAD SWAP1 POP SWAP1 JUMP JUMPDEST PUSH0 DUP1 REVERT JUMPDEST PUSH0 DUP1 REVERT JUMPDEST PUSH0 DUP1 REVERT JUMPDEST PUSH0 DUP1 REVERT JUMPDEST PUSH0 PUSH1 0x1F NOT PUSH1 0x1F DUP4 ADD AND SWAP1 POP SWAP2 SWAP1 POP JUMP JUMPDEST PUSH32 0x4E487B7100000000000000000000000000000000000000000000000000000000 PUSH0 MSTORE PUSH1 0x41 PUSH1 0x4 MSTORE PUSH1 0x24 PUSH0 REVERT JUMPDEST PUSH2 0x63F DUP3 PUSH2 0x5F9 JUMP JUMPDEST DUP2 ADD DUP2 DUP2 LT PUSH8 0xFFFFFFFFFFFFFFFF DUP3 GT OR ISZERO PUSH2 0x65E JUMPI PUSH2 0x65D PUSH2 0x609 JUMP JUMPDEST JUMPDEST DUP1 PUSH1 0x40 MSTORE POP POP POP JUMP JUMPDEST PUSH0 PUSH2 0x670 PUSH2 0x5E0 JUMP JUMPDEST SWAP1 POP PUSH2 0x67C DUP3 DUP3 PUSH2 0x636 JUMP JUMPDEST SWAP2 SWAP1 POP JUMP JUMPDEST PUSH0 PUSH8 0xFFFFFFFFFFFFFFFF DUP3 GT ISZERO PUSH2 0x69B JUMPI PUSH2 0x69A PUSH2 0x609 JUMP JUMPDEST JUMPDEST PUSH2 0x6A4 DUP3 PUSH2 0x5F9 JUMP JUMPDEST SWAP1 POP PUSH1 0x20 DUP2 ADD SWAP1 POP SWAP2 SWAP1 POP JUMP JUMPDEST DUP3 DUP2 DUP4 CALLDATACOPY PUSH0 DUP4 DUP4 ADD MSTORE POP POP POP JUMP JUMPDEST PUSH0 PUSH2 0x6D1 PUSH2 0x6CC DUP5 PUSH2 0x681 JUMP JUMPDEST PUSH2 0x667 JUMP JUMPDEST SWAP1 POP DUP3 DUP2 MSTORE PUSH1 0x20 DUP2 ADD DUP5 DUP5 DUP5 ADD GT ISZERO PUSH2 0x6ED JUMPI PUSH2 0x6EC PUSH2 0x5F5 JUMP JUMPDEST JUMPDEST PUSH2 0x6F8 DUP5 DUP3 DUP6 PUSH2 0x6B1 JUMP JUMPDEST POP SWAP4 SWAP3 POP POP POP JUMP JUMPDEST PUSH0 DUP3 PUSH1 0x1F DUP4 ADD SLT PUSH2 0x714 JUMPI PUSH2 0x713 PUSH2 0x5F1 JUMP JUMPDEST JUMPDEST DUP2 CALLDATALOAD PUSH2 0x724 DUP5 DUP3 PUSH1 0x20 DUP7 ADD PUSH2 0x6BF JUMP JUMPDEST SWAP2 POP POP SWAP3 SWAP2 POP POP JUMP JUMPDEST PUSH0 DUP2 ISZERO ISZERO SWAP1 POP SWAP2 SWAP1 POP JUMP JUMPDEST PUSH2 0x741 DUP2 PUSH2 0x72D JUMP JUMPDEST DUP2 EQ PUSH2 0x74B JUMPI PUSH0 DUP1 REVERT JUMPDEST POP JUMP JUMPDEST PUSH0 DUP2 CALLDATALOAD SWAP1 POP PUSH2 0x75C DUP2 PUSH2 0x738 JUMP JUMPDEST SWAP3 SWAP2 POP POP JUMP JUMPDEST PUSH0 DUP2 SWAP1 POP SWAP2 SWAP1 POP JUMP JUMPDEST PUSH2 0x774 DUP2 PUSH2 0x762 JUMP JUMPDEST DUP2 EQ PUSH2 0x77E JUMPI PUSH0 DUP1 REVERT JUMPDEST POP JUMP JUMPDEST PUSH0 DUP2 CALLDATALOAD SWAP1 POP PUSH2 0x78F DUP2 PUSH2 0x76B JUMP JUMPDEST SWAP3 SWAP2 POP POP JUMP JUMPDEST PUSH0 DUP1 PUSH0 PUSH1 0x60 DUP5 DUP7 SUB SLT ISZERO PUSH2 0x7AC JUMPI PUSH2 0x7AB PUSH2 0x5E9 JUMP JUMPDEST JUMPDEST PUSH0 DUP5 ADD CALLDATALOAD PUSH8 0xFFFFFFFFFFFFFFFF DUP2 GT ISZERO PUSH2 0x7C9 JUMPI PUSH2 0x7C8 PUSH2 0x5ED JUMP JUMPDEST JUMPDEST PUSH2 0x7D5 DUP7 DUP3 DUP8 ADD PUSH2 0x700 JUMP JUMPDEST SWAP4 POP POP PUSH1 0x20 PUSH2 0x7E6 DUP7 DUP3 DUP8 ADD PUSH2 0x74E JUMP JUMPDEST SWAP3 POP POP PUSH1 0x40 PUSH2 0x7F7 DUP7 DUP3 DUP8 ADD PUSH2 0x781 JUMP JUMPDEST SWAP2 POP POP SWAP3 POP SWAP3 POP SWAP3 JUMP JUMPDEST PUSH2 0x80A DUP2 PUSH2 0x762 JUMP JUMPDEST DUP3 MSTORE POP POP JUMP JUMPDEST PUSH0 PUSH1 0x20 DUP3 ADD SWAP1 POP PUSH2 0x823 PUSH0 DUP4 ADD DUP5 PUSH2 0x801 JUMP JUMPDEST SWAP3 SWAP2 POP POP JUMP JUMPDEST PUSH0 DUP2 MLOAD SWAP1 POP SWAP2 SWAP1 POP JUMP JUMPDEST PUSH0 DUP3 DUP3 MSTORE PUSH1 0x20 DUP3 ADD SWAP1 POP SWAP3 SWAP2 POP POP JUMP JUMPDEST PUSH0 DUP2 SWAP1 POP PUSH1 0x20 DUP3 ADD SWAP1 POP SWAP2 SWAP1 POP JUMP JUMPDEST PUSH0 DUP2 MLOAD SWAP1 POP SWAP2 SWAP1 POP JUMP JUMPDEST PUSH0 DUP3 DUP3 MSTORE PUSH1 0x20 DUP3 ADD SWAP1 POP SWAP3 SWAP2 POP POP JUMP JUMPDEST PUSH0 JUMPDEST DUP4 DUP2 LT ISZERO PUSH2 0x889 JUMPI DUP1 DUP3 ADD MLOAD DUP2 DUP5 ADD MSTORE PUSH1 0x20 DUP2 ADD SWAP1 POP PUSH2 0x86E JUMP JUMPDEST PUSH0 DUP5 DUP5 ADD MSTORE POP POP POP POP JUMP JUMPDEST PUSH0 PUSH2 0x89E DUP3 PUSH2 0x852 JUMP JUMPDEST PUSH2 0x8A8 DUP2 DUP6 PUSH2 0x85C JUMP JUMPDEST SWAP4 POP PUSH2 0x8B8 DUP2 DUP6 PUSH1 0x20 DUP7 ADD PUSH2 0x86C JUMP JUMPDEST PUSH2 0x8C1 DUP2 PUSH2 0x5F9 JUMP JUMPDEST DUP5 ADD SWAP2 POP POP SWAP3 SWAP2 POP POP JUMP JUMPDEST PUSH2 0x8D5 DUP2 PUSH2 0x72D JUMP JUMPDEST DUP3 MSTORE POP POP JUMP JUMPDEST PUSH2 0x8E4 DUP2 PUSH2 0x762 JUMP JUMPDEST DUP3 MSTORE POP POP JUMP JUMPDEST PUSH0 PUSH1 0x60 DUP4 ADD PUSH0 DUP4 ADD MLOAD DUP5 DUP3 SUB PUSH0 DUP7 ADD MSTORE PUSH2 0x904 DUP3 DUP3 PUSH2 0x894 JUMP JUMPDEST SWAP2 POP POP PUSH1 0x20 DUP4 ADD MLOAD PUSH2 0x919 PUSH1 0x20 DUP7 ADD DUP3 PUSH2 0x8CC JUMP JUMPDEST POP PUSH1 0x40 DUP4 ADD MLOAD PUSH2 0x92C PUSH1 0x40 DUP7 ADD DUP3 PUSH2 0x8DB JUMP JUMPDEST POP DUP1 SWAP2 POP POP SWAP3 SWAP2 POP POP JUMP JUMPDEST PUSH0 PUSH2 0x942 DUP4 DUP4 PUSH2 0x8EA JUMP JUMPDEST SWAP1 POP SWAP3 SWAP2 POP POP JUMP JUMPDEST PUSH0 PUSH1 0x20 DUP3 ADD SWAP1 POP SWAP2 SWAP1 POP JUMP JUMPDEST PUSH0 PUSH2 0x960 DUP3 PUSH2 0x829 JUMP JUMPDEST PUSH2 0x96A DUP2 DUP6 PUSH2 0x833 JUMP JUMPDEST SWAP4 POP DUP4 PUSH1 0x20 DUP3 MUL DUP6 ADD PUSH2 0x97C DUP6 PUSH2 0x843 JUMP JUMPDEST DUP1 PUSH0 JUMPDEST DUP6 DUP2 LT ISZERO PUSH2 0x9B7 JUMPI DUP5 DUP5 SUB DUP10 MSTORE DUP2 MLOAD PUSH2 0x998 DUP6 DUP3 PUSH2 0x937 JUMP JUMPDEST SWAP5 POP PUSH2 0x9A3 DUP4 PUSH2 0x94A JUMP JUMPDEST SWAP3 POP PUSH1 0x20 DUP11 ADD SWAP10 POP POP PUSH1 0x1 DUP2 ADD SWAP1 POP PUSH2 0x97F JUMP JUMPDEST POP DUP3 SWAP8 POP DUP8 SWAP6 POP POP POP POP POP POP SWAP3 SWAP2 POP POP JUMP JUMPDEST PUSH0 PUSH1 0x20 DUP3 ADD SWAP1 POP DUP2 DUP2 SUB PUSH0 DUP4 ADD MSTORE PUSH2 0x9E1 DUP2 DUP5 PUSH2 0x956 JUMP JUMPDEST SWAP1 POP SWAP3 SWAP2 POP POP JUMP JUMPDEST PUSH0 PUSH1 0x20 DUP3 DUP5 SUB SLT ISZERO PUSH2 0x9FE JUMPI PUSH2 0x9FD PUSH2 0x5E9 JUMP JUMPDEST JUMPDEST PUSH0 PUSH2 0xA0B DUP5 DUP3 DUP6 ADD PUSH2 0x781 JUMP JUMPDEST SWAP2 POP POP SWAP3 SWAP2 POP POP JUMP JUMPDEST PUSH0 PUSH1 0x60 DUP4 ADD PUSH0 DUP4 ADD MLOAD DUP5 DUP3 SUB PUSH0 DUP7 ADD MSTORE PUSH2 0xA2E DUP3 DUP3 PUSH2 0x894 JUMP JUMPDEST SWAP2 POP POP PUSH1 0x20 DUP4 ADD MLOAD PUSH2 0xA43 PUSH1 0x20 DUP7 ADD DUP3 PUSH2 0x8CC JUMP JUMPDEST POP PUSH1 0x40 DUP4 ADD MLOAD PUSH2 0xA56 PUSH1 0x40 DUP7 ADD DUP3 PUSH2 0x8DB JUMP JUMPDEST POP DUP1 SWAP2 POP POP SWAP3 SWAP2 POP POP JUMP JUMPDEST PUSH0 PUSH1 0x20 DUP3 ADD SWAP1 POP DUP2 DUP2 SUB PUSH0 DUP4 ADD MSTORE PUSH2 0xA79 DUP2 DUP5 PUSH2 0xA14 JUMP JUMPDEST SWAP1 POP SWAP3 SWAP2 POP POP JUMP JUMPDEST PUSH0 DUP3 DUP3 MSTORE PUSH1 0x20 DUP3 ADD SWAP1 POP SWAP3 SWAP2 POP POP JUMP JUMPDEST PUSH0 PUSH2 0xA9B DUP3 PUSH2 0x852 JUMP JUMPDEST PUSH2 0xAA5 DUP2 DUP6 PUSH2 0xA81 JUMP JUMPDEST SWAP4 POP PUSH2 0xAB5 DUP2 DUP6 PUSH1 0x20 DUP7 ADD PUSH2 0x86C JUMP JUMPDEST PUSH2 0xABE DUP2 PUSH2 0x5F9 JUMP JUMPDEST DUP5 ADD SWAP2 POP POP SWAP3 SWAP2 POP POP JUMP JUMPDEST PUSH0 PUSH1 0x20 DUP3 ADD SWAP1 POP DUP2 DUP2 SUB PUSH0 DUP4 ADD MSTORE PUSH2 0xAE1 DUP2 DUP5 PUSH2 0xA91 JUMP JUMPDEST SWAP1 POP SWAP3 SWAP2 POP POP JUMP JUMPDEST PUSH32 0x4E487B7100000000000000000000000000000000000000000000000000000000 PUSH0 MSTORE PUSH1 0x22 PUSH1 0x4 MSTORE PUSH1 0x24 PUSH0 REVERT JUMPDEST PUSH0 PUSH1 0x2 DUP3 DIV SWAP1 POP PUSH1 0x1 DUP3 AND DUP1 PUSH2 0xB2D JUMPI PUSH1 0x7F DUP3 AND SWAP2 POP JUMPDEST PUSH1 0x20 DUP3 LT DUP2 SUB PUSH2 0xB40 JUMPI PUSH2 0xB3F PUSH2 0xAE9 JUMP JUMPDEST JUMPDEST POP SWAP2 SWAP1 POP JUMP JUMPDEST PUSH0 DUP2 SWAP1 POP DUP2 PUSH0 MSTORE PUSH1 0x20 PUSH0 KECCAK256 SWAP1 POP SWAP2 SWAP1 POP JUMP JUMPDEST PUSH0 PUSH1 0x20 PUSH1 0x1F DUP4 ADD DIV SWAP1 POP SWAP2 SWAP1 POP JUMP JUMPDEST PUSH0 DUP3 DUP3 SHL SWAP1 POP SWAP3 SWAP2 POP POP JUMP JUMPDEST PUSH0 PUSH1 0x8 DUP4 MUL PUSH2 0xBA2 PUSH32 0xFFFFFFFFFFFFFFFFFFFFFFFFFFFFFFFFFFFFFFFFFFFFFFFFFFFFFFFFFFFFFFFF DUP3 PUSH2 0xB67 JUMP JUMPDEST PUSH2 0xBAC DUP7 DUP4 PUSH2 0xB67 JUMP JUMPDEST SWAP6 POP DUP1 NOT DUP5 AND SWAP4 POP DUP1 DUP7 AND DUP5 OR SWAP3 POP POP POP SWAP4 SWAP3 POP POP POP JUMP JUMPDEST PUSH0 DUP2 SWAP1 POP SWAP2 SWAP1 POP JUMP JUMPDEST PUSH0 PUSH2 0xBE7 PUSH2 0xBE2 PUSH2 0xBDD DUP5 PUSH2 0x762 JUMP JUMPDEST PUSH2 0xBC4 JUMP JUMPDEST PUSH2 0x762 JUMP JUMPDEST SWAP1 POP SWAP2 SWAP1 POP JUMP JUMPDEST PUSH0 DUP2 SWAP1 POP SWAP2 SWAP1 POP JUMP JUMPDEST PUSH2 0xC00 DUP4 PUSH2 0xBCD JUMP JUMPDEST PUSH2 0xC14 PUSH2 0xC0C DUP3 PUSH2 0xBEE JUMP JUMPDEST DUP5 DUP5 SLOAD PUSH2 0xB73 JUMP JUMPDEST DUP3 SSTORE POP POP POP POP JUMP JUMPDEST PUSH0 SWAP1 JUMP JUMPDEST PUSH2 0xC28 PUSH2 0xC1C JUMP JUMPDEST PUSH2 0xC33 DUP2 DUP5 DUP5 PUSH2 0xBF7 JUMP JUMPDEST POP POP POP JUMP JUMPDEST JUMPDEST DUP2 DUP2 LT ISZERO PUSH2 0xC56 JUMPI PUSH2 0xC4B PUSH0 DUP3 PUSH2 0xC20 JUMP JUMPDEST PUSH1 0x1 DUP2 ADD SWAP1 POP PUSH2 0xC39 JUMP JUMPDEST POP POP JUMP JUMPDEST PUSH1 0x1F DUP3 GT ISZERO PUSH2 0xC9B JUMPI PUSH2 0xC6C DUP2 PUSH2 0xB46 JUMP JUMPDEST PUSH2 0xC75 DUP5 PUSH2 0xB58 JUMP JUMPDEST DUP2 ADD PUSH1 0x20 DUP6 LT ISZERO PUSH2 0xC84 JUMPI DUP2 SWAP1 POP JUMPDEST PUSH2 0xC98 PUSH2 0xC90 DUP6 PUSH2 0xB58 JUMP JUMPDEST DUP4 ADD DUP3 PUSH2 0xC38 JUMP JUMPDEST POP POP JUMPDEST POP POP POP JUMP JUMPDEST PUSH0 DUP3 DUP3 SHR SWAP1 POP SWAP3 SWAP2 POP POP JUMP JUMPDEST PUSH0 PUSH2 0xCBB PUSH0 NOT DUP5 PUSH1 0x8 MUL PUSH2 0xCA0 JUMP JUMPDEST NOT DUP1 DUP4 AND SWAP2 POP POP SWAP3 SWAP2 POP POP JUMP JUMPDEST PUSH0 PUSH2 0xCD3 DUP4 DUP4 PUSH2 0xCAC JUMP JUMPDEST SWAP2 POP DUP3 PUSH1 0x2 MUL DUP3 OR SWAP1 POP SWAP3 SWAP2 POP POP JUMP JUMPDEST PUSH2 0xCEC DUP3 PUSH2 0x852 JUMP JUMPDEST PUSH8 0xFFFFFFFFFFFFFFFF DUP2 GT ISZERO PUSH2 0xD05 JUMPI PUSH2 0xD04 PUSH2 0x609 JUMP JUMPDEST JUMPDEST PUSH2 0xD0F DUP3 SLOAD PUSH2 0xB16 JUMP JUMPDEST PUSH2 0xD1A DUP3 DUP3 DUP6 PUSH2 0xC5A JUMP JUMPDEST PUSH0 PUSH1 0x20 SWAP1 POP PUSH1 0x1F DUP4 GT PUSH1 0x1 DUP2 EQ PUSH2 0xD4B JUMPI PUSH0 DUP5 ISZERO PUSH2 0xD39 JUMPI DUP3 DUP8 ADD MLOAD SWAP1 POP JUMPDEST PUSH2 0xD43 DUP6 DUP3 PUSH2 0xCC8 JUMP JUMPDEST DUP7 SSTORE POP PUSH2 0xDAA JUMP JUMPDEST PUSH1 0x1F NOT DUP5 AND PUSH2 0xD59 DUP7 PUSH2 0xB46 JUMP JUMPDEST PUSH0 JUMPDEST DUP3 DUP2 LT ISZERO PUSH2 0xD80 JUMPI DUP5 DUP10 ADD MLOAD DUP3 SSTORE PUSH1 0x1 DUP3 ADD SWAP2 POP PUSH1 0x20 DUP6 ADD SWAP5 POP PUSH1 0x20 DUP2 ADD SWAP1 POP PUSH2 0xD5B JUMP JUMPDEST DUP7 DUP4 LT ISZERO PUSH2 0xD9D JUMPI DUP5 DUP10 ADD MLOAD PUSH2 0xD99 PUSH1 0x1F DUP10 AND DUP3 PUSH2 0xCAC JUMP JUMPDEST DUP4 SSTORE POP JUMPDEST PUSH1 0x1 PUSH1 0x2 DUP9 MUL ADD DUP9 SSTORE POP POP POP JUMPDEST POP POP POP POP POP POP JUMP JUMPDEST PUSH32 0x4E487B7100000000000000000000000000000000000000000000000000000000 PUSH0 MSTORE PUSH1 0x11 PUSH1 0x4 MSTORE PUSH1 0x24 PUSH0 REVERT JUMPDEST PUSH0 PUSH2 0xDE9 DUP3 PUSH2 0x762 JUMP JUMPDEST SWAP2 POP PUSH2 0xDF4 DUP4 PUSH2 0x762 JUMP JUMPDEST SWAP3 POP DUP3 DUP3 SUB SWAP1 POP DUP2 DUP2 GT ISZERO PUSH2 0xE0C JUMPI PUSH2 0xE0B PUSH2 0xDB2 JUMP JUMPDEST JUMPDEST SWAP3 SWAP2 POP POP JUMP JUMPDEST PUSH32 0x4E487B7100000000000000000000000000000000000000000000000000000000 PUSH0 MSTORE PUSH1 0x32 PUSH1 0x4 MSTORE PUSH1 0x24 PUSH0 REVERT INVALID LOG2 PUSH5 0x6970667358 0x22 SLT KECCAK256 PUSH30 0xA091B2770D8F846CFFF2A5DE9F1EB6EEE98B907142BC4752280CBCDC5A0A JUMPI PUSH5 0x736F6C6343 STOP ADDMOD OR STOP CALLER "
		},
		"gasEstimates": {
			"creation": {
				"codeDepositCost": "740200",
				"executionCost": "771",
				"totalCost": "740971"
			},
			"external": {
				"getClass()": "infinite",
				"getS()": "infinite",
				"getSName()": "infinite",
				"getSNumber()": "2461",
				"getStudent(uint256)": "infinite",
				"pushStudent(string,bool,uint256)": "infinite",
				"setS(string,bool,uint256)": "infinite"
			}
		},
		"methodIdentifiers": {
			"getClass()": "57e61ea4",
			"getS()": "e93314ab",
			"getSName()": "a99c855e",
			"getSNumber()": "4a48604a",
			"getStudent(uint256)": "642f9163",
			"pushStudent(string,bool,uint256)": "bc84f213",
			"setS(string,bool,uint256)": "29ec0b2b"
		}
	},
	"abi": [
		{
			"inputs": [],
			"name": "getClass",
			"outputs": [
				{
					"components": [
						{
							"internalType": "string",
							"name": "name",
							"type": "string"
						},
						{
							"internalType": "bool",
							"name": "isMale",
							"type": "bool"
						},
						{
							"internalType": "uint256",
							"name": "number",
							"type": "uint256"
						}
					],
					"internalType": "struct STRUCT.Student[]",
					"name": "",
					"type": "tuple[]"
				}
			],
			"stateMutability": "view",
			"type": "function"
		},
		{
			"inputs": [],
			"name": "getS",
			"outputs": [
				{
					"components": [
						{
							"internalType": "string",
							"name": "name",
							"type": "string"
						},
						{
							"internalType": "bool",
							"name": "isMale",
							"type": "bool"
						},
						{
							"internalType": "uint256",
							"name": "number",
							"type": "uint256"
						}
					],
					"internalType": "struct STRUCT.Student",
					"name": "",
					"type": "tuple"
				}
			],
			"stateMutability": "view",
			"type": "function"
		},
		{
			"inputs": [],
			"name": "getSName",
			"outputs": [
				{
					"internalType": "string",
					"name": "",
					"type": "string"
				}
			],
			"stateMutability": "view",
			"type": "function"
		},
		{
			"inputs": [],
			"name": "getSNumber",
			"outputs": [
				{
					"internalType": "uint256",
					"name": "",
					"type": "uint256"
				}
			],
			"stateMutability": "view",
			"type": "function"
		},
		{
			"inputs": [
				{
					"internalType": "uint256",
					"name": "_n",
					"type": "uint256"
				}
			],
			"name": "getStudent",
			"outputs": [
				{
					"components": [
						{
							"internalType": "string",
							"name": "name",
							"type": "string"
						},
						{
							"internalType": "bool",
							"name": "isMale",
							"type": "bool"
						},
						{
							"internalType": "uint256",
							"name": "number",
							"type": "uint256"
						}
					],
					"internalType": "struct STRUCT.Student",
					"name": "",
					"type": "tuple"
				}
			],
			"stateMutability": "view",
			"type": "function"
		},
		{
			"inputs": [
				{
					"internalType": "string",
					"name": "_name",
					"type": "string"
				},
				{
					"internalType": "bool",
					"name": "_isMale",
					"type": "bool"
				},
				{
					"internalType": "uint256",
					"name": "_number",
					"type": "uint256"
				}
			],
			"name": "pushStudent",
			"outputs": [],
			"stateMutability": "nonpayable",
			"type": "function"
		},
		{
			"inputs": [
				{
					"internalType": "string",
					"name": "_name",
					"type": "string"
				},
				{
					"internalType": "bool",
					"name": "_isMale",
					"type": "bool"
				},
				{
					"internalType": "uint256",
					"name": "_number",
					"type": "uint256"
				}
			],
			"name": "setS",
			"outputs": [],
			"stateMutability": "nonpayable",
			"type": "function"
		}
	]
}