{
	"data": {
		"bytecode": {
			"linkReferences": {},
			"object": "608060405234801561000f575f80fd5b506109d78061001d5f395ff3fe608060405234801561000f575f80fd5b506004361061004a575f3560e01c806314dab6451461004e578063ce8b0f541461006a578063db0d9e3414610086578063db2bb092146100a2575b5f80fd5b610068600480360381019061006391906105ff565b6100be565b005b610084600480360381019061007f9190610646565b610102565b005b6100a0600480360381019061009b9190610646565b610162565b005b6100bc60048036038101906100b791906105ff565b6101c1565b005b8060035f820151815f0190816100d491906108d2565b506020820151816001015560408201518160020190805190602001906100fb92919061022a565b5090505050565b60405180606001604052808481526020018381526020018281525060065f820151815f01908161013291906108d2565b5060208201518160010155604082015181600201908051906020019061015992919061022a565b50905050505050565b6040518060600160405280848152602001838152602001828152505f80820151815f01908161019191906108d2565b506020820151816001015560408201518160020190805190602001906101b892919061022a565b50905050505050565b600981908060018154018082558091505060019003905f5260205f2090600302015f909190919091505f820151815f0190816101fd91906108d2565b5060208201518160010155604082015181600201908051906020019061022492919061022a565b50505050565b828054828255905f5260205f20908101928215610270579160200282015b8281111561026f57825182908161025f91906108d2565b5091602001919060010190610248565b5b50905061027d9190610281565b5090565b5b808211156102a0575f818161029791906102a4565b50600101610282565b5090565b5080546102b090610705565b5f825580601f106102c157506102de565b601f0160209004905f5260205f20908101906102dd91906102e1565b5b50565b5b808211156102f8575f815f9055506001016102e2565b5090565b5f604051905090565b5f80fd5b5f80fd5b5f80fd5b5f601f19601f8301169050919050565b7f4e487b71000000000000000000000000000000000000000000000000000000005f52604160045260245ffd5b61035782610311565b810181811067ffffffffffffffff8211171561037657610375610321565b5b80604052505050565b5f6103886102fc565b9050610394828261034e565b919050565b5f80fd5b5f80fd5b5f80fd5b5f67ffffffffffffffff8211156103bf576103be610321565b5b6103c882610311565b9050602081019050919050565b828183375f83830152505050565b5f6103f56103f0846103a5565b61037f565b905082815260208101848484011115610411576104106103a1565b5b61041c8482856103d5565b509392505050565b5f82601f8301126104385761043761039d565b5b81356104488482602086016103e3565b91505092915050565b5f819050919050565b61046381610451565b811461046d575f80fd5b50565b5f8135905061047e8161045a565b92915050565b5f67ffffffffffffffff82111561049e5761049d610321565b5b602082029050602081019050919050565b5f80fd5b5f6104c56104c084610484565b61037f565b905080838252602082019050602084028301858111156104e8576104e76104af565b5b835b8181101561052f57803567ffffffffffffffff81111561050d5761050c61039d565b5b80860161051a8982610424565b855260208501945050506020810190506104ea565b5050509392505050565b5f82601f83011261054d5761054c61039d565b5b813561055d8482602086016104b3565b91505092915050565b5f6060828403121561057b5761057a61030d565b5b610585606061037f565b90505f82013567ffffffffffffffff8111156105a4576105a3610399565b5b6105b084828501610424565b5f8301525060206105c384828501610470565b602083015250604082013567ffffffffffffffff8111156105e7576105e6610399565b5b6105f384828501610539565b60408301525092915050565b5f6020828403121561061457610613610305565b5b5f82013567ffffffffffffffff81111561063157610630610309565b5b61063d84828501610566565b91505092915050565b5f805f6060848603121561065d5761065c610305565b5b5f84013567ffffffffffffffff81111561067a57610679610309565b5b61068686828701610424565b935050602061069786828701610470565b925050604084013567ffffffffffffffff8111156106b8576106b7610309565b5b6106c486828701610539565b9150509250925092565b5f81519050919050565b7f4e487b71000000000000000000000000000000000000000000000000000000005f52602260045260245ffd5b5f600282049050600182168061071c57607f821691505b60208210810361072f5761072e6106d8565b5b50919050565b5f819050815f5260205f209050919050565b5f6020601f8301049050919050565b5f82821b905092915050565b5f600883026107917fffffffffffffffffffffffffffffffffffffffffffffffffffffffffffffffff82610756565b61079b8683610756565b95508019841693508086168417925050509392505050565b5f819050919050565b5f6107d66107d16107cc84610451565b6107b3565b610451565b9050919050565b5f819050919050565b6107ef836107bc565b6108036107fb826107dd565b848454610762565b825550505050565b5f90565b61081761080b565b6108228184846107e6565b505050565b5b818110156108455761083a5f8261080f565b600181019050610828565b5050565b601f82111561088a5761085b81610735565b61086484610747565b81016020851015610873578190505b61088761087f85610747565b830182610827565b50505b505050565b5f82821c905092915050565b5f6108aa5f198460080261088f565b1980831691505092915050565b5f6108c2838361089b565b9150826002028217905092915050565b6108db826106ce565b67ffffffffffffffff8111156108f4576108f3610321565b5b6108fe8254610705565b610909828285610849565b5f60209050601f83116001811461093a575f8415610928578287015190505b61093285826108b7565b865550610999565b601f19841661094886610735565b5f5b8281101561096f5784890151825560018201915060208501945060208101905061094a565b8683101561098c5784890151610988601f89168261089b565b8355505b6001600288020188555050505b50505050505056fea2646970667358221220c72d6f9c52a19ec29c1971484ece55435648c8fdffaf033cad53f3eb7d245cca64736f6c63430008170033",
			"opcodes": "PUSH1 0x80 PUSH1 0x40 MSTORE CALLVALUE DUP1 ISZERO PUSH2 0xF JUMPI PUSH0 DUP1 REVERT JUMPDEST POP PUSH2 0x9D7 DUP1 PUSH2 0x1D PUSH0 CODECOPY PUSH0 RETURN INVALID PUSH1 0x80 PUSH1 0x40 MSTORE CALLVALUE DUP1 ISZERO PUSH2 0xF JUMPI PUSH0 DUP1 REVERT JUMPDEST POP PUSH1 0x4 CALLDATASIZE LT PUSH2 0x4A JUMPI PUSH0 CALLDATALOAD PUSH1 0xE0 SHR DUP1 PUSH4 0x14DAB645 EQ PUSH2 0x4E JUMPI DUP1 PUSH4 0xCE8B0F54 EQ PUSH2 0x6A JUMPI DUP1 PUSH4 0xDB0D9E34 EQ PUSH2 0x86 JUMPI DUP1 PUSH4 0xDB2BB092 EQ PUSH2 0xA2 JUMPI JUMPDEST PUSH0 DUP1 REVERT JUMPDEST PUSH2 0x68 PUSH1 0x4 DUP1 CALLDATASIZE SUB DUP2 ADD SWAP1 PUSH2 0x63 SWAP2 SWAP1 PUSH2 0x5FF JUMP JUMPDEST PUSH2 0xBE JUMP JUMPDEST STOP JUMPDEST PUSH2 0x84 PUSH1 0x4 DUP1 CALLDATASIZE SUB DUP2 ADD SWAP1 PUSH2 0x7F SWAP2 SWAP1 PUSH2 0x646 JUMP JUMPDEST PUSH2 0x102 JUMP JUMPDEST STOP JUMPDEST PUSH2 0xA0 PUSH1 0x4 DUP1 CALLDATASIZE SUB DUP2 ADD SWAP1 PUSH2 0x9B SWAP2 SWAP1 PUSH2 0x646 JUMP JUMPDEST PUSH2 0x162 JUMP JUMPDEST STOP JUMPDEST PUSH2 0xBC PUSH1 0x4 DUP1 CALLDATASIZE SUB DUP2 ADD SWAP1 PUSH2 0xB7 SWAP2 SWAP1 PUSH2 0x5FF JUMP JUMPDEST PUSH2 0x1C1 JUMP JUMPDEST STOP JUMPDEST DUP1 PUSH1 0x3 PUSH0 DUP3 ADD MLOAD DUP2 PUSH0 ADD SWAP1 DUP2 PUSH2 0xD4 SWAP2 SWAP1 PUSH2 0x8D2 JUMP JUMPDEST POP PUSH1 0x20 DUP3 ADD MLOAD DUP2 PUSH1 0x1 ADD SSTORE PUSH1 0x40 DUP3 ADD MLOAD DUP2 PUSH1 0x2 ADD SWAP1 DUP1 MLOAD SWAP1 PUSH1 0x20 ADD SWAP1 PUSH2 0xFB SWAP3 SWAP2 SWAP1 PUSH2 0x22A JUMP JUMPDEST POP SWAP1 POP POP POP JUMP JUMPDEST PUSH1 0x40 MLOAD DUP1 PUSH1 0x60 ADD PUSH1 0x40 MSTORE DUP1 DUP5 DUP2 MSTORE PUSH1 0x20 ADD DUP4 DUP2 MSTORE PUSH1 0x20 ADD DUP3 DUP2 MSTORE POP PUSH1 0x6 PUSH0 DUP3 ADD MLOAD DUP2 PUSH0 ADD SWAP1 DUP2 PUSH2 0x132 SWAP2 SWAP1 PUSH2 0x8D2 JUMP JUMPDEST POP PUSH1 0x20 DUP3 ADD MLOAD DUP2 PUSH1 0x1 ADD SSTORE PUSH1 0x40 DUP3 ADD MLOAD DUP2 PUSH1 0x2 ADD SWAP1 DUP1 MLOAD SWAP1 PUSH1 0x20 ADD SWAP1 PUSH2 0x159 SWAP3 SWAP2 SWAP1 PUSH2 0x22A JUMP JUMPDEST POP SWAP1 POP POP POP POP POP JUMP JUMPDEST PUSH1 0x40 MLOAD DUP1 PUSH1 0x60 ADD PUSH1 0x40 MSTORE DUP1 DUP5 DUP2 MSTORE PUSH1 0x20 ADD DUP4 DUP2 MSTORE PUSH1 0x20 ADD DUP3 DUP2 MSTORE POP PUSH0 DUP1 DUP3 ADD MLOAD DUP2 PUSH0 ADD SWAP1 DUP2 PUSH2 0x191 SWAP2 SWAP1 PUSH2 0x8D2 JUMP JUMPDEST POP PUSH1 0x20 DUP3 ADD MLOAD DUP2 PUSH1 0x1 ADD SSTORE PUSH1 0x40 DUP3 ADD MLOAD DUP2 PUSH1 0x2 ADD SWAP1 DUP1 MLOAD SWAP1 PUSH1 0x20 ADD SWAP1 PUSH2 0x1B8 SWAP3 SWAP2 SWAP1 PUSH2 0x22A JUMP JUMPDEST POP SWAP1 POP POP POP POP POP JUMP JUMPDEST PUSH1 0x9 DUP2 SWAP1 DUP1 PUSH1 0x1 DUP2 SLOAD ADD DUP1 DUP3 SSTORE DUP1 SWAP2 POP POP PUSH1 0x1 SWAP1 SUB SWAP1 PUSH0 MSTORE PUSH1 0x20 PUSH0 KECCAK256 SWAP1 PUSH1 0x3 MUL ADD PUSH0 SWAP1 SWAP2 SWAP1 SWAP2 SWAP1 SWAP2 POP PUSH0 DUP3 ADD MLOAD DUP2 PUSH0 ADD SWAP1 DUP2 PUSH2 0x1FD SWAP2 SWAP1 PUSH2 0x8D2 JUMP JUMPDEST POP PUSH1 0x20 DUP3 ADD MLOAD DUP2 PUSH1 0x1 ADD SSTORE PUSH1 0x40 DUP3 ADD MLOAD DUP2 PUSH1 0x2 ADD SWAP1 DUP1 MLOAD SWAP1 PUSH1 0x20 ADD SWAP1 PUSH2 0x224 SWAP3 SWAP2 SWAP1 PUSH2 0x22A JUMP JUMPDEST POP POP POP POP JUMP JUMPDEST DUP3 DUP1 SLOAD DUP3 DUP3 SSTORE SWAP1 PUSH0 MSTORE PUSH1 0x20 PUSH0 KECCAK256 SWAP1 DUP2 ADD SWAP3 DUP3 ISZERO PUSH2 0x270 JUMPI SWAP2 PUSH1 0x20 MUL DUP3 ADD JUMPDEST DUP3 DUP2 GT ISZERO PUSH2 0x26F JUMPI DUP3 MLOAD DUP3 SWAP1 DUP2 PUSH2 0x25F SWAP2 SWAP1 PUSH2 0x8D2 JUMP JUMPDEST POP SWAP2 PUSH1 0x20 ADD SWAP2 SWAP1 PUSH1 0x1 ADD SWAP1 PUSH2 0x248 JUMP JUMPDEST JUMPDEST POP SWAP1 POP PUSH2 0x27D SWAP2 SWAP1 PUSH2 0x281 JUMP JUMPDEST POP SWAP1 JUMP JUMPDEST JUMPDEST DUP1 DUP3 GT ISZERO PUSH2 0x2A0 JUMPI PUSH0 DUP2 DUP2 PUSH2 0x297 SWAP2 SWAP1 PUSH2 0x2A4 JUMP JUMPDEST POP PUSH1 0x1 ADD PUSH2 0x282 JUMP JUMPDEST POP SWAP1 JUMP JUMPDEST POP DUP1 SLOAD PUSH2 0x2B0 SWAP1 PUSH2 0x705 JUMP JUMPDEST PUSH0 DUP3 SSTORE DUP1 PUSH1 0x1F LT PUSH2 0x2C1 JUMPI POP PUSH2 0x2DE JUMP JUMPDEST PUSH1 0x1F ADD PUSH1 0x20 SWAP1 DIV SWAP1 PUSH0 MSTORE PUSH1 0x20 PUSH0 KECCAK256 SWAP1 DUP2 ADD SWAP1 PUSH2 0x2DD SWAP2 SWAP1 PUSH2 0x2E1 JUMP JUMPDEST JUMPDEST POP JUMP JUMPDEST JUMPDEST DUP1 DUP3 GT ISZERO PUSH2 0x2F8 JUMPI PUSH0 DUP2 PUSH0 SWAP1 SSTORE POP PUSH1 0x1 ADD PUSH2 0x2E2 JUMP JUMPDEST POP SWAP1 JUMP JUMPDEST PUSH0 PUSH1 0x40 MLOAD SWAP1 POP SWAP1 JUMP JUMPDEST PUSH0 DUP1 REVERT JUMPDEST PUSH0 DUP1 REVERT JUMPDEST PUSH0 DUP1 REVERT JUMPDEST PUSH0 PUSH1 0x1F NOT PUSH1 0x1F DUP4 ADD AND SWAP1 POP SWAP2 SWAP1 POP JUMP JUMPDEST PUSH32 0x4E487B7100000000000000000000000000000000000000000000000000000000 PUSH0 MSTORE PUSH1 0x41 PUSH1 0x4 MSTORE PUSH1 0x24 PUSH0 REVERT JUMPDEST PUSH2 0x357 DUP3 PUSH2 0x311 JUMP JUMPDEST DUP2 ADD DUP2 DUP2 LT PUSH8 0xFFFFFFFFFFFFFFFF DUP3 GT OR ISZERO PUSH2 0x376 JUMPI PUSH2 0x375 PUSH2 0x321 JUMP JUMPDEST JUMPDEST DUP1 PUSH1 0x40 MSTORE POP POP POP JUMP JUMPDEST PUSH0 PUSH2 0x388 PUSH2 0x2FC JUMP JUMPDEST SWAP1 POP PUSH2 0x394 DUP3 DUP3 PUSH2 0x34E JUMP JUMPDEST SWAP2 SWAP1 POP JUMP JUMPDEST PUSH0 DUP1 REVERT JUMPDEST PUSH0 DUP1 REVERT JUMPDEST PUSH0 DUP1 REVERT JUMPDEST PUSH0 PUSH8 0xFFFFFFFFFFFFFFFF DUP3 GT ISZERO PUSH2 0x3BF JUMPI PUSH2 0x3BE PUSH2 0x321 JUMP JUMPDEST JUMPDEST PUSH2 0x3C8 DUP3 PUSH2 0x311 JUMP JUMPDEST SWAP1 POP PUSH1 0x20 DUP2 ADD SWAP1 POP SWAP2 SWAP1 POP JUMP JUMPDEST DUP3 DUP2 DUP4 CALLDATACOPY PUSH0 DUP4 DUP4 ADD MSTORE POP POP POP JUMP JUMPDEST PUSH0 PUSH2 0x3F5 PUSH2 0x3F0 DUP5 PUSH2 0x3A5 JUMP JUMPDEST PUSH2 0x37F JUMP JUMPDEST SWAP1 POP DUP3 DUP2 MSTORE PUSH1 0x20 DUP2 ADD DUP5 DUP5 DUP5 ADD GT ISZERO PUSH2 0x411 JUMPI PUSH2 0x410 PUSH2 0x3A1 JUMP JUMPDEST JUMPDEST PUSH2 0x41C DUP5 DUP3 DUP6 PUSH2 0x3D5 JUMP JUMPDEST POP SWAP4 SWAP3 POP POP POP JUMP JUMPDEST PUSH0 DUP3 PUSH1 0x1F DUP4 ADD SLT PUSH2 0x438 JUMPI PUSH2 0x437 PUSH2 0x39D JUMP JUMPDEST JUMPDEST DUP2 CALLDATALOAD PUSH2 0x448 DUP5 DUP3 PUSH1 0x20 DUP7 ADD PUSH2 0x3E3 JUMP JUMPDEST SWAP2 POP POP SWAP3 SWAP2 POP POP JUMP JUMPDEST PUSH0 DUP2 SWAP1 POP SWAP2 SWAP1 POP JUMP JUMPDEST PUSH2 0x463 DUP2 PUSH2 0x451 JUMP JUMPDEST DUP2 EQ PUSH2 0x46D JUMPI PUSH0 DUP1 REVERT JUMPDEST POP JUMP JUMPDEST PUSH0 DUP2 CALLDATALOAD SWAP1 POP PUSH2 0x47E DUP2 PUSH2 0x45A JUMP JUMPDEST SWAP3 SWAP2 POP POP JUMP JUMPDEST PUSH0 PUSH8 0xFFFFFFFFFFFFFFFF DUP3 GT ISZERO PUSH2 0x49E JUMPI PUSH2 0x49D PUSH2 0x321 JUMP JUMPDEST JUMPDEST PUSH1 0x20 DUP3 MUL SWAP1 POP PUSH1 0x20 DUP2 ADD SWAP1 POP SWAP2 SWAP1 POP JUMP JUMPDEST PUSH0 DUP1 REVERT JUMPDEST PUSH0 PUSH2 0x4C5 PUSH2 0x4C0 DUP5 PUSH2 0x484 JUMP JUMPDEST PUSH2 0x37F JUMP JUMPDEST SWAP1 POP DUP1 DUP4 DUP3 MSTORE PUSH1 0x20 DUP3 ADD SWAP1 POP PUSH1 0x20 DUP5 MUL DUP4 ADD DUP6 DUP2 GT ISZERO PUSH2 0x4E8 JUMPI PUSH2 0x4E7 PUSH2 0x4AF JUMP JUMPDEST JUMPDEST DUP4 JUMPDEST DUP2 DUP2 LT ISZERO PUSH2 0x52F JUMPI DUP1 CALLDATALOAD PUSH8 0xFFFFFFFFFFFFFFFF DUP2 GT ISZERO PUSH2 0x50D JUMPI PUSH2 0x50C PUSH2 0x39D JUMP JUMPDEST JUMPDEST DUP1 DUP7 ADD PUSH2 0x51A DUP10 DUP3 PUSH2 0x424 JUMP JUMPDEST DUP6 MSTORE PUSH1 0x20 DUP6 ADD SWAP5 POP POP POP PUSH1 0x20 DUP2 ADD SWAP1 POP PUSH2 0x4EA JUMP JUMPDEST POP POP POP SWAP4 SWAP3 POP POP POP JUMP JUMPDEST PUSH0 DUP3 PUSH1 0x1F DUP4 ADD SLT PUSH2 0x54D JUMPI PUSH2 0x54C PUSH2 0x39D JUMP JUMPDEST JUMPDEST DUP2 CALLDATALOAD PUSH2 0x55D DUP5 DUP3 PUSH1 0x20 DUP7 ADD PUSH2 0x4B3 JUMP JUMPDEST SWAP2 POP POP SWAP3 SWAP2 POP POP JUMP JUMPDEST PUSH0 PUSH1 0x60 DUP3 DUP5 SUB SLT ISZERO PUSH2 0x57B JUMPI PUSH2 0x57A PUSH2 0x30D JUMP JUMPDEST JUMPDEST PUSH2 0x585 PUSH1 0x60 PUSH2 0x37F JUMP JUMPDEST SWAP1 POP PUSH0 DUP3 ADD CALLDATALOAD PUSH8 0xFFFFFFFFFFFFFFFF DUP2 GT ISZERO PUSH2 0x5A4 JUMPI PUSH2 0x5A3 PUSH2 0x399 JUMP JUMPDEST JUMPDEST PUSH2 0x5B0 DUP5 DUP3 DUP6 ADD PUSH2 0x424 JUMP JUMPDEST PUSH0 DUP4 ADD MSTORE POP PUSH1 0x20 PUSH2 0x5C3 DUP5 DUP3 DUP6 ADD PUSH2 0x470 JUMP JUMPDEST PUSH1 0x20 DUP4 ADD MSTORE POP PUSH1 0x40 DUP3 ADD CALLDATALOAD PUSH8 0xFFFFFFFFFFFFFFFF DUP2 GT ISZERO PUSH2 0x5E7 JUMPI PUSH2 0x5E6 PUSH2 0x399 JUMP JUMPDEST JUMPDEST PUSH2 0x5F3 DUP5 DUP3 DUP6 ADD PUSH2 0x539 JUMP JUMPDEST PUSH1 0x40 DUP4 ADD MSTORE POP SWAP3 SWAP2 POP POP JUMP JUMPDEST PUSH0 PUSH1 0x20 DUP3 DUP5 SUB SLT ISZERO PUSH2 0x614 JUMPI PUSH2 0x613 PUSH2 0x305 JUMP JUMPDEST JUMPDEST PUSH0 DUP3 ADD CALLDATALOAD PUSH8 0xFFFFFFFFFFFFFFFF DUP2 GT ISZERO PUSH2 0x631 JUMPI PUSH2 0x630 PUSH2 0x309 JUMP JUMPDEST JUMPDEST PUSH2 0x63D DUP5 DUP3 DUP6 ADD PUSH2 0x566 JUMP JUMPDEST SWAP2 POP POP SWAP3 SWAP2 POP POP JUMP JUMPDEST PUSH0 DUP1 PUSH0 PUSH1 0x60 DUP5 DUP7 SUB SLT ISZERO PUSH2 0x65D JUMPI PUSH2 0x65C PUSH2 0x305 JUMP JUMPDEST JUMPDEST PUSH0 DUP5 ADD CALLDATALOAD PUSH8 0xFFFFFFFFFFFFFFFF DUP2 GT ISZERO PUSH2 0x67A JUMPI PUSH2 0x679 PUSH2 0x309 JUMP JUMPDEST JUMPDEST PUSH2 0x686 DUP7 DUP3 DUP8 ADD PUSH2 0x424 JUMP JUMPDEST SWAP4 POP POP PUSH1 0x20 PUSH2 0x697 DUP7 DUP3 DUP8 ADD PUSH2 0x470 JUMP JUMPDEST SWAP3 POP POP PUSH1 0x40 DUP5 ADD CALLDATALOAD PUSH8 0xFFFFFFFFFFFFFFFF DUP2 GT ISZERO PUSH2 0x6B8 JUMPI PUSH2 0x6B7 PUSH2 0x309 JUMP JUMPDEST JUMPDEST PUSH2 0x6C4 DUP7 DUP3 DUP8 ADD PUSH2 0x539 JUMP JUMPDEST SWAP2 POP POP SWAP3 POP SWAP3 POP SWAP3 JUMP JUMPDEST PUSH0 DUP2 MLOAD SWAP1 POP SWAP2 SWAP1 POP JUMP JUMPDEST PUSH32 0x4E487B7100000000000000000000000000000000000000000000000000000000 PUSH0 MSTORE PUSH1 0x22 PUSH1 0x4 MSTORE PUSH1 0x24 PUSH0 REVERT JUMPDEST PUSH0 PUSH1 0x2 DUP3 DIV SWAP1 POP PUSH1 0x1 DUP3 AND DUP1 PUSH2 0x71C JUMPI PUSH1 0x7F DUP3 AND SWAP2 POP JUMPDEST PUSH1 0x20 DUP3 LT DUP2 SUB PUSH2 0x72F JUMPI PUSH2 0x72E PUSH2 0x6D8 JUMP JUMPDEST JUMPDEST POP SWAP2 SWAP1 POP JUMP JUMPDEST PUSH0 DUP2 SWAP1 POP DUP2 PUSH0 MSTORE PUSH1 0x20 PUSH0 KECCAK256 SWAP1 POP SWAP2 SWAP1 POP JUMP JUMPDEST PUSH0 PUSH1 0x20 PUSH1 0x1F DUP4 ADD DIV SWAP1 POP SWAP2 SWAP1 POP JUMP JUMPDEST PUSH0 DUP3 DUP3 SHL SWAP1 POP SWAP3 SWAP2 POP POP JUMP JUMPDEST PUSH0 PUSH1 0x8 DUP4 MUL PUSH2 0x791 PUSH32 0xFFFFFFFFFFFFFFFFFFFFFFFFFFFFFFFFFFFFFFFFFFFFFFFFFFFFFFFFFFFFFFFF DUP3 PUSH2 0x756 JUMP JUMPDEST PUSH2 0x79B DUP7 DUP4 PUSH2 0x756 JUMP JUMPDEST SWAP6 POP DUP1 NOT DUP5 AND SWAP4 POP DUP1 DUP7 AND DUP5 OR SWAP3 POP POP POP SWAP4 SWAP3 POP POP POP JUMP JUMPDEST PUSH0 DUP2 SWAP1 POP SWAP2 SWAP1 POP JUMP JUMPDEST PUSH0 PUSH2 0x7D6 PUSH2 0x7D1 PUSH2 0x7CC DUP5 PUSH2 0x451 JUMP JUMPDEST PUSH2 0x7B3 JUMP JUMPDEST PUSH2 0x451 JUMP JUMPDEST SWAP1 POP SWAP2 SWAP1 POP JUMP JUMPDEST PUSH0 DUP2 SWAP1 POP SWAP2 SWAP1 POP JUMP JUMPDEST PUSH2 0x7EF DUP4 PUSH2 0x7BC JUMP JUMPDEST PUSH2 0x803 PUSH2 0x7FB DUP3 PUSH2 0x7DD JUMP JUMPDEST DUP5 DUP5 SLOAD PUSH2 0x762 JUMP JUMPDEST DUP3 SSTORE POP POP POP POP JUMP JUMPDEST PUSH0 SWAP1 JUMP JUMPDEST PUSH2 0x817 PUSH2 0x80B JUMP JUMPDEST PUSH2 0x822 DUP2 DUP5 DUP5 PUSH2 0x7E6 JUMP JUMPDEST POP POP POP JUMP JUMPDEST JUMPDEST DUP2 DUP2 LT ISZERO PUSH2 0x845 JUMPI PUSH2 0x83A PUSH0 DUP3 PUSH2 0x80F JUMP JUMPDEST PUSH1 0x1 DUP2 ADD SWAP1 POP PUSH2 0x828 JUMP JUMPDEST POP POP JUMP JUMPDEST PUSH1 0x1F DUP3 GT ISZERO PUSH2 0x88A JUMPI PUSH2 0x85B DUP2 PUSH2 0x735 JUMP JUMPDEST PUSH2 0x864 DUP5 PUSH2 0x747 JUMP JUMPDEST DUP2 ADD PUSH1 0x20 DUP6 LT ISZERO PUSH2 0x873 JUMPI DUP2 SWAP1 POP JUMPDEST PUSH2 0x887 PUSH2 0x87F DUP6 PUSH2 0x747 JUMP JUMPDEST DUP4 ADD DUP3 PUSH2 0x827 JUMP JUMPDEST POP POP JUMPDEST POP POP POP JUMP JUMPDEST PUSH0 DUP3 DUP3 SHR SWAP1 POP SWAP3 SWAP2 POP POP JUMP JUMPDEST PUSH0 PUSH2 0x8AA PUSH0 NOT DUP5 PUSH1 0x8 MUL PUSH2 0x88F JUMP JUMPDEST NOT DUP1 DUP4 AND SWAP2 POP POP SWAP3 SWAP2 POP POP JUMP JUMPDEST PUSH0 PUSH2 0x8C2 DUP4 DUP4 PUSH2 0x89B JUMP JUMPDEST SWAP2 POP DUP3 PUSH1 0x2 MUL DUP3 OR SWAP1 POP SWAP3 SWAP2 POP POP JUMP JUMPDEST PUSH2 0x8DB DUP3 PUSH2 0x6CE JUMP JUMPDEST PUSH8 0xFFFFFFFFFFFFFFFF DUP2 GT ISZERO PUSH2 0x8F4 JUMPI PUSH2 0x8F3 PUSH2 0x321 JUMP JUMPDEST JUMPDEST PUSH2 0x8FE DUP3 SLOAD PUSH2 0x705 JUMP JUMPDEST PUSH2 0x909 DUP3 DUP3 DUP6 PUSH2 0x849 JUMP JUMPDEST PUSH0 PUSH1 0x20 SWAP1 POP PUSH1 0x1F DUP4 GT PUSH1 0x1 DUP2 EQ PUSH2 0x93A JUMPI PUSH0 DUP5 ISZERO PUSH2 0x928 JUMPI DUP3 DUP8 ADD MLOAD SWAP1 POP JUMPDEST PUSH2 0x932 DUP6 DUP3 PUSH2 0x8B7 JUMP JUMPDEST DUP7 SSTORE POP PUSH2 0x999 JUMP JUMPDEST PUSH1 0x1F NOT DUP5 AND PUSH2 0x948 DUP7 PUSH2 0x735 JUMP JUMPDEST PUSH0 JUMPDEST DUP3 DUP2 LT ISZERO PUSH2 0x96F JUMPI DUP5 DUP10 ADD MLOAD DUP3 SSTORE PUSH1 0x1 DUP3 ADD SWAP2 POP PUSH1 0x20 DUP6 ADD SWAP5 POP PUSH1 0x20 DUP2 ADD SWAP1 POP PUSH2 0x94A JUMP JUMPDEST DUP7 DUP4 LT ISZERO PUSH2 0x98C JUMPI DUP5 DUP10 ADD MLOAD PUSH2 0x988 PUSH1 0x1F DUP10 AND DUP3 PUSH2 0x89B JUMP JUMPDEST DUP4 SSTORE POP JUMPDEST PUSH1 0x1 PUSH1 0x2 DUP9 MUL ADD DUP9 SSTORE POP POP POP JUMPDEST POP POP POP POP POP POP JUMP INVALID LOG2 PUSH5 0x6970667358 0x22 SLT KECCAK256 0xC7 0x2D PUSH16 0x9C52A19EC29C1971484ECE55435648C8 REVERT SELFDESTRUCT 0xAF SUB EXTCODECOPY 0xAD MSTORE8 RETURN 0xEB PUSH30 0x245CCA64736F6C6343000817003300000000000000000000000000000000 "
		},
		"gasEstimates": {
			"creation": {
				"codeDepositCost": "503800",
				"executionCost": "535",
				"totalCost": "504335"
			},
			"external": {
				"pushStudent((string,uint256,string[]))": "infinite",
				"setStudent1(string,uint256,string[])": "infinite",
				"setStudent2((string,uint256,string[]))": "infinite",
				"setStudent3(string,uint256,string[])": "infinite"
			}
		},
		"methodIdentifiers": {
			"pushStudent((string,uint256,string[]))": "db2bb092",
			"setStudent1(string,uint256,string[])": "db0d9e34",
			"setStudent2((string,uint256,string[]))": "14dab645",
			"setStudent3(string,uint256,string[])": "ce8b0f54"
		}
	},
	"abi": [
		{
			"inputs": [
				{
					"components": [
						{
							"internalType": "string",
							"name": "name",
							"type": "string"
						},
						{
							"internalType": "uint256",
							"name": "number",
							"type": "uint256"
						},
						{
							"internalType": "string[]",
							"name": "classes",
							"type": "string[]"
						}
					],
					"internalType": "struct STRUCT_4.student",
					"name": "_student",
					"type": "tuple"
				}
			],
			"name": "pushStudent",
			"outputs": [],
			"stateMutability": "nonpayable",
			"type": "function"
		},
		{
			"inputs": [
				{
					"internalType": "string",
					"name": "_name",
					"type": "string"
				},
				{
					"internalType": "uint256",
					"name": "_number",
					"type": "uint256"
				},
				{
					"internalType": "string[]",
					"name": "_classes",
					"type": "string[]"
				}
			],
			"name": "setStudent1",
			"outputs": [],
			"stateMutability": "nonpayable",
			"type": "function"
		},
		{
			"inputs": [
				{
					"components": [
						{
							"internalType": "string",
							"name": "name",
							"type": "string"
						},
						{
							"internalType": "uint256",
							"name": "number",
							"type": "uint256"
						},
						{
							"internalType": "string[]",
							"name": "classes",
							"type": "string[]"
						}
					],
					"internalType": "struct STRUCT_4.student",
					"name": "_student",
					"type": "tuple"
				}
			],
			"name": "setStudent2",
			"outputs": [],
			"stateMutability": "nonpayable",
			"type": "function"
		},
		{
			"inputs": [
				{
					"internalType": "string",
					"name": "_name",
					"type": "string"
				},
				{
					"internalType": "uint256",
					"name": "_number",
					"type": "uint256"
				},
				{
					"internalType": "string[]",
					"name": "_classes",
					"type": "string[]"
				}
			],
			"name": "setStudent3",
			"outputs": [],
			"stateMutability": "nonpayable",
			"type": "function"
		}
	]
}